{"@uma/core/contracts/oracle/implementation/Constants.sol":{"OptimisticOracleConstraints":{"abi":[{"inputs":[],"name":"ancillaryBytesLimit","outputs":[{"internalType":"uint256","name":"","type":"uint256"}],"stateMutability":"view","type":"function"}],"evm":{"bytecode":{"linkReferences":{},"object":"6088610038600b82828239805160001a607314602b57634e487b7160e01b600052600060045260246000fd5b30600052607381538281f3fe730000000000000000000000000000000000000000301460806040526004361060335760003560e01c8063c371dda7146038575b600080fd5b604061200081565b60405190815260200160405180910390f3fea2646970667358221220ba8466043de59826f7abd2791e34be49ec7d521a9c9d999baeb6c2afae1ec0f664736f6c63430008110033","opcodes":"PUSH1 0x88 PUSH2 0x38 PUSH1 0xB DUP3 DUP3 DUP3 CODECOPY DUP1 MLOAD PUSH1 0x0 BYTE PUSH1 0x73 EQ PUSH1 0x2B JUMPI PUSH4 0x4E487B71 PUSH1 0xE0 SHL PUSH1 0x0 MSTORE PUSH1 0x0 PUSH1 0x4 MSTORE PUSH1 0x24 PUSH1 0x0 REVERT JUMPDEST ADDRESS PUSH1 0x0 MSTORE PUSH1 0x73 DUP2 MSTORE8 DUP3 DUP2 RETURN INVALID PUSH20 0x0 ADDRESS EQ PUSH1 0x80 PUSH1 0x40 MSTORE PUSH1 0x4 CALLDATASIZE LT PUSH1 0x33 JUMPI PUSH1 0x0 CALLDATALOAD PUSH1 0xE0 SHR DUP1 PUSH4 0xC371DDA7 EQ PUSH1 0x38 JUMPI JUMPDEST PUSH1 0x0 DUP1 REVERT JUMPDEST PUSH1 0x40 PUSH2 0x2000 DUP2 JUMP JUMPDEST PUSH1 0x40 MLOAD SWAP1 DUP2 MSTORE PUSH1 0x20 ADD PUSH1 0x40 MLOAD DUP1 SWAP2 SUB SWAP1 RETURN INVALID LOG2 PUSH5 0x6970667358 0x22 SLT KECCAK256 0xBA DUP5 PUSH7 0x43DE59826F7AB 0xD2 PUSH26 0x1E34BE49EC7D521A9C9D999BAEB6C2AFAE1EC0F664736F6C6343 STOP ADDMOD GT STOP CALLER "},"methodIdentifiers":{"ancillaryBytesLimit()":"c371dda7"}}}}}