{"contracts/decentralist.sol":{"Decentralist":{"abi":[{"anonymous":false,"inputs":[{"indexed":true,"internalType":"uint256","name":"requestId","type":"uint256"}],"name":"ApprovedAddition","type":"event"},{"anonymous":false,"inputs":[{"indexed":true,"internalType":"uint256","name":"requestId","type":"uint256"}],"name":"ApprovedRemoval","type":"event"},{"anonymous":false,"inputs":[{"indexed":false,"internalType":"uint8","name":"version","type":"uint8"}],"name":"Initialized","type":"event"},{"anonymous":false,"inputs":[{"indexed":true,"internalType":"address","name":"previousOwner","type":"address"},{"indexed":true,"internalType":"address","name":"newOwner","type":"address"}],"name":"OwnershipTransferred","type":"event"},{"anonymous":false,"inputs":[{"indexed":true,"internalType":"uint256","name":"requestId","type":"uint256"},{"indexed":true,"internalType":"bytes32","name":"addressesHash","type":"bytes32"},{"indexed":false,"internalType":"address[]","name":"pendingAddresses","type":"address[]"}],"name":"ProposedAddition","type":"event"},{"anonymous":false,"inputs":[{"indexed":true,"internalType":"uint256","name":"requestId","type":"uint256"},{"indexed":true,"internalType":"bytes32","name":"addressesHash","type":"bytes32"},{"indexed":false,"internalType":"address[]","name":"pendingAddresses","type":"address[]"}],"name":"ProposedRemoval","type":"event"},{"anonymous":false,"inputs":[{"indexed":true,"internalType":"uint256","name":"requestId","type":"uint256"}],"name":"RejectedAddition","type":"event"},{"anonymous":false,"inputs":[{"indexed":true,"internalType":"uint256","name":"requestId","type":"uint256"}],"name":"RejectedRemoval","type":"event"},{"inputs":[{"internalType":"address[]","name":"_addresses","type":"address[]"}],"name":"addAddresses","outputs":[],"stateMutability":"nonpayable","type":"function"},{"inputs":[],"name":"addReward","outputs":[{"internalType":"uint256","name":"","type":"uint256"}],"stateMutability":"view","type":"function"},{"inputs":[{"internalType":"uint256","name":"_addReward","type":"uint256"},{"internalType":"uint256","name":"_removeReward","type":"uint256"}],"name":"adjustRewards","outputs":[],"stateMutability":"nonpayable","type":"function"},{"inputs":[],"name":"bondAmount","outputs":[{"internalType":"uint256","name":"","type":"uint256"}],"stateMutability":"view","type":"function"},{"inputs":[{"internalType":"uint256","name":"requestId","type":"uint256"},{"internalType":"address[]","name":"_addresses","type":"address[]"}],"name":"executeApprovedRequests","outputs":[],"stateMutability":"nonpayable","type":"function"},{"inputs":[],"name":"fixedAncillaryData","outputs":[{"internalType":"bytes","name":"","type":"bytes"}],"stateMutability":"view","type":"function"},{"inputs":[{"internalType":"bytes","name":"listCriteria","type":"bytes"},{"internalType":"string","name":"_title","type":"string"},{"internalType":"uint256","name":"_liveness","type":"uint256"},{"internalType":"uint256","name":"_bondAmount","type":"uint256"},{"internalType":"uint256","name":"_addReward","type":"uint256"},{"internalType":"uint256","name":"_removeReward","type":"uint256"},{"internalType":"address","name":"_owner","type":"address"}],"name":"initialize","outputs":[],"stateMutability":"nonpayable","type":"function"},{"inputs":[],"name":"liveness","outputs":[{"internalType":"uint256","name":"","type":"uint256"}],"stateMutability":"view","type":"function"},{"inputs":[{"internalType":"address","name":"","type":"address"}],"name":"onList","outputs":[{"internalType":"bool","name":"","type":"bool"}],"stateMutability":"view","type":"function"},{"inputs":[],"name":"owner","outputs":[{"internalType":"address","name":"","type":"address"}],"stateMutability":"view","type":"function"},{"inputs":[{"internalType":"bytes32","name":"","type":"bytes32"},{"internalType":"uint256","name":"timestamp","type":"uint256"},{"internalType":"bytes","name":"ancillaryData","type":"bytes"},{"internalType":"int256","name":"price","type":"int256"}],"name":"priceSettled","outputs":[],"stateMutability":"nonpayable","type":"function"},{"inputs":[{"internalType":"address[]","name":"_addresses","type":"address[]"}],"name":"removeAddresses","outputs":[],"stateMutability":"nonpayable","type":"function"},{"inputs":[],"name":"removeReward","outputs":[{"internalType":"uint256","name":"","type":"uint256"}],"stateMutability":"view","type":"function"},{"inputs":[],"name":"renounceOwnership","outputs":[],"stateMutability":"nonpayable","type":"function"},{"inputs":[{"internalType":"uint256","name":"","type":"uint256"}],"name":"requests","outputs":[{"internalType":"address","name":"proposer","type":"address"},{"internalType":"bytes32","name":"addressesHash","type":"bytes32"},{"internalType":"int256","name":"proposedPrice","type":"int256"},{"internalType":"uint256","name":"addressesCount","type":"uint256"},{"internalType":"enum Decentralist.Status","name":"status","type":"uint8"}],"stateMutability":"view","type":"function"},{"inputs":[],"name":"title","outputs":[{"internalType":"string","name":"","type":"string"}],"stateMutability":"view","type":"function"},{"inputs":[{"internalType":"address","name":"newOwner","type":"address"}],"name":"transferOwnership","outputs":[],"stateMutability":"nonpayable","type":"function"},{"inputs":[{"internalType":"address","name":"recipient","type":"address"},{"internalType":"uint256","name":"amount","type":"uint256"}],"name":"withdraw","outputs":[],"stateMutability":"nonpayable","type":"function"}],"evm":{"bytecode":{"linkReferences":{},"object":"60806040523480156200001157600080fd5b5062000032620000266200003860201b60201c565b6200004060201b60201c565b62000105565b600033905090565b60008060029054906101000a900473ffffffffffffffffffffffffffffffffffffffff16905081600060026101000a81548173ffffffffffffffffffffffffffffffffffffffff021916908373ffffffffffffffffffffffffffffffffffffffff1602179055508173ffffffffffffffffffffffffffffffffffffffff168173ffffffffffffffffffffffffffffffffffffffff167f8be0079c531659141344cd1fd0a4f28419497f9722a3daafe3b4186f6b6457e060405160405180910390a35050565b61429380620001156000396000f3fe608060405234801561001057600080fd5b50600436106101165760003560e01c806380f323a7116100a2578063a84eb99911610071578063a84eb999146102ad578063c8108ed9146102c9578063e59a58ee146102e5578063f2fde38b14610303578063f3fef3a31461031f57610116565b806380f323a71461022157806381d12c581461023f5780638da5cb5b14610273578063a837edd81461029157610116565b80635cae7fb5116100e95780635cae7fb51461018d5780636ad0690a146101ab5780636f626eb3146101c9578063715018a6146101f95780637eecf18d1461020357610116565b806304cc1fd51461011b578063257a0dc3146101375780633628731c146101535780634a79d50c1461016f575b600080fd5b610135600480360381019061013091906126fb565b61033b565b005b610151600480360381019061014c91906127de565b610b2d565b005b61016d6004803603810190610168919061283e565b610d4c565b005b61017761138f565b604051610184919061290a565b60405180910390f35b61019561141d565b6040516101a29190612981565b60405180910390f35b6101b36114ab565b6040516101c091906129b2565b60405180910390f35b6101e360048036038101906101de9190612a2b565b6114b1565b6040516101f09190612a73565b60405180910390f35b6102016114d1565b005b61020b6114e5565b60405161021891906129b2565b60405180910390f35b6102296114eb565b60405161023691906129b2565b60405180910390f35b61025960048036038101906102549190612a8e565b6114f1565b60405161026a959493929190612b5f565b60405180910390f35b61027b611554565b6040516102889190612bb2565b60405180910390f35b6102ab60048036038101906102a69190612bcd565b61157d565b005b6102c760048036038101906102c2919061283e565b611597565b005b6102e360048036038101906102de9190612cae565b611bcb565b005b6102ed611dff565b6040516102fa91906129b2565b60405180910390f35b61031d60048036038101906103189190612a2b565b611e05565b005b61033960048036038101906103349190612d88565b611e88565b005b60008284604051602001610350929190612e25565b6040516020818303038152906040528051906020012090506000600860008381526020019081526020016000205490506000600960008381526020019081526020016000206040518060a00160405290816000820160009054906101000a900473ffffffffffffffffffffffffffffffffffffffff1673ffffffffffffffffffffffffffffffffffffffff1673ffffffffffffffffffffffffffffffffffffffff1681526020016001820154815260200160028201548152602001600382015481526020016004820160009054906101000a900460ff16600381111561043957610438612ae8565b5b600381111561044b5761044a612ae8565b5b81525050905060008160400151036107b357600084146104cb5760028160800190600381111561047e5761047d612ae8565b5b9081600381111561049257610491612ae8565b5b81525050817fcc4705c4491ae801f7be42e93c4a6f44bb45771410be8332b9f1054000192cd360405160405180910390a2505050610b27565b600084036107b2576001816080019060038111156104ec576104eb612ae8565b5b90816003811115610500576104ff612ae8565b5b815250506000600454111561077d57600081606001516004546105239190612e7c565b90508073b4fbf271143f4fbf7b91a5ded31805e42b2208d673ffffffffffffffffffffffffffffffffffffffff166370a08231306040518263ffffffff1660e01b81526004016105739190612bb2565b602060405180830381865afa158015610590573d6000803e3d6000fd5b505050506040513d601f19601f820116820180604052508101906105b49190612ed3565b10156106e35773b4fbf271143f4fbf7b91a5ded31805e42b2208d673ffffffffffffffffffffffffffffffffffffffff1663a9059cbb836000015173b4fbf271143f4fbf7b91a5ded31805e42b2208d673ffffffffffffffffffffffffffffffffffffffff166370a08231306040518263ffffffff1660e01b815260040161063c9190612bb2565b602060405180830381865afa158015610659573d6000803e3d6000fd5b505050506040513d601f19601f8201168201806040525081019061067d9190612ed3565b6040518363ffffffff1660e01b815260040161069a929190612f00565b6020604051808303816000875af11580156106b9573d6000803e3d6000fd5b505050506040513d601f19601f820116820180604052508101906106dd9190612f55565b5061077b565b73b4fbf271143f4fbf7b91a5ded31805e42b2208d673ffffffffffffffffffffffffffffffffffffffff1663a9059cbb8360000151836040518363ffffffff1660e01b8152600401610736929190612f00565b6020604051808303816000875af1158015610755573d6000803e3d6000fd5b505050506040513d601f19601f820116820180604052508101906107799190612f55565b505b505b817f77a46b87206f22fcdccc5e3f24640def0a35b99106307b3ddb7b164f1f2ef7fe60405160405180910390a2505050610b27565b5b670de0b6b3a7640000816040015103610b2357670de0b6b3a7640000841461083b576002816080019060038111156107ee576107ed612ae8565b5b9081600381111561080257610801612ae8565b5b81525050817f76fba38ae676b322ed81426f919645168dffea04df349b2f0ed43f35c2d05a6f60405160405180910390a2505050610b27565b670de0b6b3a76400008403610b225760018160800190600381111561086357610862612ae8565b5b9081600381111561087757610876612ae8565b5b8152505060006003541115610af4576000816060015160035461089a9190612e7c565b90508073b4fbf271143f4fbf7b91a5ded31805e42b2208d673ffffffffffffffffffffffffffffffffffffffff166370a08231306040518263ffffffff1660e01b81526004016108ea9190612bb2565b602060405180830381865afa158015610907573d6000803e3d6000fd5b505050506040513d601f19601f8201168201806040525081019061092b9190612ed3565b1015610a5a5773b4fbf271143f4fbf7b91a5ded31805e42b2208d673ffffffffffffffffffffffffffffffffffffffff1663a9059cbb836000015173b4fbf271143f4fbf7b91a5ded31805e42b2208d673ffffffffffffffffffffffffffffffffffffffff166370a08231306040518263ffffffff1660e01b81526004016109b39190612bb2565b602060405180830381865afa1580156109d0573d6000803e3d6000fd5b505050506040513d601f19601f820116820180604052508101906109f49190612ed3565b6040518363ffffffff1660e01b8152600401610a11929190612f00565b6020604051808303816000875af1158015610a30573d6000803e3d6000fd5b505050506040513d601f19601f82011682018060405250810190610a549190612f55565b50610af2565b73b4fbf271143f4fbf7b91a5ded31805e42b2208d673ffffffffffffffffffffffffffffffffffffffff1663a9059cbb8360000151836040518363ffffffff1660e01b8152600401610aad929190612f00565b6020604051808303816000875af1158015610acc573d6000803e3d6000fd5b505050506040513d601f19601f82011682018060405250810190610af09190612f55565b505b505b817fe28d3c97821ea96836c04a2610aa7b163e30fde6d2eb1f72149a927006628f3e60405160405180910390a25b5b5050505b50505050565b60016003811115610b4157610b40612ae8565b5b6009600085815260200190815260200160002060040160009054906101000a900460ff166003811115610b7757610b76612ae8565b5b14610bb7576040517f08c379a0000000000000000000000000000000000000000000000000000000008152600401610bae90612fce565b60405180910390fd5b8181604051602001610bca9291906130ab565b60405160208183030381529060405280519060200120600960008581526020019081526020016000206001015414610c37576040517f08c379a0000000000000000000000000000000000000000000000000000000008152600401610c2e9061315c565b60405180910390fd5b60036009600085815260200190815260200160002060040160006101000a81548160ff02191690836003811115610c7157610c70612ae8565b5b021790555060006001600960008681526020019081526020016000206002015403610c9b57600190505b60005b600184849050610cae919061317c565b8111610d455781600a6000868685818110610ccc57610ccb6131b0565b5b9050602002016020810190610ce19190612a2b565b73ffffffffffffffffffffffffffffffffffffffff1673ffffffffffffffffffffffffffffffffffffffff16815260200190815260200160002060006101000a81548160ff0219169083151502179055508080610d3d906131df565b915050610c9e565b5050505050565b60005b600183839050610d5f919061317c565b8111610f2457600a6000848484818110610d7c57610d7b6131b0565b5b9050602002016020810190610d919190612a2b565b73ffffffffffffffffffffffffffffffffffffffff1673ffffffffffffffffffffffffffffffffffffffff16815260200190815260200160002060009054906101000a900460ff1615610e19576040517f08c379a0000000000000000000000000000000000000000000000000000000008152600401610e1090613299565b60405180910390fd5b6000600182610e2891906132b9565b90505b600184849050610e3b919061317c565b8111610f1057838382818110610e5457610e536131b0565b5b9050602002016020810190610e699190612a2b565b73ffffffffffffffffffffffffffffffffffffffff16848484818110610e9257610e916131b0565b5b9050602002016020810190610ea79190612a2b565b73ffffffffffffffffffffffffffffffffffffffff1603610efd576040517f08c379a0000000000000000000000000000000000000000000000000000000008152600401610ef490613339565b60405180910390fd5b8080610f08906131df565b915050610e2b565b508080610f1c906131df565b915050610d4f565b5060006007610f34600554611f27565b604051602001610f45929190613477565b604051602081830303815290604052905060004290506000610f6782846120af565b905060008383604051602001610f7e929190612e25565b60405160208183030381529060405280519060200120905060008686604051602001610fab9291906130ab565b60405160208183030381529060405280519060200120905060055460086000848152602001908152602001600020819055503360096000600554815260200190815260200160002060000160006101000a81548173ffffffffffffffffffffffffffffffffffffffff021916908373ffffffffffffffffffffffffffffffffffffffff1602179055508060096000600554815260200190815260200160002060010181905550670de0b6b3a7640000600960006005548152602001908152602001600020600201819055508686905060096000600554815260200190815260200160002060030181905550600083111561117957600073b4fbf271143f4fbf7b91a5ded31805e42b2208d673ffffffffffffffffffffffffffffffffffffffff166323b872dd3330876040518463ffffffff1660e01b81526004016110f2939291906134aa565b6020604051808303816000875af1158015611111573d6000803e3d6000fd5b505050506040513d601f19601f820116820180604052508101906111359190612f55565b905080611177576040517f08c379a000000000000000000000000000000000000000000000000000000000815260040161116e90613553565b60405180910390fd5b505b600083111561126e57600073b4fbf271143f4fbf7b91a5ded31805e42b2208d673ffffffffffffffffffffffffffffffffffffffff1663095ea7b373a5b9d8a0b0fa04ba71bdd68069661ed5c0848884866040518363ffffffff1660e01b81526004016111e7929190612f00565b6020604051808303816000875af1158015611206573d6000803e3d6000fd5b505050506040513d601f19601f8201168201806040525081019061122a9190612f55565b90508061126c576040517f08c379a0000000000000000000000000000000000000000000000000000000008152600401611263906135e5565b60405180910390fd5b505b73a5b9d8a0b0fa04ba71bdd68069661ed5c084888473ffffffffffffffffffffffffffffffffffffffff16637c82288f33307f5945535f4f525f4e4f5f51554552590000000000000000000000000000000000888a670de0b6b3a76400006040518763ffffffff1660e01b81526004016112ed96959493929190613605565b6020604051808303816000875af115801561130c573d6000803e3d6000fd5b505050506040513d601f19601f820116820180604052508101906113309190612ed3565b50806005547f3882d8098087be8b372a66575f9aaadd1c9911c055f66f010a47dfa65a6f431b8989604051611366929190613702565b60405180910390a360056000815480929190611381906131df565b919050555050505050505050565b6006805461139c90613388565b80601f01602080910402602001604051908101604052809291908181526020018280546113c890613388565b80156114155780601f106113ea57610100808354040283529160200191611415565b820191906000526020600020905b8154815290600101906020018083116113f857829003601f168201915b505050505081565b6007805461142a90613388565b80601f016020809104026020016040519081016040528092919081815260200182805461145690613388565b80156114a35780601f10611478576101008083540402835291602001916114a3565b820191906000526020600020905b81548152906001019060200180831161148657829003601f168201915b505050505081565b60025481565b600a6020528060005260406000206000915054906101000a900460ff1681565b6114d9612391565b6114e3600061240f565b565b60045481565b60015481565b60096020528060005260406000206000915090508060000160009054906101000a900473ffffffffffffffffffffffffffffffffffffffff16908060010154908060020154908060030154908060040160009054906101000a900460ff16905085565b60008060029054906101000a900473ffffffffffffffffffffffffffffffffffffffff16905090565b611585612391565b81600381905550806004819055505050565b60005b6001838390506115aa919061317c565b811161176e57600a60008484848181106115c7576115c66131b0565b5b90506020020160208101906115dc9190612a2b565b73ffffffffffffffffffffffffffffffffffffffff1673ffffffffffffffffffffffffffffffffffffffff16815260200190815260200160002060009054906101000a900460ff16611663576040517f08c379a000000000000000000000000000000000000000000000000000000000815260040161165a90613798565b60405180910390fd5b600060018261167291906132b9565b90505b600184849050611685919061317c565b811161175a5783838281811061169e5761169d6131b0565b5b90506020020160208101906116b39190612a2b565b73ffffffffffffffffffffffffffffffffffffffff168484848181106116dc576116db6131b0565b5b90506020020160208101906116f19190612a2b565b73ffffffffffffffffffffffffffffffffffffffff1603611747576040517f08c379a000000000000000000000000000000000000000000000000000000000815260040161173e90613339565b60405180910390fd5b8080611752906131df565b915050611675565b508080611766906131df565b91505061159a565b506000600761177e600554611f27565b60405160200161178f929190613477565b6040516020818303038152906040529050600042905060006117b182846120af565b9050600083836040516020016117c8929190612e25565b604051602081830303815290604052805190602001209050600086866040516020016117f59291906130ab565b60405160208183030381529060405280519060200120905060055460086000848152602001908152602001600020819055503360096000600554815260200190815260200160002060000160006101000a81548173ffffffffffffffffffffffffffffffffffffffff021916908373ffffffffffffffffffffffffffffffffffffffff1602179055508060096000600554815260200190815260200160002060010181905550600060096000600554815260200190815260200160002060020181905550868690506009600060055481526020019081526020016000206003018190555060008311156119bc57600073b4fbf271143f4fbf7b91a5ded31805e42b2208d673ffffffffffffffffffffffffffffffffffffffff166323b872dd3330876040518463ffffffff1660e01b8152600401611935939291906134aa565b6020604051808303816000875af1158015611954573d6000803e3d6000fd5b505050506040513d601f19601f820116820180604052508101906119789190612f55565b9050806119ba576040517f08c379a00000000000000000000000000000000000000000000000000000000081526004016119b190613553565b60405180910390fd5b505b6000831115611ab157600073b4fbf271143f4fbf7b91a5ded31805e42b2208d673ffffffffffffffffffffffffffffffffffffffff1663095ea7b373a5b9d8a0b0fa04ba71bdd68069661ed5c0848884866040518363ffffffff1660e01b8152600401611a2a929190612f00565b6020604051808303816000875af1158015611a49573d6000803e3d6000fd5b505050506040513d601f19601f82011682018060405250810190611a6d9190612f55565b905080611aaf576040517f08c379a0000000000000000000000000000000000000000000000000000000008152600401611aa6906135e5565b60405180910390fd5b505b73a5b9d8a0b0fa04ba71bdd68069661ed5c084888473ffffffffffffffffffffffffffffffffffffffff16637c82288f33307f5945535f4f525f4e4f5f51554552590000000000000000000000000000000000888a60006040518763ffffffff1660e01b8152600401611b29969594939291906137fd565b6020604051808303816000875af1158015611b48573d6000803e3d6000fd5b505050506040513d601f19601f82011682018060405250810190611b6c9190612ed3565b50806005547fbfd0a97b84e92dcff8d198f9ea115eb00f7460daffdf76d66b331e26a68703868989604051611ba2929190613702565b60405180910390a360056000815480929190611bbd906131df565b919050555050505050505050565b60008060019054906101000a900460ff16159050808015611bfc5750600160008054906101000a900460ff1660ff16105b80611c295750611c0b306124d4565b158015611c285750600160008054906101000a900460ff1660ff16145b5b611c68576040517f08c379a0000000000000000000000000000000000000000000000000000000008152600401611c5f906138d7565b60405180910390fd5b60016000806101000a81548160ff021916908360ff1602179055508015611ca5576001600060016101000a81548160ff0219169083151502179055505b6170808611611ce9576040517f08c379a0000000000000000000000000000000000000000000000000000000008152600401611ce090613969565b60405180910390fd5b64037e11d6008511611d30576040517f08c379a0000000000000000000000000000000000000000000000000000000008152600401611d27906139fb565b60405180910390fd5b87604051602001611d419190613b25565b60405160208183030381529060405260079081611d5e9190613cd4565b508660069081611d6e9190613e01565b50856002819055508460018190555083600381905550826004819055506001600581905550611d9c82611e05565b8015611df55760008060016101000a81548160ff0219169083151502179055507f7f26b83ff96e1f2b6a682f133852f6798a09c465da95921460cefb38474024986001604051611dec9190613f1b565b60405180910390a15b5050505050505050565b60035481565b611e0d612391565b600073ffffffffffffffffffffffffffffffffffffffff168173ffffffffffffffffffffffffffffffffffffffff1603611e7c576040517f08c379a0000000000000000000000000000000000000000000000000000000008152600401611e7390613fa8565b60405180910390fd5b611e858161240f565b50565b611e90612391565b73b4fbf271143f4fbf7b91a5ded31805e42b2208d673ffffffffffffffffffffffffffffffffffffffff1663a9059cbb83836040518363ffffffff1660e01b8152600401611edf929190612f00565b6020604051808303816000875af1158015611efe573d6000803e3d6000fd5b505050506040513d601f19601f82011682018060405250810190611f229190612f55565b505050565b606060008203611f6e576040518060400160405280600181526020017f300000000000000000000000000000000000000000000000000000000000000081525090506120aa565b600082905060005b60008214611fa0578080611f89906131df565b915050600a82611f999190613ff7565b9150611f76565b60008167ffffffffffffffff811115611fbc57611fbb61259a565b5b6040519080825280601f01601f191660200182016040528015611fee5781602001600182028036833780820191505090505b50905060008290505b600086146120a25760018161200c919061317c565b90506000600a808861201e9190613ff7565b6120289190612e7c565b87612033919061317c565b603061203f9190614028565b905060008160f81b90508084848151811061205d5761205c6131b0565b5b60200101907effffffffffffffffffffffffffffffffffffffffffffffffffffffffffffff1916908160001a905350600a886120999190613ff7565b97505050611ff7565b819450505050505b919050565b600073a5b9d8a0b0fa04ba71bdd68069661ed5c084888473ffffffffffffffffffffffffffffffffffffffff166311df92f17f5945535f4f525f4e4f5f51554552590000000000000000000000000000000000858573b4fbf271143f4fbf7b91a5ded31805e42b2208d660006040518663ffffffff1660e01b815260040161213b9594939291906140e3565b6020604051808303816000875af115801561215a573d6000803e3d6000fd5b505050506040513d601f19601f8201168201806040525081019061217e9190612ed3565b5073a5b9d8a0b0fa04ba71bdd68069661ed5c084888473ffffffffffffffffffffffffffffffffffffffff1663f327b0757f5945535f4f525f4e4f5f51554552590000000000000000000000000000000000858560008060016040518763ffffffff1660e01b81526004016121f89695949392919061413d565b600060405180830381600087803b15801561221257600080fd5b505af1158015612226573d6000803e3d6000fd5b5050505073a5b9d8a0b0fa04ba71bdd68069661ed5c084888473ffffffffffffffffffffffffffffffffffffffff1663473c45fe7f5945535f4f525f4e4f5f5155455259000000000000000000000000000000000085856002546040518563ffffffff1660e01b815260040161229f94939291906141a5565b600060405180830381600087803b1580156122b957600080fd5b505af11580156122cd573d6000803e3d6000fd5b5050505073a5b9d8a0b0fa04ba71bdd68069661ed5c084888473ffffffffffffffffffffffffffffffffffffffff1663ad5a755a7f5945535f4f525f4e4f5f5155455259000000000000000000000000000000000085856001546040518563ffffffff1660e01b815260040161234694939291906141a5565b6020604051808303816000875af1158015612365573d6000803e3d6000fd5b505050506040513d601f19601f820116820180604052508101906123899190612ed3565b905092915050565b6123996124f7565b73ffffffffffffffffffffffffffffffffffffffff166123b7611554565b73ffffffffffffffffffffffffffffffffffffffff161461240d576040517f08c379a00000000000000000000000000000000000000000000000000000000081526004016124049061423d565b60405180910390fd5b565b60008060029054906101000a900473ffffffffffffffffffffffffffffffffffffffff16905081600060026101000a81548173ffffffffffffffffffffffffffffffffffffffff021916908373ffffffffffffffffffffffffffffffffffffffff1602179055508173ffffffffffffffffffffffffffffffffffffffff168173ffffffffffffffffffffffffffffffffffffffff167f8be0079c531659141344cd1fd0a4f28419497f9722a3daafe3b4186f6b6457e060405160405180910390a35050565b6000808273ffffffffffffffffffffffffffffffffffffffff163b119050919050565b600033905090565b6000604051905090565b600080fd5b600080fd5b6000819050919050565b61252681612513565b811461253157600080fd5b50565b6000813590506125438161251d565b92915050565b6000819050919050565b61255c81612549565b811461256757600080fd5b50565b60008135905061257981612553565b92915050565b600080fd5b600080fd5b6000601f19601f8301169050919050565b7f4e487b7100000000000000000000000000000000000000000000000000000000600052604160045260246000fd5b6125d282612589565b810181811067ffffffffffffffff821117156125f1576125f061259a565b5b80604052505050565b60006126046124ff565b905061261082826125c9565b919050565b600067ffffffffffffffff8211156126305761262f61259a565b5b61263982612589565b9050602081019050919050565b82818337600083830152505050565b600061266861266384612615565b6125fa565b90508281526020810184848401111561268457612683612584565b5b61268f848285612646565b509392505050565b600082601f8301126126ac576126ab61257f565b5b81356126bc848260208601612655565b91505092915050565b6000819050919050565b6126d8816126c5565b81146126e357600080fd5b50565b6000813590506126f5816126cf565b92915050565b6000806000806080858703121561271557612714612509565b5b600061272387828801612534565b94505060206127348782880161256a565b935050604085013567ffffffffffffffff8111156127555761275461250e565b5b61276187828801612697565b9250506060612772878288016126e6565b91505092959194509250565b600080fd5b600080fd5b60008083601f84011261279e5761279d61257f565b5b8235905067ffffffffffffffff8111156127bb576127ba61277e565b5b6020830191508360208202830111156127d7576127d6612783565b5b9250929050565b6000806000604084860312156127f7576127f6612509565b5b60006128058682870161256a565b935050602084013567ffffffffffffffff8111156128265761282561250e565b5b61283286828701612788565b92509250509250925092565b6000806020838503121561285557612854612509565b5b600083013567ffffffffffffffff8111156128735761287261250e565b5b61287f85828601612788565b92509250509250929050565b600081519050919050565b600082825260208201905092915050565b60005b838110156128c55780820151818401526020810190506128aa565b60008484015250505050565b60006128dc8261288b565b6128e68185612896565b93506128f68185602086016128a7565b6128ff81612589565b840191505092915050565b6000602082019050818103600083015261292481846128d1565b905092915050565b600081519050919050565b600082825260208201905092915050565b60006129538261292c565b61295d8185612937565b935061296d8185602086016128a7565b61297681612589565b840191505092915050565b6000602082019050818103600083015261299b8184612948565b905092915050565b6129ac81612549565b82525050565b60006020820190506129c760008301846129a3565b92915050565b600073ffffffffffffffffffffffffffffffffffffffff82169050919050565b60006129f8826129cd565b9050919050565b612a08816129ed565b8114612a1357600080fd5b50565b600081359050612a25816129ff565b92915050565b600060208284031215612a4157612a40612509565b5b6000612a4f84828501612a16565b91505092915050565b60008115159050919050565b612a6d81612a58565b82525050565b6000602082019050612a886000830184612a64565b92915050565b600060208284031215612aa457612aa3612509565b5b6000612ab28482850161256a565b91505092915050565b612ac4816129ed565b82525050565b612ad381612513565b82525050565b612ae2816126c5565b82525050565b7f4e487b7100000000000000000000000000000000000000000000000000000000600052602160045260246000fd5b60048110612b2857612b27612ae8565b5b50565b6000819050612b3982612b17565b919050565b6000612b4982612b2b565b9050919050565b612b5981612b3e565b82525050565b600060a082019050612b746000830188612abb565b612b816020830187612aca565b612b8e6040830186612ad9565b612b9b60608301856129a3565b612ba86080830184612b50565b9695505050505050565b6000602082019050612bc76000830184612abb565b92915050565b60008060408385031215612be457612be3612509565b5b6000612bf28582860161256a565b9250506020612c038582860161256a565b9150509250929050565b600067ffffffffffffffff821115612c2857612c2761259a565b5b612c3182612589565b9050602081019050919050565b6000612c51612c4c84612c0d565b6125fa565b905082815260208101848484011115612c6d57612c6c612584565b5b612c78848285612646565b509392505050565b600082601f830112612c9557612c9461257f565b5b8135612ca5848260208601612c3e565b91505092915050565b600080600080600080600060e0888a031215612ccd57612ccc612509565b5b600088013567ffffffffffffffff811115612ceb57612cea61250e565b5b612cf78a828b01612697565b975050602088013567ffffffffffffffff811115612d1857612d1761250e565b5b612d248a828b01612c80565b9650506040612d358a828b0161256a565b9550506060612d468a828b0161256a565b9450506080612d578a828b0161256a565b93505060a0612d688a828b0161256a565b92505060c0612d798a828b01612a16565b91505092959891949750929550565b60008060408385031215612d9f57612d9e612509565b5b6000612dad85828601612a16565b9250506020612dbe8582860161256a565b9150509250929050565b600081905092915050565b6000612dde8261292c565b612de88185612dc8565b9350612df88185602086016128a7565b80840191505092915050565b6000819050919050565b612e1f612e1a82612549565b612e04565b82525050565b6000612e318285612dd3565b9150612e3d8284612e0e565b6020820191508190509392505050565b7f4e487b7100000000000000000000000000000000000000000000000000000000600052601160045260246000fd5b6000612e8782612549565b9150612e9283612549565b9250828202612ea081612549565b91508282048414831517612eb757612eb6612e4d565b5b5092915050565b600081519050612ecd81612553565b92915050565b600060208284031215612ee957612ee8612509565b5b6000612ef784828501612ebe565b91505092915050565b6000604082019050612f156000830185612abb565b612f2260208301846129a3565b9392505050565b612f3281612a58565b8114612f3d57600080fd5b50565b600081519050612f4f81612f29565b92915050565b600060208284031215612f6b57612f6a612509565b5b6000612f7984828501612f40565b91505092915050565b7f726571756573744964206973206e6f7420617070726f76656400000000000000600082015250565b6000612fb8601983612896565b9150612fc382612f82565b602082019050919050565b60006020820190508181036000830152612fe781612fab565b9050919050565b600081905092915050565b6000819050919050565b61300c816129ed565b82525050565b600061301e8383613003565b60208301905092915050565b60006130396020840184612a16565b905092915050565b6000602082019050919050565b600061305a8385612fee565b935061306582612ff9565b8060005b8581101561309e5761307b828461302a565b6130858882613012565b975061309083613041565b925050600181019050613069565b5085925050509392505050565b60006130b882848661304e565b91508190509392505050565b7f6164647265737365732070726f766964656420646f206e6f74206d617463682060008201527f7468652070726f7669646564207265717565737449642773206164647265737360208201527f6573486173680000000000000000000000000000000000000000000000000000604082015250565b6000613146604683612896565b9150613151826130c4565b606082019050919050565b6000602082019050818103600083015261317581613139565b9050919050565b600061318782612549565b915061319283612549565b92508282039050818111156131aa576131a9612e4d565b5b92915050565b7f4e487b7100000000000000000000000000000000000000000000000000000000600052603260045260246000fd5b60006131ea82612549565b91507fffffffffffffffffffffffffffffffffffffffffffffffffffffffffffffffff820361321c5761321b612e4d565b5b600182019050919050565b7f6174206c656173742031206164647265737320697320616c7265616479206f6e60008201527f206c697374000000000000000000000000000000000000000000000000000000602082015250565b6000613283602583612896565b915061328e82613227565b604082019050919050565b600060208201905081810360008301526132b281613276565b9050919050565b60006132c482612549565b91506132cf83612549565b92508282019050808211156132e7576132e6612e4d565b5b92915050565b7f61646472657373657320636f6e7461696e206475706c69636174650000000000600082015250565b6000613323601b83612896565b915061332e826132ed565b602082019050919050565b6000602082019050818103600083015261335281613316565b9050919050565b7f4e487b7100000000000000000000000000000000000000000000000000000000600052602260045260246000fd5b600060028204905060018216806133a057607f821691505b6020821081036133b3576133b2613359565b5b50919050565b60008190508160005260206000209050919050565b600081546133db81613388565b6133e58186612dc8565b94506001821660008114613400576001811461341557613448565b60ff1983168652811515820286019350613448565b61341e856133b9565b60005b8381101561344057815481890152600182019150602081019050613421565b838801955050505b50505092915050565b7f2052657175657374204944203d20000000000000000000000000000000000000815250565b600061348382856133ce565b915061348e82613451565b600e8201915061349e8284612dd3565b91508190509392505050565b60006060820190506134bf6000830186612abb565b6134cc6020830185612abb565b6134d960408301846129a3565b949350505050565b7f7472616e73666572206f6620626f6e6420616d6f756e7420746f204c6973742060008201527f636f6e7472616374206661696c65640000000000000000000000000000000000602082015250565b600061353d602f83612896565b9150613548826134e1565b604082019050919050565b6000602082019050818103600083015261356c81613530565b9050919050565b7f617070726f76616c206f6620626f6e6420616d6f756e742066726f6d204c697360008201527f7420636f6e747261637420746f204f7261636c65206661696c65640000000000602082015250565b60006135cf603b83612896565b91506135da82613573565b604082019050919050565b600060208201905081810360008301526135fe816135c2565b9050919050565b600060c08201905061361a6000830189612abb565b6136276020830188612abb565b6136346040830187612aca565b61364160608301866129a3565b81810360808301526136538185612948565b905061366260a0830184612ad9565b979650505050505050565b600082825260208201905092915050565b613687816129ed565b82525050565b6000613699838361367e565b60208301905092915050565b60006136b1838561366d565b93506136bc82612ff9565b8060005b858110156136f5576136d2828461302a565b6136dc888261368d565b97506136e783613041565b9250506001810190506136c0565b5085925050509392505050565b6000602082019050818103600083015261371d8184866136a5565b90509392505050565b7f6174206c6561737420312061646472657373206973206e6f74206f6e206c697360008201527f7400000000000000000000000000000000000000000000000000000000000000602082015250565b6000613782602183612896565b915061378d82613726565b604082019050919050565b600060208201905081810360008301526137b181613775565b9050919050565b6000819050919050565b6000819050919050565b60006137e76137e26137dd846137b8565b6137c2565b6126c5565b9050919050565b6137f7816137cc565b82525050565b600060c0820190506138126000830189612abb565b61381f6020830188612abb565b61382c6040830187612aca565b61383960608301866129a3565b818103608083015261384b8185612948565b905061385a60a08301846137ee565b979650505050505050565b7f496e697469616c697a61626c653a20636f6e747261637420697320616c72656160008201527f647920696e697469616c697a6564000000000000000000000000000000000000602082015250565b60006138c1602e83612896565b91506138cc82613865565b604082019050919050565b600060208201905081810360008301526138f0816138b4565b9050919050565b7f6c6976656e657373206d757374206265203820686f757273206f72206772656160008201527f7465720000000000000000000000000000000000000000000000000000000000602082015250565b6000613953602383612896565b915061395e826138f7565b604082019050919050565b6000602082019050818103600083015261398281613946565b9050919050565b7f626f6e64206d75737420626520313530302057455448206f722067726561746560008201527f7200000000000000000000000000000000000000000000000000000000000000602082015250565b60006139e5602183612896565b91506139f082613989565b604082019050919050565b60006020820190508181036000830152613a14816139d8565b9050919050565b7f2e2041646472657373657320746f2071756572792063616e20626520666f756e60008201527f6420696e207468652070656e64696e6741646472657373657320706172616d6560208201527f746572206f66207468652050726f706f7365644164646974696f6e206576656e60408201527f7420656d6974746564206279207468652072657175657374657227732061646460608201527f7265737320696e207468652073616d65207472616e73616374696f6e2061732060808201527f7468652070726f706f7365642070726963652e0000000000000000000000000060a082015250565b6000613b0f60b383612dc8565b9150613b1a82613a1b565b60b382019050919050565b6000613b318284612dd3565b9150613b3c82613b02565b915081905092915050565b60006020601f8301049050919050565b600082821b905092915050565b600060088302613b947fffffffffffffffffffffffffffffffffffffffffffffffffffffffffffffffff82613b57565b613b9e8683613b57565b95508019841693508086168417925050509392505050565b6000613bd1613bcc613bc784612549565b6137c2565b612549565b9050919050565b6000819050919050565b613beb83613bb6565b613bff613bf782613bd8565b848454613b64565b825550505050565b600090565b613c14613c07565b613c1f818484613be2565b505050565b5b81811015613c4357613c38600082613c0c565b600181019050613c25565b5050565b601f821115613c8857613c59816133b9565b613c6284613b47565b81016020851015613c71578190505b613c85613c7d85613b47565b830182613c24565b50505b505050565b600082821c905092915050565b6000613cab60001984600802613c8d565b1980831691505092915050565b6000613cc48383613c9a565b9150826002028217905092915050565b613cdd8261292c565b67ffffffffffffffff811115613cf657613cf561259a565b5b613d008254613388565b613d0b828285613c47565b600060209050601f831160018114613d3e5760008415613d2c578287015190505b613d368582613cb8565b865550613d9e565b601f198416613d4c866133b9565b60005b82811015613d7457848901518255600182019150602085019450602081019050613d4f565b86831015613d915784890151613d8d601f891682613c9a565b8355505b6001600288020188555050505b505050505050565b60008190508160005260206000209050919050565b601f821115613dfc57613dcd81613da6565b613dd684613b47565b81016020851015613de5578190505b613df9613df185613b47565b830182613c24565b50505b505050565b613e0a8261288b565b67ffffffffffffffff811115613e2357613e2261259a565b5b613e2d8254613388565b613e38828285613dbb565b600060209050601f831160018114613e6b5760008415613e59578287015190505b613e638582613cb8565b865550613ecb565b601f198416613e7986613da6565b60005b82811015613ea157848901518255600182019150602085019450602081019050613e7c565b86831015613ebe5784890151613eba601f891682613c9a565b8355505b6001600288020188555050505b505050505050565b6000819050919050565b600060ff82169050919050565b6000613f05613f00613efb84613ed3565b6137c2565b613edd565b9050919050565b613f1581613eea565b82525050565b6000602082019050613f306000830184613f0c565b92915050565b7f4f776e61626c653a206e6577206f776e657220697320746865207a65726f206160008201527f6464726573730000000000000000000000000000000000000000000000000000602082015250565b6000613f92602683612896565b9150613f9d82613f36565b604082019050919050565b60006020820190508181036000830152613fc181613f85565b9050919050565b7f4e487b7100000000000000000000000000000000000000000000000000000000600052601260045260246000fd5b600061400282612549565b915061400d83612549565b92508261401d5761401c613fc8565b5b828204905092915050565b600061403382613edd565b915061403e83613edd565b9250828201905060ff81111561405757614056612e4d565b5b92915050565b600061407861407361406e846129cd565b6137c2565b6129cd565b9050919050565b600061408a8261405d565b9050919050565b600061409c8261407f565b9050919050565b6140ac81614091565b82525050565b60006140cd6140c86140c3846137b8565b6137c2565b612549565b9050919050565b6140dd816140b2565b82525050565b600060a0820190506140f86000830188612aca565b61410560208301876129a3565b81810360408301526141178186612948565b905061412660608301856140a3565b61413360808301846140d4565b9695505050505050565b600060c0820190506141526000830189612aca565b61415f60208301886129a3565b81810360408301526141718187612948565b90506141806060830186612a64565b61418d6080830185612a64565b61419a60a0830184612a64565b979650505050505050565b60006080820190506141ba6000830187612aca565b6141c760208301866129a3565b81810360408301526141d98185612948565b90506141e860608301846129a3565b95945050505050565b7f4f776e61626c653a2063616c6c6572206973206e6f7420746865206f776e6572600082015250565b6000614227602083612896565b9150614232826141f1565b602082019050919050565b600060208201905081810360008301526142568161421a565b905091905056fea2646970667358221220c9c0e98a4cc6b767dad2d1b4dc2d211acf31b16c1de35b2b1d1472df45d9830d64736f6c63430008110033","opcodes":"PUSH1 0x80 PUSH1 0x40 MSTORE CALLVALUE DUP1 ISZERO PUSH3 0x11 JUMPI PUSH1 0x0 DUP1 REVERT JUMPDEST POP PUSH3 0x32 PUSH3 0x26 PUSH3 0x38 PUSH1 0x20 SHL PUSH1 0x20 SHR JUMP JUMPDEST PUSH3 0x40 PUSH1 0x20 SHL PUSH1 0x20 SHR JUMP JUMPDEST PUSH3 0x105 JUMP JUMPDEST PUSH1 0x0 CALLER SWAP1 POP SWAP1 JUMP JUMPDEST PUSH1 0x0 DUP1 PUSH1 0x2 SWAP1 SLOAD SWAP1 PUSH2 0x100 EXP SWAP1 DIV PUSH20 0xFFFFFFFFFFFFFFFFFFFFFFFFFFFFFFFFFFFFFFFF AND SWAP1 POP DUP2 PUSH1 0x0 PUSH1 0x2 PUSH2 0x100 EXP DUP2 SLOAD DUP2 PUSH20 0xFFFFFFFFFFFFFFFFFFFFFFFFFFFFFFFFFFFFFFFF MUL NOT AND SWAP1 DUP4 PUSH20 0xFFFFFFFFFFFFFFFFFFFFFFFFFFFFFFFFFFFFFFFF AND MUL OR SWAP1 SSTORE POP DUP2 PUSH20 0xFFFFFFFFFFFFFFFFFFFFFFFFFFFFFFFFFFFFFFFF AND DUP2 PUSH20 0xFFFFFFFFFFFFFFFFFFFFFFFFFFFFFFFFFFFFFFFF AND PUSH32 0x8BE0079C531659141344CD1FD0A4F28419497F9722A3DAAFE3B4186F6B6457E0 PUSH1 0x40 MLOAD PUSH1 0x40 MLOAD DUP1 SWAP2 SUB SWAP1 LOG3 POP POP JUMP JUMPDEST PUSH2 0x4293 DUP1 PUSH3 0x115 PUSH1 0x0 CODECOPY PUSH1 0x0 RETURN INVALID PUSH1 0x80 PUSH1 0x40 MSTORE CALLVALUE DUP1 ISZERO PUSH2 0x10 JUMPI PUSH1 0x0 DUP1 REVERT JUMPDEST POP PUSH1 0x4 CALLDATASIZE LT PUSH2 0x116 JUMPI PUSH1 0x0 CALLDATALOAD PUSH1 0xE0 SHR DUP1 PUSH4 0x80F323A7 GT PUSH2 0xA2 JUMPI DUP1 PUSH4 0xA84EB999 GT PUSH2 0x71 JUMPI DUP1 PUSH4 0xA84EB999 EQ PUSH2 0x2AD JUMPI DUP1 PUSH4 0xC8108ED9 EQ PUSH2 0x2C9 JUMPI DUP1 PUSH4 0xE59A58EE EQ PUSH2 0x2E5 JUMPI DUP1 PUSH4 0xF2FDE38B EQ PUSH2 0x303 JUMPI DUP1 PUSH4 0xF3FEF3A3 EQ PUSH2 0x31F JUMPI PUSH2 0x116 JUMP JUMPDEST DUP1 PUSH4 0x80F323A7 EQ PUSH2 0x221 JUMPI DUP1 PUSH4 0x81D12C58 EQ PUSH2 0x23F JUMPI DUP1 PUSH4 0x8DA5CB5B EQ PUSH2 0x273 JUMPI DUP1 PUSH4 0xA837EDD8 EQ PUSH2 0x291 JUMPI PUSH2 0x116 JUMP JUMPDEST DUP1 PUSH4 0x5CAE7FB5 GT PUSH2 0xE9 JUMPI DUP1 PUSH4 0x5CAE7FB5 EQ PUSH2 0x18D JUMPI DUP1 PUSH4 0x6AD0690A EQ PUSH2 0x1AB JUMPI DUP1 PUSH4 0x6F626EB3 EQ PUSH2 0x1C9 JUMPI DUP1 PUSH4 0x715018A6 EQ PUSH2 0x1F9 JUMPI DUP1 PUSH4 0x7EECF18D EQ PUSH2 0x203 JUMPI PUSH2 0x116 JUMP JUMPDEST DUP1 PUSH4 0x4CC1FD5 EQ PUSH2 0x11B JUMPI DUP1 PUSH4 0x257A0DC3 EQ PUSH2 0x137 JUMPI DUP1 PUSH4 0x3628731C EQ PUSH2 0x153 JUMPI DUP1 PUSH4 0x4A79D50C EQ PUSH2 0x16F JUMPI JUMPDEST PUSH1 0x0 DUP1 REVERT JUMPDEST PUSH2 0x135 PUSH1 0x4 DUP1 CALLDATASIZE SUB DUP2 ADD SWAP1 PUSH2 0x130 SWAP2 SWAP1 PUSH2 0x26FB JUMP JUMPDEST PUSH2 0x33B JUMP JUMPDEST STOP JUMPDEST PUSH2 0x151 PUSH1 0x4 DUP1 CALLDATASIZE SUB DUP2 ADD SWAP1 PUSH2 0x14C SWAP2 SWAP1 PUSH2 0x27DE JUMP JUMPDEST PUSH2 0xB2D JUMP JUMPDEST STOP JUMPDEST PUSH2 0x16D PUSH1 0x4 DUP1 CALLDATASIZE SUB DUP2 ADD SWAP1 PUSH2 0x168 SWAP2 SWAP1 PUSH2 0x283E JUMP JUMPDEST PUSH2 0xD4C JUMP JUMPDEST STOP JUMPDEST PUSH2 0x177 PUSH2 0x138F JUMP JUMPDEST PUSH1 0x40 MLOAD PUSH2 0x184 SWAP2 SWAP1 PUSH2 0x290A JUMP JUMPDEST PUSH1 0x40 MLOAD DUP1 SWAP2 SUB SWAP1 RETURN JUMPDEST PUSH2 0x195 PUSH2 0x141D JUMP JUMPDEST PUSH1 0x40 MLOAD PUSH2 0x1A2 SWAP2 SWAP1 PUSH2 0x2981 JUMP JUMPDEST PUSH1 0x40 MLOAD DUP1 SWAP2 SUB SWAP1 RETURN JUMPDEST PUSH2 0x1B3 PUSH2 0x14AB JUMP JUMPDEST PUSH1 0x40 MLOAD PUSH2 0x1C0 SWAP2 SWAP1 PUSH2 0x29B2 JUMP JUMPDEST PUSH1 0x40 MLOAD DUP1 SWAP2 SUB SWAP1 RETURN JUMPDEST PUSH2 0x1E3 PUSH1 0x4 DUP1 CALLDATASIZE SUB DUP2 ADD SWAP1 PUSH2 0x1DE SWAP2 SWAP1 PUSH2 0x2A2B JUMP JUMPDEST PUSH2 0x14B1 JUMP JUMPDEST PUSH1 0x40 MLOAD PUSH2 0x1F0 SWAP2 SWAP1 PUSH2 0x2A73 JUMP JUMPDEST PUSH1 0x40 MLOAD DUP1 SWAP2 SUB SWAP1 RETURN JUMPDEST PUSH2 0x201 PUSH2 0x14D1 JUMP JUMPDEST STOP JUMPDEST PUSH2 0x20B PUSH2 0x14E5 JUMP JUMPDEST PUSH1 0x40 MLOAD PUSH2 0x218 SWAP2 SWAP1 PUSH2 0x29B2 JUMP JUMPDEST PUSH1 0x40 MLOAD DUP1 SWAP2 SUB SWAP1 RETURN JUMPDEST PUSH2 0x229 PUSH2 0x14EB JUMP JUMPDEST PUSH1 0x40 MLOAD PUSH2 0x236 SWAP2 SWAP1 PUSH2 0x29B2 JUMP JUMPDEST PUSH1 0x40 MLOAD DUP1 SWAP2 SUB SWAP1 RETURN JUMPDEST PUSH2 0x259 PUSH1 0x4 DUP1 CALLDATASIZE SUB DUP2 ADD SWAP1 PUSH2 0x254 SWAP2 SWAP1 PUSH2 0x2A8E JUMP JUMPDEST PUSH2 0x14F1 JUMP JUMPDEST PUSH1 0x40 MLOAD PUSH2 0x26A SWAP6 SWAP5 SWAP4 SWAP3 SWAP2 SWAP1 PUSH2 0x2B5F JUMP JUMPDEST PUSH1 0x40 MLOAD DUP1 SWAP2 SUB SWAP1 RETURN JUMPDEST PUSH2 0x27B PUSH2 0x1554 JUMP JUMPDEST PUSH1 0x40 MLOAD PUSH2 0x288 SWAP2 SWAP1 PUSH2 0x2BB2 JUMP JUMPDEST PUSH1 0x40 MLOAD DUP1 SWAP2 SUB SWAP1 RETURN JUMPDEST PUSH2 0x2AB PUSH1 0x4 DUP1 CALLDATASIZE SUB DUP2 ADD SWAP1 PUSH2 0x2A6 SWAP2 SWAP1 PUSH2 0x2BCD JUMP JUMPDEST PUSH2 0x157D JUMP JUMPDEST STOP JUMPDEST PUSH2 0x2C7 PUSH1 0x4 DUP1 CALLDATASIZE SUB DUP2 ADD SWAP1 PUSH2 0x2C2 SWAP2 SWAP1 PUSH2 0x283E JUMP JUMPDEST PUSH2 0x1597 JUMP JUMPDEST STOP JUMPDEST PUSH2 0x2E3 PUSH1 0x4 DUP1 CALLDATASIZE SUB DUP2 ADD SWAP1 PUSH2 0x2DE SWAP2 SWAP1 PUSH2 0x2CAE JUMP JUMPDEST PUSH2 0x1BCB JUMP JUMPDEST STOP JUMPDEST PUSH2 0x2ED PUSH2 0x1DFF JUMP JUMPDEST PUSH1 0x40 MLOAD PUSH2 0x2FA SWAP2 SWAP1 PUSH2 0x29B2 JUMP JUMPDEST PUSH1 0x40 MLOAD DUP1 SWAP2 SUB SWAP1 RETURN JUMPDEST PUSH2 0x31D PUSH1 0x4 DUP1 CALLDATASIZE SUB DUP2 ADD SWAP1 PUSH2 0x318 SWAP2 SWAP1 PUSH2 0x2A2B JUMP JUMPDEST PUSH2 0x1E05 JUMP JUMPDEST STOP JUMPDEST PUSH2 0x339 PUSH1 0x4 DUP1 CALLDATASIZE SUB DUP2 ADD SWAP1 PUSH2 0x334 SWAP2 SWAP1 PUSH2 0x2D88 JUMP JUMPDEST PUSH2 0x1E88 JUMP JUMPDEST STOP JUMPDEST PUSH1 0x0 DUP3 DUP5 PUSH1 0x40 MLOAD PUSH1 0x20 ADD PUSH2 0x350 SWAP3 SWAP2 SWAP1 PUSH2 0x2E25 JUMP JUMPDEST PUSH1 0x40 MLOAD PUSH1 0x20 DUP2 DUP4 SUB SUB DUP2 MSTORE SWAP1 PUSH1 0x40 MSTORE DUP1 MLOAD SWAP1 PUSH1 0x20 ADD KECCAK256 SWAP1 POP PUSH1 0x0 PUSH1 0x8 PUSH1 0x0 DUP4 DUP2 MSTORE PUSH1 0x20 ADD SWAP1 DUP2 MSTORE PUSH1 0x20 ADD PUSH1 0x0 KECCAK256 SLOAD SWAP1 POP PUSH1 0x0 PUSH1 0x9 PUSH1 0x0 DUP4 DUP2 MSTORE PUSH1 0x20 ADD SWAP1 DUP2 MSTORE PUSH1 0x20 ADD PUSH1 0x0 KECCAK256 PUSH1 0x40 MLOAD DUP1 PUSH1 0xA0 ADD PUSH1 0x40 MSTORE SWAP1 DUP2 PUSH1 0x0 DUP3 ADD PUSH1 0x0 SWAP1 SLOAD SWAP1 PUSH2 0x100 EXP SWAP1 DIV PUSH20 0xFFFFFFFFFFFFFFFFFFFFFFFFFFFFFFFFFFFFFFFF AND PUSH20 0xFFFFFFFFFFFFFFFFFFFFFFFFFFFFFFFFFFFFFFFF AND PUSH20 0xFFFFFFFFFFFFFFFFFFFFFFFFFFFFFFFFFFFFFFFF AND DUP2 MSTORE PUSH1 0x20 ADD PUSH1 0x1 DUP3 ADD SLOAD DUP2 MSTORE PUSH1 0x20 ADD PUSH1 0x2 DUP3 ADD SLOAD DUP2 MSTORE PUSH1 0x20 ADD PUSH1 0x3 DUP3 ADD SLOAD DUP2 MSTORE PUSH1 0x20 ADD PUSH1 0x4 DUP3 ADD PUSH1 0x0 SWAP1 SLOAD SWAP1 PUSH2 0x100 EXP SWAP1 DIV PUSH1 0xFF AND PUSH1 0x3 DUP2 GT ISZERO PUSH2 0x439 JUMPI PUSH2 0x438 PUSH2 0x2AE8 JUMP JUMPDEST JUMPDEST PUSH1 0x3 DUP2 GT ISZERO PUSH2 0x44B JUMPI PUSH2 0x44A PUSH2 0x2AE8 JUMP JUMPDEST JUMPDEST DUP2 MSTORE POP POP SWAP1 POP PUSH1 0x0 DUP2 PUSH1 0x40 ADD MLOAD SUB PUSH2 0x7B3 JUMPI PUSH1 0x0 DUP5 EQ PUSH2 0x4CB JUMPI PUSH1 0x2 DUP2 PUSH1 0x80 ADD SWAP1 PUSH1 0x3 DUP2 GT ISZERO PUSH2 0x47E JUMPI PUSH2 0x47D PUSH2 0x2AE8 JUMP JUMPDEST JUMPDEST SWAP1 DUP2 PUSH1 0x3 DUP2 GT ISZERO PUSH2 0x492 JUMPI PUSH2 0x491 PUSH2 0x2AE8 JUMP JUMPDEST JUMPDEST DUP2 MSTORE POP POP DUP2 PUSH32 0xCC4705C4491AE801F7BE42E93C4A6F44BB45771410BE8332B9F1054000192CD3 PUSH1 0x40 MLOAD PUSH1 0x40 MLOAD DUP1 SWAP2 SUB SWAP1 LOG2 POP POP POP PUSH2 0xB27 JUMP JUMPDEST PUSH1 0x0 DUP5 SUB PUSH2 0x7B2 JUMPI PUSH1 0x1 DUP2 PUSH1 0x80 ADD SWAP1 PUSH1 0x3 DUP2 GT ISZERO PUSH2 0x4EC JUMPI PUSH2 0x4EB PUSH2 0x2AE8 JUMP JUMPDEST JUMPDEST SWAP1 DUP2 PUSH1 0x3 DUP2 GT ISZERO PUSH2 0x500 JUMPI PUSH2 0x4FF PUSH2 0x2AE8 JUMP JUMPDEST JUMPDEST DUP2 MSTORE POP POP PUSH1 0x0 PUSH1 0x4 SLOAD GT ISZERO PUSH2 0x77D JUMPI PUSH1 0x0 DUP2 PUSH1 0x60 ADD MLOAD PUSH1 0x4 SLOAD PUSH2 0x523 SWAP2 SWAP1 PUSH2 0x2E7C JUMP JUMPDEST SWAP1 POP DUP1 PUSH20 0xB4FBF271143F4FBF7B91A5DED31805E42B2208D6 PUSH20 0xFFFFFFFFFFFFFFFFFFFFFFFFFFFFFFFFFFFFFFFF AND PUSH4 0x70A08231 ADDRESS PUSH1 0x40 MLOAD DUP3 PUSH4 0xFFFFFFFF AND PUSH1 0xE0 SHL DUP2 MSTORE PUSH1 0x4 ADD PUSH2 0x573 SWAP2 SWAP1 PUSH2 0x2BB2 JUMP JUMPDEST PUSH1 0x20 PUSH1 0x40 MLOAD DUP1 DUP4 SUB DUP2 DUP7 GAS STATICCALL ISZERO DUP1 ISZERO PUSH2 0x590 JUMPI RETURNDATASIZE PUSH1 0x0 DUP1 RETURNDATACOPY RETURNDATASIZE PUSH1 0x0 REVERT JUMPDEST POP POP POP POP PUSH1 0x40 MLOAD RETURNDATASIZE PUSH1 0x1F NOT PUSH1 0x1F DUP3 ADD AND DUP3 ADD DUP1 PUSH1 0x40 MSTORE POP DUP2 ADD SWAP1 PUSH2 0x5B4 SWAP2 SWAP1 PUSH2 0x2ED3 JUMP JUMPDEST LT ISZERO PUSH2 0x6E3 JUMPI PUSH20 0xB4FBF271143F4FBF7B91A5DED31805E42B2208D6 PUSH20 0xFFFFFFFFFFFFFFFFFFFFFFFFFFFFFFFFFFFFFFFF AND PUSH4 0xA9059CBB DUP4 PUSH1 0x0 ADD MLOAD PUSH20 0xB4FBF271143F4FBF7B91A5DED31805E42B2208D6 PUSH20 0xFFFFFFFFFFFFFFFFFFFFFFFFFFFFFFFFFFFFFFFF AND PUSH4 0x70A08231 ADDRESS PUSH1 0x40 MLOAD DUP3 PUSH4 0xFFFFFFFF AND PUSH1 0xE0 SHL DUP2 MSTORE PUSH1 0x4 ADD PUSH2 0x63C SWAP2 SWAP1 PUSH2 0x2BB2 JUMP JUMPDEST PUSH1 0x20 PUSH1 0x40 MLOAD DUP1 DUP4 SUB DUP2 DUP7 GAS STATICCALL ISZERO DUP1 ISZERO PUSH2 0x659 JUMPI RETURNDATASIZE PUSH1 0x0 DUP1 RETURNDATACOPY RETURNDATASIZE PUSH1 0x0 REVERT JUMPDEST POP POP POP POP PUSH1 0x40 MLOAD RETURNDATASIZE PUSH1 0x1F NOT PUSH1 0x1F DUP3 ADD AND DUP3 ADD DUP1 PUSH1 0x40 MSTORE POP DUP2 ADD SWAP1 PUSH2 0x67D SWAP2 SWAP1 PUSH2 0x2ED3 JUMP JUMPDEST PUSH1 0x40 MLOAD DUP4 PUSH4 0xFFFFFFFF AND PUSH1 0xE0 SHL DUP2 MSTORE PUSH1 0x4 ADD PUSH2 0x69A SWAP3 SWAP2 SWAP1 PUSH2 0x2F00 JUMP JUMPDEST PUSH1 0x20 PUSH1 0x40 MLOAD DUP1 DUP4 SUB DUP2 PUSH1 0x0 DUP8 GAS CALL ISZERO DUP1 ISZERO PUSH2 0x6B9 JUMPI RETURNDATASIZE PUSH1 0x0 DUP1 RETURNDATACOPY RETURNDATASIZE PUSH1 0x0 REVERT JUMPDEST POP POP POP POP PUSH1 0x40 MLOAD RETURNDATASIZE PUSH1 0x1F NOT PUSH1 0x1F DUP3 ADD AND DUP3 ADD DUP1 PUSH1 0x40 MSTORE POP DUP2 ADD SWAP1 PUSH2 0x6DD SWAP2 SWAP1 PUSH2 0x2F55 JUMP JUMPDEST POP PUSH2 0x77B JUMP JUMPDEST PUSH20 0xB4FBF271143F4FBF7B91A5DED31805E42B2208D6 PUSH20 0xFFFFFFFFFFFFFFFFFFFFFFFFFFFFFFFFFFFFFFFF AND PUSH4 0xA9059CBB DUP4 PUSH1 0x0 ADD MLOAD DUP4 PUSH1 0x40 MLOAD DUP4 PUSH4 0xFFFFFFFF AND PUSH1 0xE0 SHL DUP2 MSTORE PUSH1 0x4 ADD PUSH2 0x736 SWAP3 SWAP2 SWAP1 PUSH2 0x2F00 JUMP JUMPDEST PUSH1 0x20 PUSH1 0x40 MLOAD DUP1 DUP4 SUB DUP2 PUSH1 0x0 DUP8 GAS CALL ISZERO DUP1 ISZERO PUSH2 0x755 JUMPI RETURNDATASIZE PUSH1 0x0 DUP1 RETURNDATACOPY RETURNDATASIZE PUSH1 0x0 REVERT JUMPDEST POP POP POP POP PUSH1 0x40 MLOAD RETURNDATASIZE PUSH1 0x1F NOT PUSH1 0x1F DUP3 ADD AND DUP3 ADD DUP1 PUSH1 0x40 MSTORE POP DUP2 ADD SWAP1 PUSH2 0x779 SWAP2 SWAP1 PUSH2 0x2F55 JUMP JUMPDEST POP JUMPDEST POP JUMPDEST DUP2 PUSH32 0x77A46B87206F22FCDCCC5E3F24640DEF0A35B99106307B3DDB7B164F1F2EF7FE PUSH1 0x40 MLOAD PUSH1 0x40 MLOAD DUP1 SWAP2 SUB SWAP1 LOG2 POP POP POP PUSH2 0xB27 JUMP JUMPDEST JUMPDEST PUSH8 0xDE0B6B3A7640000 DUP2 PUSH1 0x40 ADD MLOAD SUB PUSH2 0xB23 JUMPI PUSH8 0xDE0B6B3A7640000 DUP5 EQ PUSH2 0x83B JUMPI PUSH1 0x2 DUP2 PUSH1 0x80 ADD SWAP1 PUSH1 0x3 DUP2 GT ISZERO PUSH2 0x7EE JUMPI PUSH2 0x7ED PUSH2 0x2AE8 JUMP JUMPDEST JUMPDEST SWAP1 DUP2 PUSH1 0x3 DUP2 GT ISZERO PUSH2 0x802 JUMPI PUSH2 0x801 PUSH2 0x2AE8 JUMP JUMPDEST JUMPDEST DUP2 MSTORE POP POP DUP2 PUSH32 0x76FBA38AE676B322ED81426F919645168DFFEA04DF349B2F0ED43F35C2D05A6F PUSH1 0x40 MLOAD PUSH1 0x40 MLOAD DUP1 SWAP2 SUB SWAP1 LOG2 POP POP POP PUSH2 0xB27 JUMP JUMPDEST PUSH8 0xDE0B6B3A7640000 DUP5 SUB PUSH2 0xB22 JUMPI PUSH1 0x1 DUP2 PUSH1 0x80 ADD SWAP1 PUSH1 0x3 DUP2 GT ISZERO PUSH2 0x863 JUMPI PUSH2 0x862 PUSH2 0x2AE8 JUMP JUMPDEST JUMPDEST SWAP1 DUP2 PUSH1 0x3 DUP2 GT ISZERO PUSH2 0x877 JUMPI PUSH2 0x876 PUSH2 0x2AE8 JUMP JUMPDEST JUMPDEST DUP2 MSTORE POP POP PUSH1 0x0 PUSH1 0x3 SLOAD GT ISZERO PUSH2 0xAF4 JUMPI PUSH1 0x0 DUP2 PUSH1 0x60 ADD MLOAD PUSH1 0x3 SLOAD PUSH2 0x89A SWAP2 SWAP1 PUSH2 0x2E7C JUMP JUMPDEST SWAP1 POP DUP1 PUSH20 0xB4FBF271143F4FBF7B91A5DED31805E42B2208D6 PUSH20 0xFFFFFFFFFFFFFFFFFFFFFFFFFFFFFFFFFFFFFFFF AND PUSH4 0x70A08231 ADDRESS PUSH1 0x40 MLOAD DUP3 PUSH4 0xFFFFFFFF AND PUSH1 0xE0 SHL DUP2 MSTORE PUSH1 0x4 ADD PUSH2 0x8EA SWAP2 SWAP1 PUSH2 0x2BB2 JUMP JUMPDEST PUSH1 0x20 PUSH1 0x40 MLOAD DUP1 DUP4 SUB DUP2 DUP7 GAS STATICCALL ISZERO DUP1 ISZERO PUSH2 0x907 JUMPI RETURNDATASIZE PUSH1 0x0 DUP1 RETURNDATACOPY RETURNDATASIZE PUSH1 0x0 REVERT JUMPDEST POP POP POP POP PUSH1 0x40 MLOAD RETURNDATASIZE PUSH1 0x1F NOT PUSH1 0x1F DUP3 ADD AND DUP3 ADD DUP1 PUSH1 0x40 MSTORE POP DUP2 ADD SWAP1 PUSH2 0x92B SWAP2 SWAP1 PUSH2 0x2ED3 JUMP JUMPDEST LT ISZERO PUSH2 0xA5A JUMPI PUSH20 0xB4FBF271143F4FBF7B91A5DED31805E42B2208D6 PUSH20 0xFFFFFFFFFFFFFFFFFFFFFFFFFFFFFFFFFFFFFFFF AND PUSH4 0xA9059CBB DUP4 PUSH1 0x0 ADD MLOAD PUSH20 0xB4FBF271143F4FBF7B91A5DED31805E42B2208D6 PUSH20 0xFFFFFFFFFFFFFFFFFFFFFFFFFFFFFFFFFFFFFFFF AND PUSH4 0x70A08231 ADDRESS PUSH1 0x40 MLOAD DUP3 PUSH4 0xFFFFFFFF AND PUSH1 0xE0 SHL DUP2 MSTORE PUSH1 0x4 ADD PUSH2 0x9B3 SWAP2 SWAP1 PUSH2 0x2BB2 JUMP JUMPDEST PUSH1 0x20 PUSH1 0x40 MLOAD DUP1 DUP4 SUB DUP2 DUP7 GAS STATICCALL ISZERO DUP1 ISZERO PUSH2 0x9D0 JUMPI RETURNDATASIZE PUSH1 0x0 DUP1 RETURNDATACOPY RETURNDATASIZE PUSH1 0x0 REVERT JUMPDEST POP POP POP POP PUSH1 0x40 MLOAD RETURNDATASIZE PUSH1 0x1F NOT PUSH1 0x1F DUP3 ADD AND DUP3 ADD DUP1 PUSH1 0x40 MSTORE POP DUP2 ADD SWAP1 PUSH2 0x9F4 SWAP2 SWAP1 PUSH2 0x2ED3 JUMP JUMPDEST PUSH1 0x40 MLOAD DUP4 PUSH4 0xFFFFFFFF AND PUSH1 0xE0 SHL DUP2 MSTORE PUSH1 0x4 ADD PUSH2 0xA11 SWAP3 SWAP2 SWAP1 PUSH2 0x2F00 JUMP JUMPDEST PUSH1 0x20 PUSH1 0x40 MLOAD DUP1 DUP4 SUB DUP2 PUSH1 0x0 DUP8 GAS CALL ISZERO DUP1 ISZERO PUSH2 0xA30 JUMPI RETURNDATASIZE PUSH1 0x0 DUP1 RETURNDATACOPY RETURNDATASIZE PUSH1 0x0 REVERT JUMPDEST POP POP POP POP PUSH1 0x40 MLOAD RETURNDATASIZE PUSH1 0x1F NOT PUSH1 0x1F DUP3 ADD AND DUP3 ADD DUP1 PUSH1 0x40 MSTORE POP DUP2 ADD SWAP1 PUSH2 0xA54 SWAP2 SWAP1 PUSH2 0x2F55 JUMP JUMPDEST POP PUSH2 0xAF2 JUMP JUMPDEST PUSH20 0xB4FBF271143F4FBF7B91A5DED31805E42B2208D6 PUSH20 0xFFFFFFFFFFFFFFFFFFFFFFFFFFFFFFFFFFFFFFFF AND PUSH4 0xA9059CBB DUP4 PUSH1 0x0 ADD MLOAD DUP4 PUSH1 0x40 MLOAD DUP4 PUSH4 0xFFFFFFFF AND PUSH1 0xE0 SHL DUP2 MSTORE PUSH1 0x4 ADD PUSH2 0xAAD SWAP3 SWAP2 SWAP1 PUSH2 0x2F00 JUMP JUMPDEST PUSH1 0x20 PUSH1 0x40 MLOAD DUP1 DUP4 SUB DUP2 PUSH1 0x0 DUP8 GAS CALL ISZERO DUP1 ISZERO PUSH2 0xACC JUMPI RETURNDATASIZE PUSH1 0x0 DUP1 RETURNDATACOPY RETURNDATASIZE PUSH1 0x0 REVERT JUMPDEST POP POP POP POP PUSH1 0x40 MLOAD RETURNDATASIZE PUSH1 0x1F NOT PUSH1 0x1F DUP3 ADD AND DUP3 ADD DUP1 PUSH1 0x40 MSTORE POP DUP2 ADD SWAP1 PUSH2 0xAF0 SWAP2 SWAP1 PUSH2 0x2F55 JUMP JUMPDEST POP JUMPDEST POP JUMPDEST DUP2 PUSH32 0xE28D3C97821EA96836C04A2610AA7B163E30FDE6D2EB1F72149A927006628F3E PUSH1 0x40 MLOAD PUSH1 0x40 MLOAD DUP1 SWAP2 SUB SWAP1 LOG2 JUMPDEST JUMPDEST POP POP POP JUMPDEST POP POP POP POP JUMP JUMPDEST PUSH1 0x1 PUSH1 0x3 DUP2 GT ISZERO PUSH2 0xB41 JUMPI PUSH2 0xB40 PUSH2 0x2AE8 JUMP JUMPDEST JUMPDEST PUSH1 0x9 PUSH1 0x0 DUP6 DUP2 MSTORE PUSH1 0x20 ADD SWAP1 DUP2 MSTORE PUSH1 0x20 ADD PUSH1 0x0 KECCAK256 PUSH1 0x4 ADD PUSH1 0x0 SWAP1 SLOAD SWAP1 PUSH2 0x100 EXP SWAP1 DIV PUSH1 0xFF AND PUSH1 0x3 DUP2 GT ISZERO PUSH2 0xB77 JUMPI PUSH2 0xB76 PUSH2 0x2AE8 JUMP JUMPDEST JUMPDEST EQ PUSH2 0xBB7 JUMPI PUSH1 0x40 MLOAD PUSH32 0x8C379A000000000000000000000000000000000000000000000000000000000 DUP2 MSTORE PUSH1 0x4 ADD PUSH2 0xBAE SWAP1 PUSH2 0x2FCE JUMP JUMPDEST PUSH1 0x40 MLOAD DUP1 SWAP2 SUB SWAP1 REVERT JUMPDEST DUP2 DUP2 PUSH1 0x40 MLOAD PUSH1 0x20 ADD PUSH2 0xBCA SWAP3 SWAP2 SWAP1 PUSH2 0x30AB JUMP JUMPDEST PUSH1 0x40 MLOAD PUSH1 0x20 DUP2 DUP4 SUB SUB DUP2 MSTORE SWAP1 PUSH1 0x40 MSTORE DUP1 MLOAD SWAP1 PUSH1 0x20 ADD KECCAK256 PUSH1 0x9 PUSH1 0x0 DUP6 DUP2 MSTORE PUSH1 0x20 ADD SWAP1 DUP2 MSTORE PUSH1 0x20 ADD PUSH1 0x0 KECCAK256 PUSH1 0x1 ADD SLOAD EQ PUSH2 0xC37 JUMPI PUSH1 0x40 MLOAD PUSH32 0x8C379A000000000000000000000000000000000000000000000000000000000 DUP2 MSTORE PUSH1 0x4 ADD PUSH2 0xC2E SWAP1 PUSH2 0x315C JUMP JUMPDEST PUSH1 0x40 MLOAD DUP1 SWAP2 SUB SWAP1 REVERT JUMPDEST PUSH1 0x3 PUSH1 0x9 PUSH1 0x0 DUP6 DUP2 MSTORE PUSH1 0x20 ADD SWAP1 DUP2 MSTORE PUSH1 0x20 ADD PUSH1 0x0 KECCAK256 PUSH1 0x4 ADD PUSH1 0x0 PUSH2 0x100 EXP DUP2 SLOAD DUP2 PUSH1 0xFF MUL NOT AND SWAP1 DUP4 PUSH1 0x3 DUP2 GT ISZERO PUSH2 0xC71 JUMPI PUSH2 0xC70 PUSH2 0x2AE8 JUMP JUMPDEST JUMPDEST MUL OR SWAP1 SSTORE POP PUSH1 0x0 PUSH1 0x1 PUSH1 0x9 PUSH1 0x0 DUP7 DUP2 MSTORE PUSH1 0x20 ADD SWAP1 DUP2 MSTORE PUSH1 0x20 ADD PUSH1 0x0 KECCAK256 PUSH1 0x2 ADD SLOAD SUB PUSH2 0xC9B JUMPI PUSH1 0x1 SWAP1 POP JUMPDEST PUSH1 0x0 JUMPDEST PUSH1 0x1 DUP5 DUP5 SWAP1 POP PUSH2 0xCAE SWAP2 SWAP1 PUSH2 0x317C JUMP JUMPDEST DUP2 GT PUSH2 0xD45 JUMPI DUP2 PUSH1 0xA PUSH1 0x0 DUP7 DUP7 DUP6 DUP2 DUP2 LT PUSH2 0xCCC JUMPI PUSH2 0xCCB PUSH2 0x31B0 JUMP JUMPDEST JUMPDEST SWAP1 POP PUSH1 0x20 MUL ADD PUSH1 0x20 DUP2 ADD SWAP1 PUSH2 0xCE1 SWAP2 SWAP1 PUSH2 0x2A2B JUMP JUMPDEST PUSH20 0xFFFFFFFFFFFFFFFFFFFFFFFFFFFFFFFFFFFFFFFF AND PUSH20 0xFFFFFFFFFFFFFFFFFFFFFFFFFFFFFFFFFFFFFFFF AND DUP2 MSTORE PUSH1 0x20 ADD SWAP1 DUP2 MSTORE PUSH1 0x20 ADD PUSH1 0x0 KECCAK256 PUSH1 0x0 PUSH2 0x100 EXP DUP2 SLOAD DUP2 PUSH1 0xFF MUL NOT AND SWAP1 DUP4 ISZERO ISZERO MUL OR SWAP1 SSTORE POP DUP1 DUP1 PUSH2 0xD3D SWAP1 PUSH2 0x31DF JUMP JUMPDEST SWAP2 POP POP PUSH2 0xC9E JUMP JUMPDEST POP POP POP POP POP JUMP JUMPDEST PUSH1 0x0 JUMPDEST PUSH1 0x1 DUP4 DUP4 SWAP1 POP PUSH2 0xD5F SWAP2 SWAP1 PUSH2 0x317C JUMP JUMPDEST DUP2 GT PUSH2 0xF24 JUMPI PUSH1 0xA PUSH1 0x0 DUP5 DUP5 DUP5 DUP2 DUP2 LT PUSH2 0xD7C JUMPI PUSH2 0xD7B PUSH2 0x31B0 JUMP JUMPDEST JUMPDEST SWAP1 POP PUSH1 0x20 MUL ADD PUSH1 0x20 DUP2 ADD SWAP1 PUSH2 0xD91 SWAP2 SWAP1 PUSH2 0x2A2B JUMP JUMPDEST PUSH20 0xFFFFFFFFFFFFFFFFFFFFFFFFFFFFFFFFFFFFFFFF AND PUSH20 0xFFFFFFFFFFFFFFFFFFFFFFFFFFFFFFFFFFFFFFFF AND DUP2 MSTORE PUSH1 0x20 ADD SWAP1 DUP2 MSTORE PUSH1 0x20 ADD PUSH1 0x0 KECCAK256 PUSH1 0x0 SWAP1 SLOAD SWAP1 PUSH2 0x100 EXP SWAP1 DIV PUSH1 0xFF AND ISZERO PUSH2 0xE19 JUMPI PUSH1 0x40 MLOAD PUSH32 0x8C379A000000000000000000000000000000000000000000000000000000000 DUP2 MSTORE PUSH1 0x4 ADD PUSH2 0xE10 SWAP1 PUSH2 0x3299 JUMP JUMPDEST PUSH1 0x40 MLOAD DUP1 SWAP2 SUB SWAP1 REVERT JUMPDEST PUSH1 0x0 PUSH1 0x1 DUP3 PUSH2 0xE28 SWAP2 SWAP1 PUSH2 0x32B9 JUMP JUMPDEST SWAP1 POP JUMPDEST PUSH1 0x1 DUP5 DUP5 SWAP1 POP PUSH2 0xE3B SWAP2 SWAP1 PUSH2 0x317C JUMP JUMPDEST DUP2 GT PUSH2 0xF10 JUMPI DUP4 DUP4 DUP3 DUP2 DUP2 LT PUSH2 0xE54 JUMPI PUSH2 0xE53 PUSH2 0x31B0 JUMP JUMPDEST JUMPDEST SWAP1 POP PUSH1 0x20 MUL ADD PUSH1 0x20 DUP2 ADD SWAP1 PUSH2 0xE69 SWAP2 SWAP1 PUSH2 0x2A2B JUMP JUMPDEST PUSH20 0xFFFFFFFFFFFFFFFFFFFFFFFFFFFFFFFFFFFFFFFF AND DUP5 DUP5 DUP5 DUP2 DUP2 LT PUSH2 0xE92 JUMPI PUSH2 0xE91 PUSH2 0x31B0 JUMP JUMPDEST JUMPDEST SWAP1 POP PUSH1 0x20 MUL ADD PUSH1 0x20 DUP2 ADD SWAP1 PUSH2 0xEA7 SWAP2 SWAP1 PUSH2 0x2A2B JUMP JUMPDEST PUSH20 0xFFFFFFFFFFFFFFFFFFFFFFFFFFFFFFFFFFFFFFFF AND SUB PUSH2 0xEFD JUMPI PUSH1 0x40 MLOAD PUSH32 0x8C379A000000000000000000000000000000000000000000000000000000000 DUP2 MSTORE PUSH1 0x4 ADD PUSH2 0xEF4 SWAP1 PUSH2 0x3339 JUMP JUMPDEST PUSH1 0x40 MLOAD DUP1 SWAP2 SUB SWAP1 REVERT JUMPDEST DUP1 DUP1 PUSH2 0xF08 SWAP1 PUSH2 0x31DF JUMP JUMPDEST SWAP2 POP POP PUSH2 0xE2B JUMP JUMPDEST POP DUP1 DUP1 PUSH2 0xF1C SWAP1 PUSH2 0x31DF JUMP JUMPDEST SWAP2 POP POP PUSH2 0xD4F JUMP JUMPDEST POP PUSH1 0x0 PUSH1 0x7 PUSH2 0xF34 PUSH1 0x5 SLOAD PUSH2 0x1F27 JUMP JUMPDEST PUSH1 0x40 MLOAD PUSH1 0x20 ADD PUSH2 0xF45 SWAP3 SWAP2 SWAP1 PUSH2 0x3477 JUMP JUMPDEST PUSH1 0x40 MLOAD PUSH1 0x20 DUP2 DUP4 SUB SUB DUP2 MSTORE SWAP1 PUSH1 0x40 MSTORE SWAP1 POP PUSH1 0x0 TIMESTAMP SWAP1 POP PUSH1 0x0 PUSH2 0xF67 DUP3 DUP5 PUSH2 0x20AF JUMP JUMPDEST SWAP1 POP PUSH1 0x0 DUP4 DUP4 PUSH1 0x40 MLOAD PUSH1 0x20 ADD PUSH2 0xF7E SWAP3 SWAP2 SWAP1 PUSH2 0x2E25 JUMP JUMPDEST PUSH1 0x40 MLOAD PUSH1 0x20 DUP2 DUP4 SUB SUB DUP2 MSTORE SWAP1 PUSH1 0x40 MSTORE DUP1 MLOAD SWAP1 PUSH1 0x20 ADD KECCAK256 SWAP1 POP PUSH1 0x0 DUP7 DUP7 PUSH1 0x40 MLOAD PUSH1 0x20 ADD PUSH2 0xFAB SWAP3 SWAP2 SWAP1 PUSH2 0x30AB JUMP JUMPDEST PUSH1 0x40 MLOAD PUSH1 0x20 DUP2 DUP4 SUB SUB DUP2 MSTORE SWAP1 PUSH1 0x40 MSTORE DUP1 MLOAD SWAP1 PUSH1 0x20 ADD KECCAK256 SWAP1 POP PUSH1 0x5 SLOAD PUSH1 0x8 PUSH1 0x0 DUP5 DUP2 MSTORE PUSH1 0x20 ADD SWAP1 DUP2 MSTORE PUSH1 0x20 ADD PUSH1 0x0 KECCAK256 DUP2 SWAP1 SSTORE POP CALLER PUSH1 0x9 PUSH1 0x0 PUSH1 0x5 SLOAD DUP2 MSTORE PUSH1 0x20 ADD SWAP1 DUP2 MSTORE PUSH1 0x20 ADD PUSH1 0x0 KECCAK256 PUSH1 0x0 ADD PUSH1 0x0 PUSH2 0x100 EXP DUP2 SLOAD DUP2 PUSH20 0xFFFFFFFFFFFFFFFFFFFFFFFFFFFFFFFFFFFFFFFF MUL NOT AND SWAP1 DUP4 PUSH20 0xFFFFFFFFFFFFFFFFFFFFFFFFFFFFFFFFFFFFFFFF AND MUL OR SWAP1 SSTORE POP DUP1 PUSH1 0x9 PUSH1 0x0 PUSH1 0x5 SLOAD DUP2 MSTORE PUSH1 0x20 ADD SWAP1 DUP2 MSTORE PUSH1 0x20 ADD PUSH1 0x0 KECCAK256 PUSH1 0x1 ADD DUP2 SWAP1 SSTORE POP PUSH8 0xDE0B6B3A7640000 PUSH1 0x9 PUSH1 0x0 PUSH1 0x5 SLOAD DUP2 MSTORE PUSH1 0x20 ADD SWAP1 DUP2 MSTORE PUSH1 0x20 ADD PUSH1 0x0 KECCAK256 PUSH1 0x2 ADD DUP2 SWAP1 SSTORE POP DUP7 DUP7 SWAP1 POP PUSH1 0x9 PUSH1 0x0 PUSH1 0x5 SLOAD DUP2 MSTORE PUSH1 0x20 ADD SWAP1 DUP2 MSTORE PUSH1 0x20 ADD PUSH1 0x0 KECCAK256 PUSH1 0x3 ADD DUP2 SWAP1 SSTORE POP PUSH1 0x0 DUP4 GT ISZERO PUSH2 0x1179 JUMPI PUSH1 0x0 PUSH20 0xB4FBF271143F4FBF7B91A5DED31805E42B2208D6 PUSH20 0xFFFFFFFFFFFFFFFFFFFFFFFFFFFFFFFFFFFFFFFF AND PUSH4 0x23B872DD CALLER ADDRESS DUP8 PUSH1 0x40 MLOAD DUP5 PUSH4 0xFFFFFFFF AND PUSH1 0xE0 SHL DUP2 MSTORE PUSH1 0x4 ADD PUSH2 0x10F2 SWAP4 SWAP3 SWAP2 SWAP1 PUSH2 0x34AA JUMP JUMPDEST PUSH1 0x20 PUSH1 0x40 MLOAD DUP1 DUP4 SUB DUP2 PUSH1 0x0 DUP8 GAS CALL ISZERO DUP1 ISZERO PUSH2 0x1111 JUMPI RETURNDATASIZE PUSH1 0x0 DUP1 RETURNDATACOPY RETURNDATASIZE PUSH1 0x0 REVERT JUMPDEST POP POP POP POP PUSH1 0x40 MLOAD RETURNDATASIZE PUSH1 0x1F NOT PUSH1 0x1F DUP3 ADD AND DUP3 ADD DUP1 PUSH1 0x40 MSTORE POP DUP2 ADD SWAP1 PUSH2 0x1135 SWAP2 SWAP1 PUSH2 0x2F55 JUMP JUMPDEST SWAP1 POP DUP1 PUSH2 0x1177 JUMPI PUSH1 0x40 MLOAD PUSH32 0x8C379A000000000000000000000000000000000000000000000000000000000 DUP2 MSTORE PUSH1 0x4 ADD PUSH2 0x116E SWAP1 PUSH2 0x3553 JUMP JUMPDEST PUSH1 0x40 MLOAD DUP1 SWAP2 SUB SWAP1 REVERT JUMPDEST POP JUMPDEST PUSH1 0x0 DUP4 GT ISZERO PUSH2 0x126E JUMPI PUSH1 0x0 PUSH20 0xB4FBF271143F4FBF7B91A5DED31805E42B2208D6 PUSH20 0xFFFFFFFFFFFFFFFFFFFFFFFFFFFFFFFFFFFFFFFF AND PUSH4 0x95EA7B3 PUSH20 0xA5B9D8A0B0FA04BA71BDD68069661ED5C0848884 DUP7 PUSH1 0x40 MLOAD DUP4 PUSH4 0xFFFFFFFF AND PUSH1 0xE0 SHL DUP2 MSTORE PUSH1 0x4 ADD PUSH2 0x11E7 SWAP3 SWAP2 SWAP1 PUSH2 0x2F00 JUMP JUMPDEST PUSH1 0x20 PUSH1 0x40 MLOAD DUP1 DUP4 SUB DUP2 PUSH1 0x0 DUP8 GAS CALL ISZERO DUP1 ISZERO PUSH2 0x1206 JUMPI RETURNDATASIZE PUSH1 0x0 DUP1 RETURNDATACOPY RETURNDATASIZE PUSH1 0x0 REVERT JUMPDEST POP POP POP POP PUSH1 0x40 MLOAD RETURNDATASIZE PUSH1 0x1F NOT PUSH1 0x1F DUP3 ADD AND DUP3 ADD DUP1 PUSH1 0x40 MSTORE POP DUP2 ADD SWAP1 PUSH2 0x122A SWAP2 SWAP1 PUSH2 0x2F55 JUMP JUMPDEST SWAP1 POP DUP1 PUSH2 0x126C JUMPI PUSH1 0x40 MLOAD PUSH32 0x8C379A000000000000000000000000000000000000000000000000000000000 DUP2 MSTORE PUSH1 0x4 ADD PUSH2 0x1263 SWAP1 PUSH2 0x35E5 JUMP JUMPDEST PUSH1 0x40 MLOAD DUP1 SWAP2 SUB SWAP1 REVERT JUMPDEST POP JUMPDEST PUSH20 0xA5B9D8A0B0FA04BA71BDD68069661ED5C0848884 PUSH20 0xFFFFFFFFFFFFFFFFFFFFFFFFFFFFFFFFFFFFFFFF AND PUSH4 0x7C82288F CALLER ADDRESS PUSH32 0x5945535F4F525F4E4F5F51554552590000000000000000000000000000000000 DUP9 DUP11 PUSH8 0xDE0B6B3A7640000 PUSH1 0x40 MLOAD DUP8 PUSH4 0xFFFFFFFF AND PUSH1 0xE0 SHL DUP2 MSTORE PUSH1 0x4 ADD PUSH2 0x12ED SWAP7 SWAP6 SWAP5 SWAP4 SWAP3 SWAP2 SWAP1 PUSH2 0x3605 JUMP JUMPDEST PUSH1 0x20 PUSH1 0x40 MLOAD DUP1 DUP4 SUB DUP2 PUSH1 0x0 DUP8 GAS CALL ISZERO DUP1 ISZERO PUSH2 0x130C JUMPI RETURNDATASIZE PUSH1 0x0 DUP1 RETURNDATACOPY RETURNDATASIZE PUSH1 0x0 REVERT JUMPDEST POP POP POP POP PUSH1 0x40 MLOAD RETURNDATASIZE PUSH1 0x1F NOT PUSH1 0x1F DUP3 ADD AND DUP3 ADD DUP1 PUSH1 0x40 MSTORE POP DUP2 ADD SWAP1 PUSH2 0x1330 SWAP2 SWAP1 PUSH2 0x2ED3 JUMP JUMPDEST POP DUP1 PUSH1 0x5 SLOAD PUSH32 0x3882D8098087BE8B372A66575F9AAADD1C9911C055F66F010A47DFA65A6F431B DUP10 DUP10 PUSH1 0x40 MLOAD PUSH2 0x1366 SWAP3 SWAP2 SWAP1 PUSH2 0x3702 JUMP JUMPDEST PUSH1 0x40 MLOAD DUP1 SWAP2 SUB SWAP1 LOG3 PUSH1 0x5 PUSH1 0x0 DUP2 SLOAD DUP1 SWAP3 SWAP2 SWAP1 PUSH2 0x1381 SWAP1 PUSH2 0x31DF JUMP JUMPDEST SWAP2 SWAP1 POP SSTORE POP POP POP POP POP POP POP POP JUMP JUMPDEST PUSH1 0x6 DUP1 SLOAD PUSH2 0x139C SWAP1 PUSH2 0x3388 JUMP JUMPDEST DUP1 PUSH1 0x1F ADD PUSH1 0x20 DUP1 SWAP2 DIV MUL PUSH1 0x20 ADD PUSH1 0x40 MLOAD SWAP1 DUP2 ADD PUSH1 0x40 MSTORE DUP1 SWAP3 SWAP2 SWAP1 DUP2 DUP2 MSTORE PUSH1 0x20 ADD DUP3 DUP1 SLOAD PUSH2 0x13C8 SWAP1 PUSH2 0x3388 JUMP JUMPDEST DUP1 ISZERO PUSH2 0x1415 JUMPI DUP1 PUSH1 0x1F LT PUSH2 0x13EA JUMPI PUSH2 0x100 DUP1 DUP4 SLOAD DIV MUL DUP4 MSTORE SWAP2 PUSH1 0x20 ADD SWAP2 PUSH2 0x1415 JUMP JUMPDEST DUP3 ADD SWAP2 SWAP1 PUSH1 0x0 MSTORE PUSH1 0x20 PUSH1 0x0 KECCAK256 SWAP1 JUMPDEST DUP2 SLOAD DUP2 MSTORE SWAP1 PUSH1 0x1 ADD SWAP1 PUSH1 0x20 ADD DUP1 DUP4 GT PUSH2 0x13F8 JUMPI DUP3 SWAP1 SUB PUSH1 0x1F AND DUP3 ADD SWAP2 JUMPDEST POP POP POP POP POP DUP2 JUMP JUMPDEST PUSH1 0x7 DUP1 SLOAD PUSH2 0x142A SWAP1 PUSH2 0x3388 JUMP JUMPDEST DUP1 PUSH1 0x1F ADD PUSH1 0x20 DUP1 SWAP2 DIV MUL PUSH1 0x20 ADD PUSH1 0x40 MLOAD SWAP1 DUP2 ADD PUSH1 0x40 MSTORE DUP1 SWAP3 SWAP2 SWAP1 DUP2 DUP2 MSTORE PUSH1 0x20 ADD DUP3 DUP1 SLOAD PUSH2 0x1456 SWAP1 PUSH2 0x3388 JUMP JUMPDEST DUP1 ISZERO PUSH2 0x14A3 JUMPI DUP1 PUSH1 0x1F LT PUSH2 0x1478 JUMPI PUSH2 0x100 DUP1 DUP4 SLOAD DIV MUL DUP4 MSTORE SWAP2 PUSH1 0x20 ADD SWAP2 PUSH2 0x14A3 JUMP JUMPDEST DUP3 ADD SWAP2 SWAP1 PUSH1 0x0 MSTORE PUSH1 0x20 PUSH1 0x0 KECCAK256 SWAP1 JUMPDEST DUP2 SLOAD DUP2 MSTORE SWAP1 PUSH1 0x1 ADD SWAP1 PUSH1 0x20 ADD DUP1 DUP4 GT PUSH2 0x1486 JUMPI DUP3 SWAP1 SUB PUSH1 0x1F AND DUP3 ADD SWAP2 JUMPDEST POP POP POP POP POP DUP2 JUMP JUMPDEST PUSH1 0x2 SLOAD DUP2 JUMP JUMPDEST PUSH1 0xA PUSH1 0x20 MSTORE DUP1 PUSH1 0x0 MSTORE PUSH1 0x40 PUSH1 0x0 KECCAK256 PUSH1 0x0 SWAP2 POP SLOAD SWAP1 PUSH2 0x100 EXP SWAP1 DIV PUSH1 0xFF AND DUP2 JUMP JUMPDEST PUSH2 0x14D9 PUSH2 0x2391 JUMP JUMPDEST PUSH2 0x14E3 PUSH1 0x0 PUSH2 0x240F JUMP JUMPDEST JUMP JUMPDEST PUSH1 0x4 SLOAD DUP2 JUMP JUMPDEST PUSH1 0x1 SLOAD DUP2 JUMP JUMPDEST PUSH1 0x9 PUSH1 0x20 MSTORE DUP1 PUSH1 0x0 MSTORE PUSH1 0x40 PUSH1 0x0 KECCAK256 PUSH1 0x0 SWAP2 POP SWAP1 POP DUP1 PUSH1 0x0 ADD PUSH1 0x0 SWAP1 SLOAD SWAP1 PUSH2 0x100 EXP SWAP1 DIV PUSH20 0xFFFFFFFFFFFFFFFFFFFFFFFFFFFFFFFFFFFFFFFF AND SWAP1 DUP1 PUSH1 0x1 ADD SLOAD SWAP1 DUP1 PUSH1 0x2 ADD SLOAD SWAP1 DUP1 PUSH1 0x3 ADD SLOAD SWAP1 DUP1 PUSH1 0x4 ADD PUSH1 0x0 SWAP1 SLOAD SWAP1 PUSH2 0x100 EXP SWAP1 DIV PUSH1 0xFF AND SWAP1 POP DUP6 JUMP JUMPDEST PUSH1 0x0 DUP1 PUSH1 0x2 SWAP1 SLOAD SWAP1 PUSH2 0x100 EXP SWAP1 DIV PUSH20 0xFFFFFFFFFFFFFFFFFFFFFFFFFFFFFFFFFFFFFFFF AND SWAP1 POP SWAP1 JUMP JUMPDEST PUSH2 0x1585 PUSH2 0x2391 JUMP JUMPDEST DUP2 PUSH1 0x3 DUP2 SWAP1 SSTORE POP DUP1 PUSH1 0x4 DUP2 SWAP1 SSTORE POP POP POP JUMP JUMPDEST PUSH1 0x0 JUMPDEST PUSH1 0x1 DUP4 DUP4 SWAP1 POP PUSH2 0x15AA SWAP2 SWAP1 PUSH2 0x317C JUMP JUMPDEST DUP2 GT PUSH2 0x176E JUMPI PUSH1 0xA PUSH1 0x0 DUP5 DUP5 DUP5 DUP2 DUP2 LT PUSH2 0x15C7 JUMPI PUSH2 0x15C6 PUSH2 0x31B0 JUMP JUMPDEST JUMPDEST SWAP1 POP PUSH1 0x20 MUL ADD PUSH1 0x20 DUP2 ADD SWAP1 PUSH2 0x15DC SWAP2 SWAP1 PUSH2 0x2A2B JUMP JUMPDEST PUSH20 0xFFFFFFFFFFFFFFFFFFFFFFFFFFFFFFFFFFFFFFFF AND PUSH20 0xFFFFFFFFFFFFFFFFFFFFFFFFFFFFFFFFFFFFFFFF AND DUP2 MSTORE PUSH1 0x20 ADD SWAP1 DUP2 MSTORE PUSH1 0x20 ADD PUSH1 0x0 KECCAK256 PUSH1 0x0 SWAP1 SLOAD SWAP1 PUSH2 0x100 EXP SWAP1 DIV PUSH1 0xFF AND PUSH2 0x1663 JUMPI PUSH1 0x40 MLOAD PUSH32 0x8C379A000000000000000000000000000000000000000000000000000000000 DUP2 MSTORE PUSH1 0x4 ADD PUSH2 0x165A SWAP1 PUSH2 0x3798 JUMP JUMPDEST PUSH1 0x40 MLOAD DUP1 SWAP2 SUB SWAP1 REVERT JUMPDEST PUSH1 0x0 PUSH1 0x1 DUP3 PUSH2 0x1672 SWAP2 SWAP1 PUSH2 0x32B9 JUMP JUMPDEST SWAP1 POP JUMPDEST PUSH1 0x1 DUP5 DUP5 SWAP1 POP PUSH2 0x1685 SWAP2 SWAP1 PUSH2 0x317C JUMP JUMPDEST DUP2 GT PUSH2 0x175A JUMPI DUP4 DUP4 DUP3 DUP2 DUP2 LT PUSH2 0x169E JUMPI PUSH2 0x169D PUSH2 0x31B0 JUMP JUMPDEST JUMPDEST SWAP1 POP PUSH1 0x20 MUL ADD PUSH1 0x20 DUP2 ADD SWAP1 PUSH2 0x16B3 SWAP2 SWAP1 PUSH2 0x2A2B JUMP JUMPDEST PUSH20 0xFFFFFFFFFFFFFFFFFFFFFFFFFFFFFFFFFFFFFFFF AND DUP5 DUP5 DUP5 DUP2 DUP2 LT PUSH2 0x16DC JUMPI PUSH2 0x16DB PUSH2 0x31B0 JUMP JUMPDEST JUMPDEST SWAP1 POP PUSH1 0x20 MUL ADD PUSH1 0x20 DUP2 ADD SWAP1 PUSH2 0x16F1 SWAP2 SWAP1 PUSH2 0x2A2B JUMP JUMPDEST PUSH20 0xFFFFFFFFFFFFFFFFFFFFFFFFFFFFFFFFFFFFFFFF AND SUB PUSH2 0x1747 JUMPI PUSH1 0x40 MLOAD PUSH32 0x8C379A000000000000000000000000000000000000000000000000000000000 DUP2 MSTORE PUSH1 0x4 ADD PUSH2 0x173E SWAP1 PUSH2 0x3339 JUMP JUMPDEST PUSH1 0x40 MLOAD DUP1 SWAP2 SUB SWAP1 REVERT JUMPDEST DUP1 DUP1 PUSH2 0x1752 SWAP1 PUSH2 0x31DF JUMP JUMPDEST SWAP2 POP POP PUSH2 0x1675 JUMP JUMPDEST POP DUP1 DUP1 PUSH2 0x1766 SWAP1 PUSH2 0x31DF JUMP JUMPDEST SWAP2 POP POP PUSH2 0x159A JUMP JUMPDEST POP PUSH1 0x0 PUSH1 0x7 PUSH2 0x177E PUSH1 0x5 SLOAD PUSH2 0x1F27 JUMP JUMPDEST PUSH1 0x40 MLOAD PUSH1 0x20 ADD PUSH2 0x178F SWAP3 SWAP2 SWAP1 PUSH2 0x3477 JUMP JUMPDEST PUSH1 0x40 MLOAD PUSH1 0x20 DUP2 DUP4 SUB SUB DUP2 MSTORE SWAP1 PUSH1 0x40 MSTORE SWAP1 POP PUSH1 0x0 TIMESTAMP SWAP1 POP PUSH1 0x0 PUSH2 0x17B1 DUP3 DUP5 PUSH2 0x20AF JUMP JUMPDEST SWAP1 POP PUSH1 0x0 DUP4 DUP4 PUSH1 0x40 MLOAD PUSH1 0x20 ADD PUSH2 0x17C8 SWAP3 SWAP2 SWAP1 PUSH2 0x2E25 JUMP JUMPDEST PUSH1 0x40 MLOAD PUSH1 0x20 DUP2 DUP4 SUB SUB DUP2 MSTORE SWAP1 PUSH1 0x40 MSTORE DUP1 MLOAD SWAP1 PUSH1 0x20 ADD KECCAK256 SWAP1 POP PUSH1 0x0 DUP7 DUP7 PUSH1 0x40 MLOAD PUSH1 0x20 ADD PUSH2 0x17F5 SWAP3 SWAP2 SWAP1 PUSH2 0x30AB JUMP JUMPDEST PUSH1 0x40 MLOAD PUSH1 0x20 DUP2 DUP4 SUB SUB DUP2 MSTORE SWAP1 PUSH1 0x40 MSTORE DUP1 MLOAD SWAP1 PUSH1 0x20 ADD KECCAK256 SWAP1 POP PUSH1 0x5 SLOAD PUSH1 0x8 PUSH1 0x0 DUP5 DUP2 MSTORE PUSH1 0x20 ADD SWAP1 DUP2 MSTORE PUSH1 0x20 ADD PUSH1 0x0 KECCAK256 DUP2 SWAP1 SSTORE POP CALLER PUSH1 0x9 PUSH1 0x0 PUSH1 0x5 SLOAD DUP2 MSTORE PUSH1 0x20 ADD SWAP1 DUP2 MSTORE PUSH1 0x20 ADD PUSH1 0x0 KECCAK256 PUSH1 0x0 ADD PUSH1 0x0 PUSH2 0x100 EXP DUP2 SLOAD DUP2 PUSH20 0xFFFFFFFFFFFFFFFFFFFFFFFFFFFFFFFFFFFFFFFF MUL NOT AND SWAP1 DUP4 PUSH20 0xFFFFFFFFFFFFFFFFFFFFFFFFFFFFFFFFFFFFFFFF AND MUL OR SWAP1 SSTORE POP DUP1 PUSH1 0x9 PUSH1 0x0 PUSH1 0x5 SLOAD DUP2 MSTORE PUSH1 0x20 ADD SWAP1 DUP2 MSTORE PUSH1 0x20 ADD PUSH1 0x0 KECCAK256 PUSH1 0x1 ADD DUP2 SWAP1 SSTORE POP PUSH1 0x0 PUSH1 0x9 PUSH1 0x0 PUSH1 0x5 SLOAD DUP2 MSTORE PUSH1 0x20 ADD SWAP1 DUP2 MSTORE PUSH1 0x20 ADD PUSH1 0x0 KECCAK256 PUSH1 0x2 ADD DUP2 SWAP1 SSTORE POP DUP7 DUP7 SWAP1 POP PUSH1 0x9 PUSH1 0x0 PUSH1 0x5 SLOAD DUP2 MSTORE PUSH1 0x20 ADD SWAP1 DUP2 MSTORE PUSH1 0x20 ADD PUSH1 0x0 KECCAK256 PUSH1 0x3 ADD DUP2 SWAP1 SSTORE POP PUSH1 0x0 DUP4 GT ISZERO PUSH2 0x19BC JUMPI PUSH1 0x0 PUSH20 0xB4FBF271143F4FBF7B91A5DED31805E42B2208D6 PUSH20 0xFFFFFFFFFFFFFFFFFFFFFFFFFFFFFFFFFFFFFFFF AND PUSH4 0x23B872DD CALLER ADDRESS DUP8 PUSH1 0x40 MLOAD DUP5 PUSH4 0xFFFFFFFF AND PUSH1 0xE0 SHL DUP2 MSTORE PUSH1 0x4 ADD PUSH2 0x1935 SWAP4 SWAP3 SWAP2 SWAP1 PUSH2 0x34AA JUMP JUMPDEST PUSH1 0x20 PUSH1 0x40 MLOAD DUP1 DUP4 SUB DUP2 PUSH1 0x0 DUP8 GAS CALL ISZERO DUP1 ISZERO PUSH2 0x1954 JUMPI RETURNDATASIZE PUSH1 0x0 DUP1 RETURNDATACOPY RETURNDATASIZE PUSH1 0x0 REVERT JUMPDEST POP POP POP POP PUSH1 0x40 MLOAD RETURNDATASIZE PUSH1 0x1F NOT PUSH1 0x1F DUP3 ADD AND DUP3 ADD DUP1 PUSH1 0x40 MSTORE POP DUP2 ADD SWAP1 PUSH2 0x1978 SWAP2 SWAP1 PUSH2 0x2F55 JUMP JUMPDEST SWAP1 POP DUP1 PUSH2 0x19BA JUMPI PUSH1 0x40 MLOAD PUSH32 0x8C379A000000000000000000000000000000000000000000000000000000000 DUP2 MSTORE PUSH1 0x4 ADD PUSH2 0x19B1 SWAP1 PUSH2 0x3553 JUMP JUMPDEST PUSH1 0x40 MLOAD DUP1 SWAP2 SUB SWAP1 REVERT JUMPDEST POP JUMPDEST PUSH1 0x0 DUP4 GT ISZERO PUSH2 0x1AB1 JUMPI PUSH1 0x0 PUSH20 0xB4FBF271143F4FBF7B91A5DED31805E42B2208D6 PUSH20 0xFFFFFFFFFFFFFFFFFFFFFFFFFFFFFFFFFFFFFFFF AND PUSH4 0x95EA7B3 PUSH20 0xA5B9D8A0B0FA04BA71BDD68069661ED5C0848884 DUP7 PUSH1 0x40 MLOAD DUP4 PUSH4 0xFFFFFFFF AND PUSH1 0xE0 SHL DUP2 MSTORE PUSH1 0x4 ADD PUSH2 0x1A2A SWAP3 SWAP2 SWAP1 PUSH2 0x2F00 JUMP JUMPDEST PUSH1 0x20 PUSH1 0x40 MLOAD DUP1 DUP4 SUB DUP2 PUSH1 0x0 DUP8 GAS CALL ISZERO DUP1 ISZERO PUSH2 0x1A49 JUMPI RETURNDATASIZE PUSH1 0x0 DUP1 RETURNDATACOPY RETURNDATASIZE PUSH1 0x0 REVERT JUMPDEST POP POP POP POP PUSH1 0x40 MLOAD RETURNDATASIZE PUSH1 0x1F NOT PUSH1 0x1F DUP3 ADD AND DUP3 ADD DUP1 PUSH1 0x40 MSTORE POP DUP2 ADD SWAP1 PUSH2 0x1A6D SWAP2 SWAP1 PUSH2 0x2F55 JUMP JUMPDEST SWAP1 POP DUP1 PUSH2 0x1AAF JUMPI PUSH1 0x40 MLOAD PUSH32 0x8C379A000000000000000000000000000000000000000000000000000000000 DUP2 MSTORE PUSH1 0x4 ADD PUSH2 0x1AA6 SWAP1 PUSH2 0x35E5 JUMP JUMPDEST PUSH1 0x40 MLOAD DUP1 SWAP2 SUB SWAP1 REVERT JUMPDEST POP JUMPDEST PUSH20 0xA5B9D8A0B0FA04BA71BDD68069661ED5C0848884 PUSH20 0xFFFFFFFFFFFFFFFFFFFFFFFFFFFFFFFFFFFFFFFF AND PUSH4 0x7C82288F CALLER ADDRESS PUSH32 0x5945535F4F525F4E4F5F51554552590000000000000000000000000000000000 DUP9 DUP11 PUSH1 0x0 PUSH1 0x40 MLOAD DUP8 PUSH4 0xFFFFFFFF AND PUSH1 0xE0 SHL DUP2 MSTORE PUSH1 0x4 ADD PUSH2 0x1B29 SWAP7 SWAP6 SWAP5 SWAP4 SWAP3 SWAP2 SWAP1 PUSH2 0x37FD JUMP JUMPDEST PUSH1 0x20 PUSH1 0x40 MLOAD DUP1 DUP4 SUB DUP2 PUSH1 0x0 DUP8 GAS CALL ISZERO DUP1 ISZERO PUSH2 0x1B48 JUMPI RETURNDATASIZE PUSH1 0x0 DUP1 RETURNDATACOPY RETURNDATASIZE PUSH1 0x0 REVERT JUMPDEST POP POP POP POP PUSH1 0x40 MLOAD RETURNDATASIZE PUSH1 0x1F NOT PUSH1 0x1F DUP3 ADD AND DUP3 ADD DUP1 PUSH1 0x40 MSTORE POP DUP2 ADD SWAP1 PUSH2 0x1B6C SWAP2 SWAP1 PUSH2 0x2ED3 JUMP JUMPDEST POP DUP1 PUSH1 0x5 SLOAD PUSH32 0xBFD0A97B84E92DCFF8D198F9EA115EB00F7460DAFFDF76D66B331E26A6870386 DUP10 DUP10 PUSH1 0x40 MLOAD PUSH2 0x1BA2 SWAP3 SWAP2 SWAP1 PUSH2 0x3702 JUMP JUMPDEST PUSH1 0x40 MLOAD DUP1 SWAP2 SUB SWAP1 LOG3 PUSH1 0x5 PUSH1 0x0 DUP2 SLOAD DUP1 SWAP3 SWAP2 SWAP1 PUSH2 0x1BBD SWAP1 PUSH2 0x31DF JUMP JUMPDEST SWAP2 SWAP1 POP SSTORE POP POP POP POP POP POP POP POP JUMP JUMPDEST PUSH1 0x0 DUP1 PUSH1 0x1 SWAP1 SLOAD SWAP1 PUSH2 0x100 EXP SWAP1 DIV PUSH1 0xFF AND ISZERO SWAP1 POP DUP1 DUP1 ISZERO PUSH2 0x1BFC JUMPI POP PUSH1 0x1 PUSH1 0x0 DUP1 SLOAD SWAP1 PUSH2 0x100 EXP SWAP1 DIV PUSH1 0xFF AND PUSH1 0xFF AND LT JUMPDEST DUP1 PUSH2 0x1C29 JUMPI POP PUSH2 0x1C0B ADDRESS PUSH2 0x24D4 JUMP JUMPDEST ISZERO DUP1 ISZERO PUSH2 0x1C28 JUMPI POP PUSH1 0x1 PUSH1 0x0 DUP1 SLOAD SWAP1 PUSH2 0x100 EXP SWAP1 DIV PUSH1 0xFF AND PUSH1 0xFF AND EQ JUMPDEST JUMPDEST PUSH2 0x1C68 JUMPI PUSH1 0x40 MLOAD PUSH32 0x8C379A000000000000000000000000000000000000000000000000000000000 DUP2 MSTORE PUSH1 0x4 ADD PUSH2 0x1C5F SWAP1 PUSH2 0x38D7 JUMP JUMPDEST PUSH1 0x40 MLOAD DUP1 SWAP2 SUB SWAP1 REVERT JUMPDEST PUSH1 0x1 PUSH1 0x0 DUP1 PUSH2 0x100 EXP DUP2 SLOAD DUP2 PUSH1 0xFF MUL NOT AND SWAP1 DUP4 PUSH1 0xFF AND MUL OR SWAP1 SSTORE POP DUP1 ISZERO PUSH2 0x1CA5 JUMPI PUSH1 0x1 PUSH1 0x0 PUSH1 0x1 PUSH2 0x100 EXP DUP2 SLOAD DUP2 PUSH1 0xFF MUL NOT AND SWAP1 DUP4 ISZERO ISZERO MUL OR SWAP1 SSTORE POP JUMPDEST PUSH2 0x7080 DUP7 GT PUSH2 0x1CE9 JUMPI PUSH1 0x40 MLOAD PUSH32 0x8C379A000000000000000000000000000000000000000000000000000000000 DUP2 MSTORE PUSH1 0x4 ADD PUSH2 0x1CE0 SWAP1 PUSH2 0x3969 JUMP JUMPDEST PUSH1 0x40 MLOAD DUP1 SWAP2 SUB SWAP1 REVERT JUMPDEST PUSH5 0x37E11D600 DUP6 GT PUSH2 0x1D30 JUMPI PUSH1 0x40 MLOAD PUSH32 0x8C379A000000000000000000000000000000000000000000000000000000000 DUP2 MSTORE PUSH1 0x4 ADD PUSH2 0x1D27 SWAP1 PUSH2 0x39FB JUMP JUMPDEST PUSH1 0x40 MLOAD DUP1 SWAP2 SUB SWAP1 REVERT JUMPDEST DUP8 PUSH1 0x40 MLOAD PUSH1 0x20 ADD PUSH2 0x1D41 SWAP2 SWAP1 PUSH2 0x3B25 JUMP JUMPDEST PUSH1 0x40 MLOAD PUSH1 0x20 DUP2 DUP4 SUB SUB DUP2 MSTORE SWAP1 PUSH1 0x40 MSTORE PUSH1 0x7 SWAP1 DUP2 PUSH2 0x1D5E SWAP2 SWAP1 PUSH2 0x3CD4 JUMP JUMPDEST POP DUP7 PUSH1 0x6 SWAP1 DUP2 PUSH2 0x1D6E SWAP2 SWAP1 PUSH2 0x3E01 JUMP JUMPDEST POP DUP6 PUSH1 0x2 DUP2 SWAP1 SSTORE POP DUP5 PUSH1 0x1 DUP2 SWAP1 SSTORE POP DUP4 PUSH1 0x3 DUP2 SWAP1 SSTORE POP DUP3 PUSH1 0x4 DUP2 SWAP1 SSTORE POP PUSH1 0x1 PUSH1 0x5 DUP2 SWAP1 SSTORE POP PUSH2 0x1D9C DUP3 PUSH2 0x1E05 JUMP JUMPDEST DUP1 ISZERO PUSH2 0x1DF5 JUMPI PUSH1 0x0 DUP1 PUSH1 0x1 PUSH2 0x100 EXP DUP2 SLOAD DUP2 PUSH1 0xFF MUL NOT AND SWAP1 DUP4 ISZERO ISZERO MUL OR SWAP1 SSTORE POP PUSH32 0x7F26B83FF96E1F2B6A682F133852F6798A09C465DA95921460CEFB3847402498 PUSH1 0x1 PUSH1 0x40 MLOAD PUSH2 0x1DEC SWAP2 SWAP1 PUSH2 0x3F1B JUMP JUMPDEST PUSH1 0x40 MLOAD DUP1 SWAP2 SUB SWAP1 LOG1 JUMPDEST POP POP POP POP POP POP POP POP JUMP JUMPDEST PUSH1 0x3 SLOAD DUP2 JUMP JUMPDEST PUSH2 0x1E0D PUSH2 0x2391 JUMP JUMPDEST PUSH1 0x0 PUSH20 0xFFFFFFFFFFFFFFFFFFFFFFFFFFFFFFFFFFFFFFFF AND DUP2 PUSH20 0xFFFFFFFFFFFFFFFFFFFFFFFFFFFFFFFFFFFFFFFF AND SUB PUSH2 0x1E7C JUMPI PUSH1 0x40 MLOAD PUSH32 0x8C379A000000000000000000000000000000000000000000000000000000000 DUP2 MSTORE PUSH1 0x4 ADD PUSH2 0x1E73 SWAP1 PUSH2 0x3FA8 JUMP JUMPDEST PUSH1 0x40 MLOAD DUP1 SWAP2 SUB SWAP1 REVERT JUMPDEST PUSH2 0x1E85 DUP2 PUSH2 0x240F JUMP JUMPDEST POP JUMP JUMPDEST PUSH2 0x1E90 PUSH2 0x2391 JUMP JUMPDEST PUSH20 0xB4FBF271143F4FBF7B91A5DED31805E42B2208D6 PUSH20 0xFFFFFFFFFFFFFFFFFFFFFFFFFFFFFFFFFFFFFFFF AND PUSH4 0xA9059CBB DUP4 DUP4 PUSH1 0x40 MLOAD DUP4 PUSH4 0xFFFFFFFF AND PUSH1 0xE0 SHL DUP2 MSTORE PUSH1 0x4 ADD PUSH2 0x1EDF SWAP3 SWAP2 SWAP1 PUSH2 0x2F00 JUMP JUMPDEST PUSH1 0x20 PUSH1 0x40 MLOAD DUP1 DUP4 SUB DUP2 PUSH1 0x0 DUP8 GAS CALL ISZERO DUP1 ISZERO PUSH2 0x1EFE JUMPI RETURNDATASIZE PUSH1 0x0 DUP1 RETURNDATACOPY RETURNDATASIZE PUSH1 0x0 REVERT JUMPDEST POP POP POP POP PUSH1 0x40 MLOAD RETURNDATASIZE PUSH1 0x1F NOT PUSH1 0x1F DUP3 ADD AND DUP3 ADD DUP1 PUSH1 0x40 MSTORE POP DUP2 ADD SWAP1 PUSH2 0x1F22 SWAP2 SWAP1 PUSH2 0x2F55 JUMP JUMPDEST POP POP POP JUMP JUMPDEST PUSH1 0x60 PUSH1 0x0 DUP3 SUB PUSH2 0x1F6E JUMPI PUSH1 0x40 MLOAD DUP1 PUSH1 0x40 ADD PUSH1 0x40 MSTORE DUP1 PUSH1 0x1 DUP2 MSTORE PUSH1 0x20 ADD PUSH32 0x3000000000000000000000000000000000000000000000000000000000000000 DUP2 MSTORE POP SWAP1 POP PUSH2 0x20AA JUMP JUMPDEST PUSH1 0x0 DUP3 SWAP1 POP PUSH1 0x0 JUMPDEST PUSH1 0x0 DUP3 EQ PUSH2 0x1FA0 JUMPI DUP1 DUP1 PUSH2 0x1F89 SWAP1 PUSH2 0x31DF JUMP JUMPDEST SWAP2 POP POP PUSH1 0xA DUP3 PUSH2 0x1F99 SWAP2 SWAP1 PUSH2 0x3FF7 JUMP JUMPDEST SWAP2 POP PUSH2 0x1F76 JUMP JUMPDEST PUSH1 0x0 DUP2 PUSH8 0xFFFFFFFFFFFFFFFF DUP2 GT ISZERO PUSH2 0x1FBC JUMPI PUSH2 0x1FBB PUSH2 0x259A JUMP JUMPDEST JUMPDEST PUSH1 0x40 MLOAD SWAP1 DUP1 DUP3 MSTORE DUP1 PUSH1 0x1F ADD PUSH1 0x1F NOT AND PUSH1 0x20 ADD DUP3 ADD PUSH1 0x40 MSTORE DUP1 ISZERO PUSH2 0x1FEE JUMPI DUP2 PUSH1 0x20 ADD PUSH1 0x1 DUP3 MUL DUP1 CALLDATASIZE DUP4 CALLDATACOPY DUP1 DUP3 ADD SWAP2 POP POP SWAP1 POP JUMPDEST POP SWAP1 POP PUSH1 0x0 DUP3 SWAP1 POP JUMPDEST PUSH1 0x0 DUP7 EQ PUSH2 0x20A2 JUMPI PUSH1 0x1 DUP2 PUSH2 0x200C SWAP2 SWAP1 PUSH2 0x317C JUMP JUMPDEST SWAP1 POP PUSH1 0x0 PUSH1 0xA DUP1 DUP9 PUSH2 0x201E SWAP2 SWAP1 PUSH2 0x3FF7 JUMP JUMPDEST PUSH2 0x2028 SWAP2 SWAP1 PUSH2 0x2E7C JUMP JUMPDEST DUP8 PUSH2 0x2033 SWAP2 SWAP1 PUSH2 0x317C JUMP JUMPDEST PUSH1 0x30 PUSH2 0x203F SWAP2 SWAP1 PUSH2 0x4028 JUMP JUMPDEST SWAP1 POP PUSH1 0x0 DUP2 PUSH1 0xF8 SHL SWAP1 POP DUP1 DUP5 DUP5 DUP2 MLOAD DUP2 LT PUSH2 0x205D JUMPI PUSH2 0x205C PUSH2 0x31B0 JUMP JUMPDEST JUMPDEST PUSH1 0x20 ADD ADD SWAP1 PUSH31 0xFFFFFFFFFFFFFFFFFFFFFFFFFFFFFFFFFFFFFFFFFFFFFFFFFFFFFFFFFFFFFF NOT AND SWAP1 DUP2 PUSH1 0x0 BYTE SWAP1 MSTORE8 POP PUSH1 0xA DUP9 PUSH2 0x2099 SWAP2 SWAP1 PUSH2 0x3FF7 JUMP JUMPDEST SWAP8 POP POP POP PUSH2 0x1FF7 JUMP JUMPDEST DUP2 SWAP5 POP POP POP POP POP JUMPDEST SWAP2 SWAP1 POP JUMP JUMPDEST PUSH1 0x0 PUSH20 0xA5B9D8A0B0FA04BA71BDD68069661ED5C0848884 PUSH20 0xFFFFFFFFFFFFFFFFFFFFFFFFFFFFFFFFFFFFFFFF AND PUSH4 0x11DF92F1 PUSH32 0x5945535F4F525F4E4F5F51554552590000000000000000000000000000000000 DUP6 DUP6 PUSH20 0xB4FBF271143F4FBF7B91A5DED31805E42B2208D6 PUSH1 0x0 PUSH1 0x40 MLOAD DUP7 PUSH4 0xFFFFFFFF AND PUSH1 0xE0 SHL DUP2 MSTORE PUSH1 0x4 ADD PUSH2 0x213B SWAP6 SWAP5 SWAP4 SWAP3 SWAP2 SWAP1 PUSH2 0x40E3 JUMP JUMPDEST PUSH1 0x20 PUSH1 0x40 MLOAD DUP1 DUP4 SUB DUP2 PUSH1 0x0 DUP8 GAS CALL ISZERO DUP1 ISZERO PUSH2 0x215A JUMPI RETURNDATASIZE PUSH1 0x0 DUP1 RETURNDATACOPY RETURNDATASIZE PUSH1 0x0 REVERT JUMPDEST POP POP POP POP PUSH1 0x40 MLOAD RETURNDATASIZE PUSH1 0x1F NOT PUSH1 0x1F DUP3 ADD AND DUP3 ADD DUP1 PUSH1 0x40 MSTORE POP DUP2 ADD SWAP1 PUSH2 0x217E SWAP2 SWAP1 PUSH2 0x2ED3 JUMP JUMPDEST POP PUSH20 0xA5B9D8A0B0FA04BA71BDD68069661ED5C0848884 PUSH20 0xFFFFFFFFFFFFFFFFFFFFFFFFFFFFFFFFFFFFFFFF AND PUSH4 0xF327B075 PUSH32 0x5945535F4F525F4E4F5F51554552590000000000000000000000000000000000 DUP6 DUP6 PUSH1 0x0 DUP1 PUSH1 0x1 PUSH1 0x40 MLOAD DUP8 PUSH4 0xFFFFFFFF AND PUSH1 0xE0 SHL DUP2 MSTORE PUSH1 0x4 ADD PUSH2 0x21F8 SWAP7 SWAP6 SWAP5 SWAP4 SWAP3 SWAP2 SWAP1 PUSH2 0x413D JUMP JUMPDEST PUSH1 0x0 PUSH1 0x40 MLOAD DUP1 DUP4 SUB DUP2 PUSH1 0x0 DUP8 DUP1 EXTCODESIZE ISZERO DUP1 ISZERO PUSH2 0x2212 JUMPI PUSH1 0x0 DUP1 REVERT JUMPDEST POP GAS CALL ISZERO DUP1 ISZERO PUSH2 0x2226 JUMPI RETURNDATASIZE PUSH1 0x0 DUP1 RETURNDATACOPY RETURNDATASIZE PUSH1 0x0 REVERT JUMPDEST POP POP POP POP PUSH20 0xA5B9D8A0B0FA04BA71BDD68069661ED5C0848884 PUSH20 0xFFFFFFFFFFFFFFFFFFFFFFFFFFFFFFFFFFFFFFFF AND PUSH4 0x473C45FE PUSH32 0x5945535F4F525F4E4F5F51554552590000000000000000000000000000000000 DUP6 DUP6 PUSH1 0x2 SLOAD PUSH1 0x40 MLOAD DUP6 PUSH4 0xFFFFFFFF AND PUSH1 0xE0 SHL DUP2 MSTORE PUSH1 0x4 ADD PUSH2 0x229F SWAP5 SWAP4 SWAP3 SWAP2 SWAP1 PUSH2 0x41A5 JUMP JUMPDEST PUSH1 0x0 PUSH1 0x40 MLOAD DUP1 DUP4 SUB DUP2 PUSH1 0x0 DUP8 DUP1 EXTCODESIZE ISZERO DUP1 ISZERO PUSH2 0x22B9 JUMPI PUSH1 0x0 DUP1 REVERT JUMPDEST POP GAS CALL ISZERO DUP1 ISZERO PUSH2 0x22CD JUMPI RETURNDATASIZE PUSH1 0x0 DUP1 RETURNDATACOPY RETURNDATASIZE PUSH1 0x0 REVERT JUMPDEST POP POP POP POP PUSH20 0xA5B9D8A0B0FA04BA71BDD68069661ED5C0848884 PUSH20 0xFFFFFFFFFFFFFFFFFFFFFFFFFFFFFFFFFFFFFFFF AND PUSH4 0xAD5A755A PUSH32 0x5945535F4F525F4E4F5F51554552590000000000000000000000000000000000 DUP6 DUP6 PUSH1 0x1 SLOAD PUSH1 0x40 MLOAD DUP6 PUSH4 0xFFFFFFFF AND PUSH1 0xE0 SHL DUP2 MSTORE PUSH1 0x4 ADD PUSH2 0x2346 SWAP5 SWAP4 SWAP3 SWAP2 SWAP1 PUSH2 0x41A5 JUMP JUMPDEST PUSH1 0x20 PUSH1 0x40 MLOAD DUP1 DUP4 SUB DUP2 PUSH1 0x0 DUP8 GAS CALL ISZERO DUP1 ISZERO PUSH2 0x2365 JUMPI RETURNDATASIZE PUSH1 0x0 DUP1 RETURNDATACOPY RETURNDATASIZE PUSH1 0x0 REVERT JUMPDEST POP POP POP POP PUSH1 0x40 MLOAD RETURNDATASIZE PUSH1 0x1F NOT PUSH1 0x1F DUP3 ADD AND DUP3 ADD DUP1 PUSH1 0x40 MSTORE POP DUP2 ADD SWAP1 PUSH2 0x2389 SWAP2 SWAP1 PUSH2 0x2ED3 JUMP JUMPDEST SWAP1 POP SWAP3 SWAP2 POP POP JUMP JUMPDEST PUSH2 0x2399 PUSH2 0x24F7 JUMP JUMPDEST PUSH20 0xFFFFFFFFFFFFFFFFFFFFFFFFFFFFFFFFFFFFFFFF AND PUSH2 0x23B7 PUSH2 0x1554 JUMP JUMPDEST PUSH20 0xFFFFFFFFFFFFFFFFFFFFFFFFFFFFFFFFFFFFFFFF AND EQ PUSH2 0x240D JUMPI PUSH1 0x40 MLOAD PUSH32 0x8C379A000000000000000000000000000000000000000000000000000000000 DUP2 MSTORE PUSH1 0x4 ADD PUSH2 0x2404 SWAP1 PUSH2 0x423D JUMP JUMPDEST PUSH1 0x40 MLOAD DUP1 SWAP2 SUB SWAP1 REVERT JUMPDEST JUMP JUMPDEST PUSH1 0x0 DUP1 PUSH1 0x2 SWAP1 SLOAD SWAP1 PUSH2 0x100 EXP SWAP1 DIV PUSH20 0xFFFFFFFFFFFFFFFFFFFFFFFFFFFFFFFFFFFFFFFF AND SWAP1 POP DUP2 PUSH1 0x0 PUSH1 0x2 PUSH2 0x100 EXP DUP2 SLOAD DUP2 PUSH20 0xFFFFFFFFFFFFFFFFFFFFFFFFFFFFFFFFFFFFFFFF MUL NOT AND SWAP1 DUP4 PUSH20 0xFFFFFFFFFFFFFFFFFFFFFFFFFFFFFFFFFFFFFFFF AND MUL OR SWAP1 SSTORE POP DUP2 PUSH20 0xFFFFFFFFFFFFFFFFFFFFFFFFFFFFFFFFFFFFFFFF AND DUP2 PUSH20 0xFFFFFFFFFFFFFFFFFFFFFFFFFFFFFFFFFFFFFFFF AND PUSH32 0x8BE0079C531659141344CD1FD0A4F28419497F9722A3DAAFE3B4186F6B6457E0 PUSH1 0x40 MLOAD PUSH1 0x40 MLOAD DUP1 SWAP2 SUB SWAP1 LOG3 POP POP JUMP JUMPDEST PUSH1 0x0 DUP1 DUP3 PUSH20 0xFFFFFFFFFFFFFFFFFFFFFFFFFFFFFFFFFFFFFFFF AND EXTCODESIZE GT SWAP1 POP SWAP2 SWAP1 POP JUMP JUMPDEST PUSH1 0x0 CALLER SWAP1 POP SWAP1 JUMP JUMPDEST PUSH1 0x0 PUSH1 0x40 MLOAD SWAP1 POP SWAP1 JUMP JUMPDEST PUSH1 0x0 DUP1 REVERT JUMPDEST PUSH1 0x0 DUP1 REVERT JUMPDEST PUSH1 0x0 DUP2 SWAP1 POP SWAP2 SWAP1 POP JUMP JUMPDEST PUSH2 0x2526 DUP2 PUSH2 0x2513 JUMP JUMPDEST DUP2 EQ PUSH2 0x2531 JUMPI PUSH1 0x0 DUP1 REVERT JUMPDEST POP JUMP JUMPDEST PUSH1 0x0 DUP2 CALLDATALOAD SWAP1 POP PUSH2 0x2543 DUP2 PUSH2 0x251D JUMP JUMPDEST SWAP3 SWAP2 POP POP JUMP JUMPDEST PUSH1 0x0 DUP2 SWAP1 POP SWAP2 SWAP1 POP JUMP JUMPDEST PUSH2 0x255C DUP2 PUSH2 0x2549 JUMP JUMPDEST DUP2 EQ PUSH2 0x2567 JUMPI PUSH1 0x0 DUP1 REVERT JUMPDEST POP JUMP JUMPDEST PUSH1 0x0 DUP2 CALLDATALOAD SWAP1 POP PUSH2 0x2579 DUP2 PUSH2 0x2553 JUMP JUMPDEST SWAP3 SWAP2 POP POP JUMP JUMPDEST PUSH1 0x0 DUP1 REVERT JUMPDEST PUSH1 0x0 DUP1 REVERT JUMPDEST PUSH1 0x0 PUSH1 0x1F NOT PUSH1 0x1F DUP4 ADD AND SWAP1 POP SWAP2 SWAP1 POP JUMP JUMPDEST PUSH32 0x4E487B7100000000000000000000000000000000000000000000000000000000 PUSH1 0x0 MSTORE PUSH1 0x41 PUSH1 0x4 MSTORE PUSH1 0x24 PUSH1 0x0 REVERT JUMPDEST PUSH2 0x25D2 DUP3 PUSH2 0x2589 JUMP JUMPDEST DUP2 ADD DUP2 DUP2 LT PUSH8 0xFFFFFFFFFFFFFFFF DUP3 GT OR ISZERO PUSH2 0x25F1 JUMPI PUSH2 0x25F0 PUSH2 0x259A JUMP JUMPDEST JUMPDEST DUP1 PUSH1 0x40 MSTORE POP POP POP JUMP JUMPDEST PUSH1 0x0 PUSH2 0x2604 PUSH2 0x24FF JUMP JUMPDEST SWAP1 POP PUSH2 0x2610 DUP3 DUP3 PUSH2 0x25C9 JUMP JUMPDEST SWAP2 SWAP1 POP JUMP JUMPDEST PUSH1 0x0 PUSH8 0xFFFFFFFFFFFFFFFF DUP3 GT ISZERO PUSH2 0x2630 JUMPI PUSH2 0x262F PUSH2 0x259A JUMP JUMPDEST JUMPDEST PUSH2 0x2639 DUP3 PUSH2 0x2589 JUMP JUMPDEST SWAP1 POP PUSH1 0x20 DUP2 ADD SWAP1 POP SWAP2 SWAP1 POP JUMP JUMPDEST DUP3 DUP2 DUP4 CALLDATACOPY PUSH1 0x0 DUP4 DUP4 ADD MSTORE POP POP POP JUMP JUMPDEST PUSH1 0x0 PUSH2 0x2668 PUSH2 0x2663 DUP5 PUSH2 0x2615 JUMP JUMPDEST PUSH2 0x25FA JUMP JUMPDEST SWAP1 POP DUP3 DUP2 MSTORE PUSH1 0x20 DUP2 ADD DUP5 DUP5 DUP5 ADD GT ISZERO PUSH2 0x2684 JUMPI PUSH2 0x2683 PUSH2 0x2584 JUMP JUMPDEST JUMPDEST PUSH2 0x268F DUP5 DUP3 DUP6 PUSH2 0x2646 JUMP JUMPDEST POP SWAP4 SWAP3 POP POP POP JUMP JUMPDEST PUSH1 0x0 DUP3 PUSH1 0x1F DUP4 ADD SLT PUSH2 0x26AC JUMPI PUSH2 0x26AB PUSH2 0x257F JUMP JUMPDEST JUMPDEST DUP2 CALLDATALOAD PUSH2 0x26BC DUP5 DUP3 PUSH1 0x20 DUP7 ADD PUSH2 0x2655 JUMP JUMPDEST SWAP2 POP POP SWAP3 SWAP2 POP POP JUMP JUMPDEST PUSH1 0x0 DUP2 SWAP1 POP SWAP2 SWAP1 POP JUMP JUMPDEST PUSH2 0x26D8 DUP2 PUSH2 0x26C5 JUMP JUMPDEST DUP2 EQ PUSH2 0x26E3 JUMPI PUSH1 0x0 DUP1 REVERT JUMPDEST POP JUMP JUMPDEST PUSH1 0x0 DUP2 CALLDATALOAD SWAP1 POP PUSH2 0x26F5 DUP2 PUSH2 0x26CF JUMP JUMPDEST SWAP3 SWAP2 POP POP JUMP JUMPDEST PUSH1 0x0 DUP1 PUSH1 0x0 DUP1 PUSH1 0x80 DUP6 DUP8 SUB SLT ISZERO PUSH2 0x2715 JUMPI PUSH2 0x2714 PUSH2 0x2509 JUMP JUMPDEST JUMPDEST PUSH1 0x0 PUSH2 0x2723 DUP8 DUP3 DUP9 ADD PUSH2 0x2534 JUMP JUMPDEST SWAP5 POP POP PUSH1 0x20 PUSH2 0x2734 DUP8 DUP3 DUP9 ADD PUSH2 0x256A JUMP JUMPDEST SWAP4 POP POP PUSH1 0x40 DUP6 ADD CALLDATALOAD PUSH8 0xFFFFFFFFFFFFFFFF DUP2 GT ISZERO PUSH2 0x2755 JUMPI PUSH2 0x2754 PUSH2 0x250E JUMP JUMPDEST JUMPDEST PUSH2 0x2761 DUP8 DUP3 DUP9 ADD PUSH2 0x2697 JUMP JUMPDEST SWAP3 POP POP PUSH1 0x60 PUSH2 0x2772 DUP8 DUP3 DUP9 ADD PUSH2 0x26E6 JUMP JUMPDEST SWAP2 POP POP SWAP3 SWAP6 SWAP2 SWAP5 POP SWAP3 POP JUMP JUMPDEST PUSH1 0x0 DUP1 REVERT JUMPDEST PUSH1 0x0 DUP1 REVERT JUMPDEST PUSH1 0x0 DUP1 DUP4 PUSH1 0x1F DUP5 ADD SLT PUSH2 0x279E JUMPI PUSH2 0x279D PUSH2 0x257F JUMP JUMPDEST JUMPDEST DUP3 CALLDATALOAD SWAP1 POP PUSH8 0xFFFFFFFFFFFFFFFF DUP2 GT ISZERO PUSH2 0x27BB JUMPI PUSH2 0x27BA PUSH2 0x277E JUMP JUMPDEST JUMPDEST PUSH1 0x20 DUP4 ADD SWAP2 POP DUP4 PUSH1 0x20 DUP3 MUL DUP4 ADD GT ISZERO PUSH2 0x27D7 JUMPI PUSH2 0x27D6 PUSH2 0x2783 JUMP JUMPDEST JUMPDEST SWAP3 POP SWAP3 SWAP1 POP JUMP JUMPDEST PUSH1 0x0 DUP1 PUSH1 0x0 PUSH1 0x40 DUP5 DUP7 SUB SLT ISZERO PUSH2 0x27F7 JUMPI PUSH2 0x27F6 PUSH2 0x2509 JUMP JUMPDEST JUMPDEST PUSH1 0x0 PUSH2 0x2805 DUP7 DUP3 DUP8 ADD PUSH2 0x256A JUMP JUMPDEST SWAP4 POP POP PUSH1 0x20 DUP5 ADD CALLDATALOAD PUSH8 0xFFFFFFFFFFFFFFFF DUP2 GT ISZERO PUSH2 0x2826 JUMPI PUSH2 0x2825 PUSH2 0x250E JUMP JUMPDEST JUMPDEST PUSH2 0x2832 DUP7 DUP3 DUP8 ADD PUSH2 0x2788 JUMP JUMPDEST SWAP3 POP SWAP3 POP POP SWAP3 POP SWAP3 POP SWAP3 JUMP JUMPDEST PUSH1 0x0 DUP1 PUSH1 0x20 DUP4 DUP6 SUB SLT ISZERO PUSH2 0x2855 JUMPI PUSH2 0x2854 PUSH2 0x2509 JUMP JUMPDEST JUMPDEST PUSH1 0x0 DUP4 ADD CALLDATALOAD PUSH8 0xFFFFFFFFFFFFFFFF DUP2 GT ISZERO PUSH2 0x2873 JUMPI PUSH2 0x2872 PUSH2 0x250E JUMP JUMPDEST JUMPDEST PUSH2 0x287F DUP6 DUP3 DUP7 ADD PUSH2 0x2788 JUMP JUMPDEST SWAP3 POP SWAP3 POP POP SWAP3 POP SWAP3 SWAP1 POP JUMP JUMPDEST PUSH1 0x0 DUP2 MLOAD SWAP1 POP SWAP2 SWAP1 POP JUMP JUMPDEST PUSH1 0x0 DUP3 DUP3 MSTORE PUSH1 0x20 DUP3 ADD SWAP1 POP SWAP3 SWAP2 POP POP JUMP JUMPDEST PUSH1 0x0 JUMPDEST DUP4 DUP2 LT ISZERO PUSH2 0x28C5 JUMPI DUP1 DUP3 ADD MLOAD DUP2 DUP5 ADD MSTORE PUSH1 0x20 DUP2 ADD SWAP1 POP PUSH2 0x28AA JUMP JUMPDEST PUSH1 0x0 DUP5 DUP5 ADD MSTORE POP POP POP POP JUMP JUMPDEST PUSH1 0x0 PUSH2 0x28DC DUP3 PUSH2 0x288B JUMP JUMPDEST PUSH2 0x28E6 DUP2 DUP6 PUSH2 0x2896 JUMP JUMPDEST SWAP4 POP PUSH2 0x28F6 DUP2 DUP6 PUSH1 0x20 DUP7 ADD PUSH2 0x28A7 JUMP JUMPDEST PUSH2 0x28FF DUP2 PUSH2 0x2589 JUMP JUMPDEST DUP5 ADD SWAP2 POP POP SWAP3 SWAP2 POP POP JUMP JUMPDEST PUSH1 0x0 PUSH1 0x20 DUP3 ADD SWAP1 POP DUP2 DUP2 SUB PUSH1 0x0 DUP4 ADD MSTORE PUSH2 0x2924 DUP2 DUP5 PUSH2 0x28D1 JUMP JUMPDEST SWAP1 POP SWAP3 SWAP2 POP POP JUMP JUMPDEST PUSH1 0x0 DUP2 MLOAD SWAP1 POP SWAP2 SWAP1 POP JUMP JUMPDEST PUSH1 0x0 DUP3 DUP3 MSTORE PUSH1 0x20 DUP3 ADD SWAP1 POP SWAP3 SWAP2 POP POP JUMP JUMPDEST PUSH1 0x0 PUSH2 0x2953 DUP3 PUSH2 0x292C JUMP JUMPDEST PUSH2 0x295D DUP2 DUP6 PUSH2 0x2937 JUMP JUMPDEST SWAP4 POP PUSH2 0x296D DUP2 DUP6 PUSH1 0x20 DUP7 ADD PUSH2 0x28A7 JUMP JUMPDEST PUSH2 0x2976 DUP2 PUSH2 0x2589 JUMP JUMPDEST DUP5 ADD SWAP2 POP POP SWAP3 SWAP2 POP POP JUMP JUMPDEST PUSH1 0x0 PUSH1 0x20 DUP3 ADD SWAP1 POP DUP2 DUP2 SUB PUSH1 0x0 DUP4 ADD MSTORE PUSH2 0x299B DUP2 DUP5 PUSH2 0x2948 JUMP JUMPDEST SWAP1 POP SWAP3 SWAP2 POP POP JUMP JUMPDEST PUSH2 0x29AC DUP2 PUSH2 0x2549 JUMP JUMPDEST DUP3 MSTORE POP POP JUMP JUMPDEST PUSH1 0x0 PUSH1 0x20 DUP3 ADD SWAP1 POP PUSH2 0x29C7 PUSH1 0x0 DUP4 ADD DUP5 PUSH2 0x29A3 JUMP JUMPDEST SWAP3 SWAP2 POP POP JUMP JUMPDEST PUSH1 0x0 PUSH20 0xFFFFFFFFFFFFFFFFFFFFFFFFFFFFFFFFFFFFFFFF DUP3 AND SWAP1 POP SWAP2 SWAP1 POP JUMP JUMPDEST PUSH1 0x0 PUSH2 0x29F8 DUP3 PUSH2 0x29CD JUMP JUMPDEST SWAP1 POP SWAP2 SWAP1 POP JUMP JUMPDEST PUSH2 0x2A08 DUP2 PUSH2 0x29ED JUMP JUMPDEST DUP2 EQ PUSH2 0x2A13 JUMPI PUSH1 0x0 DUP1 REVERT JUMPDEST POP JUMP JUMPDEST PUSH1 0x0 DUP2 CALLDATALOAD SWAP1 POP PUSH2 0x2A25 DUP2 PUSH2 0x29FF JUMP JUMPDEST SWAP3 SWAP2 POP POP JUMP JUMPDEST PUSH1 0x0 PUSH1 0x20 DUP3 DUP5 SUB SLT ISZERO PUSH2 0x2A41 JUMPI PUSH2 0x2A40 PUSH2 0x2509 JUMP JUMPDEST JUMPDEST PUSH1 0x0 PUSH2 0x2A4F DUP5 DUP3 DUP6 ADD PUSH2 0x2A16 JUMP JUMPDEST SWAP2 POP POP SWAP3 SWAP2 POP POP JUMP JUMPDEST PUSH1 0x0 DUP2 ISZERO ISZERO SWAP1 POP SWAP2 SWAP1 POP JUMP JUMPDEST PUSH2 0x2A6D DUP2 PUSH2 0x2A58 JUMP JUMPDEST DUP3 MSTORE POP POP JUMP JUMPDEST PUSH1 0x0 PUSH1 0x20 DUP3 ADD SWAP1 POP PUSH2 0x2A88 PUSH1 0x0 DUP4 ADD DUP5 PUSH2 0x2A64 JUMP JUMPDEST SWAP3 SWAP2 POP POP JUMP JUMPDEST PUSH1 0x0 PUSH1 0x20 DUP3 DUP5 SUB SLT ISZERO PUSH2 0x2AA4 JUMPI PUSH2 0x2AA3 PUSH2 0x2509 JUMP JUMPDEST JUMPDEST PUSH1 0x0 PUSH2 0x2AB2 DUP5 DUP3 DUP6 ADD PUSH2 0x256A JUMP JUMPDEST SWAP2 POP POP SWAP3 SWAP2 POP POP JUMP JUMPDEST PUSH2 0x2AC4 DUP2 PUSH2 0x29ED JUMP JUMPDEST DUP3 MSTORE POP POP JUMP JUMPDEST PUSH2 0x2AD3 DUP2 PUSH2 0x2513 JUMP JUMPDEST DUP3 MSTORE POP POP JUMP JUMPDEST PUSH2 0x2AE2 DUP2 PUSH2 0x26C5 JUMP JUMPDEST DUP3 MSTORE POP POP JUMP JUMPDEST PUSH32 0x4E487B7100000000000000000000000000000000000000000000000000000000 PUSH1 0x0 MSTORE PUSH1 0x21 PUSH1 0x4 MSTORE PUSH1 0x24 PUSH1 0x0 REVERT JUMPDEST PUSH1 0x4 DUP2 LT PUSH2 0x2B28 JUMPI PUSH2 0x2B27 PUSH2 0x2AE8 JUMP JUMPDEST JUMPDEST POP JUMP JUMPDEST PUSH1 0x0 DUP2 SWAP1 POP PUSH2 0x2B39 DUP3 PUSH2 0x2B17 JUMP JUMPDEST SWAP2 SWAP1 POP JUMP JUMPDEST PUSH1 0x0 PUSH2 0x2B49 DUP3 PUSH2 0x2B2B JUMP JUMPDEST SWAP1 POP SWAP2 SWAP1 POP JUMP JUMPDEST PUSH2 0x2B59 DUP2 PUSH2 0x2B3E JUMP JUMPDEST DUP3 MSTORE POP POP JUMP JUMPDEST PUSH1 0x0 PUSH1 0xA0 DUP3 ADD SWAP1 POP PUSH2 0x2B74 PUSH1 0x0 DUP4 ADD DUP9 PUSH2 0x2ABB JUMP JUMPDEST PUSH2 0x2B81 PUSH1 0x20 DUP4 ADD DUP8 PUSH2 0x2ACA JUMP JUMPDEST PUSH2 0x2B8E PUSH1 0x40 DUP4 ADD DUP7 PUSH2 0x2AD9 JUMP JUMPDEST PUSH2 0x2B9B PUSH1 0x60 DUP4 ADD DUP6 PUSH2 0x29A3 JUMP JUMPDEST PUSH2 0x2BA8 PUSH1 0x80 DUP4 ADD DUP5 PUSH2 0x2B50 JUMP JUMPDEST SWAP7 SWAP6 POP POP POP POP POP POP JUMP JUMPDEST PUSH1 0x0 PUSH1 0x20 DUP3 ADD SWAP1 POP PUSH2 0x2BC7 PUSH1 0x0 DUP4 ADD DUP5 PUSH2 0x2ABB JUMP JUMPDEST SWAP3 SWAP2 POP POP JUMP JUMPDEST PUSH1 0x0 DUP1 PUSH1 0x40 DUP4 DUP6 SUB SLT ISZERO PUSH2 0x2BE4 JUMPI PUSH2 0x2BE3 PUSH2 0x2509 JUMP JUMPDEST JUMPDEST PUSH1 0x0 PUSH2 0x2BF2 DUP6 DUP3 DUP7 ADD PUSH2 0x256A JUMP JUMPDEST SWAP3 POP POP PUSH1 0x20 PUSH2 0x2C03 DUP6 DUP3 DUP7 ADD PUSH2 0x256A JUMP JUMPDEST SWAP2 POP POP SWAP3 POP SWAP3 SWAP1 POP JUMP JUMPDEST PUSH1 0x0 PUSH8 0xFFFFFFFFFFFFFFFF DUP3 GT ISZERO PUSH2 0x2C28 JUMPI PUSH2 0x2C27 PUSH2 0x259A JUMP JUMPDEST JUMPDEST PUSH2 0x2C31 DUP3 PUSH2 0x2589 JUMP JUMPDEST SWAP1 POP PUSH1 0x20 DUP2 ADD SWAP1 POP SWAP2 SWAP1 POP JUMP JUMPDEST PUSH1 0x0 PUSH2 0x2C51 PUSH2 0x2C4C DUP5 PUSH2 0x2C0D JUMP JUMPDEST PUSH2 0x25FA JUMP JUMPDEST SWAP1 POP DUP3 DUP2 MSTORE PUSH1 0x20 DUP2 ADD DUP5 DUP5 DUP5 ADD GT ISZERO PUSH2 0x2C6D JUMPI PUSH2 0x2C6C PUSH2 0x2584 JUMP JUMPDEST JUMPDEST PUSH2 0x2C78 DUP5 DUP3 DUP6 PUSH2 0x2646 JUMP JUMPDEST POP SWAP4 SWAP3 POP POP POP JUMP JUMPDEST PUSH1 0x0 DUP3 PUSH1 0x1F DUP4 ADD SLT PUSH2 0x2C95 JUMPI PUSH2 0x2C94 PUSH2 0x257F JUMP JUMPDEST JUMPDEST DUP2 CALLDATALOAD PUSH2 0x2CA5 DUP5 DUP3 PUSH1 0x20 DUP7 ADD PUSH2 0x2C3E JUMP JUMPDEST SWAP2 POP POP SWAP3 SWAP2 POP POP JUMP JUMPDEST PUSH1 0x0 DUP1 PUSH1 0x0 DUP1 PUSH1 0x0 DUP1 PUSH1 0x0 PUSH1 0xE0 DUP9 DUP11 SUB SLT ISZERO PUSH2 0x2CCD JUMPI PUSH2 0x2CCC PUSH2 0x2509 JUMP JUMPDEST JUMPDEST PUSH1 0x0 DUP9 ADD CALLDATALOAD PUSH8 0xFFFFFFFFFFFFFFFF DUP2 GT ISZERO PUSH2 0x2CEB JUMPI PUSH2 0x2CEA PUSH2 0x250E JUMP JUMPDEST JUMPDEST PUSH2 0x2CF7 DUP11 DUP3 DUP12 ADD PUSH2 0x2697 JUMP JUMPDEST SWAP8 POP POP PUSH1 0x20 DUP9 ADD CALLDATALOAD PUSH8 0xFFFFFFFFFFFFFFFF DUP2 GT ISZERO PUSH2 0x2D18 JUMPI PUSH2 0x2D17 PUSH2 0x250E JUMP JUMPDEST JUMPDEST PUSH2 0x2D24 DUP11 DUP3 DUP12 ADD PUSH2 0x2C80 JUMP JUMPDEST SWAP7 POP POP PUSH1 0x40 PUSH2 0x2D35 DUP11 DUP3 DUP12 ADD PUSH2 0x256A JUMP JUMPDEST SWAP6 POP POP PUSH1 0x60 PUSH2 0x2D46 DUP11 DUP3 DUP12 ADD PUSH2 0x256A JUMP JUMPDEST SWAP5 POP POP PUSH1 0x80 PUSH2 0x2D57 DUP11 DUP3 DUP12 ADD PUSH2 0x256A JUMP JUMPDEST SWAP4 POP POP PUSH1 0xA0 PUSH2 0x2D68 DUP11 DUP3 DUP12 ADD PUSH2 0x256A JUMP JUMPDEST SWAP3 POP POP PUSH1 0xC0 PUSH2 0x2D79 DUP11 DUP3 DUP12 ADD PUSH2 0x2A16 JUMP JUMPDEST SWAP2 POP POP SWAP3 SWAP6 SWAP9 SWAP2 SWAP5 SWAP8 POP SWAP3 SWAP6 POP JUMP JUMPDEST PUSH1 0x0 DUP1 PUSH1 0x40 DUP4 DUP6 SUB SLT ISZERO PUSH2 0x2D9F JUMPI PUSH2 0x2D9E PUSH2 0x2509 JUMP JUMPDEST JUMPDEST PUSH1 0x0 PUSH2 0x2DAD DUP6 DUP3 DUP7 ADD PUSH2 0x2A16 JUMP JUMPDEST SWAP3 POP POP PUSH1 0x20 PUSH2 0x2DBE DUP6 DUP3 DUP7 ADD PUSH2 0x256A JUMP JUMPDEST SWAP2 POP POP SWAP3 POP SWAP3 SWAP1 POP JUMP JUMPDEST PUSH1 0x0 DUP2 SWAP1 POP SWAP3 SWAP2 POP POP JUMP JUMPDEST PUSH1 0x0 PUSH2 0x2DDE DUP3 PUSH2 0x292C JUMP JUMPDEST PUSH2 0x2DE8 DUP2 DUP6 PUSH2 0x2DC8 JUMP JUMPDEST SWAP4 POP PUSH2 0x2DF8 DUP2 DUP6 PUSH1 0x20 DUP7 ADD PUSH2 0x28A7 JUMP JUMPDEST DUP1 DUP5 ADD SWAP2 POP POP SWAP3 SWAP2 POP POP JUMP JUMPDEST PUSH1 0x0 DUP2 SWAP1 POP SWAP2 SWAP1 POP JUMP JUMPDEST PUSH2 0x2E1F PUSH2 0x2E1A DUP3 PUSH2 0x2549 JUMP JUMPDEST PUSH2 0x2E04 JUMP JUMPDEST DUP3 MSTORE POP POP JUMP JUMPDEST PUSH1 0x0 PUSH2 0x2E31 DUP3 DUP6 PUSH2 0x2DD3 JUMP JUMPDEST SWAP2 POP PUSH2 0x2E3D DUP3 DUP5 PUSH2 0x2E0E JUMP JUMPDEST PUSH1 0x20 DUP3 ADD SWAP2 POP DUP2 SWAP1 POP SWAP4 SWAP3 POP POP POP JUMP JUMPDEST PUSH32 0x4E487B7100000000000000000000000000000000000000000000000000000000 PUSH1 0x0 MSTORE PUSH1 0x11 PUSH1 0x4 MSTORE PUSH1 0x24 PUSH1 0x0 REVERT JUMPDEST PUSH1 0x0 PUSH2 0x2E87 DUP3 PUSH2 0x2549 JUMP JUMPDEST SWAP2 POP PUSH2 0x2E92 DUP4 PUSH2 0x2549 JUMP JUMPDEST SWAP3 POP DUP3 DUP3 MUL PUSH2 0x2EA0 DUP2 PUSH2 0x2549 JUMP JUMPDEST SWAP2 POP DUP3 DUP3 DIV DUP5 EQ DUP4 ISZERO OR PUSH2 0x2EB7 JUMPI PUSH2 0x2EB6 PUSH2 0x2E4D JUMP JUMPDEST JUMPDEST POP SWAP3 SWAP2 POP POP JUMP JUMPDEST PUSH1 0x0 DUP2 MLOAD SWAP1 POP PUSH2 0x2ECD DUP2 PUSH2 0x2553 JUMP JUMPDEST SWAP3 SWAP2 POP POP JUMP JUMPDEST PUSH1 0x0 PUSH1 0x20 DUP3 DUP5 SUB SLT ISZERO PUSH2 0x2EE9 JUMPI PUSH2 0x2EE8 PUSH2 0x2509 JUMP JUMPDEST JUMPDEST PUSH1 0x0 PUSH2 0x2EF7 DUP5 DUP3 DUP6 ADD PUSH2 0x2EBE JUMP JUMPDEST SWAP2 POP POP SWAP3 SWAP2 POP POP JUMP JUMPDEST PUSH1 0x0 PUSH1 0x40 DUP3 ADD SWAP1 POP PUSH2 0x2F15 PUSH1 0x0 DUP4 ADD DUP6 PUSH2 0x2ABB JUMP JUMPDEST PUSH2 0x2F22 PUSH1 0x20 DUP4 ADD DUP5 PUSH2 0x29A3 JUMP JUMPDEST SWAP4 SWAP3 POP POP POP JUMP JUMPDEST PUSH2 0x2F32 DUP2 PUSH2 0x2A58 JUMP JUMPDEST DUP2 EQ PUSH2 0x2F3D JUMPI PUSH1 0x0 DUP1 REVERT JUMPDEST POP JUMP JUMPDEST PUSH1 0x0 DUP2 MLOAD SWAP1 POP PUSH2 0x2F4F DUP2 PUSH2 0x2F29 JUMP JUMPDEST SWAP3 SWAP2 POP POP JUMP JUMPDEST PUSH1 0x0 PUSH1 0x20 DUP3 DUP5 SUB SLT ISZERO PUSH2 0x2F6B JUMPI PUSH2 0x2F6A PUSH2 0x2509 JUMP JUMPDEST JUMPDEST PUSH1 0x0 PUSH2 0x2F79 DUP5 DUP3 DUP6 ADD PUSH2 0x2F40 JUMP JUMPDEST SWAP2 POP POP SWAP3 SWAP2 POP POP JUMP JUMPDEST PUSH32 0x726571756573744964206973206E6F7420617070726F76656400000000000000 PUSH1 0x0 DUP3 ADD MSTORE POP JUMP JUMPDEST PUSH1 0x0 PUSH2 0x2FB8 PUSH1 0x19 DUP4 PUSH2 0x2896 JUMP JUMPDEST SWAP2 POP PUSH2 0x2FC3 DUP3 PUSH2 0x2F82 JUMP JUMPDEST PUSH1 0x20 DUP3 ADD SWAP1 POP SWAP2 SWAP1 POP JUMP JUMPDEST PUSH1 0x0 PUSH1 0x20 DUP3 ADD SWAP1 POP DUP2 DUP2 SUB PUSH1 0x0 DUP4 ADD MSTORE PUSH2 0x2FE7 DUP2 PUSH2 0x2FAB JUMP JUMPDEST SWAP1 POP SWAP2 SWAP1 POP JUMP JUMPDEST PUSH1 0x0 DUP2 SWAP1 POP SWAP3 SWAP2 POP POP JUMP JUMPDEST PUSH1 0x0 DUP2 SWAP1 POP SWAP2 SWAP1 POP JUMP JUMPDEST PUSH2 0x300C DUP2 PUSH2 0x29ED JUMP JUMPDEST DUP3 MSTORE POP POP JUMP JUMPDEST PUSH1 0x0 PUSH2 0x301E DUP4 DUP4 PUSH2 0x3003 JUMP JUMPDEST PUSH1 0x20 DUP4 ADD SWAP1 POP SWAP3 SWAP2 POP POP JUMP JUMPDEST PUSH1 0x0 PUSH2 0x3039 PUSH1 0x20 DUP5 ADD DUP5 PUSH2 0x2A16 JUMP JUMPDEST SWAP1 POP SWAP3 SWAP2 POP POP JUMP JUMPDEST PUSH1 0x0 PUSH1 0x20 DUP3 ADD SWAP1 POP SWAP2 SWAP1 POP JUMP JUMPDEST PUSH1 0x0 PUSH2 0x305A DUP4 DUP6 PUSH2 0x2FEE JUMP JUMPDEST SWAP4 POP PUSH2 0x3065 DUP3 PUSH2 0x2FF9 JUMP JUMPDEST DUP1 PUSH1 0x0 JUMPDEST DUP6 DUP2 LT ISZERO PUSH2 0x309E JUMPI PUSH2 0x307B DUP3 DUP5 PUSH2 0x302A JUMP JUMPDEST PUSH2 0x3085 DUP9 DUP3 PUSH2 0x3012 JUMP JUMPDEST SWAP8 POP PUSH2 0x3090 DUP4 PUSH2 0x3041 JUMP JUMPDEST SWAP3 POP POP PUSH1 0x1 DUP2 ADD SWAP1 POP PUSH2 0x3069 JUMP JUMPDEST POP DUP6 SWAP3 POP POP POP SWAP4 SWAP3 POP POP POP JUMP JUMPDEST PUSH1 0x0 PUSH2 0x30B8 DUP3 DUP5 DUP7 PUSH2 0x304E JUMP JUMPDEST SWAP2 POP DUP2 SWAP1 POP SWAP4 SWAP3 POP POP POP JUMP JUMPDEST PUSH32 0x6164647265737365732070726F766964656420646F206E6F74206D6174636820 PUSH1 0x0 DUP3 ADD MSTORE PUSH32 0x7468652070726F76696465642072657175657374496427732061646472657373 PUSH1 0x20 DUP3 ADD MSTORE PUSH32 0x6573486173680000000000000000000000000000000000000000000000000000 PUSH1 0x40 DUP3 ADD MSTORE POP JUMP JUMPDEST PUSH1 0x0 PUSH2 0x3146 PUSH1 0x46 DUP4 PUSH2 0x2896 JUMP JUMPDEST SWAP2 POP PUSH2 0x3151 DUP3 PUSH2 0x30C4 JUMP JUMPDEST PUSH1 0x60 DUP3 ADD SWAP1 POP SWAP2 SWAP1 POP JUMP JUMPDEST PUSH1 0x0 PUSH1 0x20 DUP3 ADD SWAP1 POP DUP2 DUP2 SUB PUSH1 0x0 DUP4 ADD MSTORE PUSH2 0x3175 DUP2 PUSH2 0x3139 JUMP JUMPDEST SWAP1 POP SWAP2 SWAP1 POP JUMP JUMPDEST PUSH1 0x0 PUSH2 0x3187 DUP3 PUSH2 0x2549 JUMP JUMPDEST SWAP2 POP PUSH2 0x3192 DUP4 PUSH2 0x2549 JUMP JUMPDEST SWAP3 POP DUP3 DUP3 SUB SWAP1 POP DUP2 DUP2 GT ISZERO PUSH2 0x31AA JUMPI PUSH2 0x31A9 PUSH2 0x2E4D JUMP JUMPDEST JUMPDEST SWAP3 SWAP2 POP POP JUMP JUMPDEST PUSH32 0x4E487B7100000000000000000000000000000000000000000000000000000000 PUSH1 0x0 MSTORE PUSH1 0x32 PUSH1 0x4 MSTORE PUSH1 0x24 PUSH1 0x0 REVERT JUMPDEST PUSH1 0x0 PUSH2 0x31EA DUP3 PUSH2 0x2549 JUMP JUMPDEST SWAP2 POP PUSH32 0xFFFFFFFFFFFFFFFFFFFFFFFFFFFFFFFFFFFFFFFFFFFFFFFFFFFFFFFFFFFFFFFF DUP3 SUB PUSH2 0x321C JUMPI PUSH2 0x321B PUSH2 0x2E4D JUMP JUMPDEST JUMPDEST PUSH1 0x1 DUP3 ADD SWAP1 POP SWAP2 SWAP1 POP JUMP JUMPDEST PUSH32 0x6174206C656173742031206164647265737320697320616C7265616479206F6E PUSH1 0x0 DUP3 ADD MSTORE PUSH32 0x206C697374000000000000000000000000000000000000000000000000000000 PUSH1 0x20 DUP3 ADD MSTORE POP JUMP JUMPDEST PUSH1 0x0 PUSH2 0x3283 PUSH1 0x25 DUP4 PUSH2 0x2896 JUMP JUMPDEST SWAP2 POP PUSH2 0x328E DUP3 PUSH2 0x3227 JUMP JUMPDEST PUSH1 0x40 DUP3 ADD SWAP1 POP SWAP2 SWAP1 POP JUMP JUMPDEST PUSH1 0x0 PUSH1 0x20 DUP3 ADD SWAP1 POP DUP2 DUP2 SUB PUSH1 0x0 DUP4 ADD MSTORE PUSH2 0x32B2 DUP2 PUSH2 0x3276 JUMP JUMPDEST SWAP1 POP SWAP2 SWAP1 POP JUMP JUMPDEST PUSH1 0x0 PUSH2 0x32C4 DUP3 PUSH2 0x2549 JUMP JUMPDEST SWAP2 POP PUSH2 0x32CF DUP4 PUSH2 0x2549 JUMP JUMPDEST SWAP3 POP DUP3 DUP3 ADD SWAP1 POP DUP1 DUP3 GT ISZERO PUSH2 0x32E7 JUMPI PUSH2 0x32E6 PUSH2 0x2E4D JUMP JUMPDEST JUMPDEST SWAP3 SWAP2 POP POP JUMP JUMPDEST PUSH32 0x61646472657373657320636F6E7461696E206475706C69636174650000000000 PUSH1 0x0 DUP3 ADD MSTORE POP JUMP JUMPDEST PUSH1 0x0 PUSH2 0x3323 PUSH1 0x1B DUP4 PUSH2 0x2896 JUMP JUMPDEST SWAP2 POP PUSH2 0x332E DUP3 PUSH2 0x32ED JUMP JUMPDEST PUSH1 0x20 DUP3 ADD SWAP1 POP SWAP2 SWAP1 POP JUMP JUMPDEST PUSH1 0x0 PUSH1 0x20 DUP3 ADD SWAP1 POP DUP2 DUP2 SUB PUSH1 0x0 DUP4 ADD MSTORE PUSH2 0x3352 DUP2 PUSH2 0x3316 JUMP JUMPDEST SWAP1 POP SWAP2 SWAP1 POP JUMP JUMPDEST PUSH32 0x4E487B7100000000000000000000000000000000000000000000000000000000 PUSH1 0x0 MSTORE PUSH1 0x22 PUSH1 0x4 MSTORE PUSH1 0x24 PUSH1 0x0 REVERT JUMPDEST PUSH1 0x0 PUSH1 0x2 DUP3 DIV SWAP1 POP PUSH1 0x1 DUP3 AND DUP1 PUSH2 0x33A0 JUMPI PUSH1 0x7F DUP3 AND SWAP2 POP JUMPDEST PUSH1 0x20 DUP3 LT DUP2 SUB PUSH2 0x33B3 JUMPI PUSH2 0x33B2 PUSH2 0x3359 JUMP JUMPDEST JUMPDEST POP SWAP2 SWAP1 POP JUMP JUMPDEST PUSH1 0x0 DUP2 SWAP1 POP DUP2 PUSH1 0x0 MSTORE PUSH1 0x20 PUSH1 0x0 KECCAK256 SWAP1 POP SWAP2 SWAP1 POP JUMP JUMPDEST PUSH1 0x0 DUP2 SLOAD PUSH2 0x33DB DUP2 PUSH2 0x3388 JUMP JUMPDEST PUSH2 0x33E5 DUP2 DUP7 PUSH2 0x2DC8 JUMP JUMPDEST SWAP5 POP PUSH1 0x1 DUP3 AND PUSH1 0x0 DUP2 EQ PUSH2 0x3400 JUMPI PUSH1 0x1 DUP2 EQ PUSH2 0x3415 JUMPI PUSH2 0x3448 JUMP JUMPDEST PUSH1 0xFF NOT DUP4 AND DUP7 MSTORE DUP2 ISZERO ISZERO DUP3 MUL DUP7 ADD SWAP4 POP PUSH2 0x3448 JUMP JUMPDEST PUSH2 0x341E DUP6 PUSH2 0x33B9 JUMP JUMPDEST PUSH1 0x0 JUMPDEST DUP4 DUP2 LT ISZERO PUSH2 0x3440 JUMPI DUP2 SLOAD DUP2 DUP10 ADD MSTORE PUSH1 0x1 DUP3 ADD SWAP2 POP PUSH1 0x20 DUP2 ADD SWAP1 POP PUSH2 0x3421 JUMP JUMPDEST DUP4 DUP9 ADD SWAP6 POP POP POP JUMPDEST POP POP POP SWAP3 SWAP2 POP POP JUMP JUMPDEST PUSH32 0x2052657175657374204944203D20000000000000000000000000000000000000 DUP2 MSTORE POP JUMP JUMPDEST PUSH1 0x0 PUSH2 0x3483 DUP3 DUP6 PUSH2 0x33CE JUMP JUMPDEST SWAP2 POP PUSH2 0x348E DUP3 PUSH2 0x3451 JUMP JUMPDEST PUSH1 0xE DUP3 ADD SWAP2 POP PUSH2 0x349E DUP3 DUP5 PUSH2 0x2DD3 JUMP JUMPDEST SWAP2 POP DUP2 SWAP1 POP SWAP4 SWAP3 POP POP POP JUMP JUMPDEST PUSH1 0x0 PUSH1 0x60 DUP3 ADD SWAP1 POP PUSH2 0x34BF PUSH1 0x0 DUP4 ADD DUP7 PUSH2 0x2ABB JUMP JUMPDEST PUSH2 0x34CC PUSH1 0x20 DUP4 ADD DUP6 PUSH2 0x2ABB JUMP JUMPDEST PUSH2 0x34D9 PUSH1 0x40 DUP4 ADD DUP5 PUSH2 0x29A3 JUMP JUMPDEST SWAP5 SWAP4 POP POP POP POP JUMP JUMPDEST PUSH32 0x7472616E73666572206F6620626F6E6420616D6F756E7420746F204C69737420 PUSH1 0x0 DUP3 ADD MSTORE PUSH32 0x636F6E7472616374206661696C65640000000000000000000000000000000000 PUSH1 0x20 DUP3 ADD MSTORE POP JUMP JUMPDEST PUSH1 0x0 PUSH2 0x353D PUSH1 0x2F DUP4 PUSH2 0x2896 JUMP JUMPDEST SWAP2 POP PUSH2 0x3548 DUP3 PUSH2 0x34E1 JUMP JUMPDEST PUSH1 0x40 DUP3 ADD SWAP1 POP SWAP2 SWAP1 POP JUMP JUMPDEST PUSH1 0x0 PUSH1 0x20 DUP3 ADD SWAP1 POP DUP2 DUP2 SUB PUSH1 0x0 DUP4 ADD MSTORE PUSH2 0x356C DUP2 PUSH2 0x3530 JUMP JUMPDEST SWAP1 POP SWAP2 SWAP1 POP JUMP JUMPDEST PUSH32 0x617070726F76616C206F6620626F6E6420616D6F756E742066726F6D204C6973 PUSH1 0x0 DUP3 ADD MSTORE PUSH32 0x7420636F6E747261637420746F204F7261636C65206661696C65640000000000 PUSH1 0x20 DUP3 ADD MSTORE POP JUMP JUMPDEST PUSH1 0x0 PUSH2 0x35CF PUSH1 0x3B DUP4 PUSH2 0x2896 JUMP JUMPDEST SWAP2 POP PUSH2 0x35DA DUP3 PUSH2 0x3573 JUMP JUMPDEST PUSH1 0x40 DUP3 ADD SWAP1 POP SWAP2 SWAP1 POP JUMP JUMPDEST PUSH1 0x0 PUSH1 0x20 DUP3 ADD SWAP1 POP DUP2 DUP2 SUB PUSH1 0x0 DUP4 ADD MSTORE PUSH2 0x35FE DUP2 PUSH2 0x35C2 JUMP JUMPDEST SWAP1 POP SWAP2 SWAP1 POP JUMP JUMPDEST PUSH1 0x0 PUSH1 0xC0 DUP3 ADD SWAP1 POP PUSH2 0x361A PUSH1 0x0 DUP4 ADD DUP10 PUSH2 0x2ABB JUMP JUMPDEST PUSH2 0x3627 PUSH1 0x20 DUP4 ADD DUP9 PUSH2 0x2ABB JUMP JUMPDEST PUSH2 0x3634 PUSH1 0x40 DUP4 ADD DUP8 PUSH2 0x2ACA JUMP JUMPDEST PUSH2 0x3641 PUSH1 0x60 DUP4 ADD DUP7 PUSH2 0x29A3 JUMP JUMPDEST DUP2 DUP2 SUB PUSH1 0x80 DUP4 ADD MSTORE PUSH2 0x3653 DUP2 DUP6 PUSH2 0x2948 JUMP JUMPDEST SWAP1 POP PUSH2 0x3662 PUSH1 0xA0 DUP4 ADD DUP5 PUSH2 0x2AD9 JUMP JUMPDEST SWAP8 SWAP7 POP POP POP POP POP POP POP JUMP JUMPDEST PUSH1 0x0 DUP3 DUP3 MSTORE PUSH1 0x20 DUP3 ADD SWAP1 POP SWAP3 SWAP2 POP POP JUMP JUMPDEST PUSH2 0x3687 DUP2 PUSH2 0x29ED JUMP JUMPDEST DUP3 MSTORE POP POP JUMP JUMPDEST PUSH1 0x0 PUSH2 0x3699 DUP4 DUP4 PUSH2 0x367E JUMP JUMPDEST PUSH1 0x20 DUP4 ADD SWAP1 POP SWAP3 SWAP2 POP POP JUMP JUMPDEST PUSH1 0x0 PUSH2 0x36B1 DUP4 DUP6 PUSH2 0x366D JUMP JUMPDEST SWAP4 POP PUSH2 0x36BC DUP3 PUSH2 0x2FF9 JUMP JUMPDEST DUP1 PUSH1 0x0 JUMPDEST DUP6 DUP2 LT ISZERO PUSH2 0x36F5 JUMPI PUSH2 0x36D2 DUP3 DUP5 PUSH2 0x302A JUMP JUMPDEST PUSH2 0x36DC DUP9 DUP3 PUSH2 0x368D JUMP JUMPDEST SWAP8 POP PUSH2 0x36E7 DUP4 PUSH2 0x3041 JUMP JUMPDEST SWAP3 POP POP PUSH1 0x1 DUP2 ADD SWAP1 POP PUSH2 0x36C0 JUMP JUMPDEST POP DUP6 SWAP3 POP POP POP SWAP4 SWAP3 POP POP POP JUMP JUMPDEST PUSH1 0x0 PUSH1 0x20 DUP3 ADD SWAP1 POP DUP2 DUP2 SUB PUSH1 0x0 DUP4 ADD MSTORE PUSH2 0x371D DUP2 DUP5 DUP7 PUSH2 0x36A5 JUMP JUMPDEST SWAP1 POP SWAP4 SWAP3 POP POP POP JUMP JUMPDEST PUSH32 0x6174206C6561737420312061646472657373206973206E6F74206F6E206C6973 PUSH1 0x0 DUP3 ADD MSTORE PUSH32 0x7400000000000000000000000000000000000000000000000000000000000000 PUSH1 0x20 DUP3 ADD MSTORE POP JUMP JUMPDEST PUSH1 0x0 PUSH2 0x3782 PUSH1 0x21 DUP4 PUSH2 0x2896 JUMP JUMPDEST SWAP2 POP PUSH2 0x378D DUP3 PUSH2 0x3726 JUMP JUMPDEST PUSH1 0x40 DUP3 ADD SWAP1 POP SWAP2 SWAP1 POP JUMP JUMPDEST PUSH1 0x0 PUSH1 0x20 DUP3 ADD SWAP1 POP DUP2 DUP2 SUB PUSH1 0x0 DUP4 ADD MSTORE PUSH2 0x37B1 DUP2 PUSH2 0x3775 JUMP JUMPDEST SWAP1 POP SWAP2 SWAP1 POP JUMP JUMPDEST PUSH1 0x0 DUP2 SWAP1 POP SWAP2 SWAP1 POP JUMP JUMPDEST PUSH1 0x0 DUP2 SWAP1 POP SWAP2 SWAP1 POP JUMP JUMPDEST PUSH1 0x0 PUSH2 0x37E7 PUSH2 0x37E2 PUSH2 0x37DD DUP5 PUSH2 0x37B8 JUMP JUMPDEST PUSH2 0x37C2 JUMP JUMPDEST PUSH2 0x26C5 JUMP JUMPDEST SWAP1 POP SWAP2 SWAP1 POP JUMP JUMPDEST PUSH2 0x37F7 DUP2 PUSH2 0x37CC JUMP JUMPDEST DUP3 MSTORE POP POP JUMP JUMPDEST PUSH1 0x0 PUSH1 0xC0 DUP3 ADD SWAP1 POP PUSH2 0x3812 PUSH1 0x0 DUP4 ADD DUP10 PUSH2 0x2ABB JUMP JUMPDEST PUSH2 0x381F PUSH1 0x20 DUP4 ADD DUP9 PUSH2 0x2ABB JUMP JUMPDEST PUSH2 0x382C PUSH1 0x40 DUP4 ADD DUP8 PUSH2 0x2ACA JUMP JUMPDEST PUSH2 0x3839 PUSH1 0x60 DUP4 ADD DUP7 PUSH2 0x29A3 JUMP JUMPDEST DUP2 DUP2 SUB PUSH1 0x80 DUP4 ADD MSTORE PUSH2 0x384B DUP2 DUP6 PUSH2 0x2948 JUMP JUMPDEST SWAP1 POP PUSH2 0x385A PUSH1 0xA0 DUP4 ADD DUP5 PUSH2 0x37EE JUMP JUMPDEST SWAP8 SWAP7 POP POP POP POP POP POP POP JUMP JUMPDEST PUSH32 0x496E697469616C697A61626C653A20636F6E747261637420697320616C726561 PUSH1 0x0 DUP3 ADD MSTORE PUSH32 0x647920696E697469616C697A6564000000000000000000000000000000000000 PUSH1 0x20 DUP3 ADD MSTORE POP JUMP JUMPDEST PUSH1 0x0 PUSH2 0x38C1 PUSH1 0x2E DUP4 PUSH2 0x2896 JUMP JUMPDEST SWAP2 POP PUSH2 0x38CC DUP3 PUSH2 0x3865 JUMP JUMPDEST PUSH1 0x40 DUP3 ADD SWAP1 POP SWAP2 SWAP1 POP JUMP JUMPDEST PUSH1 0x0 PUSH1 0x20 DUP3 ADD SWAP1 POP DUP2 DUP2 SUB PUSH1 0x0 DUP4 ADD MSTORE PUSH2 0x38F0 DUP2 PUSH2 0x38B4 JUMP JUMPDEST SWAP1 POP SWAP2 SWAP1 POP JUMP JUMPDEST PUSH32 0x6C6976656E657373206D757374206265203820686F757273206F722067726561 PUSH1 0x0 DUP3 ADD MSTORE PUSH32 0x7465720000000000000000000000000000000000000000000000000000000000 PUSH1 0x20 DUP3 ADD MSTORE POP JUMP JUMPDEST PUSH1 0x0 PUSH2 0x3953 PUSH1 0x23 DUP4 PUSH2 0x2896 JUMP JUMPDEST SWAP2 POP PUSH2 0x395E DUP3 PUSH2 0x38F7 JUMP JUMPDEST PUSH1 0x40 DUP3 ADD SWAP1 POP SWAP2 SWAP1 POP JUMP JUMPDEST PUSH1 0x0 PUSH1 0x20 DUP3 ADD SWAP1 POP DUP2 DUP2 SUB PUSH1 0x0 DUP4 ADD MSTORE PUSH2 0x3982 DUP2 PUSH2 0x3946 JUMP JUMPDEST SWAP1 POP SWAP2 SWAP1 POP JUMP JUMPDEST PUSH32 0x626F6E64206D75737420626520313530302057455448206F7220677265617465 PUSH1 0x0 DUP3 ADD MSTORE PUSH32 0x7200000000000000000000000000000000000000000000000000000000000000 PUSH1 0x20 DUP3 ADD MSTORE POP JUMP JUMPDEST PUSH1 0x0 PUSH2 0x39E5 PUSH1 0x21 DUP4 PUSH2 0x2896 JUMP JUMPDEST SWAP2 POP PUSH2 0x39F0 DUP3 PUSH2 0x3989 JUMP JUMPDEST PUSH1 0x40 DUP3 ADD SWAP1 POP SWAP2 SWAP1 POP JUMP JUMPDEST PUSH1 0x0 PUSH1 0x20 DUP3 ADD SWAP1 POP DUP2 DUP2 SUB PUSH1 0x0 DUP4 ADD MSTORE PUSH2 0x3A14 DUP2 PUSH2 0x39D8 JUMP JUMPDEST SWAP1 POP SWAP2 SWAP1 POP JUMP JUMPDEST PUSH32 0x2E2041646472657373657320746F2071756572792063616E20626520666F756E PUSH1 0x0 DUP3 ADD MSTORE PUSH32 0x6420696E207468652070656E64696E6741646472657373657320706172616D65 PUSH1 0x20 DUP3 ADD MSTORE PUSH32 0x746572206F66207468652050726F706F7365644164646974696F6E206576656E PUSH1 0x40 DUP3 ADD MSTORE PUSH32 0x7420656D69747465642062792074686520726571756573746572277320616464 PUSH1 0x60 DUP3 ADD MSTORE PUSH32 0x7265737320696E207468652073616D65207472616E73616374696F6E20617320 PUSH1 0x80 DUP3 ADD MSTORE PUSH32 0x7468652070726F706F7365642070726963652E00000000000000000000000000 PUSH1 0xA0 DUP3 ADD MSTORE POP JUMP JUMPDEST PUSH1 0x0 PUSH2 0x3B0F PUSH1 0xB3 DUP4 PUSH2 0x2DC8 JUMP JUMPDEST SWAP2 POP PUSH2 0x3B1A DUP3 PUSH2 0x3A1B JUMP JUMPDEST PUSH1 0xB3 DUP3 ADD SWAP1 POP SWAP2 SWAP1 POP JUMP JUMPDEST PUSH1 0x0 PUSH2 0x3B31 DUP3 DUP5 PUSH2 0x2DD3 JUMP JUMPDEST SWAP2 POP PUSH2 0x3B3C DUP3 PUSH2 0x3B02 JUMP JUMPDEST SWAP2 POP DUP2 SWAP1 POP SWAP3 SWAP2 POP POP JUMP JUMPDEST PUSH1 0x0 PUSH1 0x20 PUSH1 0x1F DUP4 ADD DIV SWAP1 POP SWAP2 SWAP1 POP JUMP JUMPDEST PUSH1 0x0 DUP3 DUP3 SHL SWAP1 POP SWAP3 SWAP2 POP POP JUMP JUMPDEST PUSH1 0x0 PUSH1 0x8 DUP4 MUL PUSH2 0x3B94 PUSH32 0xFFFFFFFFFFFFFFFFFFFFFFFFFFFFFFFFFFFFFFFFFFFFFFFFFFFFFFFFFFFFFFFF DUP3 PUSH2 0x3B57 JUMP JUMPDEST PUSH2 0x3B9E DUP7 DUP4 PUSH2 0x3B57 JUMP JUMPDEST SWAP6 POP DUP1 NOT DUP5 AND SWAP4 POP DUP1 DUP7 AND DUP5 OR SWAP3 POP POP POP SWAP4 SWAP3 POP POP POP JUMP JUMPDEST PUSH1 0x0 PUSH2 0x3BD1 PUSH2 0x3BCC PUSH2 0x3BC7 DUP5 PUSH2 0x2549 JUMP JUMPDEST PUSH2 0x37C2 JUMP JUMPDEST PUSH2 0x2549 JUMP JUMPDEST SWAP1 POP SWAP2 SWAP1 POP JUMP JUMPDEST PUSH1 0x0 DUP2 SWAP1 POP SWAP2 SWAP1 POP JUMP JUMPDEST PUSH2 0x3BEB DUP4 PUSH2 0x3BB6 JUMP JUMPDEST PUSH2 0x3BFF PUSH2 0x3BF7 DUP3 PUSH2 0x3BD8 JUMP JUMPDEST DUP5 DUP5 SLOAD PUSH2 0x3B64 JUMP JUMPDEST DUP3 SSTORE POP POP POP POP JUMP JUMPDEST PUSH1 0x0 SWAP1 JUMP JUMPDEST PUSH2 0x3C14 PUSH2 0x3C07 JUMP JUMPDEST PUSH2 0x3C1F DUP2 DUP5 DUP5 PUSH2 0x3BE2 JUMP JUMPDEST POP POP POP JUMP JUMPDEST JUMPDEST DUP2 DUP2 LT ISZERO PUSH2 0x3C43 JUMPI PUSH2 0x3C38 PUSH1 0x0 DUP3 PUSH2 0x3C0C JUMP JUMPDEST PUSH1 0x1 DUP2 ADD SWAP1 POP PUSH2 0x3C25 JUMP JUMPDEST POP POP JUMP JUMPDEST PUSH1 0x1F DUP3 GT ISZERO PUSH2 0x3C88 JUMPI PUSH2 0x3C59 DUP2 PUSH2 0x33B9 JUMP JUMPDEST PUSH2 0x3C62 DUP5 PUSH2 0x3B47 JUMP JUMPDEST DUP2 ADD PUSH1 0x20 DUP6 LT ISZERO PUSH2 0x3C71 JUMPI DUP2 SWAP1 POP JUMPDEST PUSH2 0x3C85 PUSH2 0x3C7D DUP6 PUSH2 0x3B47 JUMP JUMPDEST DUP4 ADD DUP3 PUSH2 0x3C24 JUMP JUMPDEST POP POP JUMPDEST POP POP POP JUMP JUMPDEST PUSH1 0x0 DUP3 DUP3 SHR SWAP1 POP SWAP3 SWAP2 POP POP JUMP JUMPDEST PUSH1 0x0 PUSH2 0x3CAB PUSH1 0x0 NOT DUP5 PUSH1 0x8 MUL PUSH2 0x3C8D JUMP JUMPDEST NOT DUP1 DUP4 AND SWAP2 POP POP SWAP3 SWAP2 POP POP JUMP JUMPDEST PUSH1 0x0 PUSH2 0x3CC4 DUP4 DUP4 PUSH2 0x3C9A JUMP JUMPDEST SWAP2 POP DUP3 PUSH1 0x2 MUL DUP3 OR SWAP1 POP SWAP3 SWAP2 POP POP JUMP JUMPDEST PUSH2 0x3CDD DUP3 PUSH2 0x292C JUMP JUMPDEST PUSH8 0xFFFFFFFFFFFFFFFF DUP2 GT ISZERO PUSH2 0x3CF6 JUMPI PUSH2 0x3CF5 PUSH2 0x259A JUMP JUMPDEST JUMPDEST PUSH2 0x3D00 DUP3 SLOAD PUSH2 0x3388 JUMP JUMPDEST PUSH2 0x3D0B DUP3 DUP3 DUP6 PUSH2 0x3C47 JUMP JUMPDEST PUSH1 0x0 PUSH1 0x20 SWAP1 POP PUSH1 0x1F DUP4 GT PUSH1 0x1 DUP2 EQ PUSH2 0x3D3E JUMPI PUSH1 0x0 DUP5 ISZERO PUSH2 0x3D2C JUMPI DUP3 DUP8 ADD MLOAD SWAP1 POP JUMPDEST PUSH2 0x3D36 DUP6 DUP3 PUSH2 0x3CB8 JUMP JUMPDEST DUP7 SSTORE POP PUSH2 0x3D9E JUMP JUMPDEST PUSH1 0x1F NOT DUP5 AND PUSH2 0x3D4C DUP7 PUSH2 0x33B9 JUMP JUMPDEST PUSH1 0x0 JUMPDEST DUP3 DUP2 LT ISZERO PUSH2 0x3D74 JUMPI DUP5 DUP10 ADD MLOAD DUP3 SSTORE PUSH1 0x1 DUP3 ADD SWAP2 POP PUSH1 0x20 DUP6 ADD SWAP5 POP PUSH1 0x20 DUP2 ADD SWAP1 POP PUSH2 0x3D4F JUMP JUMPDEST DUP7 DUP4 LT ISZERO PUSH2 0x3D91 JUMPI DUP5 DUP10 ADD MLOAD PUSH2 0x3D8D PUSH1 0x1F DUP10 AND DUP3 PUSH2 0x3C9A JUMP JUMPDEST DUP4 SSTORE POP JUMPDEST PUSH1 0x1 PUSH1 0x2 DUP9 MUL ADD DUP9 SSTORE POP POP POP JUMPDEST POP POP POP POP POP POP JUMP JUMPDEST PUSH1 0x0 DUP2 SWAP1 POP DUP2 PUSH1 0x0 MSTORE PUSH1 0x20 PUSH1 0x0 KECCAK256 SWAP1 POP SWAP2 SWAP1 POP JUMP JUMPDEST PUSH1 0x1F DUP3 GT ISZERO PUSH2 0x3DFC JUMPI PUSH2 0x3DCD DUP2 PUSH2 0x3DA6 JUMP JUMPDEST PUSH2 0x3DD6 DUP5 PUSH2 0x3B47 JUMP JUMPDEST DUP2 ADD PUSH1 0x20 DUP6 LT ISZERO PUSH2 0x3DE5 JUMPI DUP2 SWAP1 POP JUMPDEST PUSH2 0x3DF9 PUSH2 0x3DF1 DUP6 PUSH2 0x3B47 JUMP JUMPDEST DUP4 ADD DUP3 PUSH2 0x3C24 JUMP JUMPDEST POP POP JUMPDEST POP POP POP JUMP JUMPDEST PUSH2 0x3E0A DUP3 PUSH2 0x288B JUMP JUMPDEST PUSH8 0xFFFFFFFFFFFFFFFF DUP2 GT ISZERO PUSH2 0x3E23 JUMPI PUSH2 0x3E22 PUSH2 0x259A JUMP JUMPDEST JUMPDEST PUSH2 0x3E2D DUP3 SLOAD PUSH2 0x3388 JUMP JUMPDEST PUSH2 0x3E38 DUP3 DUP3 DUP6 PUSH2 0x3DBB JUMP JUMPDEST PUSH1 0x0 PUSH1 0x20 SWAP1 POP PUSH1 0x1F DUP4 GT PUSH1 0x1 DUP2 EQ PUSH2 0x3E6B JUMPI PUSH1 0x0 DUP5 ISZERO PUSH2 0x3E59 JUMPI DUP3 DUP8 ADD MLOAD SWAP1 POP JUMPDEST PUSH2 0x3E63 DUP6 DUP3 PUSH2 0x3CB8 JUMP JUMPDEST DUP7 SSTORE POP PUSH2 0x3ECB JUMP JUMPDEST PUSH1 0x1F NOT DUP5 AND PUSH2 0x3E79 DUP7 PUSH2 0x3DA6 JUMP JUMPDEST PUSH1 0x0 JUMPDEST DUP3 DUP2 LT ISZERO PUSH2 0x3EA1 JUMPI DUP5 DUP10 ADD MLOAD DUP3 SSTORE PUSH1 0x1 DUP3 ADD SWAP2 POP PUSH1 0x20 DUP6 ADD SWAP5 POP PUSH1 0x20 DUP2 ADD SWAP1 POP PUSH2 0x3E7C JUMP JUMPDEST DUP7 DUP4 LT ISZERO PUSH2 0x3EBE JUMPI DUP5 DUP10 ADD MLOAD PUSH2 0x3EBA PUSH1 0x1F DUP10 AND DUP3 PUSH2 0x3C9A JUMP JUMPDEST DUP4 SSTORE POP JUMPDEST PUSH1 0x1 PUSH1 0x2 DUP9 MUL ADD DUP9 SSTORE POP POP POP JUMPDEST POP POP POP POP POP POP JUMP JUMPDEST PUSH1 0x0 DUP2 SWAP1 POP SWAP2 SWAP1 POP JUMP JUMPDEST PUSH1 0x0 PUSH1 0xFF DUP3 AND SWAP1 POP SWAP2 SWAP1 POP JUMP JUMPDEST PUSH1 0x0 PUSH2 0x3F05 PUSH2 0x3F00 PUSH2 0x3EFB DUP5 PUSH2 0x3ED3 JUMP JUMPDEST PUSH2 0x37C2 JUMP JUMPDEST PUSH2 0x3EDD JUMP JUMPDEST SWAP1 POP SWAP2 SWAP1 POP JUMP JUMPDEST PUSH2 0x3F15 DUP2 PUSH2 0x3EEA JUMP JUMPDEST DUP3 MSTORE POP POP JUMP JUMPDEST PUSH1 0x0 PUSH1 0x20 DUP3 ADD SWAP1 POP PUSH2 0x3F30 PUSH1 0x0 DUP4 ADD DUP5 PUSH2 0x3F0C JUMP JUMPDEST SWAP3 SWAP2 POP POP JUMP JUMPDEST PUSH32 0x4F776E61626C653A206E6577206F776E657220697320746865207A65726F2061 PUSH1 0x0 DUP3 ADD MSTORE PUSH32 0x6464726573730000000000000000000000000000000000000000000000000000 PUSH1 0x20 DUP3 ADD MSTORE POP JUMP JUMPDEST PUSH1 0x0 PUSH2 0x3F92 PUSH1 0x26 DUP4 PUSH2 0x2896 JUMP JUMPDEST SWAP2 POP PUSH2 0x3F9D DUP3 PUSH2 0x3F36 JUMP JUMPDEST PUSH1 0x40 DUP3 ADD SWAP1 POP SWAP2 SWAP1 POP JUMP JUMPDEST PUSH1 0x0 PUSH1 0x20 DUP3 ADD SWAP1 POP DUP2 DUP2 SUB PUSH1 0x0 DUP4 ADD MSTORE PUSH2 0x3FC1 DUP2 PUSH2 0x3F85 JUMP JUMPDEST SWAP1 POP SWAP2 SWAP1 POP JUMP JUMPDEST PUSH32 0x4E487B7100000000000000000000000000000000000000000000000000000000 PUSH1 0x0 MSTORE PUSH1 0x12 PUSH1 0x4 MSTORE PUSH1 0x24 PUSH1 0x0 REVERT JUMPDEST PUSH1 0x0 PUSH2 0x4002 DUP3 PUSH2 0x2549 JUMP JUMPDEST SWAP2 POP PUSH2 0x400D DUP4 PUSH2 0x2549 JUMP JUMPDEST SWAP3 POP DUP3 PUSH2 0x401D JUMPI PUSH2 0x401C PUSH2 0x3FC8 JUMP JUMPDEST JUMPDEST DUP3 DUP3 DIV SWAP1 POP SWAP3 SWAP2 POP POP JUMP JUMPDEST PUSH1 0x0 PUSH2 0x4033 DUP3 PUSH2 0x3EDD JUMP JUMPDEST SWAP2 POP PUSH2 0x403E DUP4 PUSH2 0x3EDD JUMP JUMPDEST SWAP3 POP DUP3 DUP3 ADD SWAP1 POP PUSH1 0xFF DUP2 GT ISZERO PUSH2 0x4057 JUMPI PUSH2 0x4056 PUSH2 0x2E4D JUMP JUMPDEST JUMPDEST SWAP3 SWAP2 POP POP JUMP JUMPDEST PUSH1 0x0 PUSH2 0x4078 PUSH2 0x4073 PUSH2 0x406E DUP5 PUSH2 0x29CD JUMP JUMPDEST PUSH2 0x37C2 JUMP JUMPDEST PUSH2 0x29CD JUMP JUMPDEST SWAP1 POP SWAP2 SWAP1 POP JUMP JUMPDEST PUSH1 0x0 PUSH2 0x408A DUP3 PUSH2 0x405D JUMP JUMPDEST SWAP1 POP SWAP2 SWAP1 POP JUMP JUMPDEST PUSH1 0x0 PUSH2 0x409C DUP3 PUSH2 0x407F JUMP JUMPDEST SWAP1 POP SWAP2 SWAP1 POP JUMP JUMPDEST PUSH2 0x40AC DUP2 PUSH2 0x4091 JUMP JUMPDEST DUP3 MSTORE POP POP JUMP JUMPDEST PUSH1 0x0 PUSH2 0x40CD PUSH2 0x40C8 PUSH2 0x40C3 DUP5 PUSH2 0x37B8 JUMP JUMPDEST PUSH2 0x37C2 JUMP JUMPDEST PUSH2 0x2549 JUMP JUMPDEST SWAP1 POP SWAP2 SWAP1 POP JUMP JUMPDEST PUSH2 0x40DD DUP2 PUSH2 0x40B2 JUMP JUMPDEST DUP3 MSTORE POP POP JUMP JUMPDEST PUSH1 0x0 PUSH1 0xA0 DUP3 ADD SWAP1 POP PUSH2 0x40F8 PUSH1 0x0 DUP4 ADD DUP9 PUSH2 0x2ACA JUMP JUMPDEST PUSH2 0x4105 PUSH1 0x20 DUP4 ADD DUP8 PUSH2 0x29A3 JUMP JUMPDEST DUP2 DUP2 SUB PUSH1 0x40 DUP4 ADD MSTORE PUSH2 0x4117 DUP2 DUP7 PUSH2 0x2948 JUMP JUMPDEST SWAP1 POP PUSH2 0x4126 PUSH1 0x60 DUP4 ADD DUP6 PUSH2 0x40A3 JUMP JUMPDEST PUSH2 0x4133 PUSH1 0x80 DUP4 ADD DUP5 PUSH2 0x40D4 JUMP JUMPDEST SWAP7 SWAP6 POP POP POP POP POP POP JUMP JUMPDEST PUSH1 0x0 PUSH1 0xC0 DUP3 ADD SWAP1 POP PUSH2 0x4152 PUSH1 0x0 DUP4 ADD DUP10 PUSH2 0x2ACA JUMP JUMPDEST PUSH2 0x415F PUSH1 0x20 DUP4 ADD DUP9 PUSH2 0x29A3 JUMP JUMPDEST DUP2 DUP2 SUB PUSH1 0x40 DUP4 ADD MSTORE PUSH2 0x4171 DUP2 DUP8 PUSH2 0x2948 JUMP JUMPDEST SWAP1 POP PUSH2 0x4180 PUSH1 0x60 DUP4 ADD DUP7 PUSH2 0x2A64 JUMP JUMPDEST PUSH2 0x418D PUSH1 0x80 DUP4 ADD DUP6 PUSH2 0x2A64 JUMP JUMPDEST PUSH2 0x419A PUSH1 0xA0 DUP4 ADD DUP5 PUSH2 0x2A64 JUMP JUMPDEST SWAP8 SWAP7 POP POP POP POP POP POP POP JUMP JUMPDEST PUSH1 0x0 PUSH1 0x80 DUP3 ADD SWAP1 POP PUSH2 0x41BA PUSH1 0x0 DUP4 ADD DUP8 PUSH2 0x2ACA JUMP JUMPDEST PUSH2 0x41C7 PUSH1 0x20 DUP4 ADD DUP7 PUSH2 0x29A3 JUMP JUMPDEST DUP2 DUP2 SUB PUSH1 0x40 DUP4 ADD MSTORE PUSH2 0x41D9 DUP2 DUP6 PUSH2 0x2948 JUMP JUMPDEST SWAP1 POP PUSH2 0x41E8 PUSH1 0x60 DUP4 ADD DUP5 PUSH2 0x29A3 JUMP JUMPDEST SWAP6 SWAP5 POP POP POP POP POP JUMP JUMPDEST PUSH32 0x4F776E61626C653A2063616C6C6572206973206E6F7420746865206F776E6572 PUSH1 0x0 DUP3 ADD MSTORE POP JUMP JUMPDEST PUSH1 0x0 PUSH2 0x4227 PUSH1 0x20 DUP4 PUSH2 0x2896 JUMP JUMPDEST SWAP2 POP PUSH2 0x4232 DUP3 PUSH2 0x41F1 JUMP JUMPDEST PUSH1 0x20 DUP3 ADD SWAP1 POP SWAP2 SWAP1 POP JUMP JUMPDEST PUSH1 0x0 PUSH1 0x20 DUP3 ADD SWAP1 POP DUP2 DUP2 SUB PUSH1 0x0 DUP4 ADD MSTORE PUSH2 0x4256 DUP2 PUSH2 0x421A JUMP JUMPDEST SWAP1 POP SWAP2 SWAP1 POP JUMP INVALID LOG2 PUSH5 0x6970667358 0x22 SLT KECCAK256 0xC9 0xC0 0xE9 DUP11 0x4C 0xC6 0xB7 PUSH8 0xDAD2D1B4DC2D211A 0xCF BALANCE 0xB1 PUSH13 0x1DE35B2B1D1472DF45D9830D64 PUSH20 0x6F6C634300081100330000000000000000000000 "},"methodIdentifiers":{"addAddresses(address[])":"3628731c","addReward()":"e59a58ee","adjustRewards(uint256,uint256)":"a837edd8","bondAmount()":"80f323a7","executeApprovedRequests(uint256,address[])":"257a0dc3","fixedAncillaryData()":"5cae7fb5","initialize(bytes,string,uint256,uint256,uint256,uint256,address)":"c8108ed9","liveness()":"6ad0690a","onList(address)":"6f626eb3","owner()":"8da5cb5b","priceSettled(bytes32,uint256,bytes,int256)":"04cc1fd5","removeAddresses(address[])":"a84eb999","removeReward()":"7eecf18d","renounceOwnership()":"715018a6","requests(uint256)":"81d12c58","title()":"4a79d50c","transferOwnership(address)":"f2fde38b","withdraw(address,uint256)":"f3fef3a3"}}}}}