{"contracts/DecentralistProxyFactory.sol":{"DecentralistProxyFactory":{"abi":[{"inputs":[{"internalType":"address","name":"_implementation","type":"address"}],"stateMutability":"nonpayable","type":"constructor"},{"anonymous":false,"inputs":[{"indexed":false,"internalType":"address","name":"_clone","type":"address"}],"name":"NewClone","type":"event"},{"inputs":[{"internalType":"uint256","name":"","type":"uint256"}],"name":"allClones","outputs":[{"internalType":"address","name":"","type":"address"}],"stateMutability":"view","type":"function"},{"inputs":[{"internalType":"bytes","name":"_fixedAncillaryData","type":"bytes"},{"internalType":"string","name":"_title","type":"string"},{"internalType":"uint256","name":"_livenessPeriod","type":"uint256"},{"internalType":"uint256","name":"_bondAmount","type":"uint256"},{"internalType":"uint256","name":"_addReward","type":"uint256"},{"internalType":"uint256","name":"_removeReward","type":"uint256"}],"name":"createNewDecentralist","outputs":[{"internalType":"address","name":"instance","type":"address"}],"stateMutability":"nonpayable","type":"function"},{"inputs":[],"name":"getAllClones","outputs":[{"internalType":"address[]","name":"","type":"address[]"}],"stateMutability":"view","type":"function"},{"inputs":[],"name":"implementationContract","outputs":[{"internalType":"address","name":"","type":"address"}],"stateMutability":"view","type":"function"}],"evm":{"bytecode":{"linkReferences":{},"object":"608060405234801561001057600080fd5b50604051610c45380380610c45833981810160405281019061003291906100db565b806000806101000a81548173ffffffffffffffffffffffffffffffffffffffff021916908373ffffffffffffffffffffffffffffffffffffffff16021790555050610108565b600080fd5b600073ffffffffffffffffffffffffffffffffffffffff82169050919050565b60006100a88261007d565b9050919050565b6100b88161009d565b81146100c357600080fd5b50565b6000815190506100d5816100af565b92915050565b6000602082840312156100f1576100f0610078565b5b60006100ff848285016100c6565b91505092915050565b610b2e806101176000396000f3fe608060405234801561001057600080fd5b506004361061004c5760003560e01c806327831ee0146100515780639704bd8a1461006f57806399e7d0561461009f578063d7741cad146100bd575b600080fd5b6100596100ed565b6040516100669190610578565b60405180910390f35b610089600480360381019061008491906107cb565b61017b565b604051610096919061089f565b60405180910390f35b6100a7610351565b6040516100b4919061089f565b60405180910390f35b6100d760048036038101906100d291906108ba565b610375565b6040516100e4919061089f565b60405180910390f35b6060600180548060200260200160405190810160405280929190818152602001828054801561017157602002820191906000526020600020905b8160009054906101000a900473ffffffffffffffffffffffffffffffffffffffff1673ffffffffffffffffffffffffffffffffffffffff1681526020019060010190808311610127575b5050505050905090565b60006101a660008054906101000a900473ffffffffffffffffffffffffffffffffffffffff166103b4565b905060008173ffffffffffffffffffffffffffffffffffffffff168888888888886040516024016101dc969594939291906109ca565b6040516020818303038152906040527f9fc46a00000000000000000000000000000000000000000000000000000000007bffffffffffffffffffffffffffffffffffffffffffffffffffffffff19166020820180517bffffffffffffffffffffffffffffffffffffffffffffffffffffffff83818316178352505050506040516102669190610a75565b6000604051808303816000865af19150503d80600081146102a3576040519150601f19603f3d011682016040523d82523d6000602084013e6102a8565b606091505b505090506001829080600181540180825580915050600190039060005260206000200160009091909190916101000a81548173ffffffffffffffffffffffffffffffffffffffff021916908373ffffffffffffffffffffffffffffffffffffffff1602179055507fcc1e9c890bc4f4943c457abb8d17f97703b9f7144e1f4a69e50c6e4988ef38b78260405161033e919061089f565b60405180910390a1509695505050505050565b60008054906101000a900473ffffffffffffffffffffffffffffffffffffffff1681565b6001818154811061038557600080fd5b906000526020600020016000915054906101000a900473ffffffffffffffffffffffffffffffffffffffff1681565b60006040517f3d602d80600a3d3981f3363d3d373d3d3d363d7300000000000000000000000081528260601b60148201527f5af43d82803e903d91602b57fd5bf3000000000000000000000000000000000060288201526037816000f0915050600073ffffffffffffffffffffffffffffffffffffffff168173ffffffffffffffffffffffffffffffffffffffff1603610483576040517f08c379a000000000000000000000000000000000000000000000000000000000815260040161047a90610ad8565b60405180910390fd5b919050565b600081519050919050565b600082825260208201905092915050565b6000819050602082019050919050565b600073ffffffffffffffffffffffffffffffffffffffff82169050919050565b60006104df826104b4565b9050919050565b6104ef816104d4565b82525050565b600061050183836104e6565b60208301905092915050565b6000602082019050919050565b600061052582610488565b61052f8185610493565b935061053a836104a4565b8060005b8381101561056b57815161055288826104f5565b975061055d8361050d565b92505060018101905061053e565b5085935050505092915050565b60006020820190508181036000830152610592818461051a565b905092915050565b6000604051905090565b600080fd5b600080fd5b600080fd5b600080fd5b6000601f19601f8301169050919050565b7f4e487b7100000000000000000000000000000000000000000000000000000000600052604160045260246000fd5b610601826105b8565b810181811067ffffffffffffffff821117156106205761061f6105c9565b5b80604052505050565b600061063361059a565b905061063f82826105f8565b919050565b600067ffffffffffffffff82111561065f5761065e6105c9565b5b610668826105b8565b9050602081019050919050565b82818337600083830152505050565b600061069761069284610644565b610629565b9050828152602081018484840111156106b3576106b26105b3565b5b6106be848285610675565b509392505050565b600082601f8301126106db576106da6105ae565b5b81356106eb848260208601610684565b91505092915050565b600067ffffffffffffffff82111561070f5761070e6105c9565b5b610718826105b8565b9050602081019050919050565b6000610738610733846106f4565b610629565b905082815260208101848484011115610754576107536105b3565b5b61075f848285610675565b509392505050565b600082601f83011261077c5761077b6105ae565b5b813561078c848260208601610725565b91505092915050565b6000819050919050565b6107a881610795565b81146107b357600080fd5b50565b6000813590506107c58161079f565b92915050565b60008060008060008060c087890312156107e8576107e76105a4565b5b600087013567ffffffffffffffff811115610806576108056105a9565b5b61081289828a016106c6565b965050602087013567ffffffffffffffff811115610833576108326105a9565b5b61083f89828a01610767565b955050604061085089828a016107b6565b945050606061086189828a016107b6565b935050608061087289828a016107b6565b92505060a061088389828a016107b6565b9150509295509295509295565b610899816104d4565b82525050565b60006020820190506108b46000830184610890565b92915050565b6000602082840312156108d0576108cf6105a4565b5b60006108de848285016107b6565b91505092915050565b600081519050919050565b600082825260208201905092915050565b60005b83811015610921578082015181840152602081019050610906565b60008484015250505050565b6000610938826108e7565b61094281856108f2565b9350610952818560208601610903565b61095b816105b8565b840191505092915050565b600081519050919050565b600082825260208201905092915050565b600061098d82610966565b6109978185610971565b93506109a7818560208601610903565b6109b0816105b8565b840191505092915050565b6109c481610795565b82525050565b600060c08201905081810360008301526109e4818961092d565b905081810360208301526109f88188610982565b9050610a0760408301876109bb565b610a1460608301866109bb565b610a2160808301856109bb565b610a2e60a08301846109bb565b979650505050505050565b600081905092915050565b6000610a4f826108e7565b610a598185610a39565b9350610a69818560208601610903565b80840191505092915050565b6000610a818284610a44565b915081905092915050565b7f455243313136373a20637265617465206661696c656400000000000000000000600082015250565b6000610ac2601683610971565b9150610acd82610a8c565b602082019050919050565b60006020820190508181036000830152610af181610ab5565b905091905056fea26469706673582212203c1dc0fb554a40cac6234470775e8f380cb29dab6027303c213475bc5930556664736f6c63430008110033","opcodes":"PUSH1 0x80 PUSH1 0x40 MSTORE CALLVALUE DUP1 ISZERO PUSH2 0x10 JUMPI PUSH1 0x0 DUP1 REVERT JUMPDEST POP PUSH1 0x40 MLOAD PUSH2 0xC45 CODESIZE SUB DUP1 PUSH2 0xC45 DUP4 CODECOPY DUP2 DUP2 ADD PUSH1 0x40 MSTORE DUP2 ADD SWAP1 PUSH2 0x32 SWAP2 SWAP1 PUSH2 0xDB JUMP JUMPDEST DUP1 PUSH1 0x0 DUP1 PUSH2 0x100 EXP DUP2 SLOAD DUP2 PUSH20 0xFFFFFFFFFFFFFFFFFFFFFFFFFFFFFFFFFFFFFFFF MUL NOT AND SWAP1 DUP4 PUSH20 0xFFFFFFFFFFFFFFFFFFFFFFFFFFFFFFFFFFFFFFFF AND MUL OR SWAP1 SSTORE POP POP PUSH2 0x108 JUMP JUMPDEST PUSH1 0x0 DUP1 REVERT JUMPDEST PUSH1 0x0 PUSH20 0xFFFFFFFFFFFFFFFFFFFFFFFFFFFFFFFFFFFFFFFF DUP3 AND SWAP1 POP SWAP2 SWAP1 POP JUMP JUMPDEST PUSH1 0x0 PUSH2 0xA8 DUP3 PUSH2 0x7D JUMP JUMPDEST SWAP1 POP SWAP2 SWAP1 POP JUMP JUMPDEST PUSH2 0xB8 DUP2 PUSH2 0x9D JUMP JUMPDEST DUP2 EQ PUSH2 0xC3 JUMPI PUSH1 0x0 DUP1 REVERT JUMPDEST POP JUMP JUMPDEST PUSH1 0x0 DUP2 MLOAD SWAP1 POP PUSH2 0xD5 DUP2 PUSH2 0xAF JUMP JUMPDEST SWAP3 SWAP2 POP POP JUMP JUMPDEST PUSH1 0x0 PUSH1 0x20 DUP3 DUP5 SUB SLT ISZERO PUSH2 0xF1 JUMPI PUSH2 0xF0 PUSH2 0x78 JUMP JUMPDEST JUMPDEST PUSH1 0x0 PUSH2 0xFF DUP5 DUP3 DUP6 ADD PUSH2 0xC6 JUMP JUMPDEST SWAP2 POP POP SWAP3 SWAP2 POP POP JUMP JUMPDEST PUSH2 0xB2E DUP1 PUSH2 0x117 PUSH1 0x0 CODECOPY PUSH1 0x0 RETURN INVALID PUSH1 0x80 PUSH1 0x40 MSTORE CALLVALUE DUP1 ISZERO PUSH2 0x10 JUMPI PUSH1 0x0 DUP1 REVERT JUMPDEST POP PUSH1 0x4 CALLDATASIZE LT PUSH2 0x4C JUMPI PUSH1 0x0 CALLDATALOAD PUSH1 0xE0 SHR DUP1 PUSH4 0x27831EE0 EQ PUSH2 0x51 JUMPI DUP1 PUSH4 0x9704BD8A EQ PUSH2 0x6F JUMPI DUP1 PUSH4 0x99E7D056 EQ PUSH2 0x9F JUMPI DUP1 PUSH4 0xD7741CAD EQ PUSH2 0xBD JUMPI JUMPDEST PUSH1 0x0 DUP1 REVERT JUMPDEST PUSH2 0x59 PUSH2 0xED JUMP JUMPDEST PUSH1 0x40 MLOAD PUSH2 0x66 SWAP2 SWAP1 PUSH2 0x578 JUMP JUMPDEST PUSH1 0x40 MLOAD DUP1 SWAP2 SUB SWAP1 RETURN JUMPDEST PUSH2 0x89 PUSH1 0x4 DUP1 CALLDATASIZE SUB DUP2 ADD SWAP1 PUSH2 0x84 SWAP2 SWAP1 PUSH2 0x7CB JUMP JUMPDEST PUSH2 0x17B JUMP JUMPDEST PUSH1 0x40 MLOAD PUSH2 0x96 SWAP2 SWAP1 PUSH2 0x89F JUMP JUMPDEST PUSH1 0x40 MLOAD DUP1 SWAP2 SUB SWAP1 RETURN JUMPDEST PUSH2 0xA7 PUSH2 0x351 JUMP JUMPDEST PUSH1 0x40 MLOAD PUSH2 0xB4 SWAP2 SWAP1 PUSH2 0x89F JUMP JUMPDEST PUSH1 0x40 MLOAD DUP1 SWAP2 SUB SWAP1 RETURN JUMPDEST PUSH2 0xD7 PUSH1 0x4 DUP1 CALLDATASIZE SUB DUP2 ADD SWAP1 PUSH2 0xD2 SWAP2 SWAP1 PUSH2 0x8BA JUMP JUMPDEST PUSH2 0x375 JUMP JUMPDEST PUSH1 0x40 MLOAD PUSH2 0xE4 SWAP2 SWAP1 PUSH2 0x89F JUMP JUMPDEST PUSH1 0x40 MLOAD DUP1 SWAP2 SUB SWAP1 RETURN JUMPDEST PUSH1 0x60 PUSH1 0x1 DUP1 SLOAD DUP1 PUSH1 0x20 MUL PUSH1 0x20 ADD PUSH1 0x40 MLOAD SWAP1 DUP2 ADD PUSH1 0x40 MSTORE DUP1 SWAP3 SWAP2 SWAP1 DUP2 DUP2 MSTORE PUSH1 0x20 ADD DUP3 DUP1 SLOAD DUP1 ISZERO PUSH2 0x171 JUMPI PUSH1 0x20 MUL DUP3 ADD SWAP2 SWAP1 PUSH1 0x0 MSTORE PUSH1 0x20 PUSH1 0x0 KECCAK256 SWAP1 JUMPDEST DUP2 PUSH1 0x0 SWAP1 SLOAD SWAP1 PUSH2 0x100 EXP SWAP1 DIV PUSH20 0xFFFFFFFFFFFFFFFFFFFFFFFFFFFFFFFFFFFFFFFF AND PUSH20 0xFFFFFFFFFFFFFFFFFFFFFFFFFFFFFFFFFFFFFFFF AND DUP2 MSTORE PUSH1 0x20 ADD SWAP1 PUSH1 0x1 ADD SWAP1 DUP1 DUP4 GT PUSH2 0x127 JUMPI JUMPDEST POP POP POP POP POP SWAP1 POP SWAP1 JUMP JUMPDEST PUSH1 0x0 PUSH2 0x1A6 PUSH1 0x0 DUP1 SLOAD SWAP1 PUSH2 0x100 EXP SWAP1 DIV PUSH20 0xFFFFFFFFFFFFFFFFFFFFFFFFFFFFFFFFFFFFFFFF AND PUSH2 0x3B4 JUMP JUMPDEST SWAP1 POP PUSH1 0x0 DUP2 PUSH20 0xFFFFFFFFFFFFFFFFFFFFFFFFFFFFFFFFFFFFFFFF AND DUP9 DUP9 DUP9 DUP9 DUP9 DUP9 PUSH1 0x40 MLOAD PUSH1 0x24 ADD PUSH2 0x1DC SWAP7 SWAP6 SWAP5 SWAP4 SWAP3 SWAP2 SWAP1 PUSH2 0x9CA JUMP JUMPDEST PUSH1 0x40 MLOAD PUSH1 0x20 DUP2 DUP4 SUB SUB DUP2 MSTORE SWAP1 PUSH1 0x40 MSTORE PUSH32 0x9FC46A0000000000000000000000000000000000000000000000000000000000 PUSH28 0xFFFFFFFFFFFFFFFFFFFFFFFFFFFFFFFFFFFFFFFFFFFFFFFFFFFFFFFF NOT AND PUSH1 0x20 DUP3 ADD DUP1 MLOAD PUSH28 0xFFFFFFFFFFFFFFFFFFFFFFFFFFFFFFFFFFFFFFFFFFFFFFFFFFFFFFFF DUP4 DUP2 DUP4 AND OR DUP4 MSTORE POP POP POP POP PUSH1 0x40 MLOAD PUSH2 0x266 SWAP2 SWAP1 PUSH2 0xA75 JUMP JUMPDEST PUSH1 0x0 PUSH1 0x40 MLOAD DUP1 DUP4 SUB DUP2 PUSH1 0x0 DUP7 GAS CALL SWAP2 POP POP RETURNDATASIZE DUP1 PUSH1 0x0 DUP2 EQ PUSH2 0x2A3 JUMPI PUSH1 0x40 MLOAD SWAP2 POP PUSH1 0x1F NOT PUSH1 0x3F RETURNDATASIZE ADD AND DUP3 ADD PUSH1 0x40 MSTORE RETURNDATASIZE DUP3 MSTORE RETURNDATASIZE PUSH1 0x0 PUSH1 0x20 DUP5 ADD RETURNDATACOPY PUSH2 0x2A8 JUMP JUMPDEST PUSH1 0x60 SWAP2 POP JUMPDEST POP POP SWAP1 POP PUSH1 0x1 DUP3 SWAP1 DUP1 PUSH1 0x1 DUP2 SLOAD ADD DUP1 DUP3 SSTORE DUP1 SWAP2 POP POP PUSH1 0x1 SWAP1 SUB SWAP1 PUSH1 0x0 MSTORE PUSH1 0x20 PUSH1 0x0 KECCAK256 ADD PUSH1 0x0 SWAP1 SWAP2 SWAP1 SWAP2 SWAP1 SWAP2 PUSH2 0x100 EXP DUP2 SLOAD DUP2 PUSH20 0xFFFFFFFFFFFFFFFFFFFFFFFFFFFFFFFFFFFFFFFF MUL NOT AND SWAP1 DUP4 PUSH20 0xFFFFFFFFFFFFFFFFFFFFFFFFFFFFFFFFFFFFFFFF AND MUL OR SWAP1 SSTORE POP PUSH32 0xCC1E9C890BC4F4943C457ABB8D17F97703B9F7144E1F4A69E50C6E4988EF38B7 DUP3 PUSH1 0x40 MLOAD PUSH2 0x33E SWAP2 SWAP1 PUSH2 0x89F JUMP JUMPDEST PUSH1 0x40 MLOAD DUP1 SWAP2 SUB SWAP1 LOG1 POP SWAP7 SWAP6 POP POP POP POP POP POP JUMP JUMPDEST PUSH1 0x0 DUP1 SLOAD SWAP1 PUSH2 0x100 EXP SWAP1 DIV PUSH20 0xFFFFFFFFFFFFFFFFFFFFFFFFFFFFFFFFFFFFFFFF AND DUP2 JUMP JUMPDEST PUSH1 0x1 DUP2 DUP2 SLOAD DUP2 LT PUSH2 0x385 JUMPI PUSH1 0x0 DUP1 REVERT JUMPDEST SWAP1 PUSH1 0x0 MSTORE PUSH1 0x20 PUSH1 0x0 KECCAK256 ADD PUSH1 0x0 SWAP2 POP SLOAD SWAP1 PUSH2 0x100 EXP SWAP1 DIV PUSH20 0xFFFFFFFFFFFFFFFFFFFFFFFFFFFFFFFFFFFFFFFF AND DUP2 JUMP JUMPDEST PUSH1 0x0 PUSH1 0x40 MLOAD PUSH32 0x3D602D80600A3D3981F3363D3D373D3D3D363D73000000000000000000000000 DUP2 MSTORE DUP3 PUSH1 0x60 SHL PUSH1 0x14 DUP3 ADD MSTORE PUSH32 0x5AF43D82803E903D91602B57FD5BF30000000000000000000000000000000000 PUSH1 0x28 DUP3 ADD MSTORE PUSH1 0x37 DUP2 PUSH1 0x0 CREATE SWAP2 POP POP PUSH1 0x0 PUSH20 0xFFFFFFFFFFFFFFFFFFFFFFFFFFFFFFFFFFFFFFFF AND DUP2 PUSH20 0xFFFFFFFFFFFFFFFFFFFFFFFFFFFFFFFFFFFFFFFF AND SUB PUSH2 0x483 JUMPI PUSH1 0x40 MLOAD PUSH32 0x8C379A000000000000000000000000000000000000000000000000000000000 DUP2 MSTORE PUSH1 0x4 ADD PUSH2 0x47A SWAP1 PUSH2 0xAD8 JUMP JUMPDEST PUSH1 0x40 MLOAD DUP1 SWAP2 SUB SWAP1 REVERT JUMPDEST SWAP2 SWAP1 POP JUMP JUMPDEST PUSH1 0x0 DUP2 MLOAD SWAP1 POP SWAP2 SWAP1 POP JUMP JUMPDEST PUSH1 0x0 DUP3 DUP3 MSTORE PUSH1 0x20 DUP3 ADD SWAP1 POP SWAP3 SWAP2 POP POP JUMP JUMPDEST PUSH1 0x0 DUP2 SWAP1 POP PUSH1 0x20 DUP3 ADD SWAP1 POP SWAP2 SWAP1 POP JUMP JUMPDEST PUSH1 0x0 PUSH20 0xFFFFFFFFFFFFFFFFFFFFFFFFFFFFFFFFFFFFFFFF DUP3 AND SWAP1 POP SWAP2 SWAP1 POP JUMP JUMPDEST PUSH1 0x0 PUSH2 0x4DF DUP3 PUSH2 0x4B4 JUMP JUMPDEST SWAP1 POP SWAP2 SWAP1 POP JUMP JUMPDEST PUSH2 0x4EF DUP2 PUSH2 0x4D4 JUMP JUMPDEST DUP3 MSTORE POP POP JUMP JUMPDEST PUSH1 0x0 PUSH2 0x501 DUP4 DUP4 PUSH2 0x4E6 JUMP JUMPDEST PUSH1 0x20 DUP4 ADD SWAP1 POP SWAP3 SWAP2 POP POP JUMP JUMPDEST PUSH1 0x0 PUSH1 0x20 DUP3 ADD SWAP1 POP SWAP2 SWAP1 POP JUMP JUMPDEST PUSH1 0x0 PUSH2 0x525 DUP3 PUSH2 0x488 JUMP JUMPDEST PUSH2 0x52F DUP2 DUP6 PUSH2 0x493 JUMP JUMPDEST SWAP4 POP PUSH2 0x53A DUP4 PUSH2 0x4A4 JUMP JUMPDEST DUP1 PUSH1 0x0 JUMPDEST DUP4 DUP2 LT ISZERO PUSH2 0x56B JUMPI DUP2 MLOAD PUSH2 0x552 DUP9 DUP3 PUSH2 0x4F5 JUMP JUMPDEST SWAP8 POP PUSH2 0x55D DUP4 PUSH2 0x50D JUMP JUMPDEST SWAP3 POP POP PUSH1 0x1 DUP2 ADD SWAP1 POP PUSH2 0x53E JUMP JUMPDEST POP DUP6 SWAP4 POP POP POP POP SWAP3 SWAP2 POP POP JUMP JUMPDEST PUSH1 0x0 PUSH1 0x20 DUP3 ADD SWAP1 POP DUP2 DUP2 SUB PUSH1 0x0 DUP4 ADD MSTORE PUSH2 0x592 DUP2 DUP5 PUSH2 0x51A JUMP JUMPDEST SWAP1 POP SWAP3 SWAP2 POP POP JUMP JUMPDEST PUSH1 0x0 PUSH1 0x40 MLOAD SWAP1 POP SWAP1 JUMP JUMPDEST PUSH1 0x0 DUP1 REVERT JUMPDEST PUSH1 0x0 DUP1 REVERT JUMPDEST PUSH1 0x0 DUP1 REVERT JUMPDEST PUSH1 0x0 DUP1 REVERT JUMPDEST PUSH1 0x0 PUSH1 0x1F NOT PUSH1 0x1F DUP4 ADD AND SWAP1 POP SWAP2 SWAP1 POP JUMP JUMPDEST PUSH32 0x4E487B7100000000000000000000000000000000000000000000000000000000 PUSH1 0x0 MSTORE PUSH1 0x41 PUSH1 0x4 MSTORE PUSH1 0x24 PUSH1 0x0 REVERT JUMPDEST PUSH2 0x601 DUP3 PUSH2 0x5B8 JUMP JUMPDEST DUP2 ADD DUP2 DUP2 LT PUSH8 0xFFFFFFFFFFFFFFFF DUP3 GT OR ISZERO PUSH2 0x620 JUMPI PUSH2 0x61F PUSH2 0x5C9 JUMP JUMPDEST JUMPDEST DUP1 PUSH1 0x40 MSTORE POP POP POP JUMP JUMPDEST PUSH1 0x0 PUSH2 0x633 PUSH2 0x59A JUMP JUMPDEST SWAP1 POP PUSH2 0x63F DUP3 DUP3 PUSH2 0x5F8 JUMP JUMPDEST SWAP2 SWAP1 POP JUMP JUMPDEST PUSH1 0x0 PUSH8 0xFFFFFFFFFFFFFFFF DUP3 GT ISZERO PUSH2 0x65F JUMPI PUSH2 0x65E PUSH2 0x5C9 JUMP JUMPDEST JUMPDEST PUSH2 0x668 DUP3 PUSH2 0x5B8 JUMP JUMPDEST SWAP1 POP PUSH1 0x20 DUP2 ADD SWAP1 POP SWAP2 SWAP1 POP JUMP JUMPDEST DUP3 DUP2 DUP4 CALLDATACOPY PUSH1 0x0 DUP4 DUP4 ADD MSTORE POP POP POP JUMP JUMPDEST PUSH1 0x0 PUSH2 0x697 PUSH2 0x692 DUP5 PUSH2 0x644 JUMP JUMPDEST PUSH2 0x629 JUMP JUMPDEST SWAP1 POP DUP3 DUP2 MSTORE PUSH1 0x20 DUP2 ADD DUP5 DUP5 DUP5 ADD GT ISZERO PUSH2 0x6B3 JUMPI PUSH2 0x6B2 PUSH2 0x5B3 JUMP JUMPDEST JUMPDEST PUSH2 0x6BE DUP5 DUP3 DUP6 PUSH2 0x675 JUMP JUMPDEST POP SWAP4 SWAP3 POP POP POP JUMP JUMPDEST PUSH1 0x0 DUP3 PUSH1 0x1F DUP4 ADD SLT PUSH2 0x6DB JUMPI PUSH2 0x6DA PUSH2 0x5AE JUMP JUMPDEST JUMPDEST DUP2 CALLDATALOAD PUSH2 0x6EB DUP5 DUP3 PUSH1 0x20 DUP7 ADD PUSH2 0x684 JUMP JUMPDEST SWAP2 POP POP SWAP3 SWAP2 POP POP JUMP JUMPDEST PUSH1 0x0 PUSH8 0xFFFFFFFFFFFFFFFF DUP3 GT ISZERO PUSH2 0x70F JUMPI PUSH2 0x70E PUSH2 0x5C9 JUMP JUMPDEST JUMPDEST PUSH2 0x718 DUP3 PUSH2 0x5B8 JUMP JUMPDEST SWAP1 POP PUSH1 0x20 DUP2 ADD SWAP1 POP SWAP2 SWAP1 POP JUMP JUMPDEST PUSH1 0x0 PUSH2 0x738 PUSH2 0x733 DUP5 PUSH2 0x6F4 JUMP JUMPDEST PUSH2 0x629 JUMP JUMPDEST SWAP1 POP DUP3 DUP2 MSTORE PUSH1 0x20 DUP2 ADD DUP5 DUP5 DUP5 ADD GT ISZERO PUSH2 0x754 JUMPI PUSH2 0x753 PUSH2 0x5B3 JUMP JUMPDEST JUMPDEST PUSH2 0x75F DUP5 DUP3 DUP6 PUSH2 0x675 JUMP JUMPDEST POP SWAP4 SWAP3 POP POP POP JUMP JUMPDEST PUSH1 0x0 DUP3 PUSH1 0x1F DUP4 ADD SLT PUSH2 0x77C JUMPI PUSH2 0x77B PUSH2 0x5AE JUMP JUMPDEST JUMPDEST DUP2 CALLDATALOAD PUSH2 0x78C DUP5 DUP3 PUSH1 0x20 DUP7 ADD PUSH2 0x725 JUMP JUMPDEST SWAP2 POP POP SWAP3 SWAP2 POP POP JUMP JUMPDEST PUSH1 0x0 DUP2 SWAP1 POP SWAP2 SWAP1 POP JUMP JUMPDEST PUSH2 0x7A8 DUP2 PUSH2 0x795 JUMP JUMPDEST DUP2 EQ PUSH2 0x7B3 JUMPI PUSH1 0x0 DUP1 REVERT JUMPDEST POP JUMP JUMPDEST PUSH1 0x0 DUP2 CALLDATALOAD SWAP1 POP PUSH2 0x7C5 DUP2 PUSH2 0x79F JUMP JUMPDEST SWAP3 SWAP2 POP POP JUMP JUMPDEST PUSH1 0x0 DUP1 PUSH1 0x0 DUP1 PUSH1 0x0 DUP1 PUSH1 0xC0 DUP8 DUP10 SUB SLT ISZERO PUSH2 0x7E8 JUMPI PUSH2 0x7E7 PUSH2 0x5A4 JUMP JUMPDEST JUMPDEST PUSH1 0x0 DUP8 ADD CALLDATALOAD PUSH8 0xFFFFFFFFFFFFFFFF DUP2 GT ISZERO PUSH2 0x806 JUMPI PUSH2 0x805 PUSH2 0x5A9 JUMP JUMPDEST JUMPDEST PUSH2 0x812 DUP10 DUP3 DUP11 ADD PUSH2 0x6C6 JUMP JUMPDEST SWAP7 POP POP PUSH1 0x20 DUP8 ADD CALLDATALOAD PUSH8 0xFFFFFFFFFFFFFFFF DUP2 GT ISZERO PUSH2 0x833 JUMPI PUSH2 0x832 PUSH2 0x5A9 JUMP JUMPDEST JUMPDEST PUSH2 0x83F DUP10 DUP3 DUP11 ADD PUSH2 0x767 JUMP JUMPDEST SWAP6 POP POP PUSH1 0x40 PUSH2 0x850 DUP10 DUP3 DUP11 ADD PUSH2 0x7B6 JUMP JUMPDEST SWAP5 POP POP PUSH1 0x60 PUSH2 0x861 DUP10 DUP3 DUP11 ADD PUSH2 0x7B6 JUMP JUMPDEST SWAP4 POP POP PUSH1 0x80 PUSH2 0x872 DUP10 DUP3 DUP11 ADD PUSH2 0x7B6 JUMP JUMPDEST SWAP3 POP POP PUSH1 0xA0 PUSH2 0x883 DUP10 DUP3 DUP11 ADD PUSH2 0x7B6 JUMP JUMPDEST SWAP2 POP POP SWAP3 SWAP6 POP SWAP3 SWAP6 POP SWAP3 SWAP6 JUMP JUMPDEST PUSH2 0x899 DUP2 PUSH2 0x4D4 JUMP JUMPDEST DUP3 MSTORE POP POP JUMP JUMPDEST PUSH1 0x0 PUSH1 0x20 DUP3 ADD SWAP1 POP PUSH2 0x8B4 PUSH1 0x0 DUP4 ADD DUP5 PUSH2 0x890 JUMP JUMPDEST SWAP3 SWAP2 POP POP JUMP JUMPDEST PUSH1 0x0 PUSH1 0x20 DUP3 DUP5 SUB SLT ISZERO PUSH2 0x8D0 JUMPI PUSH2 0x8CF PUSH2 0x5A4 JUMP JUMPDEST JUMPDEST PUSH1 0x0 PUSH2 0x8DE DUP5 DUP3 DUP6 ADD PUSH2 0x7B6 JUMP JUMPDEST SWAP2 POP POP SWAP3 SWAP2 POP POP JUMP JUMPDEST PUSH1 0x0 DUP2 MLOAD SWAP1 POP SWAP2 SWAP1 POP JUMP JUMPDEST PUSH1 0x0 DUP3 DUP3 MSTORE PUSH1 0x20 DUP3 ADD SWAP1 POP SWAP3 SWAP2 POP POP JUMP JUMPDEST PUSH1 0x0 JUMPDEST DUP4 DUP2 LT ISZERO PUSH2 0x921 JUMPI DUP1 DUP3 ADD MLOAD DUP2 DUP5 ADD MSTORE PUSH1 0x20 DUP2 ADD SWAP1 POP PUSH2 0x906 JUMP JUMPDEST PUSH1 0x0 DUP5 DUP5 ADD MSTORE POP POP POP POP JUMP JUMPDEST PUSH1 0x0 PUSH2 0x938 DUP3 PUSH2 0x8E7 JUMP JUMPDEST PUSH2 0x942 DUP2 DUP6 PUSH2 0x8F2 JUMP JUMPDEST SWAP4 POP PUSH2 0x952 DUP2 DUP6 PUSH1 0x20 DUP7 ADD PUSH2 0x903 JUMP JUMPDEST PUSH2 0x95B DUP2 PUSH2 0x5B8 JUMP JUMPDEST DUP5 ADD SWAP2 POP POP SWAP3 SWAP2 POP POP JUMP JUMPDEST PUSH1 0x0 DUP2 MLOAD SWAP1 POP SWAP2 SWAP1 POP JUMP JUMPDEST PUSH1 0x0 DUP3 DUP3 MSTORE PUSH1 0x20 DUP3 ADD SWAP1 POP SWAP3 SWAP2 POP POP JUMP JUMPDEST PUSH1 0x0 PUSH2 0x98D DUP3 PUSH2 0x966 JUMP JUMPDEST PUSH2 0x997 DUP2 DUP6 PUSH2 0x971 JUMP JUMPDEST SWAP4 POP PUSH2 0x9A7 DUP2 DUP6 PUSH1 0x20 DUP7 ADD PUSH2 0x903 JUMP JUMPDEST PUSH2 0x9B0 DUP2 PUSH2 0x5B8 JUMP JUMPDEST DUP5 ADD SWAP2 POP POP SWAP3 SWAP2 POP POP JUMP JUMPDEST PUSH2 0x9C4 DUP2 PUSH2 0x795 JUMP JUMPDEST DUP3 MSTORE POP POP JUMP JUMPDEST PUSH1 0x0 PUSH1 0xC0 DUP3 ADD SWAP1 POP DUP2 DUP2 SUB PUSH1 0x0 DUP4 ADD MSTORE PUSH2 0x9E4 DUP2 DUP10 PUSH2 0x92D JUMP JUMPDEST SWAP1 POP DUP2 DUP2 SUB PUSH1 0x20 DUP4 ADD MSTORE PUSH2 0x9F8 DUP2 DUP9 PUSH2 0x982 JUMP JUMPDEST SWAP1 POP PUSH2 0xA07 PUSH1 0x40 DUP4 ADD DUP8 PUSH2 0x9BB JUMP JUMPDEST PUSH2 0xA14 PUSH1 0x60 DUP4 ADD DUP7 PUSH2 0x9BB JUMP JUMPDEST PUSH2 0xA21 PUSH1 0x80 DUP4 ADD DUP6 PUSH2 0x9BB JUMP JUMPDEST PUSH2 0xA2E PUSH1 0xA0 DUP4 ADD DUP5 PUSH2 0x9BB JUMP JUMPDEST SWAP8 SWAP7 POP POP POP POP POP POP POP JUMP JUMPDEST PUSH1 0x0 DUP2 SWAP1 POP SWAP3 SWAP2 POP POP JUMP JUMPDEST PUSH1 0x0 PUSH2 0xA4F DUP3 PUSH2 0x8E7 JUMP JUMPDEST PUSH2 0xA59 DUP2 DUP6 PUSH2 0xA39 JUMP JUMPDEST SWAP4 POP PUSH2 0xA69 DUP2 DUP6 PUSH1 0x20 DUP7 ADD PUSH2 0x903 JUMP JUMPDEST DUP1 DUP5 ADD SWAP2 POP POP SWAP3 SWAP2 POP POP JUMP JUMPDEST PUSH1 0x0 PUSH2 0xA81 DUP3 DUP5 PUSH2 0xA44 JUMP JUMPDEST SWAP2 POP DUP2 SWAP1 POP SWAP3 SWAP2 POP POP JUMP JUMPDEST PUSH32 0x455243313136373A20637265617465206661696C656400000000000000000000 PUSH1 0x0 DUP3 ADD MSTORE POP JUMP JUMPDEST PUSH1 0x0 PUSH2 0xAC2 PUSH1 0x16 DUP4 PUSH2 0x971 JUMP JUMPDEST SWAP2 POP PUSH2 0xACD DUP3 PUSH2 0xA8C JUMP JUMPDEST PUSH1 0x20 DUP3 ADD SWAP1 POP SWAP2 SWAP1 POP JUMP JUMPDEST PUSH1 0x0 PUSH1 0x20 DUP3 ADD SWAP1 POP DUP2 DUP2 SUB PUSH1 0x0 DUP4 ADD MSTORE PUSH2 0xAF1 DUP2 PUSH2 0xAB5 JUMP JUMPDEST SWAP1 POP SWAP2 SWAP1 POP JUMP INVALID LOG2 PUSH5 0x6970667358 0x22 SLT KECCAK256 EXTCODECOPY SAR 0xC0 0xFB SSTORE 0x4A BLOCKHASH 0xCA 0xC6 0x23 DIFFICULTY PUSH17 0x775E8F380CB29DAB6027303C213475BC59 ADDRESS SSTORE PUSH7 0x64736F6C634300 ADDMOD GT STOP CALLER "},"methodIdentifiers":{"allClones(uint256)":"d7741cad","createNewDecentralist(bytes,string,uint256,uint256,uint256,uint256)":"9704bd8a","getAllClones()":"27831ee0","implementationContract()":"99e7d056"}}}}}