{"contracts/Decentralist.sol":{"Decentralist":{"abi":[{"anonymous":false,"inputs":[{"indexed":false,"internalType":"uint256","name":"bondAmount","type":"uint256"}],"name":"BondSet","type":"event"},{"anonymous":false,"inputs":[{"indexed":false,"internalType":"uint8","name":"version","type":"uint8"}],"name":"Initialized","type":"event"},{"anonymous":false,"inputs":[{"indexed":false,"internalType":"uint64","name":"liveness","type":"uint64"}],"name":"LivenessSet","type":"event"},{"anonymous":false,"inputs":[{"indexed":true,"internalType":"address","name":"previousOwner","type":"address"},{"indexed":true,"internalType":"address","name":"newOwner","type":"address"}],"name":"OwnershipTransferred","type":"event"},{"anonymous":false,"inputs":[{"indexed":true,"internalType":"uint256","name":"revisionId","type":"uint256"},{"indexed":false,"internalType":"enum Decentralist.RevisionType","name":"revisionType","type":"uint8"}],"name":"RevisionApproved","type":"event"},{"anonymous":false,"inputs":[{"indexed":true,"internalType":"uint256","name":"revisionId","type":"uint256"},{"indexed":false,"internalType":"enum Decentralist.RevisionType","name":"revisionType","type":"uint8"},{"indexed":false,"internalType":"address[]","name":"revisedAddresses","type":"address[]"}],"name":"RevisionExecuted","type":"event"},{"anonymous":false,"inputs":[{"indexed":true,"internalType":"uint256","name":"revisionId","type":"uint256"},{"indexed":false,"internalType":"enum Decentralist.RevisionType","name":"revisionType","type":"uint8"},{"indexed":false,"internalType":"address[]","name":"proposedAddresses","type":"address[]"}],"name":"RevisionProposed","type":"event"},{"anonymous":false,"inputs":[{"indexed":true,"internalType":"uint256","name":"revisionId","type":"uint256"},{"indexed":false,"internalType":"enum Decentralist.RevisionType","name":"revisionType","type":"uint8"}],"name":"RevisionRejected","type":"event"},{"anonymous":false,"inputs":[{"indexed":false,"internalType":"uint256","name":"additionReward","type":"uint256"},{"indexed":false,"internalType":"uint256","name":"removalReward","type":"uint256"}],"name":"RewardsSet","type":"event"},{"inputs":[],"name":"additionReward","outputs":[{"internalType":"uint256","name":"","type":"uint256"}],"stateMutability":"view","type":"function"},{"inputs":[],"name":"bondAmount","outputs":[{"internalType":"uint256","name":"","type":"uint256"}],"stateMutability":"view","type":"function"},{"inputs":[{"internalType":"uint256","name":"_revisionId","type":"uint256"},{"internalType":"address[]","name":"_addresses","type":"address[]"}],"name":"executeRevision","outputs":[],"stateMutability":"nonpayable","type":"function"},{"inputs":[],"name":"finder","outputs":[{"internalType":"contract FinderInterface","name":"","type":"address"}],"stateMutability":"view","type":"function"},{"inputs":[],"name":"fixedAncillaryData","outputs":[{"internalType":"bytes","name":"","type":"bytes"}],"stateMutability":"view","type":"function"},{"inputs":[{"internalType":"address","name":"_finder","type":"address"},{"internalType":"bytes","name":"_listCriteria","type":"bytes"},{"internalType":"string","name":"_title","type":"string"},{"internalType":"address","name":"_token","type":"address"},{"internalType":"uint256","name":"_bondAmount","type":"uint256"},{"internalType":"uint256","name":"_additionReward","type":"uint256"},{"internalType":"uint256","name":"_removalReward","type":"uint256"},{"internalType":"uint64","name":"_liveness","type":"uint64"},{"internalType":"uint64","name":"_minimumLiveness","type":"uint64"},{"internalType":"address","name":"_owner","type":"address"}],"name":"initialize","outputs":[],"stateMutability":"nonpayable","type":"function"},{"inputs":[],"name":"liveness","outputs":[{"internalType":"uint64","name":"","type":"uint64"}],"stateMutability":"view","type":"function"},{"inputs":[],"name":"minimumLiveness","outputs":[{"internalType":"uint64","name":"","type":"uint64"}],"stateMutability":"view","type":"function"},{"inputs":[{"internalType":"address","name":"","type":"address"}],"name":"onList","outputs":[{"internalType":"bool","name":"","type":"bool"}],"stateMutability":"view","type":"function"},{"inputs":[],"name":"oracle","outputs":[{"internalType":"contract OptimisticOracleV2Interface","name":"","type":"address"}],"stateMutability":"view","type":"function"},{"inputs":[],"name":"owner","outputs":[{"internalType":"address","name":"","type":"address"}],"stateMutability":"view","type":"function"},{"inputs":[{"internalType":"bytes32","name":"","type":"bytes32"},{"internalType":"uint256","name":"timestamp","type":"uint256"},{"internalType":"bytes","name":"ancillaryData","type":"bytes"},{"internalType":"int256","name":"value","type":"int256"}],"name":"priceSettled","outputs":[],"stateMutability":"nonpayable","type":"function"},{"inputs":[{"internalType":"enum Decentralist.RevisionType","name":"_revisionType","type":"uint8"},{"internalType":"address[]","name":"_addresses","type":"address[]"}],"name":"proposeRevision","outputs":[],"stateMutability":"nonpayable","type":"function"},{"inputs":[],"name":"removalReward","outputs":[{"internalType":"uint256","name":"","type":"uint256"}],"stateMutability":"view","type":"function"},{"inputs":[],"name":"renounceOwnership","outputs":[],"stateMutability":"nonpayable","type":"function"},{"inputs":[{"internalType":"address","name":"recipient","type":"address"},{"internalType":"uint256","name":"amount","type":"uint256"},{"internalType":"address","name":"_token","type":"address"}],"name":"rescue","outputs":[],"stateMutability":"nonpayable","type":"function"},{"inputs":[{"internalType":"uint256","name":"","type":"uint256"}],"name":"revisions","outputs":[{"internalType":"address","name":"proposer","type":"address"},{"internalType":"bytes32","name":"addressesHash","type":"bytes32"},{"internalType":"enum Decentralist.RevisionType","name":"revisionType","type":"uint8"},{"internalType":"enum Decentralist.Status","name":"status","type":"uint8"}],"stateMutability":"view","type":"function"},{"inputs":[{"internalType":"uint256","name":"_bondAmount","type":"uint256"}],"name":"setBond","outputs":[],"stateMutability":"nonpayable","type":"function"},{"inputs":[{"internalType":"uint64","name":"_liveness","type":"uint64"}],"name":"setLiveness","outputs":[],"stateMutability":"nonpayable","type":"function"},{"inputs":[{"internalType":"uint256","name":"_additionReward","type":"uint256"},{"internalType":"uint256","name":"_removalReward","type":"uint256"}],"name":"setRewards","outputs":[],"stateMutability":"nonpayable","type":"function"},{"inputs":[],"name":"store","outputs":[{"internalType":"contract StoreInterface","name":"","type":"address"}],"stateMutability":"view","type":"function"},{"inputs":[],"name":"syncContracts","outputs":[],"stateMutability":"nonpayable","type":"function"},{"inputs":[],"name":"title","outputs":[{"internalType":"string","name":"","type":"string"}],"stateMutability":"view","type":"function"},{"inputs":[],"name":"token","outputs":[{"internalType":"contract IERC20","name":"","type":"address"}],"stateMutability":"view","type":"function"},{"inputs":[{"internalType":"address","name":"newOwner","type":"address"}],"name":"transferOwnership","outputs":[],"stateMutability":"nonpayable","type":"function"},{"inputs":[{"internalType":"address","name":"recipient","type":"address"},{"internalType":"uint256","name":"amount","type":"uint256"}],"name":"withdraw","outputs":[],"stateMutability":"nonpayable","type":"function"}],"evm":{"bytecode":{"linkReferences":{},"object":"608060405234801561001057600080fd5b5061001a3361001f565b61007a565b600080546001600160a01b038381166201000081810262010000600160b01b0319851617855560405193049190911692909183917f8be0079c531659141344cd1fd0a4f28419497f9722a3daafe3b4186f6b6457e091a35050565b612c91806200008a6000396000f3fe608060405234801561001057600080fd5b50600436106101ae5760003560e01c80638671d23b116100ee578063af359fa211610097578063f2fde38b11610071578063f2fde38b146103d6578063f3fef3a3146103e9578063fc0c546a146103fc578063fee53ab61461040f57600080fd5b8063af359fa2146103a7578063b9a3c84c146103ba578063c207ec6e146103cd57600080fd5b80638dee967e116100c85780638dee967e1461036b57806391152f1014610374578063975057e71461039457600080fd5b80638671d23b146103395780638a301adc1461034c5780638da5cb5b1461035457600080fd5b8063654e51e71161015b578063715018a611610135578063715018a6146102dc57806374881462146102e45780637dc0d1d0146102f757806380f323a71461032257600080fd5b8063654e51e7146102695780636ad0690a1461027c5780636f626eb3146102a957600080fd5b80633c4432f11161018c5780633c4432f1146102395780634a79d50c1461024c5780635cae7fb51461026157600080fd5b806304cc1fd5146101b35780630ef486d1146101c8578063259bd92014610226575b600080fd5b6101c66101c136600461214f565b610422565b005b61020d6101d63660046121a7565b600e602052600090815260409020805460018201546002909201546001600160a01b03909116919060ff8082169161010090041684565b60405161021d94939291906121ea565b60405180910390f35b6101c66102343660046121a7565b6105bc565b6101c661024736600461224a565b6106c0565b6102546107ec565b60405161021d91906122bc565b61025461087a565b6101c66102773660046122cf565b610887565b600a546102909067ffffffffffffffff1681565b60405167ffffffffffffffff909116815260200161021d565b6102cc6102b7366004612311565b600f6020526000908152604090205460ff1681565b604051901515815260200161021d565b6101c66108d6565b6101c66102f236600461232e565b6108ea565b60015461030a906001600160a01b031681565b6040516001600160a01b03909116815260200161021d565b61032b60065481565b60405190815260200161021d565b6101c6610347366004612404565b610d01565b6101c6610d22565b6000546201000090046001600160a01b031661030a565b61032b60085481565b600a546102909068010000000000000000900467ffffffffffffffff1681565b60025461030a906001600160a01b031681565b6101c66103b5366004612492565b610e6f565b60035461030a906001600160a01b031681565b61032b60095481565b6101c66103e4366004612311565b611436565b6101c66103f73660046124eb565b6114c6565b60075461030a906001600160a01b031681565b6101c661041d366004612517565b6114e9565b6001546001600160a01b031633146104a75760405162461bcd60e51b815260206004820152602260248201527f6f6e6c79206f7261636c652063616e2063616c6c20746869732066756e63746960448201527f6f6e00000000000000000000000000000000000000000000000000000000000060648201526084015b60405180910390fd5b600082846040516020016104bc92919061254a565b60408051601f1981840301815291815281516020928301206000818152600d909352912054909150670de0b6b3a763ffff198301610556576000818152600e602052604090819020600201805461020061ff0019821617909155905182917fe7dfc76d7cf4f1781646dbd1e7e5057b56a0145663bf2bc18d35b27cb3a65b3f916105499160ff169061256c565b60405180910390a26105b4565b6000818152600e602052604090819020600201805461030061ff0019821617909155905182917f02050decabc268ccd3e064662a50780070b8d1ab87047ec88bc8e2c29fe29cda916105ab9160ff169061256c565b60405180910390a25b505050505050565b6105c46119a0565b600254600754604051635b97aadd60e01b81526001600160a01b039182166004820152911690635b97aadd90602401602060405180830381865afa158015610610573d6000803e3d6000fd5b505050506040513d601f19601f820116820180604052508101906106349190612580565b518110156106845760405162461bcd60e51b815260206004820152601960248201527f626f6e64206d757374206265203e3d2066696e616c2066656500000000000000604482015260640161049e565b60068190556040518181527f1b44689fb73c0c9cdf591d534287488fc7959fd3647346821063a3e567ec9a99906020015b60405180910390a150565b6106c86119a0565b600a5467ffffffffffffffff68010000000000000000909104811690821610156107405760405162461bcd60e51b815260206004820152602360248201527f6c6976656e657373206d757374206265203e3d206d696e696d756d4c6976656e60448201526265737360e81b606482015260840161049e565b62093a808167ffffffffffffffff161061079c5760405162461bcd60e51b815260206004820152601e60248201527f6c6976656e657373206d757374206265203c207468616e2031207765656b0000604482015260640161049e565b600a805467ffffffffffffffff191667ffffffffffffffff83169081179091556040519081527fe5e4fe1ed302905b2067dd5af3ef8c34bc829afc97a52f95dd96d97d1ee4351b906020016106b5565b600580546107f9906125c2565b80601f0160208091040260200160405190810160405280929190818152602001828054610825906125c2565b80156108725780601f1061084757610100808354040283529160200191610872565b820191906000526020600020905b81548152906001019060200180831161085557829003601f168201915b505050505081565b600480546107f9906125c2565b61088f6119a0565b6008829055600981905560408051838152602081018390527f067def216f0ef603ed8175482f6240978b15c9dc7efd8e1ac4bd3a743787a5b6910160405180910390a15050565b6108de6119a0565b6108e86000611a01565b565b600054610100900460ff161580801561090a5750600054600160ff909116105b806109245750303b158015610924575060005460ff166001145b6109965760405162461bcd60e51b815260206004820152602e60248201527f496e697469616c697a61626c653a20636f6e747261637420697320616c72656160448201527f647920696e697469616c697a6564000000000000000000000000000000000000606482015260840161049e565b6000805460ff1916600117905580156109b9576000805461ff0019166101001790555b600380546001600160a01b0319166001600160a01b038d161790556109dc610d22565b600780546001600160a01b0319166001600160a01b038a8116918217909255600254604051635b97aadd60e01b8152600481019290925290911690635b97aadd90602401602060405180830381865afa158015610a3d573d6000803e3d6000fd5b505050506040513d601f19601f82011682018060405250810190610a619190612580565b51600c55600254600754604051635b97aadd60e01b81526001600160a01b039182166004820152911690635b97aadd90602401602060405180830381865afa158015610ab1573d6000803e3d6000fd5b505050506040513d601f19601f82011682018060405250810190610ad59190612580565b51871015610b255760405162461bcd60e51b815260206004820152601960248201527f626f6e64206d757374206265203e3d2066696e616c2066656500000000000000604482015260640161049e565b8267ffffffffffffffff168467ffffffffffffffff161015610b955760405162461bcd60e51b815260206004820152602360248201527f6c6976656e657373206d757374206265203e3d206d696e696d756d4c6976656e60448201526265737360e81b606482015260840161049e565b63bb7448008467ffffffffffffffff1610610bf25760405162461bcd60e51b815260206004820152601d60248201527f6c6976656e657373206d757374206265203c2035323030207765656b73000000604482015260640161049e565b89604051602001610c0391906125fc565b60405160208183030381529060405260049081610c2091906126fa565b506005610c2d8a826126fa565b50600780546001600160a01b038a166001600160a01b0319909116179055600687905560088690556009859055600a805467ffffffffffffffff85811668010000000000000000027fffffffffffffffffffffffffffffffff0000000000000000000000000000000090921690871617179055610ca982611a01565b6001600b558015610cf4576000805461ff0019169055604051600181527f7f26b83ff96e1f2b6a682f133852f6798a09c465da95921460cefb38474024989060200160405180910390a15b5050505050505050505050565b610d096119a0565b610d1d6001600160a01b0382168484611a72565b505050565b6003546040516302abf57960e61b81527f4f7074696d69737469634f7261636c655632000000000000000000000000000060048201526001600160a01b039091169063aafd5e4090602401602060405180830381865afa158015610d8a573d6000803e3d6000fd5b505050506040513d601f19601f82011682018060405250810190610dae91906127ba565b600180546001600160a01b0319166001600160a01b039283161790556003546040516302abf57960e61b81527f53746f7265000000000000000000000000000000000000000000000000000000600482015291169063aafd5e4090602401602060405180830381865afa158015610e29573d6000803e3d6000fd5b505050506040513d601f19601f82011682018060405250810190610e4d91906127ba565b600280546001600160a01b0319166001600160a01b0392909216919091179055565b60648110610ee45760405162461bcd60e51b8152602060048201526024808201527f616464726573736573206172726179206c656e677468206d757374206265203c60448201527f2031303000000000000000000000000000000000000000000000000000000000606482015260840161049e565b60408051808201909152601a81527f446f20616c6c2050726f706f736564204164647265737365732000000000000060208201526000846001811115610f2c57610f2c6121c0565b03610f545780604051602001610f4291906127d7565b60405160208183030381529060405290505b806004610f62600b54611b1b565b604051602001610f7493929190612818565b60408051601f198184030181529082905291504290600090610f9c908490849060200161254a565b60405160208183030381529060405280519060200120905060008585604051602001610fc9929190612928565b60408051601f198184030181529181528151602092830120600b80546000878152600d8652848120829055908152600e90945282842080546001600160a01b03191633179055805484528284206001908101839055905484529190922060020180549293508992909160ff1990911690838181111561104a5761104a6121c0565b0217905550600b546000908152600e6020526040808220600201805461ff00191661010017905560015460075491517f11df92f10000000000000000000000000000000000000000000000000000000081526001600160a01b03918216936311df92f1936110d6936c111150d1539514904b531254d5609a1b938a938c9392909216919060040161296a565b6020604051808303816000875af11580156110f5573d6000803e3d6000fd5b505050506040513d601f19601f8201168201806040525081019061111991906129a6565b50600180546040517ff327b0750000000000000000000000000000000000000000000000000000000081526001600160a01b039091169163f327b0759161117d916c111150d1539514904b531254d5609a1b9188918a9160009182916004016129bf565b600060405180830381600087803b15801561119757600080fd5b505af11580156111ab573d6000803e3d6000fd5b5050600154600a546040517f473c45fe0000000000000000000000000000000000000000000000000000000081526001600160a01b03909216935063473c45fe925061121a916c111150d1539514904b531254d5609a1b9188918a9167ffffffffffffffff16906004016129fe565b600060405180830381600087803b15801561123457600080fd5b505af1158015611248573d6000803e3d6000fd5b50506001546006546040517fad5a755a000000000000000000000000000000000000000000000000000000008152600094506001600160a01b03909216925063ad5a755a916112af916c111150d1539514904b531254d5609a1b9189918b91600401612a38565b6020604051808303816000875af11580156112ce573d6000803e3d6000fd5b505050506040513d601f19601f820116820180604052508101906112f291906129a6565b60075490915061130d906001600160a01b0316333084611c7b565b60015460075461132a916001600160a01b03918216911683611cd2565b6001546040517f7c82288f0000000000000000000000000000000000000000000000000000000081526001600160a01b0390911690637c82288f9061139590339030906c111150d1539514904b531254d5609a1b908a908c90670de0b6b3a764000090600401612a68565b6020604051808303816000875af11580156113b4573d6000803e3d6000fd5b505050506040513d601f19601f820116820180604052508101906113d891906129a6565b50600b547f8479c2bee15eda418c90b95fa659dac53de3029ccab55c13c32641a566b4fd9289898960405161140f93929190612ab3565b60405180910390a2600b805490600061142783612b2b565b91905055505050505050505050565b61143e6119a0565b6001600160a01b0381166114ba5760405162461bcd60e51b815260206004820152602660248201527f4f776e61626c653a206e6577206f776e657220697320746865207a65726f206160448201527f6464726573730000000000000000000000000000000000000000000000000000606482015260840161049e565b6114c381611a01565b50565b6114ce6119a0565b6007546114e5906001600160a01b03168383611a72565b5050565b60026000848152600e6020526040902060020154610100900460ff166004811115611516576115166121c0565b146115635760405162461bcd60e51b815260206004820152601a60248201527f7265766973696f6e4964206973206e6f7420617070726f766564000000000000604482015260640161049e565b8181604051602001611576929190612928565b60408051601f1981840301815291815281516020928301206000868152600e909352912060010154146116115760405162461bcd60e51b815260206004820152602f60248201527f68617368206f662061646472657373657320213d207265766973696f6e49642760448201527f7320616464726573736573486173680000000000000000000000000000000000606482015260840161049e565b6000838152600e60205260408120600201805461040061ff00198216179091558190819060ff166001811115611649576116496121c0565b0361165b575050600954600090611691565b60016000868152600e602052604090206002015460ff166001811115611683576116836121c0565b036116915750506008546001905b6000808467ffffffffffffffff8111156116ad576116ad6120ac565b6040519080825280602002602001820160405280156116d6578160200160208202803683370190505b50905060005b858110156117fb57841515600f60008989858181106116fd576116fd612b44565b90506020020160208101906117129190612311565b6001600160a01b0316815260208101919091526040016000205460ff161515146117e95784600f600089898581811061174d5761174d612b44565b90506020020160208101906117629190612311565b6001600160a01b031681526020810191909152604001600020805460ff191691151591909117905586868281811061179c5761179c612b44565b90506020020160208101906117b19190612311565b8282815181106117c3576117c3612b44565b6001600160a01b0390921660209283029190910190910152826117e581612b2b565b9350505b806117f381612b2b565b9150506116dc565b5060006118088385612b5a565b90508015611945576007546040516370a0823160e01b815230600482015282916001600160a01b0316906370a0823190602401602060405180830381865afa158015611858573d6000803e3d6000fd5b505050506040513d601f19601f8201168201806040525081019061187c91906129a6565b101561191c576000888152600e6020526040908190205460075491516370a0823160e01b8152306004820152611917926001600160a01b039283169216906370a0823190602401602060405180830381865afa1580156118e0573d6000803e3d6000fd5b505050506040513d601f19601f8201168201806040525081019061190491906129a6565b6007546001600160a01b03169190611a72565b611945565b6000888152600e6020526040902054600754611945916001600160a01b03918216911683611a72565b6000888152600e60205260409081902060020154905189917f80f45b4d1139e5fb60a132f4ca38836c7c42309e0a67a42d1a58450daf29253e9161198e9160ff16908690612b71565b60405180910390a25050505050505050565b6000546001600160a01b03620100009091041633146108e85760405162461bcd60e51b815260206004820181905260248201527f4f776e61626c653a2063616c6c6572206973206e6f7420746865206f776e6572604482015260640161049e565b600080546001600160a01b03838116620100008181027fffffffffffffffffffff0000000000000000000000000000000000000000ffff851617855560405193049190911692909183917f8be0079c531659141344cd1fd0a4f28419497f9722a3daafe3b4186f6b6457e091a35050565b6040516001600160a01b038316602482015260448101829052610d1d9084907fa9059cbb00000000000000000000000000000000000000000000000000000000906064015b60408051601f198184030181529190526020810180517bffffffffffffffffffffffffffffffffffffffffffffffffffffffff167fffffffff0000000000000000000000000000000000000000000000000000000090931692909217909152611e20565b606081600003611b5e57505060408051808201909152600181527f3000000000000000000000000000000000000000000000000000000000000000602082015290565b8160005b8115611b885780611b7281612b2b565b9150611b819050600a83612bcf565b9150611b62565b60008167ffffffffffffffff811115611ba357611ba36120ac565b6040519080825280601f01601f191660200182016040528015611bcd576020820181803683370190505b509050815b8515611c7257611be3600182612bf1565b90506000611bf2600a88612bcf565b611bfd90600a612b5a565b611c079088612bf1565b611c12906030612c04565b905060008160f81b905080848481518110611c2f57611c2f612b44565b60200101907effffffffffffffffffffffffffffffffffffffffffffffffffffffffffffff1916908160001a905350611c69600a89612bcf565b97505050611bd2565b50949350505050565b6040516001600160a01b0380851660248301528316604482015260648101829052611ccc9085907f23b872dd0000000000000000000000000000000000000000000000000000000090608401611ab7565b50505050565b801580611d6557506040517fdd62ed3e0000000000000000000000000000000000000000000000000000000081523060048201526001600160a01b03838116602483015284169063dd62ed3e90604401602060405180830381865afa158015611d3f573d6000803e3d6000fd5b505050506040513d601f19601f82011682018060405250810190611d6391906129a6565b155b611dd75760405162461bcd60e51b815260206004820152603660248201527f5361666545524332303a20617070726f76652066726f6d206e6f6e2d7a65726f60448201527f20746f206e6f6e2d7a65726f20616c6c6f77616e636500000000000000000000606482015260840161049e565b6040516001600160a01b038316602482015260448101829052610d1d9084907f095ea7b30000000000000000000000000000000000000000000000000000000090606401611ab7565b6000611e75826040518060400160405280602081526020017f5361666545524332303a206c6f772d6c6576656c2063616c6c206661696c6564815250856001600160a01b0316611f059092919063ffffffff16565b805190915015610d1d5780806020019051810190611e939190612c1d565b610d1d5760405162461bcd60e51b815260206004820152602a60248201527f5361666545524332303a204552433230206f7065726174696f6e20646964206e60448201527f6f74207375636365656400000000000000000000000000000000000000000000606482015260840161049e565b6060611f148484600085611f1c565b949350505050565b606082471015611f945760405162461bcd60e51b815260206004820152602660248201527f416464726573733a20696e73756666696369656e742062616c616e636520666f60448201527f722063616c6c0000000000000000000000000000000000000000000000000000606482015260840161049e565b600080866001600160a01b03168587604051611fb09190612c3f565b60006040518083038185875af1925050503d8060008114611fed576040519150601f19603f3d011682016040523d82523d6000602084013e611ff2565b606091505b50915091506120038783838761200e565b979650505050505050565b6060831561207d578251600003612076576001600160a01b0385163b6120765760405162461bcd60e51b815260206004820152601d60248201527f416464726573733a2063616c6c20746f206e6f6e2d636f6e7472616374000000604482015260640161049e565b5081611f14565b611f1483838151156120925781518083602001fd5b8060405162461bcd60e51b815260040161049e91906122bc565b634e487b7160e01b600052604160045260246000fd5b600082601f8301126120d357600080fd5b813567ffffffffffffffff808211156120ee576120ee6120ac565b604051601f8301601f19908116603f01168101908282118183101715612116576121166120ac565b8160405283815286602085880101111561212f57600080fd5b836020870160208301376000602085830101528094505050505092915050565b6000806000806080858703121561216557600080fd5b8435935060208501359250604085013567ffffffffffffffff81111561218a57600080fd5b612196878288016120c2565b949793965093946060013593505050565b6000602082840312156121b957600080fd5b5035919050565b634e487b7160e01b600052602160045260246000fd5b600281106121e6576121e66121c0565b9052565b6001600160a01b0385168152602081018490526080810161220e60408301856121d6565b6005831061221e5761221e6121c0565b82606083015295945050505050565b803567ffffffffffffffff8116811461224557600080fd5b919050565b60006020828403121561225c57600080fd5b6122658261222d565b9392505050565b60005b8381101561228757818101518382015260200161226f565b50506000910152565b600081518084526122a881602086016020860161226c565b601f01601f19169290920160200192915050565b6020815260006122656020830184612290565b600080604083850312156122e257600080fd5b50508035926020909101359150565b6001600160a01b03811681146114c357600080fd5b8035612245816122f1565b60006020828403121561232357600080fd5b8135612265816122f1565b6000806000806000806000806000806101408b8d03121561234e57600080fd5b6123578b612306565b995060208b013567ffffffffffffffff8082111561237457600080fd5b6123808e838f016120c2565b9a5060408d013591508082111561239657600080fd5b506123a38d828e016120c2565b9850506123b260608c01612306565b965060808b0135955060a08b0135945060c08b013593506123d560e08c0161222d565b92506123e46101008c0161222d565b91506123f36101208c01612306565b90509295989b9194979a5092959850565b60008060006060848603121561241957600080fd5b8335612424816122f1565b925060208401359150604084013561243b816122f1565b809150509250925092565b60008083601f84011261245857600080fd5b50813567ffffffffffffffff81111561247057600080fd5b6020830191508360208260051b850101111561248b57600080fd5b9250929050565b6000806000604084860312156124a757600080fd5b8335600281106124b657600080fd5b9250602084013567ffffffffffffffff8111156124d257600080fd5b6124de86828701612446565b9497909650939450505050565b600080604083850312156124fe57600080fd5b8235612509816122f1565b946020939093013593505050565b60008060006040848603121561252c57600080fd5b83359250602084013567ffffffffffffffff8111156124d257600080fd5b6000835161255c81846020880161226c565b9190910191825250602001919050565b6020810161257a82846121d6565b92915050565b60006020828403121561259257600080fd5b6040516020810181811067ffffffffffffffff821117156125b5576125b56120ac565b6040529151825250919050565b600181811c908216806125d657607f821691505b6020821081036125f657634e487b7160e01b600052602260045260246000fd5b50919050565b7f6d65657420746865204c6973742043726974657269612061742074686520746981527f6d65206f662074686520707269636520726571756573743f204c69737420437260208201527f6974657269613a2000000000000000000000000000000000000000000000000060408201526000825161268081604885016020870161226c565b7f2e20446563656e7472612d4c697374205265766973696f6e204944203d2000006048939091019283015250606601919050565b601f821115610d1d57600081815260208120601f850160051c810160208610156126db5750805b601f850160051c820191505b818110156105b4578281556001016126e7565b815167ffffffffffffffff811115612714576127146120ac565b6127288161272284546125c2565b846126b4565b602080601f83116001811461275d57600084156127455750858301515b600019600386901b1c1916600185901b1785556105b4565b600085815260208120601f198616915b8281101561278c5788860151825594840194600190910190840161276d565b50858210156127aa5787850151600019600388901b60f8161c191681555b5050505050600190811b01905550565b6000602082840312156127cc57600080fd5b8151612265816122f1565b600082516127e981846020870161226c565b7f6661696c20746f20000000000000000000000000000000000000000000000000920191825250600801919050565b60008451602061282b8285838a0161226c565b81840191506000865461283d816125c2565b60018281168015612855576001811461286a57612896565b60ff1984168752821515830287019450612896565b8a6000528560002060005b8481101561288e57815489820152908301908701612875565b505082870194505b50505050855192506128ab838284890161226c565b7f2e20466f7220646972656374696f6e7320746f2066696e64207468652050726f92019182527f706f736564204164647265737365732c2073656520496d706c656d656e746174908201527f696f6e2073656374696f6e206f6620554d49502d3136392e0000000000000000604082015260580195945050505050565b60008184825b8581101561295f578135612941816122f1565b6001600160a01b03168352602092830192919091019060010161292e565b509095945050505050565b85815284602082015260a06040820152600061298960a0830186612290565b6001600160a01b0394909416606083015250608001529392505050565b6000602082840312156129b857600080fd5b5051919050565b86815285602082015260c0604082015260006129de60c0830187612290565b9415156060830152509115156080830152151560a0909101529392505050565b848152836020820152608060408201526000612a1d6080830185612290565b905067ffffffffffffffff8316606083015295945050505050565b848152836020820152608060408201526000612a576080830185612290565b905082606083015295945050505050565b60006001600160a01b03808916835280881660208401525085604083015284606083015260c06080830152612aa060c0830185612290565b90508260a0830152979650505050505050565b600060408201612ac383876121d6565b60206040818501528185835260608501905086925060005b86811015612b09578335612aee816122f1565b6001600160a01b031682529282019290820190600101612adb565b50979650505050505050565b634e487b7160e01b600052601160045260246000fd5b600060018201612b3d57612b3d612b15565b5060010190565b634e487b7160e01b600052603260045260246000fd5b808202811582820484141761257a5761257a612b15565b600060408201612b8183866121d6565b6020604081850152818551808452606086019150828701935060005b81811015612bc25784516001600160a01b031683529383019391830191600101612b9d565b5090979650505050505050565b600082612bec57634e487b7160e01b600052601260045260246000fd5b500490565b8181038181111561257a5761257a612b15565b60ff818116838216019081111561257a5761257a612b15565b600060208284031215612c2f57600080fd5b8151801515811461226557600080fd5b60008251612c5181846020870161226c565b919091019291505056fea26469706673582212204e5517719301b7b4c2152a69bc645d91bcbdb026c90647638e0faa0925b08d7d64736f6c63430008110033","opcodes":"PUSH1 0x80 PUSH1 0x40 MSTORE CALLVALUE DUP1 ISZERO PUSH2 0x10 JUMPI PUSH1 0x0 DUP1 REVERT JUMPDEST POP PUSH2 0x1A CALLER PUSH2 0x1F JUMP JUMPDEST PUSH2 0x7A JUMP JUMPDEST PUSH1 0x0 DUP1 SLOAD PUSH1 0x1 PUSH1 0x1 PUSH1 0xA0 SHL SUB DUP4 DUP2 AND PUSH3 0x10000 DUP2 DUP2 MUL PUSH3 0x10000 PUSH1 0x1 PUSH1 0xB0 SHL SUB NOT DUP6 AND OR DUP6 SSTORE PUSH1 0x40 MLOAD SWAP4 DIV SWAP2 SWAP1 SWAP2 AND SWAP3 SWAP1 SWAP2 DUP4 SWAP2 PUSH32 0x8BE0079C531659141344CD1FD0A4F28419497F9722A3DAAFE3B4186F6B6457E0 SWAP2 LOG3 POP POP JUMP JUMPDEST PUSH2 0x2C91 DUP1 PUSH3 0x8A PUSH1 0x0 CODECOPY PUSH1 0x0 RETURN INVALID PUSH1 0x80 PUSH1 0x40 MSTORE CALLVALUE DUP1 ISZERO PUSH2 0x10 JUMPI PUSH1 0x0 DUP1 REVERT JUMPDEST POP PUSH1 0x4 CALLDATASIZE LT PUSH2 0x1AE JUMPI PUSH1 0x0 CALLDATALOAD PUSH1 0xE0 SHR DUP1 PUSH4 0x8671D23B GT PUSH2 0xEE JUMPI DUP1 PUSH4 0xAF359FA2 GT PUSH2 0x97 JUMPI DUP1 PUSH4 0xF2FDE38B GT PUSH2 0x71 JUMPI DUP1 PUSH4 0xF2FDE38B EQ PUSH2 0x3D6 JUMPI DUP1 PUSH4 0xF3FEF3A3 EQ PUSH2 0x3E9 JUMPI DUP1 PUSH4 0xFC0C546A EQ PUSH2 0x3FC JUMPI DUP1 PUSH4 0xFEE53AB6 EQ PUSH2 0x40F JUMPI PUSH1 0x0 DUP1 REVERT JUMPDEST DUP1 PUSH4 0xAF359FA2 EQ PUSH2 0x3A7 JUMPI DUP1 PUSH4 0xB9A3C84C EQ PUSH2 0x3BA JUMPI DUP1 PUSH4 0xC207EC6E EQ PUSH2 0x3CD JUMPI PUSH1 0x0 DUP1 REVERT JUMPDEST DUP1 PUSH4 0x8DEE967E GT PUSH2 0xC8 JUMPI DUP1 PUSH4 0x8DEE967E EQ PUSH2 0x36B JUMPI DUP1 PUSH4 0x91152F10 EQ PUSH2 0x374 JUMPI DUP1 PUSH4 0x975057E7 EQ PUSH2 0x394 JUMPI PUSH1 0x0 DUP1 REVERT JUMPDEST DUP1 PUSH4 0x8671D23B EQ PUSH2 0x339 JUMPI DUP1 PUSH4 0x8A301ADC EQ PUSH2 0x34C JUMPI DUP1 PUSH4 0x8DA5CB5B EQ PUSH2 0x354 JUMPI PUSH1 0x0 DUP1 REVERT JUMPDEST DUP1 PUSH4 0x654E51E7 GT PUSH2 0x15B JUMPI DUP1 PUSH4 0x715018A6 GT PUSH2 0x135 JUMPI DUP1 PUSH4 0x715018A6 EQ PUSH2 0x2DC JUMPI DUP1 PUSH4 0x74881462 EQ PUSH2 0x2E4 JUMPI DUP1 PUSH4 0x7DC0D1D0 EQ PUSH2 0x2F7 JUMPI DUP1 PUSH4 0x80F323A7 EQ PUSH2 0x322 JUMPI PUSH1 0x0 DUP1 REVERT JUMPDEST DUP1 PUSH4 0x654E51E7 EQ PUSH2 0x269 JUMPI DUP1 PUSH4 0x6AD0690A EQ PUSH2 0x27C JUMPI DUP1 PUSH4 0x6F626EB3 EQ PUSH2 0x2A9 JUMPI PUSH1 0x0 DUP1 REVERT JUMPDEST DUP1 PUSH4 0x3C4432F1 GT PUSH2 0x18C JUMPI DUP1 PUSH4 0x3C4432F1 EQ PUSH2 0x239 JUMPI DUP1 PUSH4 0x4A79D50C EQ PUSH2 0x24C JUMPI DUP1 PUSH4 0x5CAE7FB5 EQ PUSH2 0x261 JUMPI PUSH1 0x0 DUP1 REVERT JUMPDEST DUP1 PUSH4 0x4CC1FD5 EQ PUSH2 0x1B3 JUMPI DUP1 PUSH4 0xEF486D1 EQ PUSH2 0x1C8 JUMPI DUP1 PUSH4 0x259BD920 EQ PUSH2 0x226 JUMPI JUMPDEST PUSH1 0x0 DUP1 REVERT JUMPDEST PUSH2 0x1C6 PUSH2 0x1C1 CALLDATASIZE PUSH1 0x4 PUSH2 0x214F JUMP JUMPDEST PUSH2 0x422 JUMP JUMPDEST STOP JUMPDEST PUSH2 0x20D PUSH2 0x1D6 CALLDATASIZE PUSH1 0x4 PUSH2 0x21A7 JUMP JUMPDEST PUSH1 0xE PUSH1 0x20 MSTORE PUSH1 0x0 SWAP1 DUP2 MSTORE PUSH1 0x40 SWAP1 KECCAK256 DUP1 SLOAD PUSH1 0x1 DUP3 ADD SLOAD PUSH1 0x2 SWAP1 SWAP3 ADD SLOAD PUSH1 0x1 PUSH1 0x1 PUSH1 0xA0 SHL SUB SWAP1 SWAP2 AND SWAP2 SWAP1 PUSH1 0xFF DUP1 DUP3 AND SWAP2 PUSH2 0x100 SWAP1 DIV AND DUP5 JUMP JUMPDEST PUSH1 0x40 MLOAD PUSH2 0x21D SWAP5 SWAP4 SWAP3 SWAP2 SWAP1 PUSH2 0x21EA JUMP JUMPDEST PUSH1 0x40 MLOAD DUP1 SWAP2 SUB SWAP1 RETURN JUMPDEST PUSH2 0x1C6 PUSH2 0x234 CALLDATASIZE PUSH1 0x4 PUSH2 0x21A7 JUMP JUMPDEST PUSH2 0x5BC JUMP JUMPDEST PUSH2 0x1C6 PUSH2 0x247 CALLDATASIZE PUSH1 0x4 PUSH2 0x224A JUMP JUMPDEST PUSH2 0x6C0 JUMP JUMPDEST PUSH2 0x254 PUSH2 0x7EC JUMP JUMPDEST PUSH1 0x40 MLOAD PUSH2 0x21D SWAP2 SWAP1 PUSH2 0x22BC JUMP JUMPDEST PUSH2 0x254 PUSH2 0x87A JUMP JUMPDEST PUSH2 0x1C6 PUSH2 0x277 CALLDATASIZE PUSH1 0x4 PUSH2 0x22CF JUMP JUMPDEST PUSH2 0x887 JUMP JUMPDEST PUSH1 0xA SLOAD PUSH2 0x290 SWAP1 PUSH8 0xFFFFFFFFFFFFFFFF AND DUP2 JUMP JUMPDEST PUSH1 0x40 MLOAD PUSH8 0xFFFFFFFFFFFFFFFF SWAP1 SWAP2 AND DUP2 MSTORE PUSH1 0x20 ADD PUSH2 0x21D JUMP JUMPDEST PUSH2 0x2CC PUSH2 0x2B7 CALLDATASIZE PUSH1 0x4 PUSH2 0x2311 JUMP JUMPDEST PUSH1 0xF PUSH1 0x20 MSTORE PUSH1 0x0 SWAP1 DUP2 MSTORE PUSH1 0x40 SWAP1 KECCAK256 SLOAD PUSH1 0xFF AND DUP2 JUMP JUMPDEST PUSH1 0x40 MLOAD SWAP1 ISZERO ISZERO DUP2 MSTORE PUSH1 0x20 ADD PUSH2 0x21D JUMP JUMPDEST PUSH2 0x1C6 PUSH2 0x8D6 JUMP JUMPDEST PUSH2 0x1C6 PUSH2 0x2F2 CALLDATASIZE PUSH1 0x4 PUSH2 0x232E JUMP JUMPDEST PUSH2 0x8EA JUMP JUMPDEST PUSH1 0x1 SLOAD PUSH2 0x30A SWAP1 PUSH1 0x1 PUSH1 0x1 PUSH1 0xA0 SHL SUB AND DUP2 JUMP JUMPDEST PUSH1 0x40 MLOAD PUSH1 0x1 PUSH1 0x1 PUSH1 0xA0 SHL SUB SWAP1 SWAP2 AND DUP2 MSTORE PUSH1 0x20 ADD PUSH2 0x21D JUMP JUMPDEST PUSH2 0x32B PUSH1 0x6 SLOAD DUP2 JUMP JUMPDEST PUSH1 0x40 MLOAD SWAP1 DUP2 MSTORE PUSH1 0x20 ADD PUSH2 0x21D JUMP JUMPDEST PUSH2 0x1C6 PUSH2 0x347 CALLDATASIZE PUSH1 0x4 PUSH2 0x2404 JUMP JUMPDEST PUSH2 0xD01 JUMP JUMPDEST PUSH2 0x1C6 PUSH2 0xD22 JUMP JUMPDEST PUSH1 0x0 SLOAD PUSH3 0x10000 SWAP1 DIV PUSH1 0x1 PUSH1 0x1 PUSH1 0xA0 SHL SUB AND PUSH2 0x30A JUMP JUMPDEST PUSH2 0x32B PUSH1 0x8 SLOAD DUP2 JUMP JUMPDEST PUSH1 0xA SLOAD PUSH2 0x290 SWAP1 PUSH9 0x10000000000000000 SWAP1 DIV PUSH8 0xFFFFFFFFFFFFFFFF AND DUP2 JUMP JUMPDEST PUSH1 0x2 SLOAD PUSH2 0x30A SWAP1 PUSH1 0x1 PUSH1 0x1 PUSH1 0xA0 SHL SUB AND DUP2 JUMP JUMPDEST PUSH2 0x1C6 PUSH2 0x3B5 CALLDATASIZE PUSH1 0x4 PUSH2 0x2492 JUMP JUMPDEST PUSH2 0xE6F JUMP JUMPDEST PUSH1 0x3 SLOAD PUSH2 0x30A SWAP1 PUSH1 0x1 PUSH1 0x1 PUSH1 0xA0 SHL SUB AND DUP2 JUMP JUMPDEST PUSH2 0x32B PUSH1 0x9 SLOAD DUP2 JUMP JUMPDEST PUSH2 0x1C6 PUSH2 0x3E4 CALLDATASIZE PUSH1 0x4 PUSH2 0x2311 JUMP JUMPDEST PUSH2 0x1436 JUMP JUMPDEST PUSH2 0x1C6 PUSH2 0x3F7 CALLDATASIZE PUSH1 0x4 PUSH2 0x24EB JUMP JUMPDEST PUSH2 0x14C6 JUMP JUMPDEST PUSH1 0x7 SLOAD PUSH2 0x30A SWAP1 PUSH1 0x1 PUSH1 0x1 PUSH1 0xA0 SHL SUB AND DUP2 JUMP JUMPDEST PUSH2 0x1C6 PUSH2 0x41D CALLDATASIZE PUSH1 0x4 PUSH2 0x2517 JUMP JUMPDEST PUSH2 0x14E9 JUMP JUMPDEST PUSH1 0x1 SLOAD PUSH1 0x1 PUSH1 0x1 PUSH1 0xA0 SHL SUB AND CALLER EQ PUSH2 0x4A7 JUMPI PUSH1 0x40 MLOAD PUSH3 0x461BCD PUSH1 0xE5 SHL DUP2 MSTORE PUSH1 0x20 PUSH1 0x4 DUP3 ADD MSTORE PUSH1 0x22 PUSH1 0x24 DUP3 ADD MSTORE PUSH32 0x6F6E6C79206F7261636C652063616E2063616C6C20746869732066756E637469 PUSH1 0x44 DUP3 ADD MSTORE PUSH32 0x6F6E000000000000000000000000000000000000000000000000000000000000 PUSH1 0x64 DUP3 ADD MSTORE PUSH1 0x84 ADD JUMPDEST PUSH1 0x40 MLOAD DUP1 SWAP2 SUB SWAP1 REVERT JUMPDEST PUSH1 0x0 DUP3 DUP5 PUSH1 0x40 MLOAD PUSH1 0x20 ADD PUSH2 0x4BC SWAP3 SWAP2 SWAP1 PUSH2 0x254A JUMP JUMPDEST PUSH1 0x40 DUP1 MLOAD PUSH1 0x1F NOT DUP2 DUP5 SUB ADD DUP2 MSTORE SWAP2 DUP2 MSTORE DUP2 MLOAD PUSH1 0x20 SWAP3 DUP4 ADD KECCAK256 PUSH1 0x0 DUP2 DUP2 MSTORE PUSH1 0xD SWAP1 SWAP4 MSTORE SWAP2 KECCAK256 SLOAD SWAP1 SWAP2 POP PUSH8 0xDE0B6B3A763FFFF NOT DUP4 ADD PUSH2 0x556 JUMPI PUSH1 0x0 DUP2 DUP2 MSTORE PUSH1 0xE PUSH1 0x20 MSTORE PUSH1 0x40 SWAP1 DUP2 SWAP1 KECCAK256 PUSH1 0x2 ADD DUP1 SLOAD PUSH2 0x200 PUSH2 0xFF00 NOT DUP3 AND OR SWAP1 SWAP2 SSTORE SWAP1 MLOAD DUP3 SWAP2 PUSH32 0xE7DFC76D7CF4F1781646DBD1E7E5057B56A0145663BF2BC18D35B27CB3A65B3F SWAP2 PUSH2 0x549 SWAP2 PUSH1 0xFF AND SWAP1 PUSH2 0x256C JUMP JUMPDEST PUSH1 0x40 MLOAD DUP1 SWAP2 SUB SWAP1 LOG2 PUSH2 0x5B4 JUMP JUMPDEST PUSH1 0x0 DUP2 DUP2 MSTORE PUSH1 0xE PUSH1 0x20 MSTORE PUSH1 0x40 SWAP1 DUP2 SWAP1 KECCAK256 PUSH1 0x2 ADD DUP1 SLOAD PUSH2 0x300 PUSH2 0xFF00 NOT DUP3 AND OR SWAP1 SWAP2 SSTORE SWAP1 MLOAD DUP3 SWAP2 PUSH32 0x2050DECABC268CCD3E064662A50780070B8D1AB87047EC88BC8E2C29FE29CDA SWAP2 PUSH2 0x5AB SWAP2 PUSH1 0xFF AND SWAP1 PUSH2 0x256C JUMP JUMPDEST PUSH1 0x40 MLOAD DUP1 SWAP2 SUB SWAP1 LOG2 JUMPDEST POP POP POP POP POP POP JUMP JUMPDEST PUSH2 0x5C4 PUSH2 0x19A0 JUMP JUMPDEST PUSH1 0x2 SLOAD PUSH1 0x7 SLOAD PUSH1 0x40 MLOAD PUSH4 0x5B97AADD PUSH1 0xE0 SHL DUP2 MSTORE PUSH1 0x1 PUSH1 0x1 PUSH1 0xA0 SHL SUB SWAP2 DUP3 AND PUSH1 0x4 DUP3 ADD MSTORE SWAP2 AND SWAP1 PUSH4 0x5B97AADD SWAP1 PUSH1 0x24 ADD PUSH1 0x20 PUSH1 0x40 MLOAD DUP1 DUP4 SUB DUP2 DUP7 GAS STATICCALL ISZERO DUP1 ISZERO PUSH2 0x610 JUMPI RETURNDATASIZE PUSH1 0x0 DUP1 RETURNDATACOPY RETURNDATASIZE PUSH1 0x0 REVERT JUMPDEST POP POP POP POP PUSH1 0x40 MLOAD RETURNDATASIZE PUSH1 0x1F NOT PUSH1 0x1F DUP3 ADD AND DUP3 ADD DUP1 PUSH1 0x40 MSTORE POP DUP2 ADD SWAP1 PUSH2 0x634 SWAP2 SWAP1 PUSH2 0x2580 JUMP JUMPDEST MLOAD DUP2 LT ISZERO PUSH2 0x684 JUMPI PUSH1 0x40 MLOAD PUSH3 0x461BCD PUSH1 0xE5 SHL DUP2 MSTORE PUSH1 0x20 PUSH1 0x4 DUP3 ADD MSTORE PUSH1 0x19 PUSH1 0x24 DUP3 ADD MSTORE PUSH32 0x626F6E64206D757374206265203E3D2066696E616C2066656500000000000000 PUSH1 0x44 DUP3 ADD MSTORE PUSH1 0x64 ADD PUSH2 0x49E JUMP JUMPDEST PUSH1 0x6 DUP2 SWAP1 SSTORE PUSH1 0x40 MLOAD DUP2 DUP2 MSTORE PUSH32 0x1B44689FB73C0C9CDF591D534287488FC7959FD3647346821063A3E567EC9A99 SWAP1 PUSH1 0x20 ADD JUMPDEST PUSH1 0x40 MLOAD DUP1 SWAP2 SUB SWAP1 LOG1 POP JUMP JUMPDEST PUSH2 0x6C8 PUSH2 0x19A0 JUMP JUMPDEST PUSH1 0xA SLOAD PUSH8 0xFFFFFFFFFFFFFFFF PUSH9 0x10000000000000000 SWAP1 SWAP2 DIV DUP2 AND SWAP1 DUP3 AND LT ISZERO PUSH2 0x740 JUMPI PUSH1 0x40 MLOAD PUSH3 0x461BCD PUSH1 0xE5 SHL DUP2 MSTORE PUSH1 0x20 PUSH1 0x4 DUP3 ADD MSTORE PUSH1 0x23 PUSH1 0x24 DUP3 ADD MSTORE PUSH32 0x6C6976656E657373206D757374206265203E3D206D696E696D756D4C6976656E PUSH1 0x44 DUP3 ADD MSTORE PUSH3 0x657373 PUSH1 0xE8 SHL PUSH1 0x64 DUP3 ADD MSTORE PUSH1 0x84 ADD PUSH2 0x49E JUMP JUMPDEST PUSH3 0x93A80 DUP2 PUSH8 0xFFFFFFFFFFFFFFFF AND LT PUSH2 0x79C JUMPI PUSH1 0x40 MLOAD PUSH3 0x461BCD PUSH1 0xE5 SHL DUP2 MSTORE PUSH1 0x20 PUSH1 0x4 DUP3 ADD MSTORE PUSH1 0x1E PUSH1 0x24 DUP3 ADD MSTORE PUSH32 0x6C6976656E657373206D757374206265203C207468616E2031207765656B0000 PUSH1 0x44 DUP3 ADD MSTORE PUSH1 0x64 ADD PUSH2 0x49E JUMP JUMPDEST PUSH1 0xA DUP1 SLOAD PUSH8 0xFFFFFFFFFFFFFFFF NOT AND PUSH8 0xFFFFFFFFFFFFFFFF DUP4 AND SWAP1 DUP2 OR SWAP1 SWAP2 SSTORE PUSH1 0x40 MLOAD SWAP1 DUP2 MSTORE PUSH32 0xE5E4FE1ED302905B2067DD5AF3EF8C34BC829AFC97A52F95DD96D97D1EE4351B SWAP1 PUSH1 0x20 ADD PUSH2 0x6B5 JUMP JUMPDEST PUSH1 0x5 DUP1 SLOAD PUSH2 0x7F9 SWAP1 PUSH2 0x25C2 JUMP JUMPDEST DUP1 PUSH1 0x1F ADD PUSH1 0x20 DUP1 SWAP2 DIV MUL PUSH1 0x20 ADD PUSH1 0x40 MLOAD SWAP1 DUP2 ADD PUSH1 0x40 MSTORE DUP1 SWAP3 SWAP2 SWAP1 DUP2 DUP2 MSTORE PUSH1 0x20 ADD DUP3 DUP1 SLOAD PUSH2 0x825 SWAP1 PUSH2 0x25C2 JUMP JUMPDEST DUP1 ISZERO PUSH2 0x872 JUMPI DUP1 PUSH1 0x1F LT PUSH2 0x847 JUMPI PUSH2 0x100 DUP1 DUP4 SLOAD DIV MUL DUP4 MSTORE SWAP2 PUSH1 0x20 ADD SWAP2 PUSH2 0x872 JUMP JUMPDEST DUP3 ADD SWAP2 SWAP1 PUSH1 0x0 MSTORE PUSH1 0x20 PUSH1 0x0 KECCAK256 SWAP1 JUMPDEST DUP2 SLOAD DUP2 MSTORE SWAP1 PUSH1 0x1 ADD SWAP1 PUSH1 0x20 ADD DUP1 DUP4 GT PUSH2 0x855 JUMPI DUP3 SWAP1 SUB PUSH1 0x1F AND DUP3 ADD SWAP2 JUMPDEST POP POP POP POP POP DUP2 JUMP JUMPDEST PUSH1 0x4 DUP1 SLOAD PUSH2 0x7F9 SWAP1 PUSH2 0x25C2 JUMP JUMPDEST PUSH2 0x88F PUSH2 0x19A0 JUMP JUMPDEST PUSH1 0x8 DUP3 SWAP1 SSTORE PUSH1 0x9 DUP2 SWAP1 SSTORE PUSH1 0x40 DUP1 MLOAD DUP4 DUP2 MSTORE PUSH1 0x20 DUP2 ADD DUP4 SWAP1 MSTORE PUSH32 0x67DEF216F0EF603ED8175482F6240978B15C9DC7EFD8E1AC4BD3A743787A5B6 SWAP2 ADD PUSH1 0x40 MLOAD DUP1 SWAP2 SUB SWAP1 LOG1 POP POP JUMP JUMPDEST PUSH2 0x8DE PUSH2 0x19A0 JUMP JUMPDEST PUSH2 0x8E8 PUSH1 0x0 PUSH2 0x1A01 JUMP JUMPDEST JUMP JUMPDEST PUSH1 0x0 SLOAD PUSH2 0x100 SWAP1 DIV PUSH1 0xFF AND ISZERO DUP1 DUP1 ISZERO PUSH2 0x90A JUMPI POP PUSH1 0x0 SLOAD PUSH1 0x1 PUSH1 0xFF SWAP1 SWAP2 AND LT JUMPDEST DUP1 PUSH2 0x924 JUMPI POP ADDRESS EXTCODESIZE ISZERO DUP1 ISZERO PUSH2 0x924 JUMPI POP PUSH1 0x0 SLOAD PUSH1 0xFF AND PUSH1 0x1 EQ JUMPDEST PUSH2 0x996 JUMPI PUSH1 0x40 MLOAD PUSH3 0x461BCD PUSH1 0xE5 SHL DUP2 MSTORE PUSH1 0x20 PUSH1 0x4 DUP3 ADD MSTORE PUSH1 0x2E PUSH1 0x24 DUP3 ADD MSTORE PUSH32 0x496E697469616C697A61626C653A20636F6E747261637420697320616C726561 PUSH1 0x44 DUP3 ADD MSTORE PUSH32 0x647920696E697469616C697A6564000000000000000000000000000000000000 PUSH1 0x64 DUP3 ADD MSTORE PUSH1 0x84 ADD PUSH2 0x49E JUMP JUMPDEST PUSH1 0x0 DUP1 SLOAD PUSH1 0xFF NOT AND PUSH1 0x1 OR SWAP1 SSTORE DUP1 ISZERO PUSH2 0x9B9 JUMPI PUSH1 0x0 DUP1 SLOAD PUSH2 0xFF00 NOT AND PUSH2 0x100 OR SWAP1 SSTORE JUMPDEST PUSH1 0x3 DUP1 SLOAD PUSH1 0x1 PUSH1 0x1 PUSH1 0xA0 SHL SUB NOT AND PUSH1 0x1 PUSH1 0x1 PUSH1 0xA0 SHL SUB DUP14 AND OR SWAP1 SSTORE PUSH2 0x9DC PUSH2 0xD22 JUMP JUMPDEST PUSH1 0x7 DUP1 SLOAD PUSH1 0x1 PUSH1 0x1 PUSH1 0xA0 SHL SUB NOT AND PUSH1 0x1 PUSH1 0x1 PUSH1 0xA0 SHL SUB DUP11 DUP2 AND SWAP2 DUP3 OR SWAP1 SWAP3 SSTORE PUSH1 0x2 SLOAD PUSH1 0x40 MLOAD PUSH4 0x5B97AADD PUSH1 0xE0 SHL DUP2 MSTORE PUSH1 0x4 DUP2 ADD SWAP3 SWAP1 SWAP3 MSTORE SWAP1 SWAP2 AND SWAP1 PUSH4 0x5B97AADD SWAP1 PUSH1 0x24 ADD PUSH1 0x20 PUSH1 0x40 MLOAD DUP1 DUP4 SUB DUP2 DUP7 GAS STATICCALL ISZERO DUP1 ISZERO PUSH2 0xA3D JUMPI RETURNDATASIZE PUSH1 0x0 DUP1 RETURNDATACOPY RETURNDATASIZE PUSH1 0x0 REVERT JUMPDEST POP POP POP POP PUSH1 0x40 MLOAD RETURNDATASIZE PUSH1 0x1F NOT PUSH1 0x1F DUP3 ADD AND DUP3 ADD DUP1 PUSH1 0x40 MSTORE POP DUP2 ADD SWAP1 PUSH2 0xA61 SWAP2 SWAP1 PUSH2 0x2580 JUMP JUMPDEST MLOAD PUSH1 0xC SSTORE PUSH1 0x2 SLOAD PUSH1 0x7 SLOAD PUSH1 0x40 MLOAD PUSH4 0x5B97AADD PUSH1 0xE0 SHL DUP2 MSTORE PUSH1 0x1 PUSH1 0x1 PUSH1 0xA0 SHL SUB SWAP2 DUP3 AND PUSH1 0x4 DUP3 ADD MSTORE SWAP2 AND SWAP1 PUSH4 0x5B97AADD SWAP1 PUSH1 0x24 ADD PUSH1 0x20 PUSH1 0x40 MLOAD DUP1 DUP4 SUB DUP2 DUP7 GAS STATICCALL ISZERO DUP1 ISZERO PUSH2 0xAB1 JUMPI RETURNDATASIZE PUSH1 0x0 DUP1 RETURNDATACOPY RETURNDATASIZE PUSH1 0x0 REVERT JUMPDEST POP POP POP POP PUSH1 0x40 MLOAD RETURNDATASIZE PUSH1 0x1F NOT PUSH1 0x1F DUP3 ADD AND DUP3 ADD DUP1 PUSH1 0x40 MSTORE POP DUP2 ADD SWAP1 PUSH2 0xAD5 SWAP2 SWAP1 PUSH2 0x2580 JUMP JUMPDEST MLOAD DUP8 LT ISZERO PUSH2 0xB25 JUMPI PUSH1 0x40 MLOAD PUSH3 0x461BCD PUSH1 0xE5 SHL DUP2 MSTORE PUSH1 0x20 PUSH1 0x4 DUP3 ADD MSTORE PUSH1 0x19 PUSH1 0x24 DUP3 ADD MSTORE PUSH32 0x626F6E64206D757374206265203E3D2066696E616C2066656500000000000000 PUSH1 0x44 DUP3 ADD MSTORE PUSH1 0x64 ADD PUSH2 0x49E JUMP JUMPDEST DUP3 PUSH8 0xFFFFFFFFFFFFFFFF AND DUP5 PUSH8 0xFFFFFFFFFFFFFFFF AND LT ISZERO PUSH2 0xB95 JUMPI PUSH1 0x40 MLOAD PUSH3 0x461BCD PUSH1 0xE5 SHL DUP2 MSTORE PUSH1 0x20 PUSH1 0x4 DUP3 ADD MSTORE PUSH1 0x23 PUSH1 0x24 DUP3 ADD MSTORE PUSH32 0x6C6976656E657373206D757374206265203E3D206D696E696D756D4C6976656E PUSH1 0x44 DUP3 ADD MSTORE PUSH3 0x657373 PUSH1 0xE8 SHL PUSH1 0x64 DUP3 ADD MSTORE PUSH1 0x84 ADD PUSH2 0x49E JUMP JUMPDEST PUSH4 0xBB744800 DUP5 PUSH8 0xFFFFFFFFFFFFFFFF AND LT PUSH2 0xBF2 JUMPI PUSH1 0x40 MLOAD PUSH3 0x461BCD PUSH1 0xE5 SHL DUP2 MSTORE PUSH1 0x20 PUSH1 0x4 DUP3 ADD MSTORE PUSH1 0x1D PUSH1 0x24 DUP3 ADD MSTORE PUSH32 0x6C6976656E657373206D757374206265203C2035323030207765656B73000000 PUSH1 0x44 DUP3 ADD MSTORE PUSH1 0x64 ADD PUSH2 0x49E JUMP JUMPDEST DUP10 PUSH1 0x40 MLOAD PUSH1 0x20 ADD PUSH2 0xC03 SWAP2 SWAP1 PUSH2 0x25FC JUMP JUMPDEST PUSH1 0x40 MLOAD PUSH1 0x20 DUP2 DUP4 SUB SUB DUP2 MSTORE SWAP1 PUSH1 0x40 MSTORE PUSH1 0x4 SWAP1 DUP2 PUSH2 0xC20 SWAP2 SWAP1 PUSH2 0x26FA JUMP JUMPDEST POP PUSH1 0x5 PUSH2 0xC2D DUP11 DUP3 PUSH2 0x26FA JUMP JUMPDEST POP PUSH1 0x7 DUP1 SLOAD PUSH1 0x1 PUSH1 0x1 PUSH1 0xA0 SHL SUB DUP11 AND PUSH1 0x1 PUSH1 0x1 PUSH1 0xA0 SHL SUB NOT SWAP1 SWAP2 AND OR SWAP1 SSTORE PUSH1 0x6 DUP8 SWAP1 SSTORE PUSH1 0x8 DUP7 SWAP1 SSTORE PUSH1 0x9 DUP6 SWAP1 SSTORE PUSH1 0xA DUP1 SLOAD PUSH8 0xFFFFFFFFFFFFFFFF DUP6 DUP2 AND PUSH9 0x10000000000000000 MUL PUSH32 0xFFFFFFFFFFFFFFFFFFFFFFFFFFFFFFFF00000000000000000000000000000000 SWAP1 SWAP3 AND SWAP1 DUP8 AND OR OR SWAP1 SSTORE PUSH2 0xCA9 DUP3 PUSH2 0x1A01 JUMP JUMPDEST PUSH1 0x1 PUSH1 0xB SSTORE DUP1 ISZERO PUSH2 0xCF4 JUMPI PUSH1 0x0 DUP1 SLOAD PUSH2 0xFF00 NOT AND SWAP1 SSTORE PUSH1 0x40 MLOAD PUSH1 0x1 DUP2 MSTORE PUSH32 0x7F26B83FF96E1F2B6A682F133852F6798A09C465DA95921460CEFB3847402498 SWAP1 PUSH1 0x20 ADD PUSH1 0x40 MLOAD DUP1 SWAP2 SUB SWAP1 LOG1 JUMPDEST POP POP POP POP POP POP POP POP POP POP POP JUMP JUMPDEST PUSH2 0xD09 PUSH2 0x19A0 JUMP JUMPDEST PUSH2 0xD1D PUSH1 0x1 PUSH1 0x1 PUSH1 0xA0 SHL SUB DUP3 AND DUP5 DUP5 PUSH2 0x1A72 JUMP JUMPDEST POP POP POP JUMP JUMPDEST PUSH1 0x3 SLOAD PUSH1 0x40 MLOAD PUSH4 0x2ABF579 PUSH1 0xE6 SHL DUP2 MSTORE PUSH32 0x4F7074696D69737469634F7261636C6556320000000000000000000000000000 PUSH1 0x4 DUP3 ADD MSTORE PUSH1 0x1 PUSH1 0x1 PUSH1 0xA0 SHL SUB SWAP1 SWAP2 AND SWAP1 PUSH4 0xAAFD5E40 SWAP1 PUSH1 0x24 ADD PUSH1 0x20 PUSH1 0x40 MLOAD DUP1 DUP4 SUB DUP2 DUP7 GAS STATICCALL ISZERO DUP1 ISZERO PUSH2 0xD8A JUMPI RETURNDATASIZE PUSH1 0x0 DUP1 RETURNDATACOPY RETURNDATASIZE PUSH1 0x0 REVERT JUMPDEST POP POP POP POP PUSH1 0x40 MLOAD RETURNDATASIZE PUSH1 0x1F NOT PUSH1 0x1F DUP3 ADD AND DUP3 ADD DUP1 PUSH1 0x40 MSTORE POP DUP2 ADD SWAP1 PUSH2 0xDAE SWAP2 SWAP1 PUSH2 0x27BA JUMP JUMPDEST PUSH1 0x1 DUP1 SLOAD PUSH1 0x1 PUSH1 0x1 PUSH1 0xA0 SHL SUB NOT AND PUSH1 0x1 PUSH1 0x1 PUSH1 0xA0 SHL SUB SWAP3 DUP4 AND OR SWAP1 SSTORE PUSH1 0x3 SLOAD PUSH1 0x40 MLOAD PUSH4 0x2ABF579 PUSH1 0xE6 SHL DUP2 MSTORE PUSH32 0x53746F7265000000000000000000000000000000000000000000000000000000 PUSH1 0x4 DUP3 ADD MSTORE SWAP2 AND SWAP1 PUSH4 0xAAFD5E40 SWAP1 PUSH1 0x24 ADD PUSH1 0x20 PUSH1 0x40 MLOAD DUP1 DUP4 SUB DUP2 DUP7 GAS STATICCALL ISZERO DUP1 ISZERO PUSH2 0xE29 JUMPI RETURNDATASIZE PUSH1 0x0 DUP1 RETURNDATACOPY RETURNDATASIZE PUSH1 0x0 REVERT JUMPDEST POP POP POP POP PUSH1 0x40 MLOAD RETURNDATASIZE PUSH1 0x1F NOT PUSH1 0x1F DUP3 ADD AND DUP3 ADD DUP1 PUSH1 0x40 MSTORE POP DUP2 ADD SWAP1 PUSH2 0xE4D SWAP2 SWAP1 PUSH2 0x27BA JUMP JUMPDEST PUSH1 0x2 DUP1 SLOAD PUSH1 0x1 PUSH1 0x1 PUSH1 0xA0 SHL SUB NOT AND PUSH1 0x1 PUSH1 0x1 PUSH1 0xA0 SHL SUB SWAP3 SWAP1 SWAP3 AND SWAP2 SWAP1 SWAP2 OR SWAP1 SSTORE JUMP JUMPDEST PUSH1 0x64 DUP2 LT PUSH2 0xEE4 JUMPI PUSH1 0x40 MLOAD PUSH3 0x461BCD PUSH1 0xE5 SHL DUP2 MSTORE PUSH1 0x20 PUSH1 0x4 DUP3 ADD MSTORE PUSH1 0x24 DUP1 DUP3 ADD MSTORE PUSH32 0x616464726573736573206172726179206C656E677468206D757374206265203C PUSH1 0x44 DUP3 ADD MSTORE PUSH32 0x2031303000000000000000000000000000000000000000000000000000000000 PUSH1 0x64 DUP3 ADD MSTORE PUSH1 0x84 ADD PUSH2 0x49E JUMP JUMPDEST PUSH1 0x40 DUP1 MLOAD DUP1 DUP3 ADD SWAP1 SWAP2 MSTORE PUSH1 0x1A DUP2 MSTORE PUSH32 0x446F20616C6C2050726F706F7365642041646472657373657320000000000000 PUSH1 0x20 DUP3 ADD MSTORE PUSH1 0x0 DUP5 PUSH1 0x1 DUP2 GT ISZERO PUSH2 0xF2C JUMPI PUSH2 0xF2C PUSH2 0x21C0 JUMP JUMPDEST SUB PUSH2 0xF54 JUMPI DUP1 PUSH1 0x40 MLOAD PUSH1 0x20 ADD PUSH2 0xF42 SWAP2 SWAP1 PUSH2 0x27D7 JUMP JUMPDEST PUSH1 0x40 MLOAD PUSH1 0x20 DUP2 DUP4 SUB SUB DUP2 MSTORE SWAP1 PUSH1 0x40 MSTORE SWAP1 POP JUMPDEST DUP1 PUSH1 0x4 PUSH2 0xF62 PUSH1 0xB SLOAD PUSH2 0x1B1B JUMP JUMPDEST PUSH1 0x40 MLOAD PUSH1 0x20 ADD PUSH2 0xF74 SWAP4 SWAP3 SWAP2 SWAP1 PUSH2 0x2818 JUMP JUMPDEST PUSH1 0x40 DUP1 MLOAD PUSH1 0x1F NOT DUP2 DUP5 SUB ADD DUP2 MSTORE SWAP1 DUP3 SWAP1 MSTORE SWAP2 POP TIMESTAMP SWAP1 PUSH1 0x0 SWAP1 PUSH2 0xF9C SWAP1 DUP5 SWAP1 DUP5 SWAP1 PUSH1 0x20 ADD PUSH2 0x254A JUMP JUMPDEST PUSH1 0x40 MLOAD PUSH1 0x20 DUP2 DUP4 SUB SUB DUP2 MSTORE SWAP1 PUSH1 0x40 MSTORE DUP1 MLOAD SWAP1 PUSH1 0x20 ADD KECCAK256 SWAP1 POP PUSH1 0x0 DUP6 DUP6 PUSH1 0x40 MLOAD PUSH1 0x20 ADD PUSH2 0xFC9 SWAP3 SWAP2 SWAP1 PUSH2 0x2928 JUMP JUMPDEST PUSH1 0x40 DUP1 MLOAD PUSH1 0x1F NOT DUP2 DUP5 SUB ADD DUP2 MSTORE SWAP2 DUP2 MSTORE DUP2 MLOAD PUSH1 0x20 SWAP3 DUP4 ADD KECCAK256 PUSH1 0xB DUP1 SLOAD PUSH1 0x0 DUP8 DUP2 MSTORE PUSH1 0xD DUP7 MSTORE DUP5 DUP2 KECCAK256 DUP3 SWAP1 SSTORE SWAP1 DUP2 MSTORE PUSH1 0xE SWAP1 SWAP5 MSTORE DUP3 DUP5 KECCAK256 DUP1 SLOAD PUSH1 0x1 PUSH1 0x1 PUSH1 0xA0 SHL SUB NOT AND CALLER OR SWAP1 SSTORE DUP1 SLOAD DUP5 MSTORE DUP3 DUP5 KECCAK256 PUSH1 0x1 SWAP1 DUP2 ADD DUP4 SWAP1 SSTORE SWAP1 SLOAD DUP5 MSTORE SWAP2 SWAP1 SWAP3 KECCAK256 PUSH1 0x2 ADD DUP1 SLOAD SWAP3 SWAP4 POP DUP10 SWAP3 SWAP1 SWAP2 PUSH1 0xFF NOT SWAP1 SWAP2 AND SWAP1 DUP4 DUP2 DUP2 GT ISZERO PUSH2 0x104A JUMPI PUSH2 0x104A PUSH2 0x21C0 JUMP JUMPDEST MUL OR SWAP1 SSTORE POP PUSH1 0xB SLOAD PUSH1 0x0 SWAP1 DUP2 MSTORE PUSH1 0xE PUSH1 0x20 MSTORE PUSH1 0x40 DUP1 DUP3 KECCAK256 PUSH1 0x2 ADD DUP1 SLOAD PUSH2 0xFF00 NOT AND PUSH2 0x100 OR SWAP1 SSTORE PUSH1 0x1 SLOAD PUSH1 0x7 SLOAD SWAP2 MLOAD PUSH32 0x11DF92F100000000000000000000000000000000000000000000000000000000 DUP2 MSTORE PUSH1 0x1 PUSH1 0x1 PUSH1 0xA0 SHL SUB SWAP2 DUP3 AND SWAP4 PUSH4 0x11DF92F1 SWAP4 PUSH2 0x10D6 SWAP4 PUSH13 0x111150D1539514904B531254D5 PUSH1 0x9A SHL SWAP4 DUP11 SWAP4 DUP13 SWAP4 SWAP3 SWAP1 SWAP3 AND SWAP2 SWAP1 PUSH1 0x4 ADD PUSH2 0x296A JUMP JUMPDEST PUSH1 0x20 PUSH1 0x40 MLOAD DUP1 DUP4 SUB DUP2 PUSH1 0x0 DUP8 GAS CALL ISZERO DUP1 ISZERO PUSH2 0x10F5 JUMPI RETURNDATASIZE PUSH1 0x0 DUP1 RETURNDATACOPY RETURNDATASIZE PUSH1 0x0 REVERT JUMPDEST POP POP POP POP PUSH1 0x40 MLOAD RETURNDATASIZE PUSH1 0x1F NOT PUSH1 0x1F DUP3 ADD AND DUP3 ADD DUP1 PUSH1 0x40 MSTORE POP DUP2 ADD SWAP1 PUSH2 0x1119 SWAP2 SWAP1 PUSH2 0x29A6 JUMP JUMPDEST POP PUSH1 0x1 DUP1 SLOAD PUSH1 0x40 MLOAD PUSH32 0xF327B07500000000000000000000000000000000000000000000000000000000 DUP2 MSTORE PUSH1 0x1 PUSH1 0x1 PUSH1 0xA0 SHL SUB SWAP1 SWAP2 AND SWAP2 PUSH4 0xF327B075 SWAP2 PUSH2 0x117D SWAP2 PUSH13 0x111150D1539514904B531254D5 PUSH1 0x9A SHL SWAP2 DUP9 SWAP2 DUP11 SWAP2 PUSH1 0x0 SWAP2 DUP3 SWAP2 PUSH1 0x4 ADD PUSH2 0x29BF JUMP JUMPDEST PUSH1 0x0 PUSH1 0x40 MLOAD DUP1 DUP4 SUB DUP2 PUSH1 0x0 DUP8 DUP1 EXTCODESIZE ISZERO DUP1 ISZERO PUSH2 0x1197 JUMPI PUSH1 0x0 DUP1 REVERT JUMPDEST POP GAS CALL ISZERO DUP1 ISZERO PUSH2 0x11AB JUMPI RETURNDATASIZE PUSH1 0x0 DUP1 RETURNDATACOPY RETURNDATASIZE PUSH1 0x0 REVERT JUMPDEST POP POP PUSH1 0x1 SLOAD PUSH1 0xA SLOAD PUSH1 0x40 MLOAD PUSH32 0x473C45FE00000000000000000000000000000000000000000000000000000000 DUP2 MSTORE PUSH1 0x1 PUSH1 0x1 PUSH1 0xA0 SHL SUB SWAP1 SWAP3 AND SWAP4 POP PUSH4 0x473C45FE SWAP3 POP PUSH2 0x121A SWAP2 PUSH13 0x111150D1539514904B531254D5 PUSH1 0x9A SHL SWAP2 DUP9 SWAP2 DUP11 SWAP2 PUSH8 0xFFFFFFFFFFFFFFFF AND SWAP1 PUSH1 0x4 ADD PUSH2 0x29FE JUMP JUMPDEST PUSH1 0x0 PUSH1 0x40 MLOAD DUP1 DUP4 SUB DUP2 PUSH1 0x0 DUP8 DUP1 EXTCODESIZE ISZERO DUP1 ISZERO PUSH2 0x1234 JUMPI PUSH1 0x0 DUP1 REVERT JUMPDEST POP GAS CALL ISZERO DUP1 ISZERO PUSH2 0x1248 JUMPI RETURNDATASIZE PUSH1 0x0 DUP1 RETURNDATACOPY RETURNDATASIZE PUSH1 0x0 REVERT JUMPDEST POP POP PUSH1 0x1 SLOAD PUSH1 0x6 SLOAD PUSH1 0x40 MLOAD PUSH32 0xAD5A755A00000000000000000000000000000000000000000000000000000000 DUP2 MSTORE PUSH1 0x0 SWAP5 POP PUSH1 0x1 PUSH1 0x1 PUSH1 0xA0 SHL SUB SWAP1 SWAP3 AND SWAP3 POP PUSH4 0xAD5A755A SWAP2 PUSH2 0x12AF SWAP2 PUSH13 0x111150D1539514904B531254D5 PUSH1 0x9A SHL SWAP2 DUP10 SWAP2 DUP12 SWAP2 PUSH1 0x4 ADD PUSH2 0x2A38 JUMP JUMPDEST PUSH1 0x20 PUSH1 0x40 MLOAD DUP1 DUP4 SUB DUP2 PUSH1 0x0 DUP8 GAS CALL ISZERO DUP1 ISZERO PUSH2 0x12CE JUMPI RETURNDATASIZE PUSH1 0x0 DUP1 RETURNDATACOPY RETURNDATASIZE PUSH1 0x0 REVERT JUMPDEST POP POP POP POP PUSH1 0x40 MLOAD RETURNDATASIZE PUSH1 0x1F NOT PUSH1 0x1F DUP3 ADD AND DUP3 ADD DUP1 PUSH1 0x40 MSTORE POP DUP2 ADD SWAP1 PUSH2 0x12F2 SWAP2 SWAP1 PUSH2 0x29A6 JUMP JUMPDEST PUSH1 0x7 SLOAD SWAP1 SWAP2 POP PUSH2 0x130D SWAP1 PUSH1 0x1 PUSH1 0x1 PUSH1 0xA0 SHL SUB AND CALLER ADDRESS DUP5 PUSH2 0x1C7B JUMP JUMPDEST PUSH1 0x1 SLOAD PUSH1 0x7 SLOAD PUSH2 0x132A SWAP2 PUSH1 0x1 PUSH1 0x1 PUSH1 0xA0 SHL SUB SWAP2 DUP3 AND SWAP2 AND DUP4 PUSH2 0x1CD2 JUMP JUMPDEST PUSH1 0x1 SLOAD PUSH1 0x40 MLOAD PUSH32 0x7C82288F00000000000000000000000000000000000000000000000000000000 DUP2 MSTORE PUSH1 0x1 PUSH1 0x1 PUSH1 0xA0 SHL SUB SWAP1 SWAP2 AND SWAP1 PUSH4 0x7C82288F SWAP1 PUSH2 0x1395 SWAP1 CALLER SWAP1 ADDRESS SWAP1 PUSH13 0x111150D1539514904B531254D5 PUSH1 0x9A SHL SWAP1 DUP11 SWAP1 DUP13 SWAP1 PUSH8 0xDE0B6B3A7640000 SWAP1 PUSH1 0x4 ADD PUSH2 0x2A68 JUMP JUMPDEST PUSH1 0x20 PUSH1 0x40 MLOAD DUP1 DUP4 SUB DUP2 PUSH1 0x0 DUP8 GAS CALL ISZERO DUP1 ISZERO PUSH2 0x13B4 JUMPI RETURNDATASIZE PUSH1 0x0 DUP1 RETURNDATACOPY RETURNDATASIZE PUSH1 0x0 REVERT JUMPDEST POP POP POP POP PUSH1 0x40 MLOAD RETURNDATASIZE PUSH1 0x1F NOT PUSH1 0x1F DUP3 ADD AND DUP3 ADD DUP1 PUSH1 0x40 MSTORE POP DUP2 ADD SWAP1 PUSH2 0x13D8 SWAP2 SWAP1 PUSH2 0x29A6 JUMP JUMPDEST POP PUSH1 0xB SLOAD PUSH32 0x8479C2BEE15EDA418C90B95FA659DAC53DE3029CCAB55C13C32641A566B4FD92 DUP10 DUP10 DUP10 PUSH1 0x40 MLOAD PUSH2 0x140F SWAP4 SWAP3 SWAP2 SWAP1 PUSH2 0x2AB3 JUMP JUMPDEST PUSH1 0x40 MLOAD DUP1 SWAP2 SUB SWAP1 LOG2 PUSH1 0xB DUP1 SLOAD SWAP1 PUSH1 0x0 PUSH2 0x1427 DUP4 PUSH2 0x2B2B JUMP JUMPDEST SWAP2 SWAP1 POP SSTORE POP POP POP POP POP POP POP POP POP JUMP JUMPDEST PUSH2 0x143E PUSH2 0x19A0 JUMP JUMPDEST PUSH1 0x1 PUSH1 0x1 PUSH1 0xA0 SHL SUB DUP2 AND PUSH2 0x14BA JUMPI PUSH1 0x40 MLOAD PUSH3 0x461BCD PUSH1 0xE5 SHL DUP2 MSTORE PUSH1 0x20 PUSH1 0x4 DUP3 ADD MSTORE PUSH1 0x26 PUSH1 0x24 DUP3 ADD MSTORE PUSH32 0x4F776E61626C653A206E6577206F776E657220697320746865207A65726F2061 PUSH1 0x44 DUP3 ADD MSTORE PUSH32 0x6464726573730000000000000000000000000000000000000000000000000000 PUSH1 0x64 DUP3 ADD MSTORE PUSH1 0x84 ADD PUSH2 0x49E JUMP JUMPDEST PUSH2 0x14C3 DUP2 PUSH2 0x1A01 JUMP JUMPDEST POP JUMP JUMPDEST PUSH2 0x14CE PUSH2 0x19A0 JUMP JUMPDEST PUSH1 0x7 SLOAD PUSH2 0x14E5 SWAP1 PUSH1 0x1 PUSH1 0x1 PUSH1 0xA0 SHL SUB AND DUP4 DUP4 PUSH2 0x1A72 JUMP JUMPDEST POP POP JUMP JUMPDEST PUSH1 0x2 PUSH1 0x0 DUP5 DUP2 MSTORE PUSH1 0xE PUSH1 0x20 MSTORE PUSH1 0x40 SWAP1 KECCAK256 PUSH1 0x2 ADD SLOAD PUSH2 0x100 SWAP1 DIV PUSH1 0xFF AND PUSH1 0x4 DUP2 GT ISZERO PUSH2 0x1516 JUMPI PUSH2 0x1516 PUSH2 0x21C0 JUMP JUMPDEST EQ PUSH2 0x1563 JUMPI PUSH1 0x40 MLOAD PUSH3 0x461BCD PUSH1 0xE5 SHL DUP2 MSTORE PUSH1 0x20 PUSH1 0x4 DUP3 ADD MSTORE PUSH1 0x1A PUSH1 0x24 DUP3 ADD MSTORE PUSH32 0x7265766973696F6E4964206973206E6F7420617070726F766564000000000000 PUSH1 0x44 DUP3 ADD MSTORE PUSH1 0x64 ADD PUSH2 0x49E JUMP JUMPDEST DUP2 DUP2 PUSH1 0x40 MLOAD PUSH1 0x20 ADD PUSH2 0x1576 SWAP3 SWAP2 SWAP1 PUSH2 0x2928 JUMP JUMPDEST PUSH1 0x40 DUP1 MLOAD PUSH1 0x1F NOT DUP2 DUP5 SUB ADD DUP2 MSTORE SWAP2 DUP2 MSTORE DUP2 MLOAD PUSH1 0x20 SWAP3 DUP4 ADD KECCAK256 PUSH1 0x0 DUP7 DUP2 MSTORE PUSH1 0xE SWAP1 SWAP4 MSTORE SWAP2 KECCAK256 PUSH1 0x1 ADD SLOAD EQ PUSH2 0x1611 JUMPI PUSH1 0x40 MLOAD PUSH3 0x461BCD PUSH1 0xE5 SHL DUP2 MSTORE PUSH1 0x20 PUSH1 0x4 DUP3 ADD MSTORE PUSH1 0x2F PUSH1 0x24 DUP3 ADD MSTORE PUSH32 0x68617368206F662061646472657373657320213D207265766973696F6E496427 PUSH1 0x44 DUP3 ADD MSTORE PUSH32 0x7320616464726573736573486173680000000000000000000000000000000000 PUSH1 0x64 DUP3 ADD MSTORE PUSH1 0x84 ADD PUSH2 0x49E JUMP JUMPDEST PUSH1 0x0 DUP4 DUP2 MSTORE PUSH1 0xE PUSH1 0x20 MSTORE PUSH1 0x40 DUP2 KECCAK256 PUSH1 0x2 ADD DUP1 SLOAD PUSH2 0x400 PUSH2 0xFF00 NOT DUP3 AND OR SWAP1 SWAP2 SSTORE DUP2 SWAP1 DUP2 SWAP1 PUSH1 0xFF AND PUSH1 0x1 DUP2 GT ISZERO PUSH2 0x1649 JUMPI PUSH2 0x1649 PUSH2 0x21C0 JUMP JUMPDEST SUB PUSH2 0x165B JUMPI POP POP PUSH1 0x9 SLOAD PUSH1 0x0 SWAP1 PUSH2 0x1691 JUMP JUMPDEST PUSH1 0x1 PUSH1 0x0 DUP7 DUP2 MSTORE PUSH1 0xE PUSH1 0x20 MSTORE PUSH1 0x40 SWAP1 KECCAK256 PUSH1 0x2 ADD SLOAD PUSH1 0xFF AND PUSH1 0x1 DUP2 GT ISZERO PUSH2 0x1683 JUMPI PUSH2 0x1683 PUSH2 0x21C0 JUMP JUMPDEST SUB PUSH2 0x1691 JUMPI POP POP PUSH1 0x8 SLOAD PUSH1 0x1 SWAP1 JUMPDEST PUSH1 0x0 DUP1 DUP5 PUSH8 0xFFFFFFFFFFFFFFFF DUP2 GT ISZERO PUSH2 0x16AD JUMPI PUSH2 0x16AD PUSH2 0x20AC JUMP JUMPDEST PUSH1 0x40 MLOAD SWAP1 DUP1 DUP3 MSTORE DUP1 PUSH1 0x20 MUL PUSH1 0x20 ADD DUP3 ADD PUSH1 0x40 MSTORE DUP1 ISZERO PUSH2 0x16D6 JUMPI DUP2 PUSH1 0x20 ADD PUSH1 0x20 DUP3 MUL DUP1 CALLDATASIZE DUP4 CALLDATACOPY ADD SWAP1 POP JUMPDEST POP SWAP1 POP PUSH1 0x0 JUMPDEST DUP6 DUP2 LT ISZERO PUSH2 0x17FB JUMPI DUP5 ISZERO ISZERO PUSH1 0xF PUSH1 0x0 DUP10 DUP10 DUP6 DUP2 DUP2 LT PUSH2 0x16FD JUMPI PUSH2 0x16FD PUSH2 0x2B44 JUMP JUMPDEST SWAP1 POP PUSH1 0x20 MUL ADD PUSH1 0x20 DUP2 ADD SWAP1 PUSH2 0x1712 SWAP2 SWAP1 PUSH2 0x2311 JUMP JUMPDEST PUSH1 0x1 PUSH1 0x1 PUSH1 0xA0 SHL SUB AND DUP2 MSTORE PUSH1 0x20 DUP2 ADD SWAP2 SWAP1 SWAP2 MSTORE PUSH1 0x40 ADD PUSH1 0x0 KECCAK256 SLOAD PUSH1 0xFF AND ISZERO ISZERO EQ PUSH2 0x17E9 JUMPI DUP5 PUSH1 0xF PUSH1 0x0 DUP10 DUP10 DUP6 DUP2 DUP2 LT PUSH2 0x174D JUMPI PUSH2 0x174D PUSH2 0x2B44 JUMP JUMPDEST SWAP1 POP PUSH1 0x20 MUL ADD PUSH1 0x20 DUP2 ADD SWAP1 PUSH2 0x1762 SWAP2 SWAP1 PUSH2 0x2311 JUMP JUMPDEST PUSH1 0x1 PUSH1 0x1 PUSH1 0xA0 SHL SUB AND DUP2 MSTORE PUSH1 0x20 DUP2 ADD SWAP2 SWAP1 SWAP2 MSTORE PUSH1 0x40 ADD PUSH1 0x0 KECCAK256 DUP1 SLOAD PUSH1 0xFF NOT AND SWAP2 ISZERO ISZERO SWAP2 SWAP1 SWAP2 OR SWAP1 SSTORE DUP7 DUP7 DUP3 DUP2 DUP2 LT PUSH2 0x179C JUMPI PUSH2 0x179C PUSH2 0x2B44 JUMP JUMPDEST SWAP1 POP PUSH1 0x20 MUL ADD PUSH1 0x20 DUP2 ADD SWAP1 PUSH2 0x17B1 SWAP2 SWAP1 PUSH2 0x2311 JUMP JUMPDEST DUP3 DUP3 DUP2 MLOAD DUP2 LT PUSH2 0x17C3 JUMPI PUSH2 0x17C3 PUSH2 0x2B44 JUMP JUMPDEST PUSH1 0x1 PUSH1 0x1 PUSH1 0xA0 SHL SUB SWAP1 SWAP3 AND PUSH1 0x20 SWAP3 DUP4 MUL SWAP2 SWAP1 SWAP2 ADD SWAP1 SWAP2 ADD MSTORE DUP3 PUSH2 0x17E5 DUP2 PUSH2 0x2B2B JUMP JUMPDEST SWAP4 POP POP JUMPDEST DUP1 PUSH2 0x17F3 DUP2 PUSH2 0x2B2B JUMP JUMPDEST SWAP2 POP POP PUSH2 0x16DC JUMP JUMPDEST POP PUSH1 0x0 PUSH2 0x1808 DUP4 DUP6 PUSH2 0x2B5A JUMP JUMPDEST SWAP1 POP DUP1 ISZERO PUSH2 0x1945 JUMPI PUSH1 0x7 SLOAD PUSH1 0x40 MLOAD PUSH4 0x70A08231 PUSH1 0xE0 SHL DUP2 MSTORE ADDRESS PUSH1 0x4 DUP3 ADD MSTORE DUP3 SWAP2 PUSH1 0x1 PUSH1 0x1 PUSH1 0xA0 SHL SUB AND SWAP1 PUSH4 0x70A08231 SWAP1 PUSH1 0x24 ADD PUSH1 0x20 PUSH1 0x40 MLOAD DUP1 DUP4 SUB DUP2 DUP7 GAS STATICCALL ISZERO DUP1 ISZERO PUSH2 0x1858 JUMPI RETURNDATASIZE PUSH1 0x0 DUP1 RETURNDATACOPY RETURNDATASIZE PUSH1 0x0 REVERT JUMPDEST POP POP POP POP PUSH1 0x40 MLOAD RETURNDATASIZE PUSH1 0x1F NOT PUSH1 0x1F DUP3 ADD AND DUP3 ADD DUP1 PUSH1 0x40 MSTORE POP DUP2 ADD SWAP1 PUSH2 0x187C SWAP2 SWAP1 PUSH2 0x29A6 JUMP JUMPDEST LT ISZERO PUSH2 0x191C JUMPI PUSH1 0x0 DUP9 DUP2 MSTORE PUSH1 0xE PUSH1 0x20 MSTORE PUSH1 0x40 SWAP1 DUP2 SWAP1 KECCAK256 SLOAD PUSH1 0x7 SLOAD SWAP2 MLOAD PUSH4 0x70A08231 PUSH1 0xE0 SHL DUP2 MSTORE ADDRESS PUSH1 0x4 DUP3 ADD MSTORE PUSH2 0x1917 SWAP3 PUSH1 0x1 PUSH1 0x1 PUSH1 0xA0 SHL SUB SWAP3 DUP4 AND SWAP3 AND SWAP1 PUSH4 0x70A08231 SWAP1 PUSH1 0x24 ADD PUSH1 0x20 PUSH1 0x40 MLOAD DUP1 DUP4 SUB DUP2 DUP7 GAS STATICCALL ISZERO DUP1 ISZERO PUSH2 0x18E0 JUMPI RETURNDATASIZE PUSH1 0x0 DUP1 RETURNDATACOPY RETURNDATASIZE PUSH1 0x0 REVERT JUMPDEST POP POP POP POP PUSH1 0x40 MLOAD RETURNDATASIZE PUSH1 0x1F NOT PUSH1 0x1F DUP3 ADD AND DUP3 ADD DUP1 PUSH1 0x40 MSTORE POP DUP2 ADD SWAP1 PUSH2 0x1904 SWAP2 SWAP1 PUSH2 0x29A6 JUMP JUMPDEST PUSH1 0x7 SLOAD PUSH1 0x1 PUSH1 0x1 PUSH1 0xA0 SHL SUB AND SWAP2 SWAP1 PUSH2 0x1A72 JUMP JUMPDEST PUSH2 0x1945 JUMP JUMPDEST PUSH1 0x0 DUP9 DUP2 MSTORE PUSH1 0xE PUSH1 0x20 MSTORE PUSH1 0x40 SWAP1 KECCAK256 SLOAD PUSH1 0x7 SLOAD PUSH2 0x1945 SWAP2 PUSH1 0x1 PUSH1 0x1 PUSH1 0xA0 SHL SUB SWAP2 DUP3 AND SWAP2 AND DUP4 PUSH2 0x1A72 JUMP JUMPDEST PUSH1 0x0 DUP9 DUP2 MSTORE PUSH1 0xE PUSH1 0x20 MSTORE PUSH1 0x40 SWAP1 DUP2 SWAP1 KECCAK256 PUSH1 0x2 ADD SLOAD SWAP1 MLOAD DUP10 SWAP2 PUSH32 0x80F45B4D1139E5FB60A132F4CA38836C7C42309E0A67A42D1A58450DAF29253E SWAP2 PUSH2 0x198E SWAP2 PUSH1 0xFF AND SWAP1 DUP7 SWAP1 PUSH2 0x2B71 JUMP JUMPDEST PUSH1 0x40 MLOAD DUP1 SWAP2 SUB SWAP1 LOG2 POP POP POP POP POP POP POP POP JUMP JUMPDEST PUSH1 0x0 SLOAD PUSH1 0x1 PUSH1 0x1 PUSH1 0xA0 SHL SUB PUSH3 0x10000 SWAP1 SWAP2 DIV AND CALLER EQ PUSH2 0x8E8 JUMPI PUSH1 0x40 MLOAD PUSH3 0x461BCD PUSH1 0xE5 SHL DUP2 MSTORE PUSH1 0x20 PUSH1 0x4 DUP3 ADD DUP2 SWAP1 MSTORE PUSH1 0x24 DUP3 ADD MSTORE PUSH32 0x4F776E61626C653A2063616C6C6572206973206E6F7420746865206F776E6572 PUSH1 0x44 DUP3 ADD MSTORE PUSH1 0x64 ADD PUSH2 0x49E JUMP JUMPDEST PUSH1 0x0 DUP1 SLOAD PUSH1 0x1 PUSH1 0x1 PUSH1 0xA0 SHL SUB DUP4 DUP2 AND PUSH3 0x10000 DUP2 DUP2 MUL PUSH32 0xFFFFFFFFFFFFFFFFFFFF0000000000000000000000000000000000000000FFFF DUP6 AND OR DUP6 SSTORE PUSH1 0x40 MLOAD SWAP4 DIV SWAP2 SWAP1 SWAP2 AND SWAP3 SWAP1 SWAP2 DUP4 SWAP2 PUSH32 0x8BE0079C531659141344CD1FD0A4F28419497F9722A3DAAFE3B4186F6B6457E0 SWAP2 LOG3 POP POP JUMP JUMPDEST PUSH1 0x40 MLOAD PUSH1 0x1 PUSH1 0x1 PUSH1 0xA0 SHL SUB DUP4 AND PUSH1 0x24 DUP3 ADD MSTORE PUSH1 0x44 DUP2 ADD DUP3 SWAP1 MSTORE PUSH2 0xD1D SWAP1 DUP5 SWAP1 PUSH32 0xA9059CBB00000000000000000000000000000000000000000000000000000000 SWAP1 PUSH1 0x64 ADD JUMPDEST PUSH1 0x40 DUP1 MLOAD PUSH1 0x1F NOT DUP2 DUP5 SUB ADD DUP2 MSTORE SWAP2 SWAP1 MSTORE PUSH1 0x20 DUP2 ADD DUP1 MLOAD PUSH28 0xFFFFFFFFFFFFFFFFFFFFFFFFFFFFFFFFFFFFFFFFFFFFFFFFFFFFFFFF AND PUSH32 0xFFFFFFFF00000000000000000000000000000000000000000000000000000000 SWAP1 SWAP4 AND SWAP3 SWAP1 SWAP3 OR SWAP1 SWAP2 MSTORE PUSH2 0x1E20 JUMP JUMPDEST PUSH1 0x60 DUP2 PUSH1 0x0 SUB PUSH2 0x1B5E JUMPI POP POP PUSH1 0x40 DUP1 MLOAD DUP1 DUP3 ADD SWAP1 SWAP2 MSTORE PUSH1 0x1 DUP2 MSTORE PUSH32 0x3000000000000000000000000000000000000000000000000000000000000000 PUSH1 0x20 DUP3 ADD MSTORE SWAP1 JUMP JUMPDEST DUP2 PUSH1 0x0 JUMPDEST DUP2 ISZERO PUSH2 0x1B88 JUMPI DUP1 PUSH2 0x1B72 DUP2 PUSH2 0x2B2B JUMP JUMPDEST SWAP2 POP PUSH2 0x1B81 SWAP1 POP PUSH1 0xA DUP4 PUSH2 0x2BCF JUMP JUMPDEST SWAP2 POP PUSH2 0x1B62 JUMP JUMPDEST PUSH1 0x0 DUP2 PUSH8 0xFFFFFFFFFFFFFFFF DUP2 GT ISZERO PUSH2 0x1BA3 JUMPI PUSH2 0x1BA3 PUSH2 0x20AC JUMP JUMPDEST PUSH1 0x40 MLOAD SWAP1 DUP1 DUP3 MSTORE DUP1 PUSH1 0x1F ADD PUSH1 0x1F NOT AND PUSH1 0x20 ADD DUP3 ADD PUSH1 0x40 MSTORE DUP1 ISZERO PUSH2 0x1BCD JUMPI PUSH1 0x20 DUP3 ADD DUP2 DUP1 CALLDATASIZE DUP4 CALLDATACOPY ADD SWAP1 POP JUMPDEST POP SWAP1 POP DUP2 JUMPDEST DUP6 ISZERO PUSH2 0x1C72 JUMPI PUSH2 0x1BE3 PUSH1 0x1 DUP3 PUSH2 0x2BF1 JUMP JUMPDEST SWAP1 POP PUSH1 0x0 PUSH2 0x1BF2 PUSH1 0xA DUP9 PUSH2 0x2BCF JUMP JUMPDEST PUSH2 0x1BFD SWAP1 PUSH1 0xA PUSH2 0x2B5A JUMP JUMPDEST PUSH2 0x1C07 SWAP1 DUP9 PUSH2 0x2BF1 JUMP JUMPDEST PUSH2 0x1C12 SWAP1 PUSH1 0x30 PUSH2 0x2C04 JUMP JUMPDEST SWAP1 POP PUSH1 0x0 DUP2 PUSH1 0xF8 SHL SWAP1 POP DUP1 DUP5 DUP5 DUP2 MLOAD DUP2 LT PUSH2 0x1C2F JUMPI PUSH2 0x1C2F PUSH2 0x2B44 JUMP JUMPDEST PUSH1 0x20 ADD ADD SWAP1 PUSH31 0xFFFFFFFFFFFFFFFFFFFFFFFFFFFFFFFFFFFFFFFFFFFFFFFFFFFFFFFFFFFFFF NOT AND SWAP1 DUP2 PUSH1 0x0 BYTE SWAP1 MSTORE8 POP PUSH2 0x1C69 PUSH1 0xA DUP10 PUSH2 0x2BCF JUMP JUMPDEST SWAP8 POP POP POP PUSH2 0x1BD2 JUMP JUMPDEST POP SWAP5 SWAP4 POP POP POP POP JUMP JUMPDEST PUSH1 0x40 MLOAD PUSH1 0x1 PUSH1 0x1 PUSH1 0xA0 SHL SUB DUP1 DUP6 AND PUSH1 0x24 DUP4 ADD MSTORE DUP4 AND PUSH1 0x44 DUP3 ADD MSTORE PUSH1 0x64 DUP2 ADD DUP3 SWAP1 MSTORE PUSH2 0x1CCC SWAP1 DUP6 SWAP1 PUSH32 0x23B872DD00000000000000000000000000000000000000000000000000000000 SWAP1 PUSH1 0x84 ADD PUSH2 0x1AB7 JUMP JUMPDEST POP POP POP POP JUMP JUMPDEST DUP1 ISZERO DUP1 PUSH2 0x1D65 JUMPI POP PUSH1 0x40 MLOAD PUSH32 0xDD62ED3E00000000000000000000000000000000000000000000000000000000 DUP2 MSTORE ADDRESS PUSH1 0x4 DUP3 ADD MSTORE PUSH1 0x1 PUSH1 0x1 PUSH1 0xA0 SHL SUB DUP4 DUP2 AND PUSH1 0x24 DUP4 ADD MSTORE DUP5 AND SWAP1 PUSH4 0xDD62ED3E SWAP1 PUSH1 0x44 ADD PUSH1 0x20 PUSH1 0x40 MLOAD DUP1 DUP4 SUB DUP2 DUP7 GAS STATICCALL ISZERO DUP1 ISZERO PUSH2 0x1D3F JUMPI RETURNDATASIZE PUSH1 0x0 DUP1 RETURNDATACOPY RETURNDATASIZE PUSH1 0x0 REVERT JUMPDEST POP POP POP POP PUSH1 0x40 MLOAD RETURNDATASIZE PUSH1 0x1F NOT PUSH1 0x1F DUP3 ADD AND DUP3 ADD DUP1 PUSH1 0x40 MSTORE POP DUP2 ADD SWAP1 PUSH2 0x1D63 SWAP2 SWAP1 PUSH2 0x29A6 JUMP JUMPDEST ISZERO JUMPDEST PUSH2 0x1DD7 JUMPI PUSH1 0x40 MLOAD PUSH3 0x461BCD PUSH1 0xE5 SHL DUP2 MSTORE PUSH1 0x20 PUSH1 0x4 DUP3 ADD MSTORE PUSH1 0x36 PUSH1 0x24 DUP3 ADD MSTORE PUSH32 0x5361666545524332303A20617070726F76652066726F6D206E6F6E2D7A65726F PUSH1 0x44 DUP3 ADD MSTORE PUSH32 0x20746F206E6F6E2D7A65726F20616C6C6F77616E636500000000000000000000 PUSH1 0x64 DUP3 ADD MSTORE PUSH1 0x84 ADD PUSH2 0x49E JUMP JUMPDEST PUSH1 0x40 MLOAD PUSH1 0x1 PUSH1 0x1 PUSH1 0xA0 SHL SUB DUP4 AND PUSH1 0x24 DUP3 ADD MSTORE PUSH1 0x44 DUP2 ADD DUP3 SWAP1 MSTORE PUSH2 0xD1D SWAP1 DUP5 SWAP1 PUSH32 0x95EA7B300000000000000000000000000000000000000000000000000000000 SWAP1 PUSH1 0x64 ADD PUSH2 0x1AB7 JUMP JUMPDEST PUSH1 0x0 PUSH2 0x1E75 DUP3 PUSH1 0x40 MLOAD DUP1 PUSH1 0x40 ADD PUSH1 0x40 MSTORE DUP1 PUSH1 0x20 DUP2 MSTORE PUSH1 0x20 ADD PUSH32 0x5361666545524332303A206C6F772D6C6576656C2063616C6C206661696C6564 DUP2 MSTORE POP DUP6 PUSH1 0x1 PUSH1 0x1 PUSH1 0xA0 SHL SUB AND PUSH2 0x1F05 SWAP1 SWAP3 SWAP2 SWAP1 PUSH4 0xFFFFFFFF AND JUMP JUMPDEST DUP1 MLOAD SWAP1 SWAP2 POP ISZERO PUSH2 0xD1D JUMPI DUP1 DUP1 PUSH1 0x20 ADD SWAP1 MLOAD DUP2 ADD SWAP1 PUSH2 0x1E93 SWAP2 SWAP1 PUSH2 0x2C1D JUMP JUMPDEST PUSH2 0xD1D JUMPI PUSH1 0x40 MLOAD PUSH3 0x461BCD PUSH1 0xE5 SHL DUP2 MSTORE PUSH1 0x20 PUSH1 0x4 DUP3 ADD MSTORE PUSH1 0x2A PUSH1 0x24 DUP3 ADD MSTORE PUSH32 0x5361666545524332303A204552433230206F7065726174696F6E20646964206E PUSH1 0x44 DUP3 ADD MSTORE PUSH32 0x6F74207375636365656400000000000000000000000000000000000000000000 PUSH1 0x64 DUP3 ADD MSTORE PUSH1 0x84 ADD PUSH2 0x49E JUMP JUMPDEST PUSH1 0x60 PUSH2 0x1F14 DUP5 DUP5 PUSH1 0x0 DUP6 PUSH2 0x1F1C JUMP JUMPDEST SWAP5 SWAP4 POP POP POP POP JUMP JUMPDEST PUSH1 0x60 DUP3 SELFBALANCE LT ISZERO PUSH2 0x1F94 JUMPI PUSH1 0x40 MLOAD PUSH3 0x461BCD PUSH1 0xE5 SHL DUP2 MSTORE PUSH1 0x20 PUSH1 0x4 DUP3 ADD MSTORE PUSH1 0x26 PUSH1 0x24 DUP3 ADD MSTORE PUSH32 0x416464726573733A20696E73756666696369656E742062616C616E636520666F PUSH1 0x44 DUP3 ADD MSTORE PUSH32 0x722063616C6C0000000000000000000000000000000000000000000000000000 PUSH1 0x64 DUP3 ADD MSTORE PUSH1 0x84 ADD PUSH2 0x49E JUMP JUMPDEST PUSH1 0x0 DUP1 DUP7 PUSH1 0x1 PUSH1 0x1 PUSH1 0xA0 SHL SUB AND DUP6 DUP8 PUSH1 0x40 MLOAD PUSH2 0x1FB0 SWAP2 SWAP1 PUSH2 0x2C3F JUMP JUMPDEST PUSH1 0x0 PUSH1 0x40 MLOAD DUP1 DUP4 SUB DUP2 DUP6 DUP8 GAS CALL SWAP3 POP POP POP RETURNDATASIZE DUP1 PUSH1 0x0 DUP2 EQ PUSH2 0x1FED JUMPI PUSH1 0x40 MLOAD SWAP2 POP PUSH1 0x1F NOT PUSH1 0x3F RETURNDATASIZE ADD AND DUP3 ADD PUSH1 0x40 MSTORE RETURNDATASIZE DUP3 MSTORE RETURNDATASIZE PUSH1 0x0 PUSH1 0x20 DUP5 ADD RETURNDATACOPY PUSH2 0x1FF2 JUMP JUMPDEST PUSH1 0x60 SWAP2 POP JUMPDEST POP SWAP2 POP SWAP2 POP PUSH2 0x2003 DUP8 DUP4 DUP4 DUP8 PUSH2 0x200E JUMP JUMPDEST SWAP8 SWAP7 POP POP POP POP POP POP POP JUMP JUMPDEST PUSH1 0x60 DUP4 ISZERO PUSH2 0x207D JUMPI DUP3 MLOAD PUSH1 0x0 SUB PUSH2 0x2076 JUMPI PUSH1 0x1 PUSH1 0x1 PUSH1 0xA0 SHL SUB DUP6 AND EXTCODESIZE PUSH2 0x2076 JUMPI PUSH1 0x40 MLOAD PUSH3 0x461BCD PUSH1 0xE5 SHL DUP2 MSTORE PUSH1 0x20 PUSH1 0x4 DUP3 ADD MSTORE PUSH1 0x1D PUSH1 0x24 DUP3 ADD MSTORE PUSH32 0x416464726573733A2063616C6C20746F206E6F6E2D636F6E7472616374000000 PUSH1 0x44 DUP3 ADD MSTORE PUSH1 0x64 ADD PUSH2 0x49E JUMP JUMPDEST POP DUP2 PUSH2 0x1F14 JUMP JUMPDEST PUSH2 0x1F14 DUP4 DUP4 DUP2 MLOAD ISZERO PUSH2 0x2092 JUMPI DUP2 MLOAD DUP1 DUP4 PUSH1 0x20 ADD REVERT JUMPDEST DUP1 PUSH1 0x40 MLOAD PUSH3 0x461BCD PUSH1 0xE5 SHL DUP2 MSTORE PUSH1 0x4 ADD PUSH2 0x49E SWAP2 SWAP1 PUSH2 0x22BC JUMP JUMPDEST PUSH4 0x4E487B71 PUSH1 0xE0 SHL PUSH1 0x0 MSTORE PUSH1 0x41 PUSH1 0x4 MSTORE PUSH1 0x24 PUSH1 0x0 REVERT JUMPDEST PUSH1 0x0 DUP3 PUSH1 0x1F DUP4 ADD SLT PUSH2 0x20D3 JUMPI PUSH1 0x0 DUP1 REVERT JUMPDEST DUP2 CALLDATALOAD PUSH8 0xFFFFFFFFFFFFFFFF DUP1 DUP3 GT ISZERO PUSH2 0x20EE JUMPI PUSH2 0x20EE PUSH2 0x20AC JUMP JUMPDEST PUSH1 0x40 MLOAD PUSH1 0x1F DUP4 ADD PUSH1 0x1F NOT SWAP1 DUP2 AND PUSH1 0x3F ADD AND DUP2 ADD SWAP1 DUP3 DUP3 GT DUP2 DUP4 LT OR ISZERO PUSH2 0x2116 JUMPI PUSH2 0x2116 PUSH2 0x20AC JUMP JUMPDEST DUP2 PUSH1 0x40 MSTORE DUP4 DUP2 MSTORE DUP7 PUSH1 0x20 DUP6 DUP9 ADD ADD GT ISZERO PUSH2 0x212F JUMPI PUSH1 0x0 DUP1 REVERT JUMPDEST DUP4 PUSH1 0x20 DUP8 ADD PUSH1 0x20 DUP4 ADD CALLDATACOPY PUSH1 0x0 PUSH1 0x20 DUP6 DUP4 ADD ADD MSTORE DUP1 SWAP5 POP POP POP POP POP SWAP3 SWAP2 POP POP JUMP JUMPDEST PUSH1 0x0 DUP1 PUSH1 0x0 DUP1 PUSH1 0x80 DUP6 DUP8 SUB SLT ISZERO PUSH2 0x2165 JUMPI PUSH1 0x0 DUP1 REVERT JUMPDEST DUP5 CALLDATALOAD SWAP4 POP PUSH1 0x20 DUP6 ADD CALLDATALOAD SWAP3 POP PUSH1 0x40 DUP6 ADD CALLDATALOAD PUSH8 0xFFFFFFFFFFFFFFFF DUP2 GT ISZERO PUSH2 0x218A JUMPI PUSH1 0x0 DUP1 REVERT JUMPDEST PUSH2 0x2196 DUP8 DUP3 DUP9 ADD PUSH2 0x20C2 JUMP JUMPDEST SWAP5 SWAP8 SWAP4 SWAP7 POP SWAP4 SWAP5 PUSH1 0x60 ADD CALLDATALOAD SWAP4 POP POP POP JUMP JUMPDEST PUSH1 0x0 PUSH1 0x20 DUP3 DUP5 SUB SLT ISZERO PUSH2 0x21B9 JUMPI PUSH1 0x0 DUP1 REVERT JUMPDEST POP CALLDATALOAD SWAP2 SWAP1 POP JUMP JUMPDEST PUSH4 0x4E487B71 PUSH1 0xE0 SHL PUSH1 0x0 MSTORE PUSH1 0x21 PUSH1 0x4 MSTORE PUSH1 0x24 PUSH1 0x0 REVERT JUMPDEST PUSH1 0x2 DUP2 LT PUSH2 0x21E6 JUMPI PUSH2 0x21E6 PUSH2 0x21C0 JUMP JUMPDEST SWAP1 MSTORE JUMP JUMPDEST PUSH1 0x1 PUSH1 0x1 PUSH1 0xA0 SHL SUB DUP6 AND DUP2 MSTORE PUSH1 0x20 DUP2 ADD DUP5 SWAP1 MSTORE PUSH1 0x80 DUP2 ADD PUSH2 0x220E PUSH1 0x40 DUP4 ADD DUP6 PUSH2 0x21D6 JUMP JUMPDEST PUSH1 0x5 DUP4 LT PUSH2 0x221E JUMPI PUSH2 0x221E PUSH2 0x21C0 JUMP JUMPDEST DUP3 PUSH1 0x60 DUP4 ADD MSTORE SWAP6 SWAP5 POP POP POP POP POP JUMP JUMPDEST DUP1 CALLDATALOAD PUSH8 0xFFFFFFFFFFFFFFFF DUP2 AND DUP2 EQ PUSH2 0x2245 JUMPI PUSH1 0x0 DUP1 REVERT JUMPDEST SWAP2 SWAP1 POP JUMP JUMPDEST PUSH1 0x0 PUSH1 0x20 DUP3 DUP5 SUB SLT ISZERO PUSH2 0x225C JUMPI PUSH1 0x0 DUP1 REVERT JUMPDEST PUSH2 0x2265 DUP3 PUSH2 0x222D JUMP JUMPDEST SWAP4 SWAP3 POP POP POP JUMP JUMPDEST PUSH1 0x0 JUMPDEST DUP4 DUP2 LT ISZERO PUSH2 0x2287 JUMPI DUP2 DUP2 ADD MLOAD DUP4 DUP3 ADD MSTORE PUSH1 0x20 ADD PUSH2 0x226F JUMP JUMPDEST POP POP PUSH1 0x0 SWAP2 ADD MSTORE JUMP JUMPDEST PUSH1 0x0 DUP2 MLOAD DUP1 DUP5 MSTORE PUSH2 0x22A8 DUP2 PUSH1 0x20 DUP7 ADD PUSH1 0x20 DUP7 ADD PUSH2 0x226C JUMP JUMPDEST PUSH1 0x1F ADD PUSH1 0x1F NOT AND SWAP3 SWAP1 SWAP3 ADD PUSH1 0x20 ADD SWAP3 SWAP2 POP POP JUMP JUMPDEST PUSH1 0x20 DUP2 MSTORE PUSH1 0x0 PUSH2 0x2265 PUSH1 0x20 DUP4 ADD DUP5 PUSH2 0x2290 JUMP JUMPDEST PUSH1 0x0 DUP1 PUSH1 0x40 DUP4 DUP6 SUB SLT ISZERO PUSH2 0x22E2 JUMPI PUSH1 0x0 DUP1 REVERT JUMPDEST POP POP DUP1 CALLDATALOAD SWAP3 PUSH1 0x20 SWAP1 SWAP2 ADD CALLDATALOAD SWAP2 POP JUMP JUMPDEST PUSH1 0x1 PUSH1 0x1 PUSH1 0xA0 SHL SUB DUP2 AND DUP2 EQ PUSH2 0x14C3 JUMPI PUSH1 0x0 DUP1 REVERT JUMPDEST DUP1 CALLDATALOAD PUSH2 0x2245 DUP2 PUSH2 0x22F1 JUMP JUMPDEST PUSH1 0x0 PUSH1 0x20 DUP3 DUP5 SUB SLT ISZERO PUSH2 0x2323 JUMPI PUSH1 0x0 DUP1 REVERT JUMPDEST DUP2 CALLDATALOAD PUSH2 0x2265 DUP2 PUSH2 0x22F1 JUMP JUMPDEST PUSH1 0x0 DUP1 PUSH1 0x0 DUP1 PUSH1 0x0 DUP1 PUSH1 0x0 DUP1 PUSH1 0x0 DUP1 PUSH2 0x140 DUP12 DUP14 SUB SLT ISZERO PUSH2 0x234E JUMPI PUSH1 0x0 DUP1 REVERT JUMPDEST PUSH2 0x2357 DUP12 PUSH2 0x2306 JUMP JUMPDEST SWAP10 POP PUSH1 0x20 DUP12 ADD CALLDATALOAD PUSH8 0xFFFFFFFFFFFFFFFF DUP1 DUP3 GT ISZERO PUSH2 0x2374 JUMPI PUSH1 0x0 DUP1 REVERT JUMPDEST PUSH2 0x2380 DUP15 DUP4 DUP16 ADD PUSH2 0x20C2 JUMP JUMPDEST SWAP11 POP PUSH1 0x40 DUP14 ADD CALLDATALOAD SWAP2 POP DUP1 DUP3 GT ISZERO PUSH2 0x2396 JUMPI PUSH1 0x0 DUP1 REVERT JUMPDEST POP PUSH2 0x23A3 DUP14 DUP3 DUP15 ADD PUSH2 0x20C2 JUMP JUMPDEST SWAP9 POP POP PUSH2 0x23B2 PUSH1 0x60 DUP13 ADD PUSH2 0x2306 JUMP JUMPDEST SWAP7 POP PUSH1 0x80 DUP12 ADD CALLDATALOAD SWAP6 POP PUSH1 0xA0 DUP12 ADD CALLDATALOAD SWAP5 POP PUSH1 0xC0 DUP12 ADD CALLDATALOAD SWAP4 POP PUSH2 0x23D5 PUSH1 0xE0 DUP13 ADD PUSH2 0x222D JUMP JUMPDEST SWAP3 POP PUSH2 0x23E4 PUSH2 0x100 DUP13 ADD PUSH2 0x222D JUMP JUMPDEST SWAP2 POP PUSH2 0x23F3 PUSH2 0x120 DUP13 ADD PUSH2 0x2306 JUMP JUMPDEST SWAP1 POP SWAP3 SWAP6 SWAP9 SWAP12 SWAP2 SWAP5 SWAP8 SWAP11 POP SWAP3 SWAP6 SWAP9 POP JUMP JUMPDEST PUSH1 0x0 DUP1 PUSH1 0x0 PUSH1 0x60 DUP5 DUP7 SUB SLT ISZERO PUSH2 0x2419 JUMPI PUSH1 0x0 DUP1 REVERT JUMPDEST DUP4 CALLDATALOAD PUSH2 0x2424 DUP2 PUSH2 0x22F1 JUMP JUMPDEST SWAP3 POP PUSH1 0x20 DUP5 ADD CALLDATALOAD SWAP2 POP PUSH1 0x40 DUP5 ADD CALLDATALOAD PUSH2 0x243B DUP2 PUSH2 0x22F1 JUMP JUMPDEST DUP1 SWAP2 POP POP SWAP3 POP SWAP3 POP SWAP3 JUMP JUMPDEST PUSH1 0x0 DUP1 DUP4 PUSH1 0x1F DUP5 ADD SLT PUSH2 0x2458 JUMPI PUSH1 0x0 DUP1 REVERT JUMPDEST POP DUP2 CALLDATALOAD PUSH8 0xFFFFFFFFFFFFFFFF DUP2 GT ISZERO PUSH2 0x2470 JUMPI PUSH1 0x0 DUP1 REVERT JUMPDEST PUSH1 0x20 DUP4 ADD SWAP2 POP DUP4 PUSH1 0x20 DUP3 PUSH1 0x5 SHL DUP6 ADD ADD GT ISZERO PUSH2 0x248B JUMPI PUSH1 0x0 DUP1 REVERT JUMPDEST SWAP3 POP SWAP3 SWAP1 POP JUMP JUMPDEST PUSH1 0x0 DUP1 PUSH1 0x0 PUSH1 0x40 DUP5 DUP7 SUB SLT ISZERO PUSH2 0x24A7 JUMPI PUSH1 0x0 DUP1 REVERT JUMPDEST DUP4 CALLDATALOAD PUSH1 0x2 DUP2 LT PUSH2 0x24B6 JUMPI PUSH1 0x0 DUP1 REVERT JUMPDEST SWAP3 POP PUSH1 0x20 DUP5 ADD CALLDATALOAD PUSH8 0xFFFFFFFFFFFFFFFF DUP2 GT ISZERO PUSH2 0x24D2 JUMPI PUSH1 0x0 DUP1 REVERT JUMPDEST PUSH2 0x24DE DUP7 DUP3 DUP8 ADD PUSH2 0x2446 JUMP JUMPDEST SWAP5 SWAP8 SWAP1 SWAP7 POP SWAP4 SWAP5 POP POP POP POP JUMP JUMPDEST PUSH1 0x0 DUP1 PUSH1 0x40 DUP4 DUP6 SUB SLT ISZERO PUSH2 0x24FE JUMPI PUSH1 0x0 DUP1 REVERT JUMPDEST DUP3 CALLDATALOAD PUSH2 0x2509 DUP2 PUSH2 0x22F1 JUMP JUMPDEST SWAP5 PUSH1 0x20 SWAP4 SWAP1 SWAP4 ADD CALLDATALOAD SWAP4 POP POP POP JUMP JUMPDEST PUSH1 0x0 DUP1 PUSH1 0x0 PUSH1 0x40 DUP5 DUP7 SUB SLT ISZERO PUSH2 0x252C JUMPI PUSH1 0x0 DUP1 REVERT JUMPDEST DUP4 CALLDATALOAD SWAP3 POP PUSH1 0x20 DUP5 ADD CALLDATALOAD PUSH8 0xFFFFFFFFFFFFFFFF DUP2 GT ISZERO PUSH2 0x24D2 JUMPI PUSH1 0x0 DUP1 REVERT JUMPDEST PUSH1 0x0 DUP4 MLOAD PUSH2 0x255C DUP2 DUP5 PUSH1 0x20 DUP9 ADD PUSH2 0x226C JUMP JUMPDEST SWAP2 SWAP1 SWAP2 ADD SWAP2 DUP3 MSTORE POP PUSH1 0x20 ADD SWAP2 SWAP1 POP JUMP JUMPDEST PUSH1 0x20 DUP2 ADD PUSH2 0x257A DUP3 DUP5 PUSH2 0x21D6 JUMP JUMPDEST SWAP3 SWAP2 POP POP JUMP JUMPDEST PUSH1 0x0 PUSH1 0x20 DUP3 DUP5 SUB SLT ISZERO PUSH2 0x2592 JUMPI PUSH1 0x0 DUP1 REVERT JUMPDEST PUSH1 0x40 MLOAD PUSH1 0x20 DUP2 ADD DUP2 DUP2 LT PUSH8 0xFFFFFFFFFFFFFFFF DUP3 GT OR ISZERO PUSH2 0x25B5 JUMPI PUSH2 0x25B5 PUSH2 0x20AC JUMP JUMPDEST PUSH1 0x40 MSTORE SWAP2 MLOAD DUP3 MSTORE POP SWAP2 SWAP1 POP JUMP JUMPDEST PUSH1 0x1 DUP2 DUP2 SHR SWAP1 DUP3 AND DUP1 PUSH2 0x25D6 JUMPI PUSH1 0x7F DUP3 AND SWAP2 POP JUMPDEST PUSH1 0x20 DUP3 LT DUP2 SUB PUSH2 0x25F6 JUMPI PUSH4 0x4E487B71 PUSH1 0xE0 SHL PUSH1 0x0 MSTORE PUSH1 0x22 PUSH1 0x4 MSTORE PUSH1 0x24 PUSH1 0x0 REVERT JUMPDEST POP SWAP2 SWAP1 POP JUMP JUMPDEST PUSH32 0x6D65657420746865204C69737420437269746572696120617420746865207469 DUP2 MSTORE PUSH32 0x6D65206F662074686520707269636520726571756573743F204C697374204372 PUSH1 0x20 DUP3 ADD MSTORE PUSH32 0x6974657269613A20000000000000000000000000000000000000000000000000 PUSH1 0x40 DUP3 ADD MSTORE PUSH1 0x0 DUP3 MLOAD PUSH2 0x2680 DUP2 PUSH1 0x48 DUP6 ADD PUSH1 0x20 DUP8 ADD PUSH2 0x226C JUMP JUMPDEST PUSH32 0x2E20446563656E7472612D4C697374205265766973696F6E204944203D200000 PUSH1 0x48 SWAP4 SWAP1 SWAP2 ADD SWAP3 DUP4 ADD MSTORE POP PUSH1 0x66 ADD SWAP2 SWAP1 POP JUMP JUMPDEST PUSH1 0x1F DUP3 GT ISZERO PUSH2 0xD1D JUMPI PUSH1 0x0 DUP2 DUP2 MSTORE PUSH1 0x20 DUP2 KECCAK256 PUSH1 0x1F DUP6 ADD PUSH1 0x5 SHR DUP2 ADD PUSH1 0x20 DUP7 LT ISZERO PUSH2 0x26DB JUMPI POP DUP1 JUMPDEST PUSH1 0x1F DUP6 ADD PUSH1 0x5 SHR DUP3 ADD SWAP2 POP JUMPDEST DUP2 DUP2 LT ISZERO PUSH2 0x5B4 JUMPI DUP3 DUP2 SSTORE PUSH1 0x1 ADD PUSH2 0x26E7 JUMP JUMPDEST DUP2 MLOAD PUSH8 0xFFFFFFFFFFFFFFFF DUP2 GT ISZERO PUSH2 0x2714 JUMPI PUSH2 0x2714 PUSH2 0x20AC JUMP JUMPDEST PUSH2 0x2728 DUP2 PUSH2 0x2722 DUP5 SLOAD PUSH2 0x25C2 JUMP JUMPDEST DUP5 PUSH2 0x26B4 JUMP JUMPDEST PUSH1 0x20 DUP1 PUSH1 0x1F DUP4 GT PUSH1 0x1 DUP2 EQ PUSH2 0x275D JUMPI PUSH1 0x0 DUP5 ISZERO PUSH2 0x2745 JUMPI POP DUP6 DUP4 ADD MLOAD JUMPDEST PUSH1 0x0 NOT PUSH1 0x3 DUP7 SWAP1 SHL SHR NOT AND PUSH1 0x1 DUP6 SWAP1 SHL OR DUP6 SSTORE PUSH2 0x5B4 JUMP JUMPDEST PUSH1 0x0 DUP6 DUP2 MSTORE PUSH1 0x20 DUP2 KECCAK256 PUSH1 0x1F NOT DUP7 AND SWAP2 JUMPDEST DUP3 DUP2 LT ISZERO PUSH2 0x278C JUMPI DUP9 DUP7 ADD MLOAD DUP3 SSTORE SWAP5 DUP5 ADD SWAP5 PUSH1 0x1 SWAP1 SWAP2 ADD SWAP1 DUP5 ADD PUSH2 0x276D JUMP JUMPDEST POP DUP6 DUP3 LT ISZERO PUSH2 0x27AA JUMPI DUP8 DUP6 ADD MLOAD PUSH1 0x0 NOT PUSH1 0x3 DUP9 SWAP1 SHL PUSH1 0xF8 AND SHR NOT AND DUP2 SSTORE JUMPDEST POP POP POP POP POP PUSH1 0x1 SWAP1 DUP2 SHL ADD SWAP1 SSTORE POP JUMP JUMPDEST PUSH1 0x0 PUSH1 0x20 DUP3 DUP5 SUB SLT ISZERO PUSH2 0x27CC JUMPI PUSH1 0x0 DUP1 REVERT JUMPDEST DUP2 MLOAD PUSH2 0x2265 DUP2 PUSH2 0x22F1 JUMP JUMPDEST PUSH1 0x0 DUP3 MLOAD PUSH2 0x27E9 DUP2 DUP5 PUSH1 0x20 DUP8 ADD PUSH2 0x226C JUMP JUMPDEST PUSH32 0x6661696C20746F20000000000000000000000000000000000000000000000000 SWAP3 ADD SWAP2 DUP3 MSTORE POP PUSH1 0x8 ADD SWAP2 SWAP1 POP JUMP JUMPDEST PUSH1 0x0 DUP5 MLOAD PUSH1 0x20 PUSH2 0x282B DUP3 DUP6 DUP4 DUP11 ADD PUSH2 0x226C JUMP JUMPDEST DUP2 DUP5 ADD SWAP2 POP PUSH1 0x0 DUP7 SLOAD PUSH2 0x283D DUP2 PUSH2 0x25C2 JUMP JUMPDEST PUSH1 0x1 DUP3 DUP2 AND DUP1 ISZERO PUSH2 0x2855 JUMPI PUSH1 0x1 DUP2 EQ PUSH2 0x286A JUMPI PUSH2 0x2896 JUMP JUMPDEST PUSH1 0xFF NOT DUP5 AND DUP8 MSTORE DUP3 ISZERO ISZERO DUP4 MUL DUP8 ADD SWAP5 POP PUSH2 0x2896 JUMP JUMPDEST DUP11 PUSH1 0x0 MSTORE DUP6 PUSH1 0x0 KECCAK256 PUSH1 0x0 JUMPDEST DUP5 DUP2 LT ISZERO PUSH2 0x288E JUMPI DUP2 SLOAD DUP10 DUP3 ADD MSTORE SWAP1 DUP4 ADD SWAP1 DUP8 ADD PUSH2 0x2875 JUMP JUMPDEST POP POP DUP3 DUP8 ADD SWAP5 POP JUMPDEST POP POP POP POP DUP6 MLOAD SWAP3 POP PUSH2 0x28AB DUP4 DUP3 DUP5 DUP10 ADD PUSH2 0x226C JUMP JUMPDEST PUSH32 0x2E20466F7220646972656374696F6E7320746F2066696E64207468652050726F SWAP3 ADD SWAP2 DUP3 MSTORE PUSH32 0x706F736564204164647265737365732C2073656520496D706C656D656E746174 SWAP1 DUP3 ADD MSTORE PUSH32 0x696F6E2073656374696F6E206F6620554D49502D3136392E0000000000000000 PUSH1 0x40 DUP3 ADD MSTORE PUSH1 0x58 ADD SWAP6 SWAP5 POP POP POP POP POP JUMP JUMPDEST PUSH1 0x0 DUP2 DUP5 DUP3 JUMPDEST DUP6 DUP2 LT ISZERO PUSH2 0x295F JUMPI DUP2 CALLDATALOAD PUSH2 0x2941 DUP2 PUSH2 0x22F1 JUMP JUMPDEST PUSH1 0x1 PUSH1 0x1 PUSH1 0xA0 SHL SUB AND DUP4 MSTORE PUSH1 0x20 SWAP3 DUP4 ADD SWAP3 SWAP2 SWAP1 SWAP2 ADD SWAP1 PUSH1 0x1 ADD PUSH2 0x292E JUMP JUMPDEST POP SWAP1 SWAP6 SWAP5 POP POP POP POP POP JUMP JUMPDEST DUP6 DUP2 MSTORE DUP5 PUSH1 0x20 DUP3 ADD MSTORE PUSH1 0xA0 PUSH1 0x40 DUP3 ADD MSTORE PUSH1 0x0 PUSH2 0x2989 PUSH1 0xA0 DUP4 ADD DUP7 PUSH2 0x2290 JUMP JUMPDEST PUSH1 0x1 PUSH1 0x1 PUSH1 0xA0 SHL SUB SWAP5 SWAP1 SWAP5 AND PUSH1 0x60 DUP4 ADD MSTORE POP PUSH1 0x80 ADD MSTORE SWAP4 SWAP3 POP POP POP JUMP JUMPDEST PUSH1 0x0 PUSH1 0x20 DUP3 DUP5 SUB SLT ISZERO PUSH2 0x29B8 JUMPI PUSH1 0x0 DUP1 REVERT JUMPDEST POP MLOAD SWAP2 SWAP1 POP JUMP JUMPDEST DUP7 DUP2 MSTORE DUP6 PUSH1 0x20 DUP3 ADD MSTORE PUSH1 0xC0 PUSH1 0x40 DUP3 ADD MSTORE PUSH1 0x0 PUSH2 0x29DE PUSH1 0xC0 DUP4 ADD DUP8 PUSH2 0x2290 JUMP JUMPDEST SWAP5 ISZERO ISZERO PUSH1 0x60 DUP4 ADD MSTORE POP SWAP2 ISZERO ISZERO PUSH1 0x80 DUP4 ADD MSTORE ISZERO ISZERO PUSH1 0xA0 SWAP1 SWAP2 ADD MSTORE SWAP4 SWAP3 POP POP POP JUMP JUMPDEST DUP5 DUP2 MSTORE DUP4 PUSH1 0x20 DUP3 ADD MSTORE PUSH1 0x80 PUSH1 0x40 DUP3 ADD MSTORE PUSH1 0x0 PUSH2 0x2A1D PUSH1 0x80 DUP4 ADD DUP6 PUSH2 0x2290 JUMP JUMPDEST SWAP1 POP PUSH8 0xFFFFFFFFFFFFFFFF DUP4 AND PUSH1 0x60 DUP4 ADD MSTORE SWAP6 SWAP5 POP POP POP POP POP JUMP JUMPDEST DUP5 DUP2 MSTORE DUP4 PUSH1 0x20 DUP3 ADD MSTORE PUSH1 0x80 PUSH1 0x40 DUP3 ADD MSTORE PUSH1 0x0 PUSH2 0x2A57 PUSH1 0x80 DUP4 ADD DUP6 PUSH2 0x2290 JUMP JUMPDEST SWAP1 POP DUP3 PUSH1 0x60 DUP4 ADD MSTORE SWAP6 SWAP5 POP POP POP POP POP JUMP JUMPDEST PUSH1 0x0 PUSH1 0x1 PUSH1 0x1 PUSH1 0xA0 SHL SUB DUP1 DUP10 AND DUP4 MSTORE DUP1 DUP9 AND PUSH1 0x20 DUP5 ADD MSTORE POP DUP6 PUSH1 0x40 DUP4 ADD MSTORE DUP5 PUSH1 0x60 DUP4 ADD MSTORE PUSH1 0xC0 PUSH1 0x80 DUP4 ADD MSTORE PUSH2 0x2AA0 PUSH1 0xC0 DUP4 ADD DUP6 PUSH2 0x2290 JUMP JUMPDEST SWAP1 POP DUP3 PUSH1 0xA0 DUP4 ADD MSTORE SWAP8 SWAP7 POP POP POP POP POP POP POP JUMP JUMPDEST PUSH1 0x0 PUSH1 0x40 DUP3 ADD PUSH2 0x2AC3 DUP4 DUP8 PUSH2 0x21D6 JUMP JUMPDEST PUSH1 0x20 PUSH1 0x40 DUP2 DUP6 ADD MSTORE DUP2 DUP6 DUP4 MSTORE PUSH1 0x60 DUP6 ADD SWAP1 POP DUP7 SWAP3 POP PUSH1 0x0 JUMPDEST DUP7 DUP2 LT ISZERO PUSH2 0x2B09 JUMPI DUP4 CALLDATALOAD PUSH2 0x2AEE DUP2 PUSH2 0x22F1 JUMP JUMPDEST PUSH1 0x1 PUSH1 0x1 PUSH1 0xA0 SHL SUB AND DUP3 MSTORE SWAP3 DUP3 ADD SWAP3 SWAP1 DUP3 ADD SWAP1 PUSH1 0x1 ADD PUSH2 0x2ADB JUMP JUMPDEST POP SWAP8 SWAP7 POP POP POP POP POP POP POP JUMP JUMPDEST PUSH4 0x4E487B71 PUSH1 0xE0 SHL PUSH1 0x0 MSTORE PUSH1 0x11 PUSH1 0x4 MSTORE PUSH1 0x24 PUSH1 0x0 REVERT JUMPDEST PUSH1 0x0 PUSH1 0x1 DUP3 ADD PUSH2 0x2B3D JUMPI PUSH2 0x2B3D PUSH2 0x2B15 JUMP JUMPDEST POP PUSH1 0x1 ADD SWAP1 JUMP JUMPDEST PUSH4 0x4E487B71 PUSH1 0xE0 SHL PUSH1 0x0 MSTORE PUSH1 0x32 PUSH1 0x4 MSTORE PUSH1 0x24 PUSH1 0x0 REVERT JUMPDEST DUP1 DUP3 MUL DUP2 ISZERO DUP3 DUP3 DIV DUP5 EQ OR PUSH2 0x257A JUMPI PUSH2 0x257A PUSH2 0x2B15 JUMP JUMPDEST PUSH1 0x0 PUSH1 0x40 DUP3 ADD PUSH2 0x2B81 DUP4 DUP7 PUSH2 0x21D6 JUMP JUMPDEST PUSH1 0x20 PUSH1 0x40 DUP2 DUP6 ADD MSTORE DUP2 DUP6 MLOAD DUP1 DUP5 MSTORE PUSH1 0x60 DUP7 ADD SWAP2 POP DUP3 DUP8 ADD SWAP4 POP PUSH1 0x0 JUMPDEST DUP2 DUP2 LT ISZERO PUSH2 0x2BC2 JUMPI DUP5 MLOAD PUSH1 0x1 PUSH1 0x1 PUSH1 0xA0 SHL SUB AND DUP4 MSTORE SWAP4 DUP4 ADD SWAP4 SWAP2 DUP4 ADD SWAP2 PUSH1 0x1 ADD PUSH2 0x2B9D JUMP JUMPDEST POP SWAP1 SWAP8 SWAP7 POP POP POP POP POP POP POP JUMP JUMPDEST PUSH1 0x0 DUP3 PUSH2 0x2BEC JUMPI PUSH4 0x4E487B71 PUSH1 0xE0 SHL PUSH1 0x0 MSTORE PUSH1 0x12 PUSH1 0x4 MSTORE PUSH1 0x24 PUSH1 0x0 REVERT JUMPDEST POP DIV SWAP1 JUMP JUMPDEST DUP2 DUP2 SUB DUP2 DUP2 GT ISZERO PUSH2 0x257A JUMPI PUSH2 0x257A PUSH2 0x2B15 JUMP JUMPDEST PUSH1 0xFF DUP2 DUP2 AND DUP4 DUP3 AND ADD SWAP1 DUP2 GT ISZERO PUSH2 0x257A JUMPI PUSH2 0x257A PUSH2 0x2B15 JUMP JUMPDEST PUSH1 0x0 PUSH1 0x20 DUP3 DUP5 SUB SLT ISZERO PUSH2 0x2C2F JUMPI PUSH1 0x0 DUP1 REVERT JUMPDEST DUP2 MLOAD DUP1 ISZERO ISZERO DUP2 EQ PUSH2 0x2265 JUMPI PUSH1 0x0 DUP1 REVERT JUMPDEST PUSH1 0x0 DUP3 MLOAD PUSH2 0x2C51 DUP2 DUP5 PUSH1 0x20 DUP8 ADD PUSH2 0x226C JUMP JUMPDEST SWAP2 SWAP1 SWAP2 ADD SWAP3 SWAP2 POP POP JUMP INVALID LOG2 PUSH5 0x6970667358 0x22 SLT KECCAK256 0x4E SSTORE OR PUSH18 0x9301B7B4C2152A69BC645D91BCBDB026C906 SELFBALANCE PUSH4 0x8E0FAA09 0x25 0xB0 DUP14 PUSH30 0x64736F6C6343000811003300000000000000000000000000000000000000 "},"methodIdentifiers":{"additionReward()":"8dee967e","bondAmount()":"80f323a7","executeRevision(uint256,address[])":"fee53ab6","finder()":"b9a3c84c","fixedAncillaryData()":"5cae7fb5","initialize(address,bytes,string,address,uint256,uint256,uint256,uint64,uint64,address)":"74881462","liveness()":"6ad0690a","minimumLiveness()":"91152f10","onList(address)":"6f626eb3","oracle()":"7dc0d1d0","owner()":"8da5cb5b","priceSettled(bytes32,uint256,bytes,int256)":"04cc1fd5","proposeRevision(uint8,address[])":"af359fa2","removalReward()":"c207ec6e","renounceOwnership()":"715018a6","rescue(address,uint256,address)":"8671d23b","revisions(uint256)":"0ef486d1","setBond(uint256)":"259bd920","setLiveness(uint64)":"3c4432f1","setRewards(uint256,uint256)":"654e51e7","store()":"975057e7","syncContracts()":"8a301adc","title()":"4a79d50c","token()":"fc0c546a","transferOwnership(address)":"f2fde38b","withdraw(address,uint256)":"f3fef3a3"}}}}}