{"@uma/core/contracts/oracle/implementation/Constants.sol":{"OracleInterfaces":{"abi":[{"inputs":[],"name":"Bridge","outputs":[{"internalType":"bytes32","name":"","type":"bytes32"}],"stateMutability":"view","type":"function"},{"inputs":[],"name":"ChildMessenger","outputs":[{"internalType":"bytes32","name":"","type":"bytes32"}],"stateMutability":"view","type":"function"},{"inputs":[],"name":"CollateralWhitelist","outputs":[{"internalType":"bytes32","name":"","type":"bytes32"}],"stateMutability":"view","type":"function"},{"inputs":[],"name":"FinancialContractsAdmin","outputs":[{"internalType":"bytes32","name":"","type":"bytes32"}],"stateMutability":"view","type":"function"},{"inputs":[],"name":"GenericHandler","outputs":[{"internalType":"bytes32","name":"","type":"bytes32"}],"stateMutability":"view","type":"function"},{"inputs":[],"name":"IdentifierWhitelist","outputs":[{"internalType":"bytes32","name":"","type":"bytes32"}],"stateMutability":"view","type":"function"},{"inputs":[],"name":"OptimisticOracle","outputs":[{"internalType":"bytes32","name":"","type":"bytes32"}],"stateMutability":"view","type":"function"},{"inputs":[],"name":"OptimisticOracleV2","outputs":[{"internalType":"bytes32","name":"","type":"bytes32"}],"stateMutability":"view","type":"function"},{"inputs":[],"name":"Oracle","outputs":[{"internalType":"bytes32","name":"","type":"bytes32"}],"stateMutability":"view","type":"function"},{"inputs":[],"name":"OracleHub","outputs":[{"internalType":"bytes32","name":"","type":"bytes32"}],"stateMutability":"view","type":"function"},{"inputs":[],"name":"OracleSpoke","outputs":[{"internalType":"bytes32","name":"","type":"bytes32"}],"stateMutability":"view","type":"function"},{"inputs":[],"name":"Registry","outputs":[{"internalType":"bytes32","name":"","type":"bytes32"}],"stateMutability":"view","type":"function"},{"inputs":[],"name":"SkinnyOptimisticOracle","outputs":[{"internalType":"bytes32","name":"","type":"bytes32"}],"stateMutability":"view","type":"function"},{"inputs":[],"name":"Store","outputs":[{"internalType":"bytes32","name":"","type":"bytes32"}],"stateMutability":"view","type":"function"}],"evm":{"bytecode":{"linkReferences":{},"object":"61036361003a600b82828239805160001a60731461002d57634e487b7160e01b600052600060045260246000fd5b30600052607381538281f3fe73000000000000000000000000000000000000000030146080604052600436106100f45760003560e01c80634f4a180b116100965780637608ea2f116100705780637608ea2f146102915780637db9743b146102b85780638adca47f146102df578063f24a534e1461030657600080fd5b80634f4a180b1461021c578063598dd097146102435780635fa2ef101461026a57600080fd5b80632a71e5b3116100d25780632a71e5b31461018057806342e90c33146101a75780634596ac9b146101ce578063473e7ccd146101f557600080fd5b8063079b6c63146100f95780631a0fbfb3146101325780631a4dbd1c14610159575b600080fd5b6101207f47656e6572696348616e646c657200000000000000000000000000000000000081565b60405190815260200160405180910390f35b6101207f4368696c644d657373656e67657200000000000000000000000000000000000081565b6101207f4f7074696d69737469634f7261636c650000000000000000000000000000000081565b6101207f46696e616e6369616c436f6e74726163747341646d696e00000000000000000081565b6101207f53746f726500000000000000000000000000000000000000000000000000000081565b6101207f536b696e6e794f7074696d69737469634f7261636c650000000000000000000081565b6101207f4f7074696d69737469634f7261636c655632000000000000000000000000000081565b6101207f4964656e74696669657257686974656c6973740000000000000000000000000081565b6101207f436f6c6c61746572616c57686974656c6973740000000000000000000000000081565b6101207f427269646765000000000000000000000000000000000000000000000000000081565b6101207f4f7261636c65487562000000000000000000000000000000000000000000000081565b6101207f526567697374727900000000000000000000000000000000000000000000000081565b6101207f4f7261636c6553706f6b6500000000000000000000000000000000000000000081565b6101207f4f7261636c6500000000000000000000000000000000000000000000000000008156fea26469706673582212200c311b78bece46cb0566e3f5ab3633f5cf28cbdd4750a2816d47cb62c37f298b64736f6c63430008110033","opcodes":"PUSH2 0x363 PUSH2 0x3A PUSH1 0xB DUP3 DUP3 DUP3 CODECOPY DUP1 MLOAD PUSH1 0x0 BYTE PUSH1 0x73 EQ PUSH2 0x2D JUMPI PUSH4 0x4E487B71 PUSH1 0xE0 SHL PUSH1 0x0 MSTORE PUSH1 0x0 PUSH1 0x4 MSTORE PUSH1 0x24 PUSH1 0x0 REVERT JUMPDEST ADDRESS PUSH1 0x0 MSTORE PUSH1 0x73 DUP2 MSTORE8 DUP3 DUP2 RETURN INVALID PUSH20 0x0 ADDRESS EQ PUSH1 0x80 PUSH1 0x40 MSTORE PUSH1 0x4 CALLDATASIZE LT PUSH2 0xF4 JUMPI PUSH1 0x0 CALLDATALOAD PUSH1 0xE0 SHR DUP1 PUSH4 0x4F4A180B GT PUSH2 0x96 JUMPI DUP1 PUSH4 0x7608EA2F GT PUSH2 0x70 JUMPI DUP1 PUSH4 0x7608EA2F EQ PUSH2 0x291 JUMPI DUP1 PUSH4 0x7DB9743B EQ PUSH2 0x2B8 JUMPI DUP1 PUSH4 0x8ADCA47F EQ PUSH2 0x2DF JUMPI DUP1 PUSH4 0xF24A534E EQ PUSH2 0x306 JUMPI PUSH1 0x0 DUP1 REVERT JUMPDEST DUP1 PUSH4 0x4F4A180B EQ PUSH2 0x21C JUMPI DUP1 PUSH4 0x598DD097 EQ PUSH2 0x243 JUMPI DUP1 PUSH4 0x5FA2EF10 EQ PUSH2 0x26A JUMPI PUSH1 0x0 DUP1 REVERT JUMPDEST DUP1 PUSH4 0x2A71E5B3 GT PUSH2 0xD2 JUMPI DUP1 PUSH4 0x2A71E5B3 EQ PUSH2 0x180 JUMPI DUP1 PUSH4 0x42E90C33 EQ PUSH2 0x1A7 JUMPI DUP1 PUSH4 0x4596AC9B EQ PUSH2 0x1CE JUMPI DUP1 PUSH4 0x473E7CCD EQ PUSH2 0x1F5 JUMPI PUSH1 0x0 DUP1 REVERT JUMPDEST DUP1 PUSH4 0x79B6C63 EQ PUSH2 0xF9 JUMPI DUP1 PUSH4 0x1A0FBFB3 EQ PUSH2 0x132 JUMPI DUP1 PUSH4 0x1A4DBD1C EQ PUSH2 0x159 JUMPI JUMPDEST PUSH1 0x0 DUP1 REVERT JUMPDEST PUSH2 0x120 PUSH32 0x47656E6572696348616E646C6572000000000000000000000000000000000000 DUP2 JUMP JUMPDEST PUSH1 0x40 MLOAD SWAP1 DUP2 MSTORE PUSH1 0x20 ADD PUSH1 0x40 MLOAD DUP1 SWAP2 SUB SWAP1 RETURN JUMPDEST PUSH2 0x120 PUSH32 0x4368696C644D657373656E676572000000000000000000000000000000000000 DUP2 JUMP JUMPDEST PUSH2 0x120 PUSH32 0x4F7074696D69737469634F7261636C6500000000000000000000000000000000 DUP2 JUMP JUMPDEST PUSH2 0x120 PUSH32 0x46696E616E6369616C436F6E74726163747341646D696E000000000000000000 DUP2 JUMP JUMPDEST PUSH2 0x120 PUSH32 0x53746F7265000000000000000000000000000000000000000000000000000000 DUP2 JUMP JUMPDEST PUSH2 0x120 PUSH32 0x536B696E6E794F7074696D69737469634F7261636C6500000000000000000000 DUP2 JUMP JUMPDEST PUSH2 0x120 PUSH32 0x4F7074696D69737469634F7261636C6556320000000000000000000000000000 DUP2 JUMP JUMPDEST PUSH2 0x120 PUSH32 0x4964656E74696669657257686974656C69737400000000000000000000000000 DUP2 JUMP JUMPDEST PUSH2 0x120 PUSH32 0x436F6C6C61746572616C57686974656C69737400000000000000000000000000 DUP2 JUMP JUMPDEST PUSH2 0x120 PUSH32 0x4272696467650000000000000000000000000000000000000000000000000000 DUP2 JUMP JUMPDEST PUSH2 0x120 PUSH32 0x4F7261636C654875620000000000000000000000000000000000000000000000 DUP2 JUMP JUMPDEST PUSH2 0x120 PUSH32 0x5265676973747279000000000000000000000000000000000000000000000000 DUP2 JUMP JUMPDEST PUSH2 0x120 PUSH32 0x4F7261636C6553706F6B65000000000000000000000000000000000000000000 DUP2 JUMP JUMPDEST PUSH2 0x120 PUSH32 0x4F7261636C650000000000000000000000000000000000000000000000000000 DUP2 JUMP INVALID LOG2 PUSH5 0x6970667358 0x22 SLT KECCAK256 0xC BALANCE SHL PUSH25 0xBECE46CB0566E3F5AB3633F5CF28CBDD4750A2816D47CB62C3 PUSH32 0x298B64736F6C6343000811003300000000000000000000000000000000000000 "},"methodIdentifiers":{"Bridge()":"5fa2ef10","ChildMessenger()":"1a0fbfb3","CollateralWhitelist()":"598dd097","FinancialContractsAdmin()":"2a71e5b3","GenericHandler()":"079b6c63","IdentifierWhitelist()":"4f4a180b","OptimisticOracle()":"1a4dbd1c","OptimisticOracleV2()":"473e7ccd","Oracle()":"f24a534e","OracleHub()":"7608ea2f","OracleSpoke()":"8adca47f","Registry()":"7db9743b","SkinnyOptimisticOracle()":"4596ac9b","Store()":"42e90c33"}}}}}