{"@uma/core/contracts/oracle/implementation/Constants.sol":{"OracleInterfaces":{"abi":[{"inputs":[],"name":"Bridge","outputs":[{"internalType":"bytes32","name":"","type":"bytes32"}],"stateMutability":"view","type":"function"},{"inputs":[],"name":"ChildMessenger","outputs":[{"internalType":"bytes32","name":"","type":"bytes32"}],"stateMutability":"view","type":"function"},{"inputs":[],"name":"CollateralWhitelist","outputs":[{"internalType":"bytes32","name":"","type":"bytes32"}],"stateMutability":"view","type":"function"},{"inputs":[],"name":"FinancialContractsAdmin","outputs":[{"internalType":"bytes32","name":"","type":"bytes32"}],"stateMutability":"view","type":"function"},{"inputs":[],"name":"GenericHandler","outputs":[{"internalType":"bytes32","name":"","type":"bytes32"}],"stateMutability":"view","type":"function"},{"inputs":[],"name":"IdentifierWhitelist","outputs":[{"internalType":"bytes32","name":"","type":"bytes32"}],"stateMutability":"view","type":"function"},{"inputs":[],"name":"OptimisticOracle","outputs":[{"internalType":"bytes32","name":"","type":"bytes32"}],"stateMutability":"view","type":"function"},{"inputs":[],"name":"OptimisticOracleV2","outputs":[{"internalType":"bytes32","name":"","type":"bytes32"}],"stateMutability":"view","type":"function"},{"inputs":[],"name":"Oracle","outputs":[{"internalType":"bytes32","name":"","type":"bytes32"}],"stateMutability":"view","type":"function"},{"inputs":[],"name":"OracleHub","outputs":[{"internalType":"bytes32","name":"","type":"bytes32"}],"stateMutability":"view","type":"function"},{"inputs":[],"name":"OracleSpoke","outputs":[{"internalType":"bytes32","name":"","type":"bytes32"}],"stateMutability":"view","type":"function"},{"inputs":[],"name":"Registry","outputs":[{"internalType":"bytes32","name":"","type":"bytes32"}],"stateMutability":"view","type":"function"},{"inputs":[],"name":"SkinnyOptimisticOracle","outputs":[{"internalType":"bytes32","name":"","type":"bytes32"}],"stateMutability":"view","type":"function"},{"inputs":[],"name":"Store","outputs":[{"internalType":"bytes32","name":"","type":"bytes32"}],"stateMutability":"view","type":"function"}],"evm":{"bytecode":{"linkReferences":{},"object":"6104ff610053600b82828239805160001a607314610046577f4e487b7100000000000000000000000000000000000000000000000000000000600052600060045260246000fd5b30600052607381538281f3fe73000000000000000000000000000000000000000030146080604052600436106100f45760003560e01c80634f4a180b116100965780637608ea2f116100705780637608ea2f146102255780637db9743b146102435780638adca47f14610261578063f24a534e1461027f576100f4565b80634f4a180b146101cb578063598dd097146101e95780635fa2ef1014610207576100f4565b80632a71e5b3116100d25780632a71e5b31461015357806342e90c33146101715780634596ac9b1461018f578063473e7ccd146101ad576100f4565b8063079b6c63146100f95780631a0fbfb3146101175780631a4dbd1c14610135575b600080fd5b61010161029d565b60405161010e91906104ae565b60405180910390f35b61011f6102c1565b60405161012c91906104ae565b60405180910390f35b61013d6102e5565b60405161014a91906104ae565b60405180910390f35b61015b610309565b60405161016891906104ae565b60405180910390f35b61017961032d565b60405161018691906104ae565b60405180910390f35b610197610351565b6040516101a491906104ae565b60405180910390f35b6101b5610375565b6040516101c291906104ae565b60405180910390f35b6101d3610399565b6040516101e091906104ae565b60405180910390f35b6101f16103bd565b6040516101fe91906104ae565b60405180910390f35b61020f6103e1565b60405161021c91906104ae565b60405180910390f35b61022d610405565b60405161023a91906104ae565b60405180910390f35b61024b610429565b60405161025891906104ae565b60405180910390f35b61026961044d565b60405161027691906104ae565b60405180910390f35b610287610471565b60405161029491906104ae565b60405180910390f35b7f47656e6572696348616e646c657200000000000000000000000000000000000081565b7f4368696c644d657373656e67657200000000000000000000000000000000000081565b7f4f7074696d69737469634f7261636c650000000000000000000000000000000081565b7f46696e616e6369616c436f6e74726163747341646d696e00000000000000000081565b7f53746f726500000000000000000000000000000000000000000000000000000081565b7f536b696e6e794f7074696d69737469634f7261636c650000000000000000000081565b7f4f7074696d69737469634f7261636c655632000000000000000000000000000081565b7f4964656e74696669657257686974656c6973740000000000000000000000000081565b7f436f6c6c61746572616c57686974656c6973740000000000000000000000000081565b7f427269646765000000000000000000000000000000000000000000000000000081565b7f4f7261636c65487562000000000000000000000000000000000000000000000081565b7f526567697374727900000000000000000000000000000000000000000000000081565b7f4f7261636c6553706f6b6500000000000000000000000000000000000000000081565b7f4f7261636c65000000000000000000000000000000000000000000000000000081565b6000819050919050565b6104a881610495565b82525050565b60006020820190506104c3600083018461049f565b9291505056fea2646970667358221220653b10462b647c2849d2b61aeb7a68d6620693f17aef50b935365e785c428e8864736f6c63430008110033","opcodes":"PUSH2 0x4FF PUSH2 0x53 PUSH1 0xB DUP3 DUP3 DUP3 CODECOPY DUP1 MLOAD PUSH1 0x0 BYTE PUSH1 0x73 EQ PUSH2 0x46 JUMPI PUSH32 0x4E487B7100000000000000000000000000000000000000000000000000000000 PUSH1 0x0 MSTORE PUSH1 0x0 PUSH1 0x4 MSTORE PUSH1 0x24 PUSH1 0x0 REVERT JUMPDEST ADDRESS PUSH1 0x0 MSTORE PUSH1 0x73 DUP2 MSTORE8 DUP3 DUP2 RETURN INVALID PUSH20 0x0 ADDRESS EQ PUSH1 0x80 PUSH1 0x40 MSTORE PUSH1 0x4 CALLDATASIZE LT PUSH2 0xF4 JUMPI PUSH1 0x0 CALLDATALOAD PUSH1 0xE0 SHR DUP1 PUSH4 0x4F4A180B GT PUSH2 0x96 JUMPI DUP1 PUSH4 0x7608EA2F GT PUSH2 0x70 JUMPI DUP1 PUSH4 0x7608EA2F EQ PUSH2 0x225 JUMPI DUP1 PUSH4 0x7DB9743B EQ PUSH2 0x243 JUMPI DUP1 PUSH4 0x8ADCA47F EQ PUSH2 0x261 JUMPI DUP1 PUSH4 0xF24A534E EQ PUSH2 0x27F JUMPI PUSH2 0xF4 JUMP JUMPDEST DUP1 PUSH4 0x4F4A180B EQ PUSH2 0x1CB JUMPI DUP1 PUSH4 0x598DD097 EQ PUSH2 0x1E9 JUMPI DUP1 PUSH4 0x5FA2EF10 EQ PUSH2 0x207 JUMPI PUSH2 0xF4 JUMP JUMPDEST DUP1 PUSH4 0x2A71E5B3 GT PUSH2 0xD2 JUMPI DUP1 PUSH4 0x2A71E5B3 EQ PUSH2 0x153 JUMPI DUP1 PUSH4 0x42E90C33 EQ PUSH2 0x171 JUMPI DUP1 PUSH4 0x4596AC9B EQ PUSH2 0x18F JUMPI DUP1 PUSH4 0x473E7CCD EQ PUSH2 0x1AD JUMPI PUSH2 0xF4 JUMP JUMPDEST DUP1 PUSH4 0x79B6C63 EQ PUSH2 0xF9 JUMPI DUP1 PUSH4 0x1A0FBFB3 EQ PUSH2 0x117 JUMPI DUP1 PUSH4 0x1A4DBD1C EQ PUSH2 0x135 JUMPI JUMPDEST PUSH1 0x0 DUP1 REVERT JUMPDEST PUSH2 0x101 PUSH2 0x29D JUMP JUMPDEST PUSH1 0x40 MLOAD PUSH2 0x10E SWAP2 SWAP1 PUSH2 0x4AE JUMP JUMPDEST PUSH1 0x40 MLOAD DUP1 SWAP2 SUB SWAP1 RETURN JUMPDEST PUSH2 0x11F PUSH2 0x2C1 JUMP JUMPDEST PUSH1 0x40 MLOAD PUSH2 0x12C SWAP2 SWAP1 PUSH2 0x4AE JUMP JUMPDEST PUSH1 0x40 MLOAD DUP1 SWAP2 SUB SWAP1 RETURN JUMPDEST PUSH2 0x13D PUSH2 0x2E5 JUMP JUMPDEST PUSH1 0x40 MLOAD PUSH2 0x14A SWAP2 SWAP1 PUSH2 0x4AE JUMP JUMPDEST PUSH1 0x40 MLOAD DUP1 SWAP2 SUB SWAP1 RETURN JUMPDEST PUSH2 0x15B PUSH2 0x309 JUMP JUMPDEST PUSH1 0x40 MLOAD PUSH2 0x168 SWAP2 SWAP1 PUSH2 0x4AE JUMP JUMPDEST PUSH1 0x40 MLOAD DUP1 SWAP2 SUB SWAP1 RETURN JUMPDEST PUSH2 0x179 PUSH2 0x32D JUMP JUMPDEST PUSH1 0x40 MLOAD PUSH2 0x186 SWAP2 SWAP1 PUSH2 0x4AE JUMP JUMPDEST PUSH1 0x40 MLOAD DUP1 SWAP2 SUB SWAP1 RETURN JUMPDEST PUSH2 0x197 PUSH2 0x351 JUMP JUMPDEST PUSH1 0x40 MLOAD PUSH2 0x1A4 SWAP2 SWAP1 PUSH2 0x4AE JUMP JUMPDEST PUSH1 0x40 MLOAD DUP1 SWAP2 SUB SWAP1 RETURN JUMPDEST PUSH2 0x1B5 PUSH2 0x375 JUMP JUMPDEST PUSH1 0x40 MLOAD PUSH2 0x1C2 SWAP2 SWAP1 PUSH2 0x4AE JUMP JUMPDEST PUSH1 0x40 MLOAD DUP1 SWAP2 SUB SWAP1 RETURN JUMPDEST PUSH2 0x1D3 PUSH2 0x399 JUMP JUMPDEST PUSH1 0x40 MLOAD PUSH2 0x1E0 SWAP2 SWAP1 PUSH2 0x4AE JUMP JUMPDEST PUSH1 0x40 MLOAD DUP1 SWAP2 SUB SWAP1 RETURN JUMPDEST PUSH2 0x1F1 PUSH2 0x3BD JUMP JUMPDEST PUSH1 0x40 MLOAD PUSH2 0x1FE SWAP2 SWAP1 PUSH2 0x4AE JUMP JUMPDEST PUSH1 0x40 MLOAD DUP1 SWAP2 SUB SWAP1 RETURN JUMPDEST PUSH2 0x20F PUSH2 0x3E1 JUMP JUMPDEST PUSH1 0x40 MLOAD PUSH2 0x21C SWAP2 SWAP1 PUSH2 0x4AE JUMP JUMPDEST PUSH1 0x40 MLOAD DUP1 SWAP2 SUB SWAP1 RETURN JUMPDEST PUSH2 0x22D PUSH2 0x405 JUMP JUMPDEST PUSH1 0x40 MLOAD PUSH2 0x23A SWAP2 SWAP1 PUSH2 0x4AE JUMP JUMPDEST PUSH1 0x40 MLOAD DUP1 SWAP2 SUB SWAP1 RETURN JUMPDEST PUSH2 0x24B PUSH2 0x429 JUMP JUMPDEST PUSH1 0x40 MLOAD PUSH2 0x258 SWAP2 SWAP1 PUSH2 0x4AE JUMP JUMPDEST PUSH1 0x40 MLOAD DUP1 SWAP2 SUB SWAP1 RETURN JUMPDEST PUSH2 0x269 PUSH2 0x44D JUMP JUMPDEST PUSH1 0x40 MLOAD PUSH2 0x276 SWAP2 SWAP1 PUSH2 0x4AE JUMP JUMPDEST PUSH1 0x40 MLOAD DUP1 SWAP2 SUB SWAP1 RETURN JUMPDEST PUSH2 0x287 PUSH2 0x471 JUMP JUMPDEST PUSH1 0x40 MLOAD PUSH2 0x294 SWAP2 SWAP1 PUSH2 0x4AE JUMP JUMPDEST PUSH1 0x40 MLOAD DUP1 SWAP2 SUB SWAP1 RETURN JUMPDEST PUSH32 0x47656E6572696348616E646C6572000000000000000000000000000000000000 DUP2 JUMP JUMPDEST PUSH32 0x4368696C644D657373656E676572000000000000000000000000000000000000 DUP2 JUMP JUMPDEST PUSH32 0x4F7074696D69737469634F7261636C6500000000000000000000000000000000 DUP2 JUMP JUMPDEST PUSH32 0x46696E616E6369616C436F6E74726163747341646D696E000000000000000000 DUP2 JUMP JUMPDEST PUSH32 0x53746F7265000000000000000000000000000000000000000000000000000000 DUP2 JUMP JUMPDEST PUSH32 0x536B696E6E794F7074696D69737469634F7261636C6500000000000000000000 DUP2 JUMP JUMPDEST PUSH32 0x4F7074696D69737469634F7261636C6556320000000000000000000000000000 DUP2 JUMP JUMPDEST PUSH32 0x4964656E74696669657257686974656C69737400000000000000000000000000 DUP2 JUMP JUMPDEST PUSH32 0x436F6C6C61746572616C57686974656C69737400000000000000000000000000 DUP2 JUMP JUMPDEST PUSH32 0x4272696467650000000000000000000000000000000000000000000000000000 DUP2 JUMP JUMPDEST PUSH32 0x4F7261636C654875620000000000000000000000000000000000000000000000 DUP2 JUMP JUMPDEST PUSH32 0x5265676973747279000000000000000000000000000000000000000000000000 DUP2 JUMP JUMPDEST PUSH32 0x4F7261636C6553706F6B65000000000000000000000000000000000000000000 DUP2 JUMP JUMPDEST PUSH32 0x4F7261636C650000000000000000000000000000000000000000000000000000 DUP2 JUMP JUMPDEST PUSH1 0x0 DUP2 SWAP1 POP SWAP2 SWAP1 POP JUMP JUMPDEST PUSH2 0x4A8 DUP2 PUSH2 0x495 JUMP JUMPDEST DUP3 MSTORE POP POP JUMP JUMPDEST PUSH1 0x0 PUSH1 0x20 DUP3 ADD SWAP1 POP PUSH2 0x4C3 PUSH1 0x0 DUP4 ADD DUP5 PUSH2 0x49F JUMP JUMPDEST SWAP3 SWAP2 POP POP JUMP INVALID LOG2 PUSH5 0x6970667358 0x22 SLT KECCAK256 PUSH6 0x3B10462B647C 0x28 0x49 0xD2 0xB6 BYTE 0xEB PUSH27 0x68D6620693F17AEF50B935365E785C428E8864736F6C6343000811 STOP CALLER "},"methodIdentifiers":{"Bridge()":"5fa2ef10","ChildMessenger()":"1a0fbfb3","CollateralWhitelist()":"598dd097","FinancialContractsAdmin()":"2a71e5b3","GenericHandler()":"079b6c63","IdentifierWhitelist()":"4f4a180b","OptimisticOracle()":"1a4dbd1c","OptimisticOracleV2()":"473e7ccd","Oracle()":"f24a534e","OracleHub()":"7608ea2f","OracleSpoke()":"8adca47f","Registry()":"7db9743b","SkinnyOptimisticOracle()":"4596ac9b","Store()":"42e90c33"}}}}}