{
  "_format": "hh-sol-artifact-1",
  "contractName": "DecentralistProxyFactory",
  "sourceName": "contracts/DecentralistProxyFactory.sol",
  "abi": [
    {
      "inputs": [
        {
          "internalType": "address",
          "name": "_implementation",
          "type": "address"
        }
      ],
      "stateMutability": "nonpayable",
      "type": "constructor"
    },
    {
      "anonymous": false,
      "inputs": [
        {
          "indexed": false,
          "internalType": "address",
          "name": "_clone",
          "type": "address"
        }
      ],
      "name": "NewClone",
      "type": "event"
    },
    {
      "inputs": [
        {
          "internalType": "uint256",
          "name": "",
          "type": "uint256"
        }
      ],
      "name": "allClones",
      "outputs": [
        {
          "internalType": "address",
          "name": "",
          "type": "address"
        }
      ],
      "stateMutability": "view",
      "type": "function"
    },
    {
      "inputs": [
        {
          "internalType": "bytes",
          "name": "_fixedAncillaryData",
          "type": "bytes"
        },
        {
          "internalType": "string",
          "name": "_title",
          "type": "string"
        },
        {
          "internalType": "uint256",
          "name": "_livenessPeriod",
          "type": "uint256"
        },
        {
          "internalType": "uint256",
          "name": "_bondAmount",
          "type": "uint256"
        },
        {
          "internalType": "uint256",
          "name": "_addReward",
          "type": "uint256"
        },
        {
          "internalType": "uint256",
          "name": "_removeReward",
          "type": "uint256"
        },
        {
          "internalType": "address",
          "name": "_owner",
          "type": "address"
        }
      ],
      "name": "createNewDecentralist",
      "outputs": [
        {
          "internalType": "address",
          "name": "instance",
          "type": "address"
        }
      ],
      "stateMutability": "nonpayable",
      "type": "function"
    },
    {
      "inputs": [],
      "name": "getAllClones",
      "outputs": [
        {
          "internalType": "address[]",
          "name": "",
          "type": "address[]"
        }
      ],
      "stateMutability": "view",
      "type": "function"
    },
    {
      "inputs": [],
      "name": "implementationContract",
      "outputs": [
        {
          "internalType": "address",
          "name": "",
          "type": "address"
        }
      ],
      "stateMutability": "view",
      "type": "function"
    }
  ],
  "bytecode": "0x608060405234801561001057600080fd5b50604051610d43380380610d43833981810160405281019061003291906100db565b806000806101000a81548173ffffffffffffffffffffffffffffffffffffffff021916908373ffffffffffffffffffffffffffffffffffffffff16021790555050610108565b600080fd5b600073ffffffffffffffffffffffffffffffffffffffff82169050919050565b60006100a88261007d565b9050919050565b6100b88161009d565b81146100c357600080fd5b50565b6000815190506100d5816100af565b92915050565b6000602082840312156100f1576100f0610078565b5b60006100ff848285016100c6565b91505092915050565b610c2c806101176000396000f3fe608060405234801561001057600080fd5b506004361061004c5760003560e01c806301b76dae1461005157806327831ee01461008157806399e7d0561461009f578063d7741cad146100bd575b600080fd5b61006b6004803603810190610066919061075a565b6100ed565b6040516100789190610843565b60405180910390f35b610089610306565b604051610096919061091c565b60405180910390f35b6100a7610394565b6040516100b49190610843565b60405180910390f35b6100d760048036038101906100d2919061093e565b6103b8565b6040516100e49190610843565b60405180910390f35b600061011860008054906101000a900473ffffffffffffffffffffffffffffffffffffffff166103f7565b905060008173ffffffffffffffffffffffffffffffffffffffff16898989898989896040516024016101509796959493929190610a4e565b6040516020818303038152906040527fc8108ed9000000000000000000000000000000000000000000000000000000007bffffffffffffffffffffffffffffffffffffffffffffffffffffffff19166020820180517bffffffffffffffffffffffffffffffffffffffffffffffffffffffff83818316178352505050506040516101da9190610b07565b6000604051808303816000865af19150503d8060008114610217576040519150601f19603f3d011682016040523d82523d6000602084013e61021c565b606091505b5050905080610260576040517f08c379a000000000000000000000000000000000000000000000000000000000815260040161025790610b6a565b60405180910390fd5b6001829080600181540180825580915050600190039060005260206000200160009091909190916101000a81548173ffffffffffffffffffffffffffffffffffffffff021916908373ffffffffffffffffffffffffffffffffffffffff1602179055507fcc1e9c890bc4f4943c457abb8d17f97703b9f7144e1f4a69e50c6e4988ef38b7826040516102f29190610843565b60405180910390a150979650505050505050565b6060600180548060200260200160405190810160405280929190818152602001828054801561038a57602002820191906000526020600020905b8160009054906101000a900473ffffffffffffffffffffffffffffffffffffffff1673ffffffffffffffffffffffffffffffffffffffff1681526020019060010190808311610340575b5050505050905090565b60008054906101000a900473ffffffffffffffffffffffffffffffffffffffff1681565b600181815481106103c857600080fd5b906000526020600020016000915054906101000a900473ffffffffffffffffffffffffffffffffffffffff1681565b60006040517f3d602d80600a3d3981f3363d3d373d3d3d363d7300000000000000000000000081528260601b60148201527f5af43d82803e903d91602b57fd5bf3000000000000000000000000000000000060288201526037816000f0915050600073ffffffffffffffffffffffffffffffffffffffff168173ffffffffffffffffffffffffffffffffffffffff16036104c6576040517f08c379a00000000000000000000000000000000000000000000000000000000081526004016104bd90610bd6565b60405180910390fd5b919050565b6000604051905090565b600080fd5b600080fd5b600080fd5b600080fd5b6000601f19601f8301169050919050565b7f4e487b7100000000000000000000000000000000000000000000000000000000600052604160045260246000fd5b610532826104e9565b810181811067ffffffffffffffff82111715610551576105506104fa565b5b80604052505050565b60006105646104cb565b90506105708282610529565b919050565b600067ffffffffffffffff8211156105905761058f6104fa565b5b610599826104e9565b9050602081019050919050565b82818337600083830152505050565b60006105c86105c384610575565b61055a565b9050828152602081018484840111156105e4576105e36104e4565b5b6105ef8482856105a6565b509392505050565b600082601f83011261060c5761060b6104df565b5b813561061c8482602086016105b5565b91505092915050565b600067ffffffffffffffff8211156106405761063f6104fa565b5b610649826104e9565b9050602081019050919050565b600061066961066484610625565b61055a565b905082815260208101848484011115610685576106846104e4565b5b6106908482856105a6565b509392505050565b600082601f8301126106ad576106ac6104df565b5b81356106bd848260208601610656565b91505092915050565b6000819050919050565b6106d9816106c6565b81146106e457600080fd5b50565b6000813590506106f6816106d0565b92915050565b600073ffffffffffffffffffffffffffffffffffffffff82169050919050565b6000610727826106fc565b9050919050565b6107378161071c565b811461074257600080fd5b50565b6000813590506107548161072e565b92915050565b600080600080600080600060e0888a031215610779576107786104d5565b5b600088013567ffffffffffffffff811115610797576107966104da565b5b6107a38a828b016105f7565b975050602088013567ffffffffffffffff8111156107c4576107c36104da565b5b6107d08a828b01610698565b96505060406107e18a828b016106e7565b95505060606107f28a828b016106e7565b94505060806108038a828b016106e7565b93505060a06108148a828b016106e7565b92505060c06108258a828b01610745565b91505092959891949750929550565b61083d8161071c565b82525050565b60006020820190506108586000830184610834565b92915050565b600081519050919050565b600082825260208201905092915050565b6000819050602082019050919050565b6108938161071c565b82525050565b60006108a5838361088a565b60208301905092915050565b6000602082019050919050565b60006108c98261085e565b6108d38185610869565b93506108de8361087a565b8060005b8381101561090f5781516108f68882610899565b9750610901836108b1565b9250506001810190506108e2565b5085935050505092915050565b6000602082019050818103600083015261093681846108be565b905092915050565b600060208284031215610954576109536104d5565b5b6000610962848285016106e7565b91505092915050565b600081519050919050565b600082825260208201905092915050565b60005b838110156109a557808201518184015260208101905061098a565b60008484015250505050565b60006109bc8261096b565b6109c68185610976565b93506109d6818560208601610987565b6109df816104e9565b840191505092915050565b600081519050919050565b600082825260208201905092915050565b6000610a11826109ea565b610a1b81856109f5565b9350610a2b818560208601610987565b610a34816104e9565b840191505092915050565b610a48816106c6565b82525050565b600060e0820190508181036000830152610a68818a6109b1565b90508181036020830152610a7c8189610a06565b9050610a8b6040830188610a3f565b610a986060830187610a3f565b610aa56080830186610a3f565b610ab260a0830185610a3f565b610abf60c0830184610834565b98975050505050505050565b600081905092915050565b6000610ae18261096b565b610aeb8185610acb565b9350610afb818560208601610987565b80840191505092915050565b6000610b138284610ad6565b915081905092915050565b7f696e7374616e63652e63616c6c206661696c6564000000000000000000000000600082015250565b6000610b546014836109f5565b9150610b5f82610b1e565b602082019050919050565b60006020820190508181036000830152610b8381610b47565b9050919050565b7f455243313136373a20637265617465206661696c656400000000000000000000600082015250565b6000610bc06016836109f5565b9150610bcb82610b8a565b602082019050919050565b60006020820190508181036000830152610bef81610bb3565b905091905056fea26469706673582212201f90818fb12afb9be70354efcaa028c81f1487ce0547cd93332e1701305ffabf64736f6c63430008110033",
  "linkReferences": {},
  "deployedLinkReferences": {}
}