{
  "_format": "hh-sol-artifact-1",
  "contractName": "DecentralistProxyFactory",
  "sourceName": "contracts/DecentralistProxyFactory.sol",
  "abi": [
    {
      "inputs": [
        {
          "internalType": "address",
          "name": "_implementation",
          "type": "address"
        },
        {
          "internalType": "address",
          "name": "_finder",
          "type": "address"
        },
        {
          "internalType": "uint64",
          "name": "_minimumLiveness",
          "type": "uint64"
        }
      ],
      "stateMutability": "nonpayable",
      "type": "constructor"
    },
    {
      "anonymous": false,
      "inputs": [
        {
          "indexed": false,
          "internalType": "address",
          "name": "_clone",
          "type": "address"
        }
      ],
      "name": "NewClone",
      "type": "event"
    },
    {
      "inputs": [
        {
          "internalType": "uint256",
          "name": "",
          "type": "uint256"
        }
      ],
      "name": "allClones",
      "outputs": [
        {
          "internalType": "address",
          "name": "",
          "type": "address"
        }
      ],
      "stateMutability": "view",
      "type": "function"
    },
    {
      "inputs": [],
      "name": "collateralWhitelist",
      "outputs": [
        {
          "internalType": "contract AddressWhitelistInterface",
          "name": "",
          "type": "address"
        }
      ],
      "stateMutability": "view",
      "type": "function"
    },
    {
      "inputs": [
        {
          "internalType": "bytes",
          "name": "_listCriteria",
          "type": "bytes"
        },
        {
          "internalType": "string",
          "name": "_title",
          "type": "string"
        },
        {
          "internalType": "address",
          "name": "_token",
          "type": "address"
        },
        {
          "internalType": "uint256",
          "name": "_bondAmount",
          "type": "uint256"
        },
        {
          "internalType": "uint256",
          "name": "_additionReward",
          "type": "uint256"
        },
        {
          "internalType": "uint256",
          "name": "_removalReward",
          "type": "uint256"
        },
        {
          "internalType": "uint64",
          "name": "_liveness",
          "type": "uint64"
        },
        {
          "internalType": "address",
          "name": "_owner",
          "type": "address"
        }
      ],
      "name": "createNewDecentralist",
      "outputs": [
        {
          "internalType": "address",
          "name": "instance",
          "type": "address"
        }
      ],
      "stateMutability": "nonpayable",
      "type": "function"
    },
    {
      "inputs": [],
      "name": "finder",
      "outputs": [
        {
          "internalType": "contract FinderInterface",
          "name": "",
          "type": "address"
        }
      ],
      "stateMutability": "view",
      "type": "function"
    },
    {
      "inputs": [],
      "name": "getAllClones",
      "outputs": [
        {
          "internalType": "address[]",
          "name": "",
          "type": "address[]"
        }
      ],
      "stateMutability": "view",
      "type": "function"
    },
    {
      "inputs": [],
      "name": "implementationContract",
      "outputs": [
        {
          "internalType": "address",
          "name": "",
          "type": "address"
        }
      ],
      "stateMutability": "view",
      "type": "function"
    },
    {
      "inputs": [],
      "name": "minimumLiveness",
      "outputs": [
        {
          "internalType": "uint64",
          "name": "",
          "type": "uint64"
        }
      ],
      "stateMutability": "view",
      "type": "function"
    },
    {
      "inputs": [],
      "name": "syncWhitelist",
      "outputs": [],
      "stateMutability": "nonpayable",
      "type": "function"
    }
  ],
  "bytecode": "0x608060405234801561001057600080fd5b50604051610c9e380380610c9e83398101604081905261002f91610223565b6001600160a01b03821661009a5760405162461bcd60e51b815260206004820152602760248201527f696d706c656d656e746174696f6e20616464726573732063616e206e6f7420626044820152666520656d70747960c81b60648201526084015b60405180910390fd5b6001600160a01b0382166100f05760405162461bcd60e51b815260206004820152601f60248201527f66696e64657220616464726573732063616e206e6f7420626520656d707479006044820152606401610091565b60008054600280546001600160a01b0319166001600160a01b03868116919091179091556001600160e01b031990911668010000000000000000918616919091026001600160401b031916176001600160401b038316179055610151610159565b505050610299565b6002546040516302abf57960e61b81527f436f6c6c61746572616c57686974656c6973740000000000000000000000000060048201526001600160a01b039091169063aafd5e4090602401602060405180830381865afa1580156101c1573d6000803e3d6000fd5b505050506040513d601f19601f820116820180604052508101906101e59190610277565b600380546001600160a01b0319166001600160a01b0392909216919091179055565b80516001600160a01b038116811461021e57600080fd5b919050565b60008060006060848603121561023857600080fd5b61024184610207565b925061024f60208501610207565b60408501519092506001600160401b038116811461026c57600080fd5b809150509250925092565b60006020828403121561028957600080fd5b61029282610207565b9392505050565b6109f6806102a86000396000f3fe608060405234801561001057600080fd5b50600436106100885760003560e01c806399e7d0561161005b57806399e7d0561461010d578063b9a3c84c1461012c578063d7741cad1461013f578063e4ee614a1461015257600080fd5b80632177a32b1461008d57806327831ee0146100975780633ca9482d146100b557806391152f10146100e0575b600080fd5b610095610165565b005b61009f610239565b6040516100ac919061065b565b60405180910390f35b6100c86100c33660046107af565b61029b565b6040516001600160a01b0390911681526020016100ac565b6000546100f49067ffffffffffffffff1681565b60405167ffffffffffffffff90911681526020016100ac565b6000546100c8906801000000000000000090046001600160a01b031681565b6002546100c8906001600160a01b031681565b6100c861014d366004610879565b610590565b6003546100c8906001600160a01b031681565b6002546040517faafd5e400000000000000000000000000000000000000000000000000000000081527f436f6c6c61746572616c57686974656c6973740000000000000000000000000060048201526001600160a01b039091169063aafd5e4090602401602060405180830381865afa1580156101e6573d6000803e3d6000fd5b505050506040513d601f19601f8201168201806040525081019061020a9190610892565b6003805473ffffffffffffffffffffffffffffffffffffffff19166001600160a01b0392909216919091179055565b6060600180548060200260200160405190810160405280929190818152602001828054801561029157602002820191906000526020600020905b81546001600160a01b03168152600190910190602001808311610273575b5050505050905090565b6003546040517f3a3ab6720000000000000000000000000000000000000000000000000000000081526001600160a01b0388811660048301526000921690633a3ab67290602401602060405180830381865afa1580156102ff573d6000803e3d6000fd5b505050506040513d601f19601f8201168201806040525081019061032391906108af565b61039a5760405162461bcd60e51b815260206004820152602a60248201527f746f6b656e206973206e6f74206f6e20554d41277320636f6c6c61746572616c60448201527f2077686974656c6973740000000000000000000000000000000000000000000060648201526084015b60405180910390fd5b6000546103bb906801000000000000000090046001600160a01b03166105ba565b6002546000805460405193945090926001600160a01b0380861693610400939116918e918e918e918e918e918e918e9167ffffffffffffffff16908e90602401610921565b60408051601f198184030181529181526020820180517bffffffffffffffffffffffffffffffffffffffffffffffffffffffff167f74881462000000000000000000000000000000000000000000000000000000001790525161046391906109a4565b6000604051808303816000865af19150503d80600081146104a0576040519150601f19603f3d011682016040523d82523d6000602084013e6104a5565b606091505b50509050806104f65760405162461bcd60e51b815260206004820152601f60248201527f6661696c656420746f206372656174652061206e657720696e7374616e6365006044820152606401610391565b6001805480820182556000919091527fb10e2d527612073b26eecdfd717e6a320cf44b4afac2b0732d9fcbe2b7fa0cf601805473ffffffffffffffffffffffffffffffffffffffff19166001600160a01b0384169081179091556040519081527fcc1e9c890bc4f4943c457abb8d17f97703b9f7144e1f4a69e50c6e4988ef38b79060200160405180910390a15098975050505050505050565b600181815481106105a057600080fd5b6000918252602090912001546001600160a01b0316905081565b6000763d602d80600a3d3981f3363d3d373d3d3d363d730000008260601b60e81c176000526e5af43d82803e903d91602b57fd5bf38260781b17602052603760096000f090506001600160a01b0381166106565760405162461bcd60e51b815260206004820152601660248201527f455243313136373a20637265617465206661696c6564000000000000000000006044820152606401610391565b919050565b6020808252825182820181905260009190848201906040850190845b8181101561069c5783516001600160a01b031683529284019291840191600101610677565b50909695505050505050565b7f4e487b7100000000000000000000000000000000000000000000000000000000600052604160045260246000fd5b600067ffffffffffffffff808411156106f2576106f26106a8565b604051601f8501601f19908116603f0116810190828211818310171561071a5761071a6106a8565b8160405280935085815286868601111561073357600080fd5b858560208301376000602087830101525050509392505050565b600082601f83011261075e57600080fd5b61076d838335602085016106d7565b9392505050565b6001600160a01b038116811461078957600080fd5b50565b803561065681610774565b803567ffffffffffffffff8116811461065657600080fd5b600080600080600080600080610100898b0312156107cc57600080fd5b883567ffffffffffffffff808211156107e457600080fd5b818b0191508b601f8301126107f857600080fd5b6108078c8335602085016106d7565b995060208b013591508082111561081d57600080fd5b5061082a8b828c0161074d565b97505061083960408a0161078c565b9550606089013594506080890135935060a0890135925061085c60c08a01610797565b915061086a60e08a0161078c565b90509295985092959890939650565b60006020828403121561088b57600080fd5b5035919050565b6000602082840312156108a457600080fd5b815161076d81610774565b6000602082840312156108c157600080fd5b8151801515811461076d57600080fd5b60005b838110156108ec5781810151838201526020016108d4565b50506000910152565b6000815180845261090d8160208601602086016108d1565b601f01601f19169290920160200192915050565b60006101406001600160a01b03808e1684528160208501526109458285018e6108f5565b91508382036040850152610959828d6108f5565b9a811660608501526080840199909952505060a081019590955260c085019390935267ffffffffffffffff91821660e085015216610100830152909116610120909101529392505050565b600082516109b68184602087016108d1565b919091019291505056fea2646970667358221220e108e69c5b778bd39a55ac800ddd280c9a9d931185fe8e7c2e7b02592ad21e4264736f6c63430008110033",
  "linkReferences": {},
  "deployedLinkReferences": {}
}