{
  "_format": "hh-sol-artifact-1",
  "contractName": "DecentralistProxyFactory",
  "sourceName": "contracts/DecentralistProxyFactory.sol",
  "abi": [
    {
      "inputs": [
        {
          "internalType": "address",
          "name": "_implementation",
          "type": "address"
        }
      ],
      "stateMutability": "nonpayable",
      "type": "constructor"
    },
    {
      "anonymous": false,
      "inputs": [
        {
          "indexed": false,
          "internalType": "address",
          "name": "_clone",
          "type": "address"
        }
      ],
      "name": "NewClone",
      "type": "event"
    },
    {
      "inputs": [
        {
          "internalType": "uint256",
          "name": "",
          "type": "uint256"
        }
      ],
      "name": "allClones",
      "outputs": [
        {
          "internalType": "address",
          "name": "",
          "type": "address"
        }
      ],
      "stateMutability": "view",
      "type": "function"
    },
    {
      "inputs": [
        {
          "internalType": "bytes",
          "name": "_fixedAncillaryData",
          "type": "bytes"
        },
        {
          "internalType": "string",
          "name": "_title",
          "type": "string"
        },
        {
          "internalType": "uint256",
          "name": "_livenessPeriod",
          "type": "uint256"
        },
        {
          "internalType": "uint256",
          "name": "_bondAmount",
          "type": "uint256"
        },
        {
          "internalType": "uint256",
          "name": "_addReward",
          "type": "uint256"
        },
        {
          "internalType": "uint256",
          "name": "_removeReward",
          "type": "uint256"
        }
      ],
      "name": "createNewDecentralist",
      "outputs": [
        {
          "internalType": "address",
          "name": "instance",
          "type": "address"
        }
      ],
      "stateMutability": "nonpayable",
      "type": "function"
    },
    {
      "inputs": [],
      "name": "getAllClones",
      "outputs": [
        {
          "internalType": "address[]",
          "name": "",
          "type": "address[]"
        }
      ],
      "stateMutability": "view",
      "type": "function"
    },
    {
      "inputs": [],
      "name": "implementationContract",
      "outputs": [
        {
          "internalType": "address",
          "name": "",
          "type": "address"
        }
      ],
      "stateMutability": "view",
      "type": "function"
    }
  ],
  "bytecode": "0x608060405234801561001057600080fd5b50604051610c45380380610c45833981810160405281019061003291906100db565b806000806101000a81548173ffffffffffffffffffffffffffffffffffffffff021916908373ffffffffffffffffffffffffffffffffffffffff16021790555050610108565b600080fd5b600073ffffffffffffffffffffffffffffffffffffffff82169050919050565b60006100a88261007d565b9050919050565b6100b88161009d565b81146100c357600080fd5b50565b6000815190506100d5816100af565b92915050565b6000602082840312156100f1576100f0610078565b5b60006100ff848285016100c6565b91505092915050565b610b2e806101176000396000f3fe608060405234801561001057600080fd5b506004361061004c5760003560e01c806327831ee0146100515780639704bd8a1461006f57806399e7d0561461009f578063d7741cad146100bd575b600080fd5b6100596100ed565b6040516100669190610578565b60405180910390f35b610089600480360381019061008491906107cb565b61017b565b604051610096919061089f565b60405180910390f35b6100a7610351565b6040516100b4919061089f565b60405180910390f35b6100d760048036038101906100d291906108ba565b610375565b6040516100e4919061089f565b60405180910390f35b6060600180548060200260200160405190810160405280929190818152602001828054801561017157602002820191906000526020600020905b8160009054906101000a900473ffffffffffffffffffffffffffffffffffffffff1673ffffffffffffffffffffffffffffffffffffffff1681526020019060010190808311610127575b5050505050905090565b60006101a660008054906101000a900473ffffffffffffffffffffffffffffffffffffffff166103b4565b905060008173ffffffffffffffffffffffffffffffffffffffff168888888888886040516024016101dc969594939291906109ca565b6040516020818303038152906040527f9fc46a00000000000000000000000000000000000000000000000000000000007bffffffffffffffffffffffffffffffffffffffffffffffffffffffff19166020820180517bffffffffffffffffffffffffffffffffffffffffffffffffffffffff83818316178352505050506040516102669190610a75565b6000604051808303816000865af19150503d80600081146102a3576040519150601f19603f3d011682016040523d82523d6000602084013e6102a8565b606091505b505090506001829080600181540180825580915050600190039060005260206000200160009091909190916101000a81548173ffffffffffffffffffffffffffffffffffffffff021916908373ffffffffffffffffffffffffffffffffffffffff1602179055507fcc1e9c890bc4f4943c457abb8d17f97703b9f7144e1f4a69e50c6e4988ef38b78260405161033e919061089f565b60405180910390a1509695505050505050565b60008054906101000a900473ffffffffffffffffffffffffffffffffffffffff1681565b6001818154811061038557600080fd5b906000526020600020016000915054906101000a900473ffffffffffffffffffffffffffffffffffffffff1681565b60006040517f3d602d80600a3d3981f3363d3d373d3d3d363d7300000000000000000000000081528260601b60148201527f5af43d82803e903d91602b57fd5bf3000000000000000000000000000000000060288201526037816000f0915050600073ffffffffffffffffffffffffffffffffffffffff168173ffffffffffffffffffffffffffffffffffffffff1603610483576040517f08c379a000000000000000000000000000000000000000000000000000000000815260040161047a90610ad8565b60405180910390fd5b919050565b600081519050919050565b600082825260208201905092915050565b6000819050602082019050919050565b600073ffffffffffffffffffffffffffffffffffffffff82169050919050565b60006104df826104b4565b9050919050565b6104ef816104d4565b82525050565b600061050183836104e6565b60208301905092915050565b6000602082019050919050565b600061052582610488565b61052f8185610493565b935061053a836104a4565b8060005b8381101561056b57815161055288826104f5565b975061055d8361050d565b92505060018101905061053e565b5085935050505092915050565b60006020820190508181036000830152610592818461051a565b905092915050565b6000604051905090565b600080fd5b600080fd5b600080fd5b600080fd5b6000601f19601f8301169050919050565b7f4e487b7100000000000000000000000000000000000000000000000000000000600052604160045260246000fd5b610601826105b8565b810181811067ffffffffffffffff821117156106205761061f6105c9565b5b80604052505050565b600061063361059a565b905061063f82826105f8565b919050565b600067ffffffffffffffff82111561065f5761065e6105c9565b5b610668826105b8565b9050602081019050919050565b82818337600083830152505050565b600061069761069284610644565b610629565b9050828152602081018484840111156106b3576106b26105b3565b5b6106be848285610675565b509392505050565b600082601f8301126106db576106da6105ae565b5b81356106eb848260208601610684565b91505092915050565b600067ffffffffffffffff82111561070f5761070e6105c9565b5b610718826105b8565b9050602081019050919050565b6000610738610733846106f4565b610629565b905082815260208101848484011115610754576107536105b3565b5b61075f848285610675565b509392505050565b600082601f83011261077c5761077b6105ae565b5b813561078c848260208601610725565b91505092915050565b6000819050919050565b6107a881610795565b81146107b357600080fd5b50565b6000813590506107c58161079f565b92915050565b60008060008060008060c087890312156107e8576107e76105a4565b5b600087013567ffffffffffffffff811115610806576108056105a9565b5b61081289828a016106c6565b965050602087013567ffffffffffffffff811115610833576108326105a9565b5b61083f89828a01610767565b955050604061085089828a016107b6565b945050606061086189828a016107b6565b935050608061087289828a016107b6565b92505060a061088389828a016107b6565b9150509295509295509295565b610899816104d4565b82525050565b60006020820190506108b46000830184610890565b92915050565b6000602082840312156108d0576108cf6105a4565b5b60006108de848285016107b6565b91505092915050565b600081519050919050565b600082825260208201905092915050565b60005b83811015610921578082015181840152602081019050610906565b60008484015250505050565b6000610938826108e7565b61094281856108f2565b9350610952818560208601610903565b61095b816105b8565b840191505092915050565b600081519050919050565b600082825260208201905092915050565b600061098d82610966565b6109978185610971565b93506109a7818560208601610903565b6109b0816105b8565b840191505092915050565b6109c481610795565b82525050565b600060c08201905081810360008301526109e4818961092d565b905081810360208301526109f88188610982565b9050610a0760408301876109bb565b610a1460608301866109bb565b610a2160808301856109bb565b610a2e60a08301846109bb565b979650505050505050565b600081905092915050565b6000610a4f826108e7565b610a598185610a39565b9350610a69818560208601610903565b80840191505092915050565b6000610a818284610a44565b915081905092915050565b7f455243313136373a20637265617465206661696c656400000000000000000000600082015250565b6000610ac2601683610971565b9150610acd82610a8c565b602082019050919050565b60006020820190508181036000830152610af181610ab5565b905091905056fea26469706673582212203c1dc0fb554a40cac6234470775e8f380cb29dab6027303c213475bc5930556664736f6c63430008110033",
  "linkReferences": {},
  "deployedLinkReferences": {}
}