{
  "_format": "hh-sol-artifact-1",
  "contractName": "DecentralistProxyFactory",
  "sourceName": "contracts/DecentralistProxyFactory.sol",
  "abi": [
    {
      "inputs": [
        {
          "internalType": "address",
          "name": "_implementation",
          "type": "address"
        },
        {
          "internalType": "address",
          "name": "_finder",
          "type": "address"
        }
      ],
      "stateMutability": "nonpayable",
      "type": "constructor"
    },
    {
      "anonymous": false,
      "inputs": [
        {
          "indexed": false,
          "internalType": "address",
          "name": "_clone",
          "type": "address"
        }
      ],
      "name": "NewClone",
      "type": "event"
    },
    {
      "inputs": [
        {
          "internalType": "uint256",
          "name": "",
          "type": "uint256"
        }
      ],
      "name": "allClones",
      "outputs": [
        {
          "internalType": "address",
          "name": "",
          "type": "address"
        }
      ],
      "stateMutability": "view",
      "type": "function"
    },
    {
      "inputs": [],
      "name": "collateralWhitelist",
      "outputs": [
        {
          "internalType": "contract AddressWhitelistInterface",
          "name": "",
          "type": "address"
        }
      ],
      "stateMutability": "view",
      "type": "function"
    },
    {
      "inputs": [
        {
          "internalType": "bytes",
          "name": "_listCriteria",
          "type": "bytes"
        },
        {
          "internalType": "string",
          "name": "_title",
          "type": "string"
        },
        {
          "internalType": "address",
          "name": "_token",
          "type": "address"
        },
        {
          "internalType": "uint256",
          "name": "_bondAmount",
          "type": "uint256"
        },
        {
          "internalType": "uint256",
          "name": "_addReward",
          "type": "uint256"
        },
        {
          "internalType": "uint256",
          "name": "_removeReward",
          "type": "uint256"
        },
        {
          "internalType": "uint64",
          "name": "_liveness",
          "type": "uint64"
        },
        {
          "internalType": "address",
          "name": "_owner",
          "type": "address"
        }
      ],
      "name": "createNewDecentralist",
      "outputs": [
        {
          "internalType": "address",
          "name": "instance",
          "type": "address"
        }
      ],
      "stateMutability": "nonpayable",
      "type": "function"
    },
    {
      "inputs": [],
      "name": "finder",
      "outputs": [
        {
          "internalType": "contract FinderInterface",
          "name": "",
          "type": "address"
        }
      ],
      "stateMutability": "view",
      "type": "function"
    },
    {
      "inputs": [],
      "name": "getAllClones",
      "outputs": [
        {
          "internalType": "address[]",
          "name": "",
          "type": "address[]"
        }
      ],
      "stateMutability": "view",
      "type": "function"
    },
    {
      "inputs": [],
      "name": "implementationContract",
      "outputs": [
        {
          "internalType": "address",
          "name": "",
          "type": "address"
        }
      ],
      "stateMutability": "view",
      "type": "function"
    },
    {
      "inputs": [],
      "name": "syncWhitelist",
      "outputs": [],
      "stateMutability": "nonpayable",
      "type": "function"
    }
  ],
  "bytecode": "0x60806040523480156200001157600080fd5b506040516200169038038062001690833981810160405281019062000037919062000321565b600073ffffffffffffffffffffffffffffffffffffffff168173ffffffffffffffffffffffffffffffffffffffff1603620000a9576040517f08c379a0000000000000000000000000000000000000000000000000000000008152600401620000a090620003ef565b60405180910390fd5b600073ffffffffffffffffffffffffffffffffffffffff168173ffffffffffffffffffffffffffffffffffffffff16036200011b576040517f08c379a0000000000000000000000000000000000000000000000000000000008152600401620001129062000461565b60405180910390fd5b816000806101000a81548173ffffffffffffffffffffffffffffffffffffffff021916908373ffffffffffffffffffffffffffffffffffffffff16021790555080600260006101000a81548173ffffffffffffffffffffffffffffffffffffffff021916908373ffffffffffffffffffffffffffffffffffffffff160217905550620001ac620001b460201b60201c565b5050620004ed565b600260009054906101000a900473ffffffffffffffffffffffffffffffffffffffff1673ffffffffffffffffffffffffffffffffffffffff1663aafd5e407f436f6c6c61746572616c57686974656c697374000000000000000000000000006040518263ffffffff1660e01b81526004016200023191906200049e565b602060405180830381865afa1580156200024f573d6000803e3d6000fd5b505050506040513d601f19601f82011682018060405250810190620002759190620004bb565b600360006101000a81548173ffffffffffffffffffffffffffffffffffffffff021916908373ffffffffffffffffffffffffffffffffffffffff160217905550565b600080fd5b600073ffffffffffffffffffffffffffffffffffffffff82169050919050565b6000620002e982620002bc565b9050919050565b620002fb81620002dc565b81146200030757600080fd5b50565b6000815190506200031b81620002f0565b92915050565b600080604083850312156200033b576200033a620002b7565b5b60006200034b858286016200030a565b92505060206200035e858286016200030a565b9150509250929050565b600082825260208201905092915050565b7f696d706c656d656e746174696f6e20616464726573732063616e206e6f74206260008201527f6520656d70747900000000000000000000000000000000000000000000000000602082015250565b6000620003d760278362000368565b9150620003e48262000379565b604082019050919050565b600060208201905081810360008301526200040a81620003c8565b9050919050565b7f66696e64657220616464726573732063616e206e6f7420626520656d70747900600082015250565b600062000449601f8362000368565b9150620004568262000411565b602082019050919050565b600060208201905081810360008301526200047c816200043a565b9050919050565b6000819050919050565b620004988162000483565b82525050565b6000602082019050620004b560008301846200048d565b92915050565b600060208284031215620004d457620004d3620002b7565b5b6000620004e4848285016200030a565b91505092915050565b61119380620004fd6000396000f3fe608060405234801561001057600080fd5b506004361061007d5760003560e01c806399e7d0561161005b57806399e7d056146100da578063b9a3c84c146100f8578063d7741cad14610116578063e4ee614a146101465761007d565b80632177a32b1461008257806327831ee01461008c5780633ca9482d146100aa575b600080fd5b61008a610164565b005b610094610262565b6040516100a1919061087e565b60405180910390f35b6100c460048036038101906100bf9190610b3d565b6102f0565b6040516100d19190610c3a565b60405180910390f35b6100e261060b565b6040516100ef9190610c3a565b60405180910390f35b61010061062f565b60405161010d9190610cb4565b60405180910390f35b610130600480360381019061012b9190610ccf565b610655565b60405161013d9190610c3a565b60405180910390f35b61014e610694565b60405161015b9190610d1d565b60405180910390f35b600260009054906101000a900473ffffffffffffffffffffffffffffffffffffffff1673ffffffffffffffffffffffffffffffffffffffff1663aafd5e407f436f6c6c61746572616c57686974656c697374000000000000000000000000006040518263ffffffff1660e01b81526004016101df9190610d51565b602060405180830381865afa1580156101fc573d6000803e3d6000fd5b505050506040513d601f19601f820116820180604052508101906102209190610d81565b600360006101000a81548173ffffffffffffffffffffffffffffffffffffffff021916908373ffffffffffffffffffffffffffffffffffffffff160217905550565b606060018054806020026020016040519081016040528092919081815260200182805480156102e657602002820191906000526020600020905b8160009054906101000a900473ffffffffffffffffffffffffffffffffffffffff1673ffffffffffffffffffffffffffffffffffffffff168152602001906001019080831161029c575b5050505050905090565b6000600360009054906101000a900473ffffffffffffffffffffffffffffffffffffffff1673ffffffffffffffffffffffffffffffffffffffff16633a3ab672886040518263ffffffff1660e01b815260040161034d9190610c3a565b602060405180830381865afa15801561036a573d6000803e3d6000fd5b505050506040513d601f19601f8201168201806040525081019061038e9190610de6565b6103cd576040517f08c379a00000000000000000000000000000000000000000000000000000000081526004016103c490610e96565b60405180910390fd5b6103f660008054906101000a900473ffffffffffffffffffffffffffffffffffffffff166106ba565b905060008173ffffffffffffffffffffffffffffffffffffffff16600260009054906101000a900473ffffffffffffffffffffffffffffffffffffffff168b8b8b8b8b8b8b8b60405160240161045499989796959493929190610f97565b6040516020818303038152906040527f338909a7000000000000000000000000000000000000000000000000000000007bffffffffffffffffffffffffffffffffffffffffffffffffffffffff19166020820180517bffffffffffffffffffffffffffffffffffffffffffffffffffffffff83818316178352505050506040516104de919061106e565b6000604051808303816000865af19150503d806000811461051b576040519150601f19603f3d011682016040523d82523d6000602084013e610520565b606091505b5050905080610564576040517f08c379a000000000000000000000000000000000000000000000000000000000815260040161055b906110d1565b60405180910390fd5b6001829080600181540180825580915050600190039060005260206000200160009091909190916101000a81548173ffffffffffffffffffffffffffffffffffffffff021916908373ffffffffffffffffffffffffffffffffffffffff1602179055507fcc1e9c890bc4f4943c457abb8d17f97703b9f7144e1f4a69e50c6e4988ef38b7826040516105f69190610c3a565b60405180910390a15098975050505050505050565b60008054906101000a900473ffffffffffffffffffffffffffffffffffffffff1681565b600260009054906101000a900473ffffffffffffffffffffffffffffffffffffffff1681565b6001818154811061066557600080fd5b906000526020600020016000915054906101000a900473ffffffffffffffffffffffffffffffffffffffff1681565b600360009054906101000a900473ffffffffffffffffffffffffffffffffffffffff1681565b60006040517f3d602d80600a3d3981f3363d3d373d3d3d363d7300000000000000000000000081528260601b60148201527f5af43d82803e903d91602b57fd5bf3000000000000000000000000000000000060288201526037816000f0915050600073ffffffffffffffffffffffffffffffffffffffff168173ffffffffffffffffffffffffffffffffffffffff1603610789576040517f08c379a00000000000000000000000000000000000000000000000000000000081526004016107809061113d565b60405180910390fd5b919050565b600081519050919050565b600082825260208201905092915050565b6000819050602082019050919050565b600073ffffffffffffffffffffffffffffffffffffffff82169050919050565b60006107e5826107ba565b9050919050565b6107f5816107da565b82525050565b600061080783836107ec565b60208301905092915050565b6000602082019050919050565b600061082b8261078e565b6108358185610799565b9350610840836107aa565b8060005b8381101561087157815161085888826107fb565b975061086383610813565b925050600181019050610844565b5085935050505092915050565b600060208201905081810360008301526108988184610820565b905092915050565b6000604051905090565b600080fd5b600080fd5b600080fd5b600080fd5b6000601f19601f8301169050919050565b7f4e487b7100000000000000000000000000000000000000000000000000000000600052604160045260246000fd5b610907826108be565b810181811067ffffffffffffffff82111715610926576109256108cf565b5b80604052505050565b60006109396108a0565b905061094582826108fe565b919050565b600067ffffffffffffffff821115610965576109646108cf565b5b61096e826108be565b9050602081019050919050565b82818337600083830152505050565b600061099d6109988461094a565b61092f565b9050828152602081018484840111156109b9576109b86108b9565b5b6109c484828561097b565b509392505050565b600082601f8301126109e1576109e06108b4565b5b81356109f184826020860161098a565b91505092915050565b600067ffffffffffffffff821115610a1557610a146108cf565b5b610a1e826108be565b9050602081019050919050565b6000610a3e610a39846109fa565b61092f565b905082815260208101848484011115610a5a57610a596108b9565b5b610a6584828561097b565b509392505050565b600082601f830112610a8257610a816108b4565b5b8135610a92848260208601610a2b565b91505092915050565b610aa4816107da565b8114610aaf57600080fd5b50565b600081359050610ac181610a9b565b92915050565b6000819050919050565b610ada81610ac7565b8114610ae557600080fd5b50565b600081359050610af781610ad1565b92915050565b600067ffffffffffffffff82169050919050565b610b1a81610afd565b8114610b2557600080fd5b50565b600081359050610b3781610b11565b92915050565b600080600080600080600080610100898b031215610b5e57610b5d6108aa565b5b600089013567ffffffffffffffff811115610b7c57610b7b6108af565b5b610b888b828c016109cc565b985050602089013567ffffffffffffffff811115610ba957610ba86108af565b5b610bb58b828c01610a6d565b9750506040610bc68b828c01610ab2565b9650506060610bd78b828c01610ae8565b9550506080610be88b828c01610ae8565b94505060a0610bf98b828c01610ae8565b93505060c0610c0a8b828c01610b28565b92505060e0610c1b8b828c01610ab2565b9150509295985092959890939650565b610c34816107da565b82525050565b6000602082019050610c4f6000830184610c2b565b92915050565b6000819050919050565b6000610c7a610c75610c70846107ba565b610c55565b6107ba565b9050919050565b6000610c8c82610c5f565b9050919050565b6000610c9e82610c81565b9050919050565b610cae81610c93565b82525050565b6000602082019050610cc96000830184610ca5565b92915050565b600060208284031215610ce557610ce46108aa565b5b6000610cf384828501610ae8565b91505092915050565b6000610d0782610c81565b9050919050565b610d1781610cfc565b82525050565b6000602082019050610d326000830184610d0e565b92915050565b6000819050919050565b610d4b81610d38565b82525050565b6000602082019050610d666000830184610d42565b92915050565b600081519050610d7b81610a9b565b92915050565b600060208284031215610d9757610d966108aa565b5b6000610da584828501610d6c565b91505092915050565b60008115159050919050565b610dc381610dae565b8114610dce57600080fd5b50565b600081519050610de081610dba565b92915050565b600060208284031215610dfc57610dfb6108aa565b5b6000610e0a84828501610dd1565b91505092915050565b600082825260208201905092915050565b7f746f6b656e206973206e6f74206f6e20554d41277320636f6c6c61746572616c60008201527f2077686974656c69737400000000000000000000000000000000000000000000602082015250565b6000610e80602a83610e13565b9150610e8b82610e24565b604082019050919050565b60006020820190508181036000830152610eaf81610e73565b9050919050565b600081519050919050565b600082825260208201905092915050565b60005b83811015610ef0578082015181840152602081019050610ed5565b60008484015250505050565b6000610f0782610eb6565b610f118185610ec1565b9350610f21818560208601610ed2565b610f2a816108be565b840191505092915050565b600081519050919050565b6000610f4b82610f35565b610f558185610e13565b9350610f65818560208601610ed2565b610f6e816108be565b840191505092915050565b610f8281610ac7565b82525050565b610f9181610afd565b82525050565b600061012082019050610fad600083018c610c2b565b8181036020830152610fbf818b610efc565b90508181036040830152610fd3818a610f40565b9050610fe26060830189610c2b565b610fef6080830188610f79565b610ffc60a0830187610f79565b61100960c0830186610f79565b61101660e0830185610f88565b611024610100830184610c2b565b9a9950505050505050505050565b600081905092915050565b600061104882610eb6565b6110528185611032565b9350611062818560208601610ed2565b80840191505092915050565b600061107a828461103d565b915081905092915050565b7f6661696c656420746f206372656174652061206e657720696e7374616e636500600082015250565b60006110bb601f83610e13565b91506110c682611085565b602082019050919050565b600060208201905081810360008301526110ea816110ae565b9050919050565b7f455243313136373a20637265617465206661696c656400000000000000000000600082015250565b6000611127601683610e13565b9150611132826110f1565b602082019050919050565b600060208201905081810360008301526111568161111a565b905091905056fea264697066735822122031f88801aad5233f24546e7706ecf6d2bce54c39dfc8b185285e140d0160afa464736f6c63430008110033",
  "linkReferences": {},
  "deployedLinkReferences": {}
}