{
  "_format": "hh-sol-artifact-1",
  "contractName": "OptimisticOracleConstraints",
  "sourceName": "@uma/core/contracts/oracle/implementation/Constants.sol",
  "abi": [
    {
      "inputs": [],
      "name": "ancillaryBytesLimit",
      "outputs": [
        {
          "internalType": "uint256",
          "name": "",
          "type": "uint256"
        }
      ],
      "stateMutability": "view",
      "type": "function"
    }
  ],
  "bytecode": "0x6088610038600b82828239805160001a607314602b57634e487b7160e01b600052600060045260246000fd5b30600052607381538281f3fe730000000000000000000000000000000000000000301460806040526004361060335760003560e01c8063c371dda7146038575b600080fd5b604061200081565b60405190815260200160405180910390f3fea2646970667358221220ba8466043de59826f7abd2791e34be49ec7d521a9c9d999baeb6c2afae1ec0f664736f6c63430008110033",
  "linkReferences": {},
  "deployedLinkReferences": {}
}