{
  "_format": "hh-sol-artifact-1",
  "contractName": "OracleInterfaces",
  "sourceName": "@uma/core/contracts/oracle/implementation/Constants.sol",
  "abi": [
    {
      "inputs": [],
      "name": "Bridge",
      "outputs": [
        {
          "internalType": "bytes32",
          "name": "",
          "type": "bytes32"
        }
      ],
      "stateMutability": "view",
      "type": "function"
    },
    {
      "inputs": [],
      "name": "ChildMessenger",
      "outputs": [
        {
          "internalType": "bytes32",
          "name": "",
          "type": "bytes32"
        }
      ],
      "stateMutability": "view",
      "type": "function"
    },
    {
      "inputs": [],
      "name": "CollateralWhitelist",
      "outputs": [
        {
          "internalType": "bytes32",
          "name": "",
          "type": "bytes32"
        }
      ],
      "stateMutability": "view",
      "type": "function"
    },
    {
      "inputs": [],
      "name": "FinancialContractsAdmin",
      "outputs": [
        {
          "internalType": "bytes32",
          "name": "",
          "type": "bytes32"
        }
      ],
      "stateMutability": "view",
      "type": "function"
    },
    {
      "inputs": [],
      "name": "GenericHandler",
      "outputs": [
        {
          "internalType": "bytes32",
          "name": "",
          "type": "bytes32"
        }
      ],
      "stateMutability": "view",
      "type": "function"
    },
    {
      "inputs": [],
      "name": "IdentifierWhitelist",
      "outputs": [
        {
          "internalType": "bytes32",
          "name": "",
          "type": "bytes32"
        }
      ],
      "stateMutability": "view",
      "type": "function"
    },
    {
      "inputs": [],
      "name": "OptimisticOracle",
      "outputs": [
        {
          "internalType": "bytes32",
          "name": "",
          "type": "bytes32"
        }
      ],
      "stateMutability": "view",
      "type": "function"
    },
    {
      "inputs": [],
      "name": "OptimisticOracleV2",
      "outputs": [
        {
          "internalType": "bytes32",
          "name": "",
          "type": "bytes32"
        }
      ],
      "stateMutability": "view",
      "type": "function"
    },
    {
      "inputs": [],
      "name": "Oracle",
      "outputs": [
        {
          "internalType": "bytes32",
          "name": "",
          "type": "bytes32"
        }
      ],
      "stateMutability": "view",
      "type": "function"
    },
    {
      "inputs": [],
      "name": "OracleHub",
      "outputs": [
        {
          "internalType": "bytes32",
          "name": "",
          "type": "bytes32"
        }
      ],
      "stateMutability": "view",
      "type": "function"
    },
    {
      "inputs": [],
      "name": "OracleSpoke",
      "outputs": [
        {
          "internalType": "bytes32",
          "name": "",
          "type": "bytes32"
        }
      ],
      "stateMutability": "view",
      "type": "function"
    },
    {
      "inputs": [],
      "name": "Registry",
      "outputs": [
        {
          "internalType": "bytes32",
          "name": "",
          "type": "bytes32"
        }
      ],
      "stateMutability": "view",
      "type": "function"
    },
    {
      "inputs": [],
      "name": "SkinnyOptimisticOracle",
      "outputs": [
        {
          "internalType": "bytes32",
          "name": "",
          "type": "bytes32"
        }
      ],
      "stateMutability": "view",
      "type": "function"
    },
    {
      "inputs": [],
      "name": "Store",
      "outputs": [
        {
          "internalType": "bytes32",
          "name": "",
          "type": "bytes32"
        }
      ],
      "stateMutability": "view",
      "type": "function"
    }
  ],
  "bytecode": "0x6104ff610053600b82828239805160001a607314610046577f4e487b7100000000000000000000000000000000000000000000000000000000600052600060045260246000fd5b30600052607381538281f3fe73000000000000000000000000000000000000000030146080604052600436106100f45760003560e01c80634f4a180b116100965780637608ea2f116100705780637608ea2f146102255780637db9743b146102435780638adca47f14610261578063f24a534e1461027f576100f4565b80634f4a180b146101cb578063598dd097146101e95780635fa2ef1014610207576100f4565b80632a71e5b3116100d25780632a71e5b31461015357806342e90c33146101715780634596ac9b1461018f578063473e7ccd146101ad576100f4565b8063079b6c63146100f95780631a0fbfb3146101175780631a4dbd1c14610135575b600080fd5b61010161029d565b60405161010e91906104ae565b60405180910390f35b61011f6102c1565b60405161012c91906104ae565b60405180910390f35b61013d6102e5565b60405161014a91906104ae565b60405180910390f35b61015b610309565b60405161016891906104ae565b60405180910390f35b61017961032d565b60405161018691906104ae565b60405180910390f35b610197610351565b6040516101a491906104ae565b60405180910390f35b6101b5610375565b6040516101c291906104ae565b60405180910390f35b6101d3610399565b6040516101e091906104ae565b60405180910390f35b6101f16103bd565b6040516101fe91906104ae565b60405180910390f35b61020f6103e1565b60405161021c91906104ae565b60405180910390f35b61022d610405565b60405161023a91906104ae565b60405180910390f35b61024b610429565b60405161025891906104ae565b60405180910390f35b61026961044d565b60405161027691906104ae565b60405180910390f35b610287610471565b60405161029491906104ae565b60405180910390f35b7f47656e6572696348616e646c657200000000000000000000000000000000000081565b7f4368696c644d657373656e67657200000000000000000000000000000000000081565b7f4f7074696d69737469634f7261636c650000000000000000000000000000000081565b7f46696e616e6369616c436f6e74726163747341646d696e00000000000000000081565b7f53746f726500000000000000000000000000000000000000000000000000000081565b7f536b696e6e794f7074696d69737469634f7261636c650000000000000000000081565b7f4f7074696d69737469634f7261636c655632000000000000000000000000000081565b7f4964656e74696669657257686974656c6973740000000000000000000000000081565b7f436f6c6c61746572616c57686974656c6973740000000000000000000000000081565b7f427269646765000000000000000000000000000000000000000000000000000081565b7f4f7261636c65487562000000000000000000000000000000000000000000000081565b7f526567697374727900000000000000000000000000000000000000000000000081565b7f4f7261636c6553706f6b6500000000000000000000000000000000000000000081565b7f4f7261636c65000000000000000000000000000000000000000000000000000081565b6000819050919050565b6104a881610495565b82525050565b60006020820190506104c3600083018461049f565b9291505056fea2646970667358221220653b10462b647c2849d2b61aeb7a68d6620693f17aef50b935365e785c428e8864736f6c63430008110033",
  "linkReferences": {},
  "deployedLinkReferences": {}
}