{
  "_format": "hh-sol-artifact-1",
  "contractName": "Decentralist",
  "sourceName": "contracts/Decentralist.sol",
  "abi": [
    {
      "anonymous": false,
      "inputs": [
        {
          "indexed": false,
          "internalType": "uint256",
          "name": "pendingAddressesIndex",
          "type": "uint256"
        },
        {
          "indexed": false,
          "internalType": "address",
          "name": "proposer",
          "type": "address"
        }
      ],
      "name": "AddProposed",
      "type": "event"
    },
    {
      "anonymous": false,
      "inputs": [
        {
          "indexed": false,
          "internalType": "uint256",
          "name": "pendingAddressesIndex",
          "type": "uint256"
        },
        {
          "indexed": false,
          "internalType": "address",
          "name": "proposer",
          "type": "address"
        }
      ],
      "name": "AddRejected",
      "type": "event"
    },
    {
      "anonymous": false,
      "inputs": [
        {
          "indexed": false,
          "internalType": "uint256",
          "name": "pendingAddressesIndex",
          "type": "uint256"
        },
        {
          "indexed": false,
          "internalType": "address",
          "name": "proposer",
          "type": "address"
        }
      ],
      "name": "AddSuccessful",
      "type": "event"
    },
    {
      "anonymous": false,
      "inputs": [
        {
          "indexed": false,
          "internalType": "uint8",
          "name": "version",
          "type": "uint8"
        }
      ],
      "name": "Initialized",
      "type": "event"
    },
    {
      "anonymous": false,
      "inputs": [
        {
          "indexed": true,
          "internalType": "address",
          "name": "previousOwner",
          "type": "address"
        },
        {
          "indexed": true,
          "internalType": "address",
          "name": "newOwner",
          "type": "address"
        }
      ],
      "name": "OwnershipTransferred",
      "type": "event"
    },
    {
      "anonymous": false,
      "inputs": [
        {
          "indexed": false,
          "internalType": "uint256",
          "name": "pendingAddressesIndex",
          "type": "uint256"
        },
        {
          "indexed": false,
          "internalType": "address",
          "name": "proposer",
          "type": "address"
        }
      ],
      "name": "RemoveProposed",
      "type": "event"
    },
    {
      "anonymous": false,
      "inputs": [
        {
          "indexed": false,
          "internalType": "uint256",
          "name": "pendingAddressesIndex",
          "type": "uint256"
        },
        {
          "indexed": false,
          "internalType": "address",
          "name": "proposer",
          "type": "address"
        }
      ],
      "name": "RemoveRejected",
      "type": "event"
    },
    {
      "anonymous": false,
      "inputs": [
        {
          "indexed": false,
          "internalType": "uint256",
          "name": "pendingAddressesIndex",
          "type": "uint256"
        },
        {
          "indexed": false,
          "internalType": "address",
          "name": "proposer",
          "type": "address"
        }
      ],
      "name": "RemoveSuccessful",
      "type": "event"
    },
    {
      "inputs": [
        {
          "internalType": "address[]",
          "name": "_addresses",
          "type": "address[]"
        }
      ],
      "name": "addAddresses",
      "outputs": [],
      "stateMutability": "nonpayable",
      "type": "function"
    },
    {
      "inputs": [],
      "name": "addReward",
      "outputs": [
        {
          "internalType": "uint256",
          "name": "",
          "type": "uint256"
        }
      ],
      "stateMutability": "view",
      "type": "function"
    },
    {
      "inputs": [
        {
          "internalType": "uint256",
          "name": "_addReward",
          "type": "uint256"
        },
        {
          "internalType": "uint256",
          "name": "_removeReward",
          "type": "uint256"
        }
      ],
      "name": "adjustRewards",
      "outputs": [],
      "stateMutability": "nonpayable",
      "type": "function"
    },
    {
      "inputs": [],
      "name": "bondAmount",
      "outputs": [
        {
          "internalType": "uint256",
          "name": "",
          "type": "uint256"
        }
      ],
      "stateMutability": "view",
      "type": "function"
    },
    {
      "inputs": [],
      "name": "fixedAncillaryData",
      "outputs": [
        {
          "internalType": "bytes",
          "name": "",
          "type": "bytes"
        }
      ],
      "stateMutability": "view",
      "type": "function"
    },
    {
      "inputs": [
        {
          "internalType": "uint256",
          "name": "pendingAddressesKey",
          "type": "uint256"
        }
      ],
      "name": "getPendingAddressesArray",
      "outputs": [
        {
          "internalType": "address[]",
          "name": "",
          "type": "address[]"
        }
      ],
      "stateMutability": "view",
      "type": "function"
    },
    {
      "inputs": [
        {
          "internalType": "bytes",
          "name": "_fixedAncillaryData",
          "type": "bytes"
        },
        {
          "internalType": "string",
          "name": "_title",
          "type": "string"
        },
        {
          "internalType": "uint256",
          "name": "_livenessPeriod",
          "type": "uint256"
        },
        {
          "internalType": "uint256",
          "name": "_bondAmount",
          "type": "uint256"
        },
        {
          "internalType": "uint256",
          "name": "_addReward",
          "type": "uint256"
        },
        {
          "internalType": "uint256",
          "name": "_removeReward",
          "type": "uint256"
        },
        {
          "internalType": "address",
          "name": "_owner",
          "type": "address"
        }
      ],
      "name": "initialize",
      "outputs": [],
      "stateMutability": "nonpayable",
      "type": "function"
    },
    {
      "inputs": [],
      "name": "livenessPeriod",
      "outputs": [
        {
          "internalType": "uint256",
          "name": "",
          "type": "uint256"
        }
      ],
      "stateMutability": "view",
      "type": "function"
    },
    {
      "inputs": [
        {
          "internalType": "address",
          "name": "",
          "type": "address"
        }
      ],
      "name": "onList",
      "outputs": [
        {
          "internalType": "bool",
          "name": "",
          "type": "bool"
        }
      ],
      "stateMutability": "view",
      "type": "function"
    },
    {
      "inputs": [],
      "name": "owner",
      "outputs": [
        {
          "internalType": "address",
          "name": "",
          "type": "address"
        }
      ],
      "stateMutability": "view",
      "type": "function"
    },
    {
      "inputs": [
        {
          "internalType": "bytes32",
          "name": "identifier",
          "type": "bytes32"
        },
        {
          "internalType": "uint256",
          "name": "timestamp",
          "type": "uint256"
        },
        {
          "internalType": "bytes",
          "name": "ancillaryData",
          "type": "bytes"
        },
        {
          "internalType": "int256",
          "name": "price",
          "type": "int256"
        }
      ],
      "name": "priceSettled",
      "outputs": [],
      "stateMutability": "nonpayable",
      "type": "function"
    },
    {
      "inputs": [
        {
          "internalType": "address[]",
          "name": "_addresses",
          "type": "address[]"
        }
      ],
      "name": "removeAddresses",
      "outputs": [],
      "stateMutability": "nonpayable",
      "type": "function"
    },
    {
      "inputs": [],
      "name": "removeReward",
      "outputs": [
        {
          "internalType": "uint256",
          "name": "",
          "type": "uint256"
        }
      ],
      "stateMutability": "view",
      "type": "function"
    },
    {
      "inputs": [],
      "name": "renounceOwnership",
      "outputs": [],
      "stateMutability": "nonpayable",
      "type": "function"
    },
    {
      "inputs": [],
      "name": "title",
      "outputs": [
        {
          "internalType": "string",
          "name": "",
          "type": "string"
        }
      ],
      "stateMutability": "view",
      "type": "function"
    },
    {
      "inputs": [
        {
          "internalType": "address",
          "name": "newOwner",
          "type": "address"
        }
      ],
      "name": "transferOwnership",
      "outputs": [],
      "stateMutability": "nonpayable",
      "type": "function"
    },
    {
      "inputs": [
        {
          "internalType": "address",
          "name": "recipient",
          "type": "address"
        },
        {
          "internalType": "uint256",
          "name": "amount",
          "type": "uint256"
        }
      ],
      "name": "withdraw",
      "outputs": [],
      "stateMutability": "nonpayable",
      "type": "function"
    }
  ],
  "bytecode": "0x60806040523480156200001157600080fd5b5062000032620000266200003860201b60201c565b6200004060201b60201c565b62000105565b600033905090565b60008060029054906101000a900473ffffffffffffffffffffffffffffffffffffffff16905081600060026101000a81548173ffffffffffffffffffffffffffffffffffffffff021916908373ffffffffffffffffffffffffffffffffffffffff1602179055508173ffffffffffffffffffffffffffffffffffffffff168173ffffffffffffffffffffffffffffffffffffffff167f8be0079c531659141344cd1fd0a4f28419497f9722a3daafe3b4186f6b6457e060405160405180910390a35050565b613d9080620001156000396000f3fe608060405234801561001057600080fd5b506004361061010b5760003560e01c806380f323a7116100a2578063c8108ed911610071578063c8108ed91461026e578063dfb701131461028a578063e59a58ee146102ba578063f2fde38b146102d8578063f3fef3a3146102f45761010b565b806380f323a7146101fa5780638da5cb5b14610218578063a837edd814610236578063a84eb999146102525761010b565b80635cae7fb5116100de5780635cae7fb5146101845780636f626eb3146101a2578063715018a6146101d25780637eecf18d146101dc5761010b565b806304cc1fd5146101105780633628731c1461012c5780634a79d50c1461014857806352c824f514610166575b600080fd5b61012a6004803603810190610125919061262e565b610310565b005b61014660048036038101906101419190612711565b610c4d565b005b610150611283565b60405161015d91906127dd565b60405180910390f35b61016e611311565b60405161017b919061280e565b60405180910390f35b61018c611317565b604051610199919061287e565b60405180910390f35b6101bc60048036038101906101b791906128fe565b6113a5565b6040516101c99190612946565b60405180910390f35b6101da6113c5565b005b6101e46113d9565b6040516101f1919061280e565b60405180910390f35b6102026113df565b60405161020f919061280e565b60405180910390f35b6102206113e5565b60405161022d9190612970565b60405180910390f35b610250600480360381019061024b919061298b565b61140e565b005b61026c60048036038101906102679190612711565b611428565b005b61028860048036038101906102839190612a6c565b611a4f565b005b6102a4600480360381019061029f9190612b46565b611bd9565b6040516102b19190612c31565b60405180910390f35b6102c2611c7a565b6040516102cf919061280e565b60405180910390f35b6102f260048036038101906102ed91906128fe565b611c80565b005b61030e60048036038101906103099190612c53565b611d03565b005b600082846040516020016103249190612cb4565b604051602081830303815290604052604051602001610344929190612d0b565b604051602081830303815290604052905060006008826040516103679190612d2f565b908152602001604051809103902060405180606001604052908160008201548152602001600182015481526020016002820160009054906101000a900473ffffffffffffffffffffffffffffffffffffffff1673ffffffffffffffffffffffffffffffffffffffff1673ffffffffffffffffffffffffffffffffffffffff1681525050905060008303610814576000816020015114610448577fd8dd7e0ae29df8657799a12a351b8a3b9891af84ffdcd742169cd612d1dc4fdb81600001518260400151604051610439929190612d46565b60405180910390a15050610c47565b60005b60016009600084600001518152602001908152602001600020805490506104729190612d9e565b811161053c576000600960008460000151815260200190815260200160002082815481106104a3576104a2612dd2565b5b9060005260206000200160009054906101000a900473ffffffffffffffffffffffffffffffffffffffff1690506000600760008373ffffffffffffffffffffffffffffffffffffffff1673ffffffffffffffffffffffffffffffffffffffff16815260200190815260200160002060006101000a81548160ff02191690831515021790555050808061053490612e01565b91505061044b565b50600060065411156107cc5760006009600083600001518152602001908152602001600020805490506006546105729190612e49565b90508073b4fbf271143f4fbf7b91a5ded31805e42b2208d673ffffffffffffffffffffffffffffffffffffffff166370a08231306040518263ffffffff1660e01b81526004016105c29190612970565b602060405180830381865afa1580156105df573d6000803e3d6000fd5b505050506040513d601f19601f820116820180604052508101906106039190612ea0565b10156107325773b4fbf271143f4fbf7b91a5ded31805e42b2208d673ffffffffffffffffffffffffffffffffffffffff1663a9059cbb836040015173b4fbf271143f4fbf7b91a5ded31805e42b2208d673ffffffffffffffffffffffffffffffffffffffff166370a08231306040518263ffffffff1660e01b815260040161068b9190612970565b602060405180830381865afa1580156106a8573d6000803e3d6000fd5b505050506040513d601f19601f820116820180604052508101906106cc9190612ea0565b6040518363ffffffff1660e01b81526004016106e9929190612ecd565b6020604051808303816000875af1158015610708573d6000803e3d6000fd5b505050506040513d601f19601f8201168201806040525081019061072c9190612f22565b506107ca565b73b4fbf271143f4fbf7b91a5ded31805e42b2208d673ffffffffffffffffffffffffffffffffffffffff1663a9059cbb8360400151836040518363ffffffff1660e01b8152600401610785929190612ecd565b6020604051808303816000875af11580156107a4573d6000803e3d6000fd5b505050506040513d601f19601f820116820180604052508101906107c89190612f22565b505b505b7f977532154aa138737310627cb234a39d9efc273748b0c6407bfffe715388dfb481600001518260400151604051610805929190612d46565b60405180910390a15050610c47565b670de0b6b3a76400008303610c4457670de0b6b3a764000081602001511461087e577fc04f7a73d3a7b3bc830012cfc1d81ca0ff1bc57a9848c734d010f910f07eea428160000151826040015160405161086f929190612d46565b60405180910390a15050610c47565b60005b60016009600084600001518152602001908152602001600020805490506108a89190612d9e565b8111610972576000600960008460000151815260200190815260200160002082815481106108d9576108d8612dd2565b5b9060005260206000200160009054906101000a900473ffffffffffffffffffffffffffffffffffffffff1690506001600760008373ffffffffffffffffffffffffffffffffffffffff1673ffffffffffffffffffffffffffffffffffffffff16815260200190815260200160002060006101000a81548160ff02191690831515021790555050808061096a90612e01565b915050610881565b5060006005541115610c025760006009600083600001518152602001908152602001600020805490506005546109a89190612e49565b90508073b4fbf271143f4fbf7b91a5ded31805e42b2208d673ffffffffffffffffffffffffffffffffffffffff166370a08231306040518263ffffffff1660e01b81526004016109f89190612970565b602060405180830381865afa158015610a15573d6000803e3d6000fd5b505050506040513d601f19601f82011682018060405250810190610a399190612ea0565b1015610b685773b4fbf271143f4fbf7b91a5ded31805e42b2208d673ffffffffffffffffffffffffffffffffffffffff1663a9059cbb836040015173b4fbf271143f4fbf7b91a5ded31805e42b2208d673ffffffffffffffffffffffffffffffffffffffff166370a08231306040518263ffffffff1660e01b8152600401610ac19190612970565b602060405180830381865afa158015610ade573d6000803e3d6000fd5b505050506040513d601f19601f82011682018060405250810190610b029190612ea0565b6040518363ffffffff1660e01b8152600401610b1f929190612ecd565b6020604051808303816000875af1158015610b3e573d6000803e3d6000fd5b505050506040513d601f19601f82011682018060405250810190610b629190612f22565b50610c00565b73b4fbf271143f4fbf7b91a5ded31805e42b2208d673ffffffffffffffffffffffffffffffffffffffff1663a9059cbb8360400151836040518363ffffffff1660e01b8152600401610bbb929190612ecd565b6020604051808303816000875af1158015610bda573d6000803e3d6000fd5b505050506040513d601f19601f82011682018060405250810190610bfe9190612f22565b505b505b7f3ce40f27b3799cb9556767a2eb1593cf13c6cece3719596300cbefc50243591e81600001518260400151604051610c3b929190612d46565b60405180910390a15b50505b50505050565b60005b600183839050610c609190612d9e565b8111610e255760076000848484818110610c7d57610c7c612dd2565b5b9050602002016020810190610c9291906128fe565b73ffffffffffffffffffffffffffffffffffffffff1673ffffffffffffffffffffffffffffffffffffffff16815260200190815260200160002060009054906101000a900460ff1615610d1a576040517f08c379a0000000000000000000000000000000000000000000000000000000008152600401610d1190612fc1565b60405180910390fd5b6000600182610d299190612fe1565b90505b600184849050610d3c9190612d9e565b8111610e1157838382818110610d5557610d54612dd2565b5b9050602002016020810190610d6a91906128fe565b73ffffffffffffffffffffffffffffffffffffffff16848484818110610d9357610d92612dd2565b5b9050602002016020810190610da891906128fe565b73ffffffffffffffffffffffffffffffffffffffff1603610dfe576040517f08c379a0000000000000000000000000000000000000000000000000000000008152600401610df590613061565b60405180910390fd5b8080610e0990612e01565b915050610d2c565b508080610e1d90612e01565b915050610c50565b5060006004541115610f0d57600073b4fbf271143f4fbf7b91a5ded31805e42b2208d673ffffffffffffffffffffffffffffffffffffffff166323b872dd33306004546040518463ffffffff1660e01b8152600401610e8693929190613081565b6020604051808303816000875af1158015610ea5573d6000803e3d6000fd5b505050506040513d601f19601f82011682018060405250810190610ec99190612f22565b905080610f0b576040517f08c379a0000000000000000000000000000000000000000000000000000000008152600401610f029061312a565b60405180910390fd5b505b60006001610f1c600a54611da2565b604051602001610f2d929190613300565b60405160208183030381529060405290506000429050610f4d8183611f2a565b60008282604051602001610f619190612cb4565b604051602081830303815290604052604051602001610f81929190612d0b565b6040516020818303038152906040529050600a54600882604051610fa59190612d2f565b908152602001604051809103902060000181905550670de0b6b3a7640000600882604051610fd39190612d2f565b90815260200160405180910390206001018190555033600882604051610ff99190612d2f565b908152602001604051809103902060020160006101000a81548173ffffffffffffffffffffffffffffffffffffffff021916908373ffffffffffffffffffffffffffffffffffffffff160217905550848460096000600a548152602001908152602001600020919061106c929190612375565b506000600454111561116657600073b4fbf271143f4fbf7b91a5ded31805e42b2208d673ffffffffffffffffffffffffffffffffffffffff1663095ea7b373a5b9d8a0b0fa04ba71bdd68069661ed5c08488846004546040518363ffffffff1660e01b81526004016110df929190612ecd565b6020604051808303816000875af11580156110fe573d6000803e3d6000fd5b505050506040513d601f19601f820116820180604052508101906111229190612f22565b905080611164576040517f08c379a000000000000000000000000000000000000000000000000000000000815260040161115b906133a1565b60405180910390fd5b505b73a5b9d8a0b0fa04ba71bdd68069661ed5c084888473ffffffffffffffffffffffffffffffffffffffff16637c82288f33307f5945535f4f525f4e4f5f515545525900000000000000000000000000000000008688670de0b6b3a76400006040518763ffffffff1660e01b81526004016111e596959493929190613415565b6020604051808303816000875af1158015611204573d6000803e3d6000fd5b505050506040513d601f19601f820116820180604052508101906112289190612ea0565b507f1f4d29ccbbfc1b44f746307b07de4732ccc8962154f178af1ff837ca3649fd9e600a543360405161125c929190612d46565b60405180910390a1600a600081548092919061127790612e01565b91905055505050505050565b6002805461129090613179565b80601f01602080910402602001604051908101604052809291908181526020018280546112bc90613179565b80156113095780601f106112de57610100808354040283529160200191611309565b820191906000526020600020905b8154815290600101906020018083116112ec57829003601f168201915b505050505081565b60035481565b6001805461132490613179565b80601f016020809104026020016040519081016040528092919081815260200182805461135090613179565b801561139d5780601f106113725761010080835404028352916020019161139d565b820191906000526020600020905b81548152906001019060200180831161138057829003601f168201915b505050505081565b60076020528060005260406000206000915054906101000a900460ff1681565b6113cd612207565b6113d76000612285565b565b60065481565b60045481565b60008060029054906101000a900473ffffffffffffffffffffffffffffffffffffffff16905090565b611416612207565b81600581905550806006819055505050565b60005b60018383905061143b9190612d9e565b81116115ff576007600084848481811061145857611457612dd2565b5b905060200201602081019061146d91906128fe565b73ffffffffffffffffffffffffffffffffffffffff1673ffffffffffffffffffffffffffffffffffffffff16815260200190815260200160002060009054906101000a900460ff166114f4576040517f08c379a00000000000000000000000000000000000000000000000000000000081526004016114eb906134ef565b60405180910390fd5b60006001826115039190612fe1565b90505b6001848490506115169190612d9e565b81116115eb5783838281811061152f5761152e612dd2565b5b905060200201602081019061154491906128fe565b73ffffffffffffffffffffffffffffffffffffffff1684848481811061156d5761156c612dd2565b5b905060200201602081019061158291906128fe565b73ffffffffffffffffffffffffffffffffffffffff16036115d8576040517f08c379a00000000000000000000000000000000000000000000000000000000081526004016115cf90613061565b60405180910390fd5b80806115e390612e01565b915050611506565b5080806115f790612e01565b91505061142b565b50600060045411156116e757600073b4fbf271143f4fbf7b91a5ded31805e42b2208d673ffffffffffffffffffffffffffffffffffffffff166323b872dd33306004546040518463ffffffff1660e01b815260040161166093929190613081565b6020604051808303816000875af115801561167f573d6000803e3d6000fd5b505050506040513d601f19601f820116820180604052508101906116a39190612f22565b9050806116e5576040517f08c379a00000000000000000000000000000000000000000000000000000000081526004016116dc9061312a565b60405180910390fd5b505b600060016116f6600a54611da2565b604051602001611707929190613300565b604051602081830303815290604052905060004290506117278183611f2a565b6000828260405160200161173b9190612cb4565b60405160208183030381529060405260405160200161175b929190612d0b565b6040516020818303038152906040529050600a5460088260405161177f9190612d2f565b90815260200160405180910390206000018190555060006008826040516117a69190612d2f565b908152602001604051809103902060010181905550336008826040516117cc9190612d2f565b908152602001604051809103902060020160006101000a81548173ffffffffffffffffffffffffffffffffffffffff021916908373ffffffffffffffffffffffffffffffffffffffff160217905550848460096000600a548152602001908152602001600020919061183f929190612375565b506000600454111561193957600073b4fbf271143f4fbf7b91a5ded31805e42b2208d673ffffffffffffffffffffffffffffffffffffffff1663095ea7b373a5b9d8a0b0fa04ba71bdd68069661ed5c08488846004546040518363ffffffff1660e01b81526004016118b2929190612ecd565b6020604051808303816000875af11580156118d1573d6000803e3d6000fd5b505050506040513d601f19601f820116820180604052508101906118f59190612f22565b905080611937576040517f08c379a000000000000000000000000000000000000000000000000000000000815260040161192e906133a1565b60405180910390fd5b505b73a5b9d8a0b0fa04ba71bdd68069661ed5c084888473ffffffffffffffffffffffffffffffffffffffff16637c82288f33307f5945535f4f525f4e4f5f51554552590000000000000000000000000000000000868860006040518763ffffffff1660e01b81526004016119b19695949392919061354a565b6020604051808303816000875af11580156119d0573d6000803e3d6000fd5b505050506040513d601f19601f820116820180604052508101906119f49190612ea0565b507f7eb39c944452c7011e7e9a094f7d0f3e734c5f03b3dc3fdd4fe8fa82e4ef830e600a5433604051611a28929190612d46565b60405180910390a1600a6000815480929190611a4390612e01565b91905055505050505050565b60008060019054906101000a900460ff16159050808015611a805750600160008054906101000a900460ff1660ff16105b80611aad5750611a8f3061234a565b158015611aac5750600160008054906101000a900460ff1660ff16145b5b611aec576040517f08c379a0000000000000000000000000000000000000000000000000000000008152600401611ae390613624565b60405180910390fd5b60016000806101000a81548160ff021916908360ff1602179055508015611b29576001600060016101000a81548160ff0219169083151502179055505b8760019081611b3891906137d1565b508660029081611b4891906138fe565b50856003819055508460048190555083600581905550826006819055506001600a81905550611b7682611c80565b8015611bcf5760008060016101000a81548160ff0219169083151502179055507f7f26b83ff96e1f2b6a682f133852f6798a09c465da95921460cefb38474024986001604051611bc69190613a18565b60405180910390a15b5050505050505050565b606060096000838152602001908152602001600020805480602002602001604051908101604052809291908181526020018280548015611c6e57602002820191906000526020600020905b8160009054906101000a900473ffffffffffffffffffffffffffffffffffffffff1673ffffffffffffffffffffffffffffffffffffffff1681526020019060010190808311611c24575b50505050509050919050565b60055481565b611c88612207565b600073ffffffffffffffffffffffffffffffffffffffff168173ffffffffffffffffffffffffffffffffffffffff1603611cf7576040517f08c379a0000000000000000000000000000000000000000000000000000000008152600401611cee90613aa5565b60405180910390fd5b611d0081612285565b50565b611d0b612207565b73b4fbf271143f4fbf7b91a5ded31805e42b2208d673ffffffffffffffffffffffffffffffffffffffff1663a9059cbb83836040518363ffffffff1660e01b8152600401611d5a929190612ecd565b6020604051808303816000875af1158015611d79573d6000803e3d6000fd5b505050506040513d601f19601f82011682018060405250810190611d9d9190612f22565b505050565b606060008203611de9576040518060400160405280600181526020017f30000000000000000000000000000000000000000000000000000000000000008152509050611f25565b600082905060005b60008214611e1b578080611e0490612e01565b915050600a82611e149190613af4565b9150611df1565b60008167ffffffffffffffff811115611e3757611e366124cd565b5b6040519080825280601f01601f191660200182016040528015611e695781602001600182028036833780820191505090505b50905060008290505b60008614611f1d57600181611e879190612d9e565b90506000600a8088611e999190613af4565b611ea39190612e49565b87611eae9190612d9e565b6030611eba9190613b25565b905060008160f81b905080848481518110611ed857611ed7612dd2565b5b60200101907effffffffffffffffffffffffffffffffffffffffffffffffffffffffffffff1916908160001a905350600a88611f149190613af4565b97505050611e72565b819450505050505b919050565b73a5b9d8a0b0fa04ba71bdd68069661ed5c084888473ffffffffffffffffffffffffffffffffffffffff166311df92f17f5945535f4f525f4e4f5f51554552590000000000000000000000000000000000848473b4fbf271143f4fbf7b91a5ded31805e42b2208d660006040518663ffffffff1660e01b8152600401611fb4959493929190613be0565b6020604051808303816000875af1158015611fd3573d6000803e3d6000fd5b505050506040513d601f19601f82011682018060405250810190611ff79190612ea0565b5073a5b9d8a0b0fa04ba71bdd68069661ed5c084888473ffffffffffffffffffffffffffffffffffffffff1663f327b0757f5945535f4f525f4e4f5f51554552590000000000000000000000000000000000848460008060016040518763ffffffff1660e01b815260040161207196959493929190613c3a565b600060405180830381600087803b15801561208b57600080fd5b505af115801561209f573d6000803e3d6000fd5b5050505073a5b9d8a0b0fa04ba71bdd68069661ed5c084888473ffffffffffffffffffffffffffffffffffffffff1663473c45fe7f5945535f4f525f4e4f5f5155455259000000000000000000000000000000000084846003546040518563ffffffff1660e01b81526004016121189493929190613ca2565b600060405180830381600087803b15801561213257600080fd5b505af1158015612146573d6000803e3d6000fd5b5050505073a5b9d8a0b0fa04ba71bdd68069661ed5c084888473ffffffffffffffffffffffffffffffffffffffff1663ad5a755a7f5945535f4f525f4e4f5f5155455259000000000000000000000000000000000084846004546040518563ffffffff1660e01b81526004016121bf9493929190613ca2565b6020604051808303816000875af11580156121de573d6000803e3d6000fd5b505050506040513d601f19601f820116820180604052508101906122029190612ea0565b505050565b61220f61236d565b73ffffffffffffffffffffffffffffffffffffffff1661222d6113e5565b73ffffffffffffffffffffffffffffffffffffffff1614612283576040517f08c379a000000000000000000000000000000000000000000000000000000000815260040161227a90613d3a565b60405180910390fd5b565b60008060029054906101000a900473ffffffffffffffffffffffffffffffffffffffff16905081600060026101000a81548173ffffffffffffffffffffffffffffffffffffffff021916908373ffffffffffffffffffffffffffffffffffffffff1602179055508173ffffffffffffffffffffffffffffffffffffffff168173ffffffffffffffffffffffffffffffffffffffff167f8be0079c531659141344cd1fd0a4f28419497f9722a3daafe3b4186f6b6457e060405160405180910390a35050565b6000808273ffffffffffffffffffffffffffffffffffffffff163b119050919050565b600033905090565b828054828255906000526020600020908101928215612404579160200282015b8281111561240357823573ffffffffffffffffffffffffffffffffffffffff168260006101000a81548173ffffffffffffffffffffffffffffffffffffffff021916908373ffffffffffffffffffffffffffffffffffffffff16021790555091602001919060010190612395565b5b5090506124119190612415565b5090565b5b8082111561242e576000816000905550600101612416565b5090565b6000604051905090565b600080fd5b600080fd5b6000819050919050565b61245981612446565b811461246457600080fd5b50565b60008135905061247681612450565b92915050565b6000819050919050565b61248f8161247c565b811461249a57600080fd5b50565b6000813590506124ac81612486565b92915050565b600080fd5b600080fd5b6000601f19601f8301169050919050565b7f4e487b7100000000000000000000000000000000000000000000000000000000600052604160045260246000fd5b612505826124bc565b810181811067ffffffffffffffff82111715612524576125236124cd565b5b80604052505050565b6000612537612432565b905061254382826124fc565b919050565b600067ffffffffffffffff821115612563576125626124cd565b5b61256c826124bc565b9050602081019050919050565b82818337600083830152505050565b600061259b61259684612548565b61252d565b9050828152602081018484840111156125b7576125b66124b7565b5b6125c2848285612579565b509392505050565b600082601f8301126125df576125de6124b2565b5b81356125ef848260208601612588565b91505092915050565b6000819050919050565b61260b816125f8565b811461261657600080fd5b50565b60008135905061262881612602565b92915050565b600080600080608085870312156126485761264761243c565b5b600061265687828801612467565b94505060206126678782880161249d565b935050604085013567ffffffffffffffff81111561268857612687612441565b5b612694878288016125ca565b92505060606126a587828801612619565b91505092959194509250565b600080fd5b600080fd5b60008083601f8401126126d1576126d06124b2565b5b8235905067ffffffffffffffff8111156126ee576126ed6126b1565b5b60208301915083602082028301111561270a576127096126b6565b5b9250929050565b600080602083850312156127285761272761243c565b5b600083013567ffffffffffffffff81111561274657612745612441565b5b612752858286016126bb565b92509250509250929050565b600081519050919050565b600082825260208201905092915050565b60005b8381101561279857808201518184015260208101905061277d565b60008484015250505050565b60006127af8261275e565b6127b98185612769565b93506127c981856020860161277a565b6127d2816124bc565b840191505092915050565b600060208201905081810360008301526127f781846127a4565b905092915050565b6128088161247c565b82525050565b600060208201905061282360008301846127ff565b92915050565b600081519050919050565b600082825260208201905092915050565b600061285082612829565b61285a8185612834565b935061286a81856020860161277a565b612873816124bc565b840191505092915050565b600060208201905081810360008301526128988184612845565b905092915050565b600073ffffffffffffffffffffffffffffffffffffffff82169050919050565b60006128cb826128a0565b9050919050565b6128db816128c0565b81146128e657600080fd5b50565b6000813590506128f8816128d2565b92915050565b6000602082840312156129145761291361243c565b5b6000612922848285016128e9565b91505092915050565b60008115159050919050565b6129408161292b565b82525050565b600060208201905061295b6000830184612937565b92915050565b61296a816128c0565b82525050565b60006020820190506129856000830184612961565b92915050565b600080604083850312156129a2576129a161243c565b5b60006129b08582860161249d565b92505060206129c18582860161249d565b9150509250929050565b600067ffffffffffffffff8211156129e6576129e56124cd565b5b6129ef826124bc565b9050602081019050919050565b6000612a0f612a0a846129cb565b61252d565b905082815260208101848484011115612a2b57612a2a6124b7565b5b612a36848285612579565b509392505050565b600082601f830112612a5357612a526124b2565b5b8135612a638482602086016129fc565b91505092915050565b600080600080600080600060e0888a031215612a8b57612a8a61243c565b5b600088013567ffffffffffffffff811115612aa957612aa8612441565b5b612ab58a828b016125ca565b975050602088013567ffffffffffffffff811115612ad657612ad5612441565b5b612ae28a828b01612a3e565b9650506040612af38a828b0161249d565b9550506060612b048a828b0161249d565b9450506080612b158a828b0161249d565b93505060a0612b268a828b0161249d565b92505060c0612b378a828b016128e9565b91505092959891949750929550565b600060208284031215612b5c57612b5b61243c565b5b6000612b6a8482850161249d565b91505092915050565b600081519050919050565b600082825260208201905092915050565b6000819050602082019050919050565b612ba8816128c0565b82525050565b6000612bba8383612b9f565b60208301905092915050565b6000602082019050919050565b6000612bde82612b73565b612be88185612b7e565b9350612bf383612b8f565b8060005b83811015612c24578151612c0b8882612bae565b9750612c1683612bc6565b925050600181019050612bf7565b5085935050505092915050565b60006020820190508181036000830152612c4b8184612bd3565b905092915050565b60008060408385031215612c6a57612c6961243c565b5b6000612c78858286016128e9565b9250506020612c898582860161249d565b9150509250929050565b6000819050919050565b612cae612ca98261247c565b612c93565b82525050565b6000612cc08284612c9d565b60208201915081905092915050565b600081905092915050565b6000612ce582612829565b612cef8185612ccf565b9350612cff81856020860161277a565b80840191505092915050565b6000612d178285612cda565b9150612d238284612cda565b91508190509392505050565b6000612d3b8284612cda565b915081905092915050565b6000604082019050612d5b60008301856127ff565b612d686020830184612961565b9392505050565b7f4e487b7100000000000000000000000000000000000000000000000000000000600052601160045260246000fd5b6000612da98261247c565b9150612db48361247c565b9250828203905081811115612dcc57612dcb612d6f565b5b92915050565b7f4e487b7100000000000000000000000000000000000000000000000000000000600052603260045260246000fd5b6000612e0c8261247c565b91507fffffffffffffffffffffffffffffffffffffffffffffffffffffffffffffffff8203612e3e57612e3d612d6f565b5b600182019050919050565b6000612e548261247c565b9150612e5f8361247c565b9250828202612e6d8161247c565b91508282048414831517612e8457612e83612d6f565b5b5092915050565b600081519050612e9a81612486565b92915050565b600060208284031215612eb657612eb561243c565b5b6000612ec484828501612e8b565b91505092915050565b6000604082019050612ee26000830185612961565b612eef60208301846127ff565b9392505050565b612eff8161292b565b8114612f0a57600080fd5b50565b600081519050612f1c81612ef6565b92915050565b600060208284031215612f3857612f3761243c565b5b6000612f4684828501612f0d565b91505092915050565b7f6174206c656173742031206164647265737320697320616c7265616479206f6e60008201527f206c697374000000000000000000000000000000000000000000000000000000602082015250565b6000612fab602583612769565b9150612fb682612f4f565b604082019050919050565b60006020820190508181036000830152612fda81612f9e565b9050919050565b6000612fec8261247c565b9150612ff78361247c565b925082820190508082111561300f5761300e612d6f565b5b92915050565b7f61646472657373657320636f6e7461696e206475706c69636174650000000000600082015250565b600061304b601b83612769565b915061305682613015565b602082019050919050565b6000602082019050818103600083015261307a8161303e565b9050919050565b60006060820190506130966000830186612961565b6130a36020830185612961565b6130b060408301846127ff565b949350505050565b7f7472616e73666572206f6620626f6e6420616d6f756e7420746f204c6973742060008201527f636f6e7472616374206661696c65640000000000000000000000000000000000602082015250565b6000613114602f83612769565b915061311f826130b8565b604082019050919050565b6000602082019050818103600083015261314381613107565b9050919050565b7f4e487b7100000000000000000000000000000000000000000000000000000000600052602260045260246000fd5b6000600282049050600182168061319157607f821691505b6020821081036131a4576131a361314a565b5b50919050565b60008190508160005260206000209050919050565b600081546131cc81613179565b6131d68186612ccf565b945060018216600081146131f1576001811461320657613239565b60ff1983168652811515820286019350613239565b61320f856131aa565b60005b8381101561323157815481890152600182019150602081019050613212565b838801955050505b50505092915050565b7f2e2041646472657373657320746f2071756572792063616e20626520666f756e60008201527f64206f6e2072657175657374657220616464726573732062792063616c6c696e60208201527f672067657450656e64696e67416464726573736573417272617920776974682060408201527f75696e7420617267756d656e74206f6620000000000000000000000000000000606082015250565b60006132ea607183612ccf565b91506132f582613242565b607182019050919050565b600061330c82856131bf565b9150613317826132dd565b91506133238284612cda565b91508190509392505050565b7f617070726f76616c206f6620626f6e6420616d6f756e742066726f6d204c697360008201527f7420636f6e747261637420746f204f7261636c65206661696c65640000000000602082015250565b600061338b603b83612769565b91506133968261332f565b604082019050919050565b600060208201905081810360008301526133ba8161337e565b9050919050565b6133ca81612446565b82525050565b6000819050919050565b6000819050919050565b60006133ff6133fa6133f5846133d0565b6133da565b6125f8565b9050919050565b61340f816133e4565b82525050565b600060c08201905061342a6000830189612961565b6134376020830188612961565b61344460408301876133c1565b61345160608301866127ff565b81810360808301526134638185612845565b905061347260a0830184613406565b979650505050505050565b7f6174206c6561737420312061646472657373206973206e6f74206f6e206c697360008201527f7400000000000000000000000000000000000000000000000000000000000000602082015250565b60006134d9602183612769565b91506134e48261347d565b604082019050919050565b60006020820190508181036000830152613508816134cc565b9050919050565b6000819050919050565b600061353461352f61352a8461350f565b6133da565b6125f8565b9050919050565b61354481613519565b82525050565b600060c08201905061355f6000830189612961565b61356c6020830188612961565b61357960408301876133c1565b61358660608301866127ff565b81810360808301526135988185612845565b90506135a760a083018461353b565b979650505050505050565b7f496e697469616c697a61626c653a20636f6e747261637420697320616c72656160008201527f647920696e697469616c697a6564000000000000000000000000000000000000602082015250565b600061360e602e83612769565b9150613619826135b2565b604082019050919050565b6000602082019050818103600083015261363d81613601565b9050919050565b60006020601f8301049050919050565b600082821b905092915050565b6000600883026136917fffffffffffffffffffffffffffffffffffffffffffffffffffffffffffffffff82613654565b61369b8683613654565b95508019841693508086168417925050509392505050565b60006136ce6136c96136c48461247c565b6133da565b61247c565b9050919050565b6000819050919050565b6136e8836136b3565b6136fc6136f4826136d5565b848454613661565b825550505050565b600090565b613711613704565b61371c8184846136df565b505050565b5b8181101561374057613735600082613709565b600181019050613722565b5050565b601f82111561378557613756816131aa565b61375f84613644565b8101602085101561376e578190505b61378261377a85613644565b830182613721565b50505b505050565b600082821c905092915050565b60006137a86000198460080261378a565b1980831691505092915050565b60006137c18383613797565b9150826002028217905092915050565b6137da82612829565b67ffffffffffffffff8111156137f3576137f26124cd565b5b6137fd8254613179565b613808828285613744565b600060209050601f83116001811461383b5760008415613829578287015190505b61383385826137b5565b86555061389b565b601f198416613849866131aa565b60005b828110156138715784890151825560018201915060208501945060208101905061384c565b8683101561388e578489015161388a601f891682613797565b8355505b6001600288020188555050505b505050505050565b60008190508160005260206000209050919050565b601f8211156138f9576138ca816138a3565b6138d384613644565b810160208510156138e2578190505b6138f66138ee85613644565b830182613721565b50505b505050565b6139078261275e565b67ffffffffffffffff8111156139205761391f6124cd565b5b61392a8254613179565b6139358282856138b8565b600060209050601f8311600181146139685760008415613956578287015190505b61396085826137b5565b8655506139c8565b601f198416613976866138a3565b60005b8281101561399e57848901518255600182019150602085019450602081019050613979565b868310156139bb57848901516139b7601f891682613797565b8355505b6001600288020188555050505b505050505050565b6000819050919050565b600060ff82169050919050565b6000613a026139fd6139f8846139d0565b6133da565b6139da565b9050919050565b613a12816139e7565b82525050565b6000602082019050613a2d6000830184613a09565b92915050565b7f4f776e61626c653a206e6577206f776e657220697320746865207a65726f206160008201527f6464726573730000000000000000000000000000000000000000000000000000602082015250565b6000613a8f602683612769565b9150613a9a82613a33565b604082019050919050565b60006020820190508181036000830152613abe81613a82565b9050919050565b7f4e487b7100000000000000000000000000000000000000000000000000000000600052601260045260246000fd5b6000613aff8261247c565b9150613b0a8361247c565b925082613b1a57613b19613ac5565b5b828204905092915050565b6000613b30826139da565b9150613b3b836139da565b9250828201905060ff811115613b5457613b53612d6f565b5b92915050565b6000613b75613b70613b6b846128a0565b6133da565b6128a0565b9050919050565b6000613b8782613b5a565b9050919050565b6000613b9982613b7c565b9050919050565b613ba981613b8e565b82525050565b6000613bca613bc5613bc08461350f565b6133da565b61247c565b9050919050565b613bda81613baf565b82525050565b600060a082019050613bf560008301886133c1565b613c0260208301876127ff565b8181036040830152613c148186612845565b9050613c236060830185613ba0565b613c306080830184613bd1565b9695505050505050565b600060c082019050613c4f60008301896133c1565b613c5c60208301886127ff565b8181036040830152613c6e8187612845565b9050613c7d6060830186612937565b613c8a6080830185612937565b613c9760a0830184612937565b979650505050505050565b6000608082019050613cb760008301876133c1565b613cc460208301866127ff565b8181036040830152613cd68185612845565b9050613ce560608301846127ff565b95945050505050565b7f4f776e61626c653a2063616c6c6572206973206e6f7420746865206f776e6572600082015250565b6000613d24602083612769565b9150613d2f82613cee565b602082019050919050565b60006020820190508181036000830152613d5381613d17565b905091905056fea26469706673582212209537f6d488ebf8de110f11826fd6eb69d16fc15b5c518b1d4cd360056d49535264736f6c63430008110033",
  "linkReferences": {},
  "deployedLinkReferences": {}
}