{
  "_format": "hh-sol-artifact-1",
  "contractName": "Decentralist",
  "sourceName": "contracts/decentralist.sol",
  "abi": [
    {
      "anonymous": false,
      "inputs": [
        {
          "indexed": false,
          "internalType": "uint256",
          "name": "bondAmount",
          "type": "uint256"
        }
      ],
      "name": "BondSet",
      "type": "event"
    },
    {
      "anonymous": false,
      "inputs": [
        {
          "indexed": false,
          "internalType": "uint8",
          "name": "version",
          "type": "uint8"
        }
      ],
      "name": "Initialized",
      "type": "event"
    },
    {
      "anonymous": false,
      "inputs": [
        {
          "indexed": false,
          "internalType": "uint64",
          "name": "liveness",
          "type": "uint64"
        }
      ],
      "name": "LivenessSet",
      "type": "event"
    },
    {
      "anonymous": false,
      "inputs": [
        {
          "indexed": true,
          "internalType": "address",
          "name": "previousOwner",
          "type": "address"
        },
        {
          "indexed": true,
          "internalType": "address",
          "name": "newOwner",
          "type": "address"
        }
      ],
      "name": "OwnershipTransferred",
      "type": "event"
    },
    {
      "anonymous": false,
      "inputs": [
        {
          "indexed": true,
          "internalType": "uint256",
          "name": "revisionId",
          "type": "uint256"
        }
      ],
      "name": "RevisionApproved",
      "type": "event"
    },
    {
      "anonymous": false,
      "inputs": [
        {
          "indexed": true,
          "internalType": "uint256",
          "name": "revisionId",
          "type": "uint256"
        }
      ],
      "name": "RevisionExecuted",
      "type": "event"
    },
    {
      "anonymous": false,
      "inputs": [
        {
          "indexed": true,
          "internalType": "uint256",
          "name": "revisionId",
          "type": "uint256"
        },
        {
          "indexed": false,
          "internalType": "int256",
          "name": "proposedPrice",
          "type": "int256"
        },
        {
          "indexed": false,
          "internalType": "address[]",
          "name": "pendingAddresses",
          "type": "address[]"
        }
      ],
      "name": "RevisionProposed",
      "type": "event"
    },
    {
      "anonymous": false,
      "inputs": [
        {
          "indexed": true,
          "internalType": "uint256",
          "name": "revisionId",
          "type": "uint256"
        }
      ],
      "name": "RevisionRejected",
      "type": "event"
    },
    {
      "anonymous": false,
      "inputs": [
        {
          "indexed": false,
          "internalType": "uint256",
          "name": "addReward",
          "type": "uint256"
        },
        {
          "indexed": false,
          "internalType": "uint256",
          "name": "removeReward",
          "type": "uint256"
        }
      ],
      "name": "RewardsSet",
      "type": "event"
    },
    {
      "inputs": [],
      "name": "addReward",
      "outputs": [
        {
          "internalType": "uint256",
          "name": "",
          "type": "uint256"
        }
      ],
      "stateMutability": "view",
      "type": "function"
    },
    {
      "inputs": [],
      "name": "bondAmount",
      "outputs": [
        {
          "internalType": "uint256",
          "name": "",
          "type": "uint256"
        }
      ],
      "stateMutability": "view",
      "type": "function"
    },
    {
      "inputs": [
        {
          "internalType": "uint256",
          "name": "_revisionId",
          "type": "uint256"
        },
        {
          "internalType": "address[]",
          "name": "_addresses",
          "type": "address[]"
        }
      ],
      "name": "executeRevision",
      "outputs": [],
      "stateMutability": "nonpayable",
      "type": "function"
    },
    {
      "inputs": [],
      "name": "finder",
      "outputs": [
        {
          "internalType": "contract FinderInterface",
          "name": "",
          "type": "address"
        }
      ],
      "stateMutability": "view",
      "type": "function"
    },
    {
      "inputs": [],
      "name": "fixedAncillaryData",
      "outputs": [
        {
          "internalType": "bytes",
          "name": "",
          "type": "bytes"
        }
      ],
      "stateMutability": "view",
      "type": "function"
    },
    {
      "inputs": [
        {
          "internalType": "address",
          "name": "_finder",
          "type": "address"
        },
        {
          "internalType": "bytes",
          "name": "_listCriteria",
          "type": "bytes"
        },
        {
          "internalType": "string",
          "name": "_title",
          "type": "string"
        },
        {
          "internalType": "address",
          "name": "_token",
          "type": "address"
        },
        {
          "internalType": "uint256",
          "name": "_bondAmount",
          "type": "uint256"
        },
        {
          "internalType": "uint256",
          "name": "_addReward",
          "type": "uint256"
        },
        {
          "internalType": "uint256",
          "name": "_removeReward",
          "type": "uint256"
        },
        {
          "internalType": "uint64",
          "name": "_liveness",
          "type": "uint64"
        },
        {
          "internalType": "address",
          "name": "_owner",
          "type": "address"
        }
      ],
      "name": "initialize",
      "outputs": [],
      "stateMutability": "nonpayable",
      "type": "function"
    },
    {
      "inputs": [],
      "name": "liveness",
      "outputs": [
        {
          "internalType": "uint64",
          "name": "",
          "type": "uint64"
        }
      ],
      "stateMutability": "view",
      "type": "function"
    },
    {
      "inputs": [
        {
          "internalType": "address",
          "name": "",
          "type": "address"
        }
      ],
      "name": "onList",
      "outputs": [
        {
          "internalType": "bool",
          "name": "",
          "type": "bool"
        }
      ],
      "stateMutability": "view",
      "type": "function"
    },
    {
      "inputs": [],
      "name": "oracle",
      "outputs": [
        {
          "internalType": "contract OptimisticOracleV2Interface",
          "name": "",
          "type": "address"
        }
      ],
      "stateMutability": "view",
      "type": "function"
    },
    {
      "inputs": [],
      "name": "owner",
      "outputs": [
        {
          "internalType": "address",
          "name": "",
          "type": "address"
        }
      ],
      "stateMutability": "view",
      "type": "function"
    },
    {
      "inputs": [
        {
          "internalType": "bytes32",
          "name": "",
          "type": "bytes32"
        },
        {
          "internalType": "uint256",
          "name": "timestamp",
          "type": "uint256"
        },
        {
          "internalType": "bytes",
          "name": "ancillaryData",
          "type": "bytes"
        },
        {
          "internalType": "int256",
          "name": "price",
          "type": "int256"
        }
      ],
      "name": "priceSettled",
      "outputs": [],
      "stateMutability": "nonpayable",
      "type": "function"
    },
    {
      "inputs": [
        {
          "internalType": "int256",
          "name": "_price",
          "type": "int256"
        },
        {
          "internalType": "address[]",
          "name": "_addresses",
          "type": "address[]"
        }
      ],
      "name": "proposeRevision",
      "outputs": [],
      "stateMutability": "nonpayable",
      "type": "function"
    },
    {
      "inputs": [],
      "name": "removeReward",
      "outputs": [
        {
          "internalType": "uint256",
          "name": "",
          "type": "uint256"
        }
      ],
      "stateMutability": "view",
      "type": "function"
    },
    {
      "inputs": [],
      "name": "renounceOwnership",
      "outputs": [],
      "stateMutability": "nonpayable",
      "type": "function"
    },
    {
      "inputs": [
        {
          "internalType": "uint256",
          "name": "",
          "type": "uint256"
        }
      ],
      "name": "revisions",
      "outputs": [
        {
          "internalType": "address",
          "name": "proposer",
          "type": "address"
        },
        {
          "internalType": "bytes32",
          "name": "addressesHash",
          "type": "bytes32"
        },
        {
          "internalType": "int256",
          "name": "proposedPrice",
          "type": "int256"
        },
        {
          "internalType": "uint256",
          "name": "addressesCount",
          "type": "uint256"
        },
        {
          "internalType": "enum Decentralist.Status",
          "name": "status",
          "type": "uint8"
        }
      ],
      "stateMutability": "view",
      "type": "function"
    },
    {
      "inputs": [
        {
          "internalType": "uint256",
          "name": "_bondAmount",
          "type": "uint256"
        }
      ],
      "name": "setBond",
      "outputs": [],
      "stateMutability": "nonpayable",
      "type": "function"
    },
    {
      "inputs": [
        {
          "internalType": "uint64",
          "name": "_liveness",
          "type": "uint64"
        }
      ],
      "name": "setLiveness",
      "outputs": [],
      "stateMutability": "nonpayable",
      "type": "function"
    },
    {
      "inputs": [
        {
          "internalType": "uint256",
          "name": "_addReward",
          "type": "uint256"
        },
        {
          "internalType": "uint256",
          "name": "_removeReward",
          "type": "uint256"
        }
      ],
      "name": "setRewards",
      "outputs": [],
      "stateMutability": "nonpayable",
      "type": "function"
    },
    {
      "inputs": [],
      "name": "syncOracle",
      "outputs": [],
      "stateMutability": "nonpayable",
      "type": "function"
    },
    {
      "inputs": [],
      "name": "title",
      "outputs": [
        {
          "internalType": "string",
          "name": "",
          "type": "string"
        }
      ],
      "stateMutability": "view",
      "type": "function"
    },
    {
      "inputs": [],
      "name": "token",
      "outputs": [
        {
          "internalType": "contract IERC20",
          "name": "",
          "type": "address"
        }
      ],
      "stateMutability": "view",
      "type": "function"
    },
    {
      "inputs": [
        {
          "internalType": "address",
          "name": "newOwner",
          "type": "address"
        }
      ],
      "name": "transferOwnership",
      "outputs": [],
      "stateMutability": "nonpayable",
      "type": "function"
    },
    {
      "inputs": [
        {
          "internalType": "address",
          "name": "recipient",
          "type": "address"
        },
        {
          "internalType": "uint256",
          "name": "amount",
          "type": "uint256"
        }
      ],
      "name": "withdraw",
      "outputs": [],
      "stateMutability": "nonpayable",
      "type": "function"
    }
  ],
  "bytecode": "0x60806040523480156200001157600080fd5b5062000032620000266200003860201b60201c565b6200004060201b60201c565b62000105565b600033905090565b60008060029054906101000a900473ffffffffffffffffffffffffffffffffffffffff16905081600060026101000a81548173ffffffffffffffffffffffffffffffffffffffff021916908373ffffffffffffffffffffffffffffffffffffffff1602179055508173ffffffffffffffffffffffffffffffffffffffff168173ffffffffffffffffffffffffffffffffffffffff167f8be0079c531659141344cd1fd0a4f28419497f9722a3daafe3b4186f6b6457e060405160405180910390a35050565b613b2c80620001156000396000f3fe608060405234801561001057600080fd5b506004361061014d5760003560e01c8063715018a6116100c3578063e59a58ee1161007c578063e59a58ee14610346578063ec40ad5114610364578063f2fde38b14610380578063f3fef3a31461039c578063fc0c546a146103b8578063fee53ab6146103d65761014d565b8063715018a6146102a65780637dc0d1d0146102b05780637eecf18d146102ce57806380f323a7146102ec5780638da5cb5b1461030a578063b9a3c84c146103285761014d565b80633c4432f1116101155780633c4432f1146101e45780634a79d50c146102005780635cae7fb51461021e578063654e51e71461023c5780636ad0690a146102585780636f626eb3146102765761014d565b806304cc1fd5146101525780630ef486d11461016e57806324844285146101a2578063259bd920146101ac578063338909a7146101c8575b600080fd5b61016c60048036038101906101679190612042565b6103f2565b005b610188600480360381019061018391906120c5565b61053a565b6040516101999594939291906121d7565b60405180910390f35b6101aa61059d565b005b6101c660048036038101906101c191906120c5565b61069b565b005b6101e260048036038101906101dd9190612337565b6106e4565b005b6101fe60048036038101906101f99190612439565b61093b565b005b6102086109a6565b60405161021591906124e5565b60405180910390f35b610226610a34565b604051610233919061255c565b60405180910390f35b6102566004803603810190610251919061257e565b610ac2565b005b610260610b15565b60405161026d91906125cd565b60405180910390f35b610290600480360381019061028b91906125e8565b610b2f565b60405161029d9190612630565b60405180910390f35b6102ae610b4f565b005b6102b8610b63565b6040516102c591906126aa565b60405180910390f35b6102d6610b89565b6040516102e391906126c5565b60405180910390f35b6102f4610b8f565b60405161030191906126c5565b60405180910390f35b610312610b95565b60405161031f91906126e0565b60405180910390f35b610330610bbe565b60405161033d919061271c565b60405180910390f35b61034e610be4565b60405161035b91906126c5565b60405180910390f35b61037e60048036038101906103799190612797565b610bea565b005b61039a600480360381019061039591906125e8565b6113fb565b005b6103b660048036038101906103b191906127f7565b61147e565b005b6103c061152b565b6040516103cd9190612858565b60405180910390f35b6103f060048036038101906103eb9190612873565b611551565b005b60008284604051602001610407929190612930565b6040516020818303038152906040528051906020012090506000600b600083815260200190815260200160002054905082600c600083815260200190815260200160002060020154036104c5576001600c600083815260200190815260200160002060040160006101000a81548160ff0219169083600381111561048e5761048d612160565b5b0217905550807fb3a5b8df91b708fcf61870cb9cc6e5fd1cf9bb4001630dd0a7c32813011f54dc60405160405180910390a2610532565b6002600c600083815260200190815260200160002060040160006101000a81548160ff021916908360038111156104ff576104fe612160565b5b0217905550807f5113af4f9ef1a78e76a69ce573914e4640cede3085f573d3f0505ee297e34e1960405160405180910390a25b505050505050565b600c6020528060005260406000206000915090508060000160009054906101000a900473ffffffffffffffffffffffffffffffffffffffff16908060010154908060020154908060030154908060040160009054906101000a900460ff16905085565b600260009054906101000a900473ffffffffffffffffffffffffffffffffffffffff1673ffffffffffffffffffffffffffffffffffffffff1663aafd5e407f4f7074696d69737469634f7261636c65563200000000000000000000000000006040518263ffffffff1660e01b81526004016106189190612958565b602060405180830381865afa158015610635573d6000803e3d6000fd5b505050506040513d601f19601f820116820180604052508101906106599190612988565b600160006101000a81548173ffffffffffffffffffffffffffffffffffffffff021916908373ffffffffffffffffffffffffffffffffffffffff160217905550565b6106a3611b50565b806005819055507f1b44689fb73c0c9cdf591d534287488fc7959fd3647346821063a3e567ec9a99816040516106d991906126c5565b60405180910390a150565b60008060019054906101000a900460ff161590508080156107155750600160008054906101000a900460ff1660ff16105b80610742575061072430611bce565b1580156107415750600160008054906101000a900460ff1660ff16145b5b610781576040517f08c379a000000000000000000000000000000000000000000000000000000000815260040161077890612a27565b60405180910390fd5b60016000806101000a81548160ff021916908360ff16021790555080156107be576001600060016101000a81548160ff0219169083151502179055505b89600260006101000a81548173ffffffffffffffffffffffffffffffffffffffff021916908373ffffffffffffffffffffffffffffffffffffffff160217905550886040516020016108109190612b77565b6040516020818303038152906040526003908161082d9190612d9b565b50876004908161083d9190612ec8565b5086600660006101000a81548173ffffffffffffffffffffffffffffffffffffffff021916908373ffffffffffffffffffffffffffffffffffffffff16021790555085600581905550846007819055508360088190555082600960006101000a81548167ffffffffffffffff021916908367ffffffffffffffff1602179055506108c682611bf1565b6108ce61059d565b6001600a81905550801561092f5760008060016101000a81548160ff0219169083151502179055507f7f26b83ff96e1f2b6a682f133852f6798a09c465da95921460cefb384740249860016040516109269190612fe2565b60405180910390a15b50505050505050505050565b610943611b50565b80600960006101000a81548167ffffffffffffffff021916908367ffffffffffffffff1602179055507fe5e4fe1ed302905b2067dd5af3ef8c34bc829afc97a52f95dd96d97d1ee4351b8160405161099b91906125cd565b60405180910390a150565b600480546109b390612bc8565b80601f01602080910402602001604051908101604052809291908181526020018280546109df90612bc8565b8015610a2c5780601f10610a0157610100808354040283529160200191610a2c565b820191906000526020600020905b815481529060010190602001808311610a0f57829003601f168201915b505050505081565b60038054610a4190612bc8565b80601f0160208091040260200160405190810160405280929190818152602001828054610a6d90612bc8565b8015610aba5780601f10610a8f57610100808354040283529160200191610aba565b820191906000526020600020905b815481529060010190602001808311610a9d57829003601f168201915b505050505081565b610aca611b50565b81600781905550806008819055507f067def216f0ef603ed8175482f6240978b15c9dc7efd8e1ac4bd3a743787a5b68282604051610b09929190612ffd565b60405180910390a15050565b600960009054906101000a900467ffffffffffffffff1681565b600d6020528060005260406000206000915054906101000a900460ff1681565b610b57611b50565b610b616000611bf1565b565b600160009054906101000a900473ffffffffffffffffffffffffffffffffffffffff1681565b60085481565b60055481565b60008060029054906101000a900473ffffffffffffffffffffffffffffffffffffffff16905090565b600260009054906101000a900473ffffffffffffffffffffffffffffffffffffffff1681565b60075481565b6000831480610c005750670de0b6b3a764000083145b610c3f576040517f08c379a0000000000000000000000000000000000000000000000000000000008152600401610c3690613072565b60405180910390fd5b60006003610c4e600a54611cb6565b604051602001610c5f929190613115565b6040516020818303038152906040529050600042905060008282604051602001610c8a929190612930565b60405160208183030381529060405280519060200120905060008585604051602001610cb79291906131f6565b604051602081830303815290604052805190602001209050600a54600b60008481526020019081526020016000208190555033600c6000600a54815260200190815260200160002060000160006101000a81548173ffffffffffffffffffffffffffffffffffffffff021916908373ffffffffffffffffffffffffffffffffffffffff16021790555080600c6000600a5481526020019081526020016000206001018190555086600c6000600a5481526020019081526020016000206002018190555085859050600c6000600a54815260200190815260200160002060030181905550600160009054906101000a900473ffffffffffffffffffffffffffffffffffffffff1673ffffffffffffffffffffffffffffffffffffffff166311df92f17f5945535f4f525f4e4f5f515545525900000000000000000000000000000000008587600660009054906101000a900473ffffffffffffffffffffffffffffffffffffffff1660006040518663ffffffff1660e01b8152600401610e4095949392919061324a565b6020604051808303816000875af1158015610e5f573d6000803e3d6000fd5b505050506040513d601f19601f82011682018060405250810190610e8391906132b9565b50600160009054906101000a900473ffffffffffffffffffffffffffffffffffffffff1673ffffffffffffffffffffffffffffffffffffffff1663f327b0757f5945535f4f525f4e4f5f51554552590000000000000000000000000000000000858760008060016040518763ffffffff1660e01b8152600401610f0b969594939291906132e6565b600060405180830381600087803b158015610f2557600080fd5b505af1158015610f39573d6000803e3d6000fd5b50505050600160009054906101000a900473ffffffffffffffffffffffffffffffffffffffff1673ffffffffffffffffffffffffffffffffffffffff1663473c45fe7f5945535f4f525f4e4f5f515545525900000000000000000000000000000000008587600960009054906101000a900467ffffffffffffffff166040518563ffffffff1660e01b8152600401610fd4949392919061337f565b600060405180830381600087803b158015610fee57600080fd5b505af1158015611002573d6000803e3d6000fd5b505050506000600160009054906101000a900473ffffffffffffffffffffffffffffffffffffffff1673ffffffffffffffffffffffffffffffffffffffff1663ad5a755a7f5945535f4f525f4e4f5f5155455259000000000000000000000000000000000086886005546040518563ffffffff1660e01b815260040161108b94939291906133cb565b6020604051808303816000875af11580156110aa573d6000803e3d6000fd5b505050506040513d601f19601f820116820180604052508101906110ce91906132b9565b905060008111156111c1576000600660009054906101000a900473ffffffffffffffffffffffffffffffffffffffff1673ffffffffffffffffffffffffffffffffffffffff166323b872dd3330856040518463ffffffff1660e01b815260040161113a93929190613417565b6020604051808303816000875af1158015611159573d6000803e3d6000fd5b505050506040513d601f19601f8201168201806040525081019061117d919061347a565b9050806111bf576040517f08c379a00000000000000000000000000000000000000000000000000000000081526004016111b690613519565b60405180910390fd5b505b60008111156112d2576000600660009054906101000a900473ffffffffffffffffffffffffffffffffffffffff1673ffffffffffffffffffffffffffffffffffffffff1663095ea7b3600160009054906101000a900473ffffffffffffffffffffffffffffffffffffffff16846040518363ffffffff1660e01b815260040161124b929190613539565b6020604051808303816000875af115801561126a573d6000803e3d6000fd5b505050506040513d601f19601f8201168201806040525081019061128e919061347a565b9050806112d0576040517f08c379a00000000000000000000000000000000000000000000000000000000081526004016112c7906135d4565b60405180910390fd5b505b600160009054906101000a900473ffffffffffffffffffffffffffffffffffffffff1673ffffffffffffffffffffffffffffffffffffffff16637c82288f33307f5945535f4f525f4e4f5f51554552590000000000000000000000000000000000888a8e6040518763ffffffff1660e01b8152600401611357969594939291906135f4565b6020604051808303816000875af1158015611376573d6000803e3d6000fd5b505050506040513d601f19601f8201168201806040525081019061139a91906132b9565b50600a547f8f95c4957ee34edd4a485a670aa52f5a209c00623e1a6ede185a009a87e605b08989896040516113d1939291906136f1565b60405180910390a2600a60008154809291906113ec90613752565b91905055505050505050505050565b611403611b50565b600073ffffffffffffffffffffffffffffffffffffffff168173ffffffffffffffffffffffffffffffffffffffff1603611472576040517f08c379a00000000000000000000000000000000000000000000000000000000081526004016114699061380c565b60405180910390fd5b61147b81611bf1565b50565b611486611b50565b600660009054906101000a900473ffffffffffffffffffffffffffffffffffffffff1673ffffffffffffffffffffffffffffffffffffffff1663a9059cbb83836040518363ffffffff1660e01b81526004016114e3929190613539565b6020604051808303816000875af1158015611502573d6000803e3d6000fd5b505050506040513d601f19601f82011682018060405250810190611526919061347a565b505050565b600660009054906101000a900473ffffffffffffffffffffffffffffffffffffffff1681565b6001600381111561156557611564612160565b5b600c600085815260200190815260200160002060040160009054906101000a900460ff16600381111561159b5761159a612160565b5b146115db576040517f08c379a00000000000000000000000000000000000000000000000000000000081526004016115d290613878565b60405180910390fd5b81816040516020016115ee9291906131f6565b60405160208183030381529060405280519060200120600c6000858152602001908152602001600020600101541461165b576040517f08c379a000000000000000000000000000000000000000000000000000000000815260040161165290613930565b60405180910390fd5b6003600c600085815260200190815260200160002060040160006101000a81548160ff0219169083600381111561169557611694612160565b5b02179055506000806008549050670de0b6b3a7640000600c600087815260200190815260200160002060020154036116d1576001915060075490505b600080600090505b6001868690506116e99190613950565b811161180d57831515600d600088888581811061170957611708613984565b5b905060200201602081019061171e91906125e8565b73ffffffffffffffffffffffffffffffffffffffff1673ffffffffffffffffffffffffffffffffffffffff16815260200190815260200160002060009054906101000a900460ff161515146117fa5783600d600088888581811061178557611784613984565b5b905060200201602081019061179a91906125e8565b73ffffffffffffffffffffffffffffffffffffffff1673ffffffffffffffffffffffffffffffffffffffff16815260200190815260200160002060006101000a81548160ff02191690831515021790555081806117f690613752565b9250505b808061180590613752565b9150506116d9565b506000818361181c91906139b3565b90506000811115611b1a5780600660009054906101000a900473ffffffffffffffffffffffffffffffffffffffff1673ffffffffffffffffffffffffffffffffffffffff166370a08231306040518263ffffffff1660e01b815260040161188391906126e0565b602060405180830381865afa1580156118a0573d6000803e3d6000fd5b505050506040513d601f19601f820116820180604052508101906118c491906132b9565b1015611a4157600660009054906101000a900473ffffffffffffffffffffffffffffffffffffffff1673ffffffffffffffffffffffffffffffffffffffff1663a9059cbb600c60008a815260200190815260200160002060000160009054906101000a900473ffffffffffffffffffffffffffffffffffffffff16600660009054906101000a900473ffffffffffffffffffffffffffffffffffffffff1673ffffffffffffffffffffffffffffffffffffffff166370a08231306040518263ffffffff1660e01b815260040161199a91906126e0565b602060405180830381865afa1580156119b7573d6000803e3d6000fd5b505050506040513d601f19601f820116820180604052508101906119db91906132b9565b6040518363ffffffff1660e01b81526004016119f8929190613539565b6020604051808303816000875af1158015611a17573d6000803e3d6000fd5b505050506040513d601f19601f82011682018060405250810190611a3b919061347a565b50611b19565b600660009054906101000a900473ffffffffffffffffffffffffffffffffffffffff1673ffffffffffffffffffffffffffffffffffffffff1663a9059cbb600c60008a815260200190815260200160002060000160009054906101000a900473ffffffffffffffffffffffffffffffffffffffff16836040518363ffffffff1660e01b8152600401611ad4929190613539565b6020604051808303816000875af1158015611af3573d6000803e3d6000fd5b505050506040513d601f19601f82011682018060405250810190611b17919061347a565b505b5b867f46005e4d82565f1eb14117244c72394416d24ef1fa87591388c9087399de68c260405160405180910390a250505050505050565b611b58611e3e565b73ffffffffffffffffffffffffffffffffffffffff16611b76610b95565b73ffffffffffffffffffffffffffffffffffffffff1614611bcc576040517f08c379a0000000000000000000000000000000000000000000000000000000008152600401611bc390613a41565b60405180910390fd5b565b6000808273ffffffffffffffffffffffffffffffffffffffff163b119050919050565b60008060029054906101000a900473ffffffffffffffffffffffffffffffffffffffff16905081600060026101000a81548173ffffffffffffffffffffffffffffffffffffffff021916908373ffffffffffffffffffffffffffffffffffffffff1602179055508173ffffffffffffffffffffffffffffffffffffffff168173ffffffffffffffffffffffffffffffffffffffff167f8be0079c531659141344cd1fd0a4f28419497f9722a3daafe3b4186f6b6457e060405160405180910390a35050565b606060008203611cfd576040518060400160405280600181526020017f30000000000000000000000000000000000000000000000000000000000000008152509050611e39565b600082905060005b60008214611d2f578080611d1890613752565b915050600a82611d289190613a90565b9150611d05565b60008167ffffffffffffffff811115611d4b57611d4a611ee1565b5b6040519080825280601f01601f191660200182016040528015611d7d5781602001600182028036833780820191505090505b50905060008290505b60008614611e3157600181611d9b9190613950565b90506000600a8088611dad9190613a90565b611db791906139b3565b87611dc29190613950565b6030611dce9190613ac1565b905060008160f81b905080848481518110611dec57611deb613984565b5b60200101907effffffffffffffffffffffffffffffffffffffffffffffffffffffffffffff1916908160001a905350600a88611e289190613a90565b97505050611d86565b819450505050505b919050565b600033905090565b6000604051905090565b600080fd5b600080fd5b6000819050919050565b611e6d81611e5a565b8114611e7857600080fd5b50565b600081359050611e8a81611e64565b92915050565b6000819050919050565b611ea381611e90565b8114611eae57600080fd5b50565b600081359050611ec081611e9a565b92915050565b600080fd5b600080fd5b6000601f19601f8301169050919050565b7f4e487b7100000000000000000000000000000000000000000000000000000000600052604160045260246000fd5b611f1982611ed0565b810181811067ffffffffffffffff82111715611f3857611f37611ee1565b5b80604052505050565b6000611f4b611e46565b9050611f578282611f10565b919050565b600067ffffffffffffffff821115611f7757611f76611ee1565b5b611f8082611ed0565b9050602081019050919050565b82818337600083830152505050565b6000611faf611faa84611f5c565b611f41565b905082815260208101848484011115611fcb57611fca611ecb565b5b611fd6848285611f8d565b509392505050565b600082601f830112611ff357611ff2611ec6565b5b8135612003848260208601611f9c565b91505092915050565b6000819050919050565b61201f8161200c565b811461202a57600080fd5b50565b60008135905061203c81612016565b92915050565b6000806000806080858703121561205c5761205b611e50565b5b600061206a87828801611e7b565b945050602061207b87828801611eb1565b935050604085013567ffffffffffffffff81111561209c5761209b611e55565b5b6120a887828801611fde565b92505060606120b98782880161202d565b91505092959194509250565b6000602082840312156120db576120da611e50565b5b60006120e984828501611eb1565b91505092915050565b600073ffffffffffffffffffffffffffffffffffffffff82169050919050565b600061211d826120f2565b9050919050565b61212d81612112565b82525050565b61213c81611e5a565b82525050565b61214b8161200c565b82525050565b61215a81611e90565b82525050565b7f4e487b7100000000000000000000000000000000000000000000000000000000600052602160045260246000fd5b600481106121a05761219f612160565b5b50565b60008190506121b18261218f565b919050565b60006121c1826121a3565b9050919050565b6121d1816121b6565b82525050565b600060a0820190506121ec6000830188612124565b6121f96020830187612133565b6122066040830186612142565b6122136060830185612151565b61222060808301846121c8565b9695505050505050565b61223381612112565b811461223e57600080fd5b50565b6000813590506122508161222a565b92915050565b600067ffffffffffffffff82111561227157612270611ee1565b5b61227a82611ed0565b9050602081019050919050565b600061229a61229584612256565b611f41565b9050828152602081018484840111156122b6576122b5611ecb565b5b6122c1848285611f8d565b509392505050565b600082601f8301126122de576122dd611ec6565b5b81356122ee848260208601612287565b91505092915050565b600067ffffffffffffffff82169050919050565b612314816122f7565b811461231f57600080fd5b50565b6000813590506123318161230b565b92915050565b60008060008060008060008060006101208a8c03121561235a57612359611e50565b5b60006123688c828d01612241565b99505060208a013567ffffffffffffffff81111561238957612388611e55565b5b6123958c828d01611fde565b98505060408a013567ffffffffffffffff8111156123b6576123b5611e55565b5b6123c28c828d016122c9565b97505060606123d38c828d01612241565b96505060806123e48c828d01611eb1565b95505060a06123f58c828d01611eb1565b94505060c06124068c828d01611eb1565b93505060e06124178c828d01612322565b9250506101006124298c828d01612241565b9150509295985092959850929598565b60006020828403121561244f5761244e611e50565b5b600061245d84828501612322565b91505092915050565b600081519050919050565b600082825260208201905092915050565b60005b838110156124a0578082015181840152602081019050612485565b60008484015250505050565b60006124b782612466565b6124c18185612471565b93506124d1818560208601612482565b6124da81611ed0565b840191505092915050565b600060208201905081810360008301526124ff81846124ac565b905092915050565b600081519050919050565b600082825260208201905092915050565b600061252e82612507565b6125388185612512565b9350612548818560208601612482565b61255181611ed0565b840191505092915050565b600060208201905081810360008301526125768184612523565b905092915050565b6000806040838503121561259557612594611e50565b5b60006125a385828601611eb1565b92505060206125b485828601611eb1565b9150509250929050565b6125c7816122f7565b82525050565b60006020820190506125e260008301846125be565b92915050565b6000602082840312156125fe576125fd611e50565b5b600061260c84828501612241565b91505092915050565b60008115159050919050565b61262a81612615565b82525050565b60006020820190506126456000830184612621565b92915050565b6000819050919050565b600061267061266b612666846120f2565b61264b565b6120f2565b9050919050565b600061268282612655565b9050919050565b600061269482612677565b9050919050565b6126a481612689565b82525050565b60006020820190506126bf600083018461269b565b92915050565b60006020820190506126da6000830184612151565b92915050565b60006020820190506126f56000830184612124565b92915050565b600061270682612677565b9050919050565b612716816126fb565b82525050565b6000602082019050612731600083018461270d565b92915050565b600080fd5b600080fd5b60008083601f84011261275757612756611ec6565b5b8235905067ffffffffffffffff81111561277457612773612737565b5b6020830191508360208202830111156127905761278f61273c565b5b9250929050565b6000806000604084860312156127b0576127af611e50565b5b60006127be8682870161202d565b935050602084013567ffffffffffffffff8111156127df576127de611e55565b5b6127eb86828701612741565b92509250509250925092565b6000806040838503121561280e5761280d611e50565b5b600061281c85828601612241565b925050602061282d85828601611eb1565b9150509250929050565b600061284282612677565b9050919050565b61285281612837565b82525050565b600060208201905061286d6000830184612849565b92915050565b60008060006040848603121561288c5761288b611e50565b5b600061289a86828701611eb1565b935050602084013567ffffffffffffffff8111156128bb576128ba611e55565b5b6128c786828701612741565b92509250509250925092565b600081905092915050565b60006128e982612507565b6128f381856128d3565b9350612903818560208601612482565b80840191505092915050565b6000819050919050565b61292a61292582611e90565b61290f565b82525050565b600061293c82856128de565b91506129488284612919565b6020820191508190509392505050565b600060208201905061296d6000830184612133565b92915050565b6000815190506129828161222a565b92915050565b60006020828403121561299e5761299d611e50565b5b60006129ac84828501612973565b91505092915050565b7f496e697469616c697a61626c653a20636f6e747261637420697320616c72656160008201527f647920696e697469616c697a6564000000000000000000000000000000000000602082015250565b6000612a11602e83612471565b9150612a1c826129b5565b604082019050919050565b60006020820190508181036000830152612a4081612a04565b9050919050565b7f2e2041646472657373657320746f2071756572792063616e20626520666f756e60008201527f6420696e207468652070656e64696e6741646472657373657320706172616d6560208201527f746572206f6620746865205265766973696f6e50726f706f736564206576656e60408201527f7420656d6974746564206279207468652072657175657374657227732061646460608201527f7265737320696e207468652073616d65207472616e73616374696f6e2061732060808201527f7468652070726f706f7365642070726963652077697468205265766973696f6e60a08201527f204944203d20000000000000000000000000000000000000000000000000000060c082015250565b6000612b6160c6836128d3565b9150612b6c82612a47565b60c682019050919050565b6000612b8382846128de565b9150612b8e82612b54565b915081905092915050565b7f4e487b7100000000000000000000000000000000000000000000000000000000600052602260045260246000fd5b60006002820490506001821680612be057607f821691505b602082108103612bf357612bf2612b99565b5b50919050565b60008190508160005260206000209050919050565b60006020601f8301049050919050565b600082821b905092915050565b600060088302612c5b7fffffffffffffffffffffffffffffffffffffffffffffffffffffffffffffffff82612c1e565b612c658683612c1e565b95508019841693508086168417925050509392505050565b6000612c98612c93612c8e84611e90565b61264b565b611e90565b9050919050565b6000819050919050565b612cb283612c7d565b612cc6612cbe82612c9f565b848454612c2b565b825550505050565b600090565b612cdb612cce565b612ce6818484612ca9565b505050565b5b81811015612d0a57612cff600082612cd3565b600181019050612cec565b5050565b601f821115612d4f57612d2081612bf9565b612d2984612c0e565b81016020851015612d38578190505b612d4c612d4485612c0e565b830182612ceb565b50505b505050565b600082821c905092915050565b6000612d7260001984600802612d54565b1980831691505092915050565b6000612d8b8383612d61565b9150826002028217905092915050565b612da482612507565b67ffffffffffffffff811115612dbd57612dbc611ee1565b5b612dc78254612bc8565b612dd2828285612d0e565b600060209050601f831160018114612e055760008415612df3578287015190505b612dfd8582612d7f565b865550612e65565b601f198416612e1386612bf9565b60005b82811015612e3b57848901518255600182019150602085019450602081019050612e16565b86831015612e585784890151612e54601f891682612d61565b8355505b6001600288020188555050505b505050505050565b60008190508160005260206000209050919050565b601f821115612ec357612e9481612e6d565b612e9d84612c0e565b81016020851015612eac578190505b612ec0612eb885612c0e565b830182612ceb565b50505b505050565b612ed182612466565b67ffffffffffffffff811115612eea57612ee9611ee1565b5b612ef48254612bc8565b612eff828285612e82565b600060209050601f831160018114612f325760008415612f20578287015190505b612f2a8582612d7f565b865550612f92565b601f198416612f4086612e6d565b60005b82811015612f6857848901518255600182019150602085019450602081019050612f43565b86831015612f855784890151612f81601f891682612d61565b8355505b6001600288020188555050505b505050505050565b6000819050919050565b600060ff82169050919050565b6000612fcc612fc7612fc284612f9a565b61264b565b612fa4565b9050919050565b612fdc81612fb1565b82525050565b6000602082019050612ff76000830184612fd3565b92915050565b60006040820190506130126000830185612151565b61301f6020830184612151565b9392505050565b7f696e76616c696420707269636500000000000000000000000000000000000000600082015250565b600061305c600d83612471565b915061306782613026565b602082019050919050565b6000602082019050818103600083015261308b8161304f565b9050919050565b6000815461309f81612bc8565b6130a981866128d3565b945060018216600081146130c457600181146130d95761310c565b60ff198316865281151582028601935061310c565b6130e285612bf9565b60005b83811015613104578154818901526001820191506020810190506130e5565b838801955050505b50505092915050565b60006131218285613092565b915061312d82846128de565b91508190509392505050565b600081905092915050565b6000819050919050565b61315781612112565b82525050565b6000613169838361314e565b60208301905092915050565b60006131846020840184612241565b905092915050565b6000602082019050919050565b60006131a58385613139565b93506131b082613144565b8060005b858110156131e9576131c68284613175565b6131d0888261315d565b97506131db8361318c565b9250506001810190506131b4565b5085925050509392505050565b6000613203828486613199565b91508190509392505050565b6000819050919050565b600061323461322f61322a8461320f565b61264b565b611e90565b9050919050565b61324481613219565b82525050565b600060a08201905061325f6000830188612133565b61326c6020830187612151565b818103604083015261327e8186612523565b905061328d6060830185612849565b61329a608083018461323b565b9695505050505050565b6000815190506132b381611e9a565b92915050565b6000602082840312156132cf576132ce611e50565b5b60006132dd848285016132a4565b91505092915050565b600060c0820190506132fb6000830189612133565b6133086020830188612151565b818103604083015261331a8187612523565b90506133296060830186612621565b6133366080830185612621565b61334360a0830184612621565b979650505050505050565b600061336961336461335f846122f7565b61264b565b611e90565b9050919050565b6133798161334e565b82525050565b60006080820190506133946000830187612133565b6133a16020830186612151565b81810360408301526133b38185612523565b90506133c26060830184613370565b95945050505050565b60006080820190506133e06000830187612133565b6133ed6020830186612151565b81810360408301526133ff8185612523565b905061340e6060830184612151565b95945050505050565b600060608201905061342c6000830186612124565b6134396020830185612124565b6134466040830184612151565b949350505050565b61345781612615565b811461346257600080fd5b50565b6000815190506134748161344e565b92915050565b6000602082840312156134905761348f611e50565b5b600061349e84828501613465565b91505092915050565b7f7472616e73666572206f6620626f6e6420616d6f756e7420746f204c6973742060008201527f636f6e7472616374206661696c65640000000000000000000000000000000000602082015250565b6000613503602f83612471565b915061350e826134a7565b604082019050919050565b60006020820190508181036000830152613532816134f6565b9050919050565b600060408201905061354e6000830185612124565b61355b6020830184612151565b9392505050565b7f617070726f76616c206f6620626f6e6420616d6f756e742066726f6d204c697360008201527f7420636f6e747261637420746f204f7261636c65206661696c65640000000000602082015250565b60006135be603b83612471565b91506135c982613562565b604082019050919050565b600060208201905081810360008301526135ed816135b1565b9050919050565b600060c0820190506136096000830189612124565b6136166020830188612124565b6136236040830187612133565b6136306060830186612151565b81810360808301526136428185612523565b905061365160a0830184612142565b979650505050505050565b600082825260208201905092915050565b61367681612112565b82525050565b6000613688838361366d565b60208301905092915050565b60006136a0838561365c565b93506136ab82613144565b8060005b858110156136e4576136c18284613175565b6136cb888261367c565b97506136d68361318c565b9250506001810190506136af565b5085925050509392505050565b60006040820190506137066000830186612142565b8181036020830152613719818486613694565b9050949350505050565b7f4e487b7100000000000000000000000000000000000000000000000000000000600052601160045260246000fd5b600061375d82611e90565b91507fffffffffffffffffffffffffffffffffffffffffffffffffffffffffffffffff820361378f5761378e613723565b5b600182019050919050565b7f4f776e61626c653a206e6577206f776e657220697320746865207a65726f206160008201527f6464726573730000000000000000000000000000000000000000000000000000602082015250565b60006137f6602683612471565b91506138018261379a565b604082019050919050565b60006020820190508181036000830152613825816137e9565b9050919050565b7f5f7265766973696f6e4964206973206e6f7420617070726f7665640000000000600082015250565b6000613862601b83612471565b915061386d8261382c565b602082019050919050565b6000602082019050818103600083015261389181613855565b9050919050565b7f6164647265737365732070726f766964656420646f206e6f74206d617463682060008201527f7468652070726f7669646564205f7265766973696f6e4964277320616464726560208201527f7373657348617368000000000000000000000000000000000000000000000000604082015250565b600061391a604883612471565b915061392582613898565b606082019050919050565b600060208201905081810360008301526139498161390d565b9050919050565b600061395b82611e90565b915061396683611e90565b925082820390508181111561397e5761397d613723565b5b92915050565b7f4e487b7100000000000000000000000000000000000000000000000000000000600052603260045260246000fd5b60006139be82611e90565b91506139c983611e90565b92508282026139d781611e90565b915082820484148315176139ee576139ed613723565b5b5092915050565b7f4f776e61626c653a2063616c6c6572206973206e6f7420746865206f776e6572600082015250565b6000613a2b602083612471565b9150613a36826139f5565b602082019050919050565b60006020820190508181036000830152613a5a81613a1e565b9050919050565b7f4e487b7100000000000000000000000000000000000000000000000000000000600052601260045260246000fd5b6000613a9b82611e90565b9150613aa683611e90565b925082613ab657613ab5613a61565b5b828204905092915050565b6000613acc82612fa4565b9150613ad783612fa4565b9250828201905060ff811115613af057613aef613723565b5b9291505056fea2646970667358221220f7aa2212ca8c520dbf83c745a4f1a7774e3ce2a5d63c7dcc008d4adec0911a6564736f6c63430008110033",
  "linkReferences": {},
  "deployedLinkReferences": {}
}