{
  "_format": "hh-sol-artifact-1",
  "contractName": "Decentralist",
  "sourceName": "contracts/decentralist.sol",
  "abi": [
    {
      "anonymous": false,
      "inputs": [
        {
          "indexed": true,
          "internalType": "uint256",
          "name": "requestId",
          "type": "uint256"
        }
      ],
      "name": "ApprovedAddition",
      "type": "event"
    },
    {
      "anonymous": false,
      "inputs": [
        {
          "indexed": true,
          "internalType": "uint256",
          "name": "requestId",
          "type": "uint256"
        }
      ],
      "name": "ApprovedRemoval",
      "type": "event"
    },
    {
      "anonymous": false,
      "inputs": [
        {
          "indexed": false,
          "internalType": "uint8",
          "name": "version",
          "type": "uint8"
        }
      ],
      "name": "Initialized",
      "type": "event"
    },
    {
      "anonymous": false,
      "inputs": [
        {
          "indexed": true,
          "internalType": "address",
          "name": "previousOwner",
          "type": "address"
        },
        {
          "indexed": true,
          "internalType": "address",
          "name": "newOwner",
          "type": "address"
        }
      ],
      "name": "OwnershipTransferred",
      "type": "event"
    },
    {
      "anonymous": false,
      "inputs": [
        {
          "indexed": true,
          "internalType": "uint256",
          "name": "requestId",
          "type": "uint256"
        },
        {
          "indexed": true,
          "internalType": "bytes32",
          "name": "addressesHash",
          "type": "bytes32"
        },
        {
          "indexed": false,
          "internalType": "address[]",
          "name": "pendingAddresses",
          "type": "address[]"
        }
      ],
      "name": "ProposedAddition",
      "type": "event"
    },
    {
      "anonymous": false,
      "inputs": [
        {
          "indexed": true,
          "internalType": "uint256",
          "name": "requestId",
          "type": "uint256"
        },
        {
          "indexed": true,
          "internalType": "bytes32",
          "name": "addressesHash",
          "type": "bytes32"
        },
        {
          "indexed": false,
          "internalType": "address[]",
          "name": "pendingAddresses",
          "type": "address[]"
        }
      ],
      "name": "ProposedRemoval",
      "type": "event"
    },
    {
      "anonymous": false,
      "inputs": [
        {
          "indexed": true,
          "internalType": "uint256",
          "name": "requestId",
          "type": "uint256"
        }
      ],
      "name": "RejectedAddition",
      "type": "event"
    },
    {
      "anonymous": false,
      "inputs": [
        {
          "indexed": true,
          "internalType": "uint256",
          "name": "requestId",
          "type": "uint256"
        }
      ],
      "name": "RejectedRemoval",
      "type": "event"
    },
    {
      "inputs": [
        {
          "internalType": "address[]",
          "name": "_addresses",
          "type": "address[]"
        }
      ],
      "name": "addAddresses",
      "outputs": [],
      "stateMutability": "nonpayable",
      "type": "function"
    },
    {
      "inputs": [],
      "name": "addReward",
      "outputs": [
        {
          "internalType": "uint256",
          "name": "",
          "type": "uint256"
        }
      ],
      "stateMutability": "view",
      "type": "function"
    },
    {
      "inputs": [
        {
          "internalType": "uint256",
          "name": "_addReward",
          "type": "uint256"
        },
        {
          "internalType": "uint256",
          "name": "_removeReward",
          "type": "uint256"
        }
      ],
      "name": "adjustRewards",
      "outputs": [],
      "stateMutability": "nonpayable",
      "type": "function"
    },
    {
      "inputs": [],
      "name": "bondAmount",
      "outputs": [
        {
          "internalType": "uint256",
          "name": "",
          "type": "uint256"
        }
      ],
      "stateMutability": "view",
      "type": "function"
    },
    {
      "inputs": [
        {
          "internalType": "uint256",
          "name": "requestId",
          "type": "uint256"
        },
        {
          "internalType": "address[]",
          "name": "_addresses",
          "type": "address[]"
        }
      ],
      "name": "executeApprovedRequests",
      "outputs": [],
      "stateMutability": "nonpayable",
      "type": "function"
    },
    {
      "inputs": [],
      "name": "fixedAncillaryData",
      "outputs": [
        {
          "internalType": "bytes",
          "name": "",
          "type": "bytes"
        }
      ],
      "stateMutability": "view",
      "type": "function"
    },
    {
      "inputs": [
        {
          "internalType": "bytes",
          "name": "listCriteria",
          "type": "bytes"
        },
        {
          "internalType": "string",
          "name": "_title",
          "type": "string"
        },
        {
          "internalType": "uint256",
          "name": "_liveness",
          "type": "uint256"
        },
        {
          "internalType": "uint256",
          "name": "_bondAmount",
          "type": "uint256"
        },
        {
          "internalType": "uint256",
          "name": "_addReward",
          "type": "uint256"
        },
        {
          "internalType": "uint256",
          "name": "_removeReward",
          "type": "uint256"
        },
        {
          "internalType": "address",
          "name": "_owner",
          "type": "address"
        }
      ],
      "name": "initialize",
      "outputs": [],
      "stateMutability": "nonpayable",
      "type": "function"
    },
    {
      "inputs": [],
      "name": "liveness",
      "outputs": [
        {
          "internalType": "uint256",
          "name": "",
          "type": "uint256"
        }
      ],
      "stateMutability": "view",
      "type": "function"
    },
    {
      "inputs": [
        {
          "internalType": "address",
          "name": "",
          "type": "address"
        }
      ],
      "name": "onList",
      "outputs": [
        {
          "internalType": "bool",
          "name": "",
          "type": "bool"
        }
      ],
      "stateMutability": "view",
      "type": "function"
    },
    {
      "inputs": [],
      "name": "owner",
      "outputs": [
        {
          "internalType": "address",
          "name": "",
          "type": "address"
        }
      ],
      "stateMutability": "view",
      "type": "function"
    },
    {
      "inputs": [
        {
          "internalType": "bytes32",
          "name": "",
          "type": "bytes32"
        },
        {
          "internalType": "uint256",
          "name": "timestamp",
          "type": "uint256"
        },
        {
          "internalType": "bytes",
          "name": "ancillaryData",
          "type": "bytes"
        },
        {
          "internalType": "int256",
          "name": "price",
          "type": "int256"
        }
      ],
      "name": "priceSettled",
      "outputs": [],
      "stateMutability": "nonpayable",
      "type": "function"
    },
    {
      "inputs": [
        {
          "internalType": "address[]",
          "name": "_addresses",
          "type": "address[]"
        }
      ],
      "name": "removeAddresses",
      "outputs": [],
      "stateMutability": "nonpayable",
      "type": "function"
    },
    {
      "inputs": [],
      "name": "removeReward",
      "outputs": [
        {
          "internalType": "uint256",
          "name": "",
          "type": "uint256"
        }
      ],
      "stateMutability": "view",
      "type": "function"
    },
    {
      "inputs": [],
      "name": "renounceOwnership",
      "outputs": [],
      "stateMutability": "nonpayable",
      "type": "function"
    },
    {
      "inputs": [
        {
          "internalType": "uint256",
          "name": "",
          "type": "uint256"
        }
      ],
      "name": "requests",
      "outputs": [
        {
          "internalType": "address",
          "name": "proposer",
          "type": "address"
        },
        {
          "internalType": "bytes32",
          "name": "addressesHash",
          "type": "bytes32"
        },
        {
          "internalType": "int256",
          "name": "proposedPrice",
          "type": "int256"
        },
        {
          "internalType": "uint256",
          "name": "addressesCount",
          "type": "uint256"
        },
        {
          "internalType": "enum Decentralist.Status",
          "name": "status",
          "type": "uint8"
        }
      ],
      "stateMutability": "view",
      "type": "function"
    },
    {
      "inputs": [],
      "name": "title",
      "outputs": [
        {
          "internalType": "string",
          "name": "",
          "type": "string"
        }
      ],
      "stateMutability": "view",
      "type": "function"
    },
    {
      "inputs": [
        {
          "internalType": "address",
          "name": "newOwner",
          "type": "address"
        }
      ],
      "name": "transferOwnership",
      "outputs": [],
      "stateMutability": "nonpayable",
      "type": "function"
    },
    {
      "inputs": [
        {
          "internalType": "address",
          "name": "recipient",
          "type": "address"
        },
        {
          "internalType": "uint256",
          "name": "amount",
          "type": "uint256"
        }
      ],
      "name": "withdraw",
      "outputs": [],
      "stateMutability": "nonpayable",
      "type": "function"
    }
  ],
  "bytecode": "0x60806040523480156200001157600080fd5b5062000032620000266200003860201b60201c565b6200004060201b60201c565b62000105565b600033905090565b60008060029054906101000a900473ffffffffffffffffffffffffffffffffffffffff16905081600060026101000a81548173ffffffffffffffffffffffffffffffffffffffff021916908373ffffffffffffffffffffffffffffffffffffffff1602179055508173ffffffffffffffffffffffffffffffffffffffff168173ffffffffffffffffffffffffffffffffffffffff167f8be0079c531659141344cd1fd0a4f28419497f9722a3daafe3b4186f6b6457e060405160405180910390a35050565b61409880620001156000396000f3fe608060405234801561001057600080fd5b50600436106101165760003560e01c806380f323a7116100a2578063a84eb99911610071578063a84eb999146102ad578063c8108ed9146102c9578063e59a58ee146102e5578063f2fde38b14610303578063f3fef3a31461031f57610116565b806380f323a71461022157806381d12c581461023f5780638da5cb5b14610273578063a837edd81461029157610116565b80635cae7fb5116100e95780635cae7fb51461018d5780636ad0690a146101ab5780636f626eb3146101c9578063715018a6146101f95780637eecf18d1461020357610116565b806304cc1fd51461011b578063257a0dc3146101375780633628731c146101535780634a79d50c1461016f575b600080fd5b61013560048036038101906101309190612624565b61033b565b005b610151600480360381019061014c9190612707565b610ae3565b005b61016d60048036038101906101689190612767565b610d09565b005b61017761134c565b6040516101849190612833565b60405180910390f35b6101956113da565b6040516101a291906128aa565b60405180910390f35b6101b3611468565b6040516101c091906128db565b60405180910390f35b6101e360048036038101906101de9190612954565b61146e565b6040516101f0919061299c565b60405180910390f35b61020161148e565b005b61020b6114a2565b60405161021891906128db565b60405180910390f35b6102296114a8565b60405161023691906128db565b60405180910390f35b610259600480360381019061025491906129b7565b6114ae565b60405161026a959493929190612a88565b60405180910390f35b61027b611511565b6040516102889190612adb565b60405180910390f35b6102ab60048036038101906102a69190612af6565b61153a565b005b6102c760048036038101906102c29190612767565b611554565b005b6102e360048036038101906102de9190612bd7565b611b88565b005b6102ed611d28565b6040516102fa91906128db565b60405180910390f35b61031d60048036038101906103189190612954565b611d2e565b005b61033960048036038101906103349190612cb1565b611db1565b005b60008284604051602001610350929190612d4e565b60405160208183030381529060405280519060200120905060006008600083815260200190815260200160002054905060006009600083815260200190815260200160002090506000816002015403610731576000841461040d5760028160040160006101000a81548160ff021916908360038111156103d3576103d2612a11565b5b0217905550817fcc4705c4491ae801f7be42e93c4a6f44bb45771410be8332b9f1054000192cd360405160405180910390a2505050610add565b600084036107305760018160040160006101000a81548160ff0219169083600381111561043d5761043c612a11565b5b0217905550600060045411156106fb57600081600301546004546104619190612da5565b90508073b4fbf271143f4fbf7b91a5ded31805e42b2208d673ffffffffffffffffffffffffffffffffffffffff166370a08231306040518263ffffffff1660e01b81526004016104b19190612adb565b602060405180830381865afa1580156104ce573d6000803e3d6000fd5b505050506040513d601f19601f820116820180604052508101906104f29190612dfc565b10156106415773b4fbf271143f4fbf7b91a5ded31805e42b2208d673ffffffffffffffffffffffffffffffffffffffff1663a9059cbb8360000160009054906101000a900473ffffffffffffffffffffffffffffffffffffffff1673b4fbf271143f4fbf7b91a5ded31805e42b2208d673ffffffffffffffffffffffffffffffffffffffff166370a08231306040518263ffffffff1660e01b815260040161059a9190612adb565b602060405180830381865afa1580156105b7573d6000803e3d6000fd5b505050506040513d601f19601f820116820180604052508101906105db9190612dfc565b6040518363ffffffff1660e01b81526004016105f8929190612e29565b6020604051808303816000875af1158015610617573d6000803e3d6000fd5b505050506040513d601f19601f8201168201806040525081019061063b9190612e7e565b506106f9565b73b4fbf271143f4fbf7b91a5ded31805e42b2208d673ffffffffffffffffffffffffffffffffffffffff1663a9059cbb8360000160009054906101000a900473ffffffffffffffffffffffffffffffffffffffff16836040518363ffffffff1660e01b81526004016106b4929190612e29565b6020604051808303816000875af11580156106d3573d6000803e3d6000fd5b505050506040513d601f19601f820116820180604052508101906106f79190612e7e565b505b505b817f77a46b87206f22fcdccc5e3f24640def0a35b99106307b3ddb7b164f1f2ef7fe60405160405180910390a2505050610add565b5b670de0b6b3a7640000816002015403610ad957670de0b6b3a764000084146107b55760028160040160006101000a81548160ff0219169083600381111561077b5761077a612a11565b5b0217905550817f76fba38ae676b322ed81426f919645168dffea04df349b2f0ed43f35c2d05a6f60405160405180910390a2505050610add565b670de0b6b3a76400008403610ad85760018160040160006101000a81548160ff021916908360038111156107ec576107eb612a11565b5b021790555060006003541115610aaa57600081600301546003546108109190612da5565b90508073b4fbf271143f4fbf7b91a5ded31805e42b2208d673ffffffffffffffffffffffffffffffffffffffff166370a08231306040518263ffffffff1660e01b81526004016108609190612adb565b602060405180830381865afa15801561087d573d6000803e3d6000fd5b505050506040513d601f19601f820116820180604052508101906108a19190612dfc565b10156109f05773b4fbf271143f4fbf7b91a5ded31805e42b2208d673ffffffffffffffffffffffffffffffffffffffff1663a9059cbb8360000160009054906101000a900473ffffffffffffffffffffffffffffffffffffffff1673b4fbf271143f4fbf7b91a5ded31805e42b2208d673ffffffffffffffffffffffffffffffffffffffff166370a08231306040518263ffffffff1660e01b81526004016109499190612adb565b602060405180830381865afa158015610966573d6000803e3d6000fd5b505050506040513d601f19601f8201168201806040525081019061098a9190612dfc565b6040518363ffffffff1660e01b81526004016109a7929190612e29565b6020604051808303816000875af11580156109c6573d6000803e3d6000fd5b505050506040513d601f19601f820116820180604052508101906109ea9190612e7e565b50610aa8565b73b4fbf271143f4fbf7b91a5ded31805e42b2208d673ffffffffffffffffffffffffffffffffffffffff1663a9059cbb8360000160009054906101000a900473ffffffffffffffffffffffffffffffffffffffff16836040518363ffffffff1660e01b8152600401610a63929190612e29565b6020604051808303816000875af1158015610a82573d6000803e3d6000fd5b505050506040513d601f19601f82011682018060405250810190610aa69190612e7e565b505b505b817fe28d3c97821ea96836c04a2610aa7b163e30fde6d2eb1f72149a927006628f3e60405160405180910390a25b5b5050505b50505050565b60016003811115610af757610af6612a11565b5b6009600085815260200190815260200160002060040160009054906101000a900460ff166003811115610b2d57610b2c612a11565b5b14610b6d576040517f08c379a0000000000000000000000000000000000000000000000000000000008152600401610b6490612ef7565b60405180910390fd5b8181604051602001610b80929190612fd4565b60405160208183030381529060405280519060200120600960008581526020019081526020016000206001015414610bed576040517f08c379a0000000000000000000000000000000000000000000000000000000008152600401610be490613085565b60405180910390fd5b60036009600085815260200190815260200160002060040160006101000a81548160ff02191690836003811115610c2757610c26612a11565b5b02179055506000670de0b6b3a7640000600960008681526020019081526020016000206002015403610c5857600190505b60005b600184849050610c6b91906130a5565b8111610d025781600a6000868685818110610c8957610c886130d9565b5b9050602002016020810190610c9e9190612954565b73ffffffffffffffffffffffffffffffffffffffff1673ffffffffffffffffffffffffffffffffffffffff16815260200190815260200160002060006101000a81548160ff0219169083151502179055508080610cfa90613108565b915050610c5b565b5050505050565b60005b600183839050610d1c91906130a5565b8111610ee157600a6000848484818110610d3957610d386130d9565b5b9050602002016020810190610d4e9190612954565b73ffffffffffffffffffffffffffffffffffffffff1673ffffffffffffffffffffffffffffffffffffffff16815260200190815260200160002060009054906101000a900460ff1615610dd6576040517f08c379a0000000000000000000000000000000000000000000000000000000008152600401610dcd906131c2565b60405180910390fd5b6000600182610de591906131e2565b90505b600184849050610df891906130a5565b8111610ecd57838382818110610e1157610e106130d9565b5b9050602002016020810190610e269190612954565b73ffffffffffffffffffffffffffffffffffffffff16848484818110610e4f57610e4e6130d9565b5b9050602002016020810190610e649190612954565b73ffffffffffffffffffffffffffffffffffffffff1603610eba576040517f08c379a0000000000000000000000000000000000000000000000000000000008152600401610eb190613262565b60405180910390fd5b8080610ec590613108565b915050610de8565b508080610ed990613108565b915050610d0c565b5060006007610ef1600554611e50565b604051602001610f029291906133a0565b604051602081830303815290604052905060004290506000610f248284611fd8565b905060008383604051602001610f3b929190612d4e565b60405160208183030381529060405280519060200120905060008686604051602001610f68929190612fd4565b60405160208183030381529060405280519060200120905060055460086000848152602001908152602001600020819055503360096000600554815260200190815260200160002060000160006101000a81548173ffffffffffffffffffffffffffffffffffffffff021916908373ffffffffffffffffffffffffffffffffffffffff1602179055508060096000600554815260200190815260200160002060010181905550670de0b6b3a7640000600960006005548152602001908152602001600020600201819055508686905060096000600554815260200190815260200160002060030181905550600083111561113657600073b4fbf271143f4fbf7b91a5ded31805e42b2208d673ffffffffffffffffffffffffffffffffffffffff166323b872dd3330876040518463ffffffff1660e01b81526004016110af939291906133d3565b6020604051808303816000875af11580156110ce573d6000803e3d6000fd5b505050506040513d601f19601f820116820180604052508101906110f29190612e7e565b905080611134576040517f08c379a000000000000000000000000000000000000000000000000000000000815260040161112b9061347c565b60405180910390fd5b505b600083111561122b57600073b4fbf271143f4fbf7b91a5ded31805e42b2208d673ffffffffffffffffffffffffffffffffffffffff1663095ea7b373a5b9d8a0b0fa04ba71bdd68069661ed5c0848884866040518363ffffffff1660e01b81526004016111a4929190612e29565b6020604051808303816000875af11580156111c3573d6000803e3d6000fd5b505050506040513d601f19601f820116820180604052508101906111e79190612e7e565b905080611229576040517f08c379a00000000000000000000000000000000000000000000000000000000081526004016112209061350e565b60405180910390fd5b505b73a5b9d8a0b0fa04ba71bdd68069661ed5c084888473ffffffffffffffffffffffffffffffffffffffff16637c82288f33307f5945535f4f525f4e4f5f51554552590000000000000000000000000000000000888a670de0b6b3a76400006040518763ffffffff1660e01b81526004016112aa9695949392919061352e565b6020604051808303816000875af11580156112c9573d6000803e3d6000fd5b505050506040513d601f19601f820116820180604052508101906112ed9190612dfc565b50806005547f3882d8098087be8b372a66575f9aaadd1c9911c055f66f010a47dfa65a6f431b898960405161132392919061362b565b60405180910390a36005600081548092919061133e90613108565b919050555050505050505050565b60068054611359906132b1565b80601f0160208091040260200160405190810160405280929190818152602001828054611385906132b1565b80156113d25780601f106113a7576101008083540402835291602001916113d2565b820191906000526020600020905b8154815290600101906020018083116113b557829003601f168201915b505050505081565b600780546113e7906132b1565b80601f0160208091040260200160405190810160405280929190818152602001828054611413906132b1565b80156114605780601f1061143557610100808354040283529160200191611460565b820191906000526020600020905b81548152906001019060200180831161144357829003601f168201915b505050505081565b60025481565b600a6020528060005260406000206000915054906101000a900460ff1681565b6114966122ba565b6114a06000612338565b565b60045481565b60015481565b60096020528060005260406000206000915090508060000160009054906101000a900473ffffffffffffffffffffffffffffffffffffffff16908060010154908060020154908060030154908060040160009054906101000a900460ff16905085565b60008060029054906101000a900473ffffffffffffffffffffffffffffffffffffffff16905090565b6115426122ba565b81600381905550806004819055505050565b60005b60018383905061156791906130a5565b811161172b57600a6000848484818110611584576115836130d9565b5b90506020020160208101906115999190612954565b73ffffffffffffffffffffffffffffffffffffffff1673ffffffffffffffffffffffffffffffffffffffff16815260200190815260200160002060009054906101000a900460ff16611620576040517f08c379a0000000000000000000000000000000000000000000000000000000008152600401611617906136c1565b60405180910390fd5b600060018261162f91906131e2565b90505b60018484905061164291906130a5565b81116117175783838281811061165b5761165a6130d9565b5b90506020020160208101906116709190612954565b73ffffffffffffffffffffffffffffffffffffffff16848484818110611699576116986130d9565b5b90506020020160208101906116ae9190612954565b73ffffffffffffffffffffffffffffffffffffffff1603611704576040517f08c379a00000000000000000000000000000000000000000000000000000000081526004016116fb90613262565b60405180910390fd5b808061170f90613108565b915050611632565b50808061172390613108565b915050611557565b506000600761173b600554611e50565b60405160200161174c9291906133a0565b60405160208183030381529060405290506000429050600061176e8284611fd8565b905060008383604051602001611785929190612d4e565b604051602081830303815290604052805190602001209050600086866040516020016117b2929190612fd4565b60405160208183030381529060405280519060200120905060055460086000848152602001908152602001600020819055503360096000600554815260200190815260200160002060000160006101000a81548173ffffffffffffffffffffffffffffffffffffffff021916908373ffffffffffffffffffffffffffffffffffffffff16021790555080600960006005548152602001908152602001600020600101819055506000600960006005548152602001908152602001600020600201819055508686905060096000600554815260200190815260200160002060030181905550600083111561197957600073b4fbf271143f4fbf7b91a5ded31805e42b2208d673ffffffffffffffffffffffffffffffffffffffff166323b872dd3330876040518463ffffffff1660e01b81526004016118f2939291906133d3565b6020604051808303816000875af1158015611911573d6000803e3d6000fd5b505050506040513d601f19601f820116820180604052508101906119359190612e7e565b905080611977576040517f08c379a000000000000000000000000000000000000000000000000000000000815260040161196e9061347c565b60405180910390fd5b505b6000831115611a6e57600073b4fbf271143f4fbf7b91a5ded31805e42b2208d673ffffffffffffffffffffffffffffffffffffffff1663095ea7b373a5b9d8a0b0fa04ba71bdd68069661ed5c0848884866040518363ffffffff1660e01b81526004016119e7929190612e29565b6020604051808303816000875af1158015611a06573d6000803e3d6000fd5b505050506040513d601f19601f82011682018060405250810190611a2a9190612e7e565b905080611a6c576040517f08c379a0000000000000000000000000000000000000000000000000000000008152600401611a639061350e565b60405180910390fd5b505b73a5b9d8a0b0fa04ba71bdd68069661ed5c084888473ffffffffffffffffffffffffffffffffffffffff16637c82288f33307f5945535f4f525f4e4f5f51554552590000000000000000000000000000000000888a60006040518763ffffffff1660e01b8152600401611ae696959493929190613726565b6020604051808303816000875af1158015611b05573d6000803e3d6000fd5b505050506040513d601f19601f82011682018060405250810190611b299190612dfc565b50806005547fbfd0a97b84e92dcff8d198f9ea115eb00f7460daffdf76d66b331e26a68703868989604051611b5f92919061362b565b60405180910390a360056000815480929190611b7a90613108565b919050555050505050505050565b60008060019054906101000a900460ff16159050808015611bb95750600160008054906101000a900460ff1660ff16105b80611be65750611bc8306123fd565b158015611be55750600160008054906101000a900460ff1660ff16145b5b611c25576040517f08c379a0000000000000000000000000000000000000000000000000000000008152600401611c1c90613800565b60405180910390fd5b60016000806101000a81548160ff021916908360ff1602179055508015611c62576001600060016101000a81548160ff0219169083151502179055505b87604051602001611c73919061392a565b60405160208183030381529060405260079081611c909190613ad9565b508660069081611ca09190613c06565b508560028190555084600181905550836003819055508260048190555060016005819055508015611d1e5760008060016101000a81548160ff0219169083151502179055507f7f26b83ff96e1f2b6a682f133852f6798a09c465da95921460cefb38474024986001604051611d159190613d20565b60405180910390a15b5050505050505050565b60035481565b611d366122ba565b600073ffffffffffffffffffffffffffffffffffffffff168173ffffffffffffffffffffffffffffffffffffffff1603611da5576040517f08c379a0000000000000000000000000000000000000000000000000000000008152600401611d9c90613dad565b60405180910390fd5b611dae81612338565b50565b611db96122ba565b73b4fbf271143f4fbf7b91a5ded31805e42b2208d673ffffffffffffffffffffffffffffffffffffffff1663a9059cbb83836040518363ffffffff1660e01b8152600401611e08929190612e29565b6020604051808303816000875af1158015611e27573d6000803e3d6000fd5b505050506040513d601f19601f82011682018060405250810190611e4b9190612e7e565b505050565b606060008203611e97576040518060400160405280600181526020017f30000000000000000000000000000000000000000000000000000000000000008152509050611fd3565b600082905060005b60008214611ec9578080611eb290613108565b915050600a82611ec29190613dfc565b9150611e9f565b60008167ffffffffffffffff811115611ee557611ee46124c3565b5b6040519080825280601f01601f191660200182016040528015611f175781602001600182028036833780820191505090505b50905060008290505b60008614611fcb57600181611f3591906130a5565b90506000600a8088611f479190613dfc565b611f519190612da5565b87611f5c91906130a5565b6030611f689190613e2d565b905060008160f81b905080848481518110611f8657611f856130d9565b5b60200101907effffffffffffffffffffffffffffffffffffffffffffffffffffffffffffff1916908160001a905350600a88611fc29190613dfc565b97505050611f20565b819450505050505b919050565b600073a5b9d8a0b0fa04ba71bdd68069661ed5c084888473ffffffffffffffffffffffffffffffffffffffff166311df92f17f5945535f4f525f4e4f5f51554552590000000000000000000000000000000000858573b4fbf271143f4fbf7b91a5ded31805e42b2208d660006040518663ffffffff1660e01b8152600401612064959493929190613ee8565b6020604051808303816000875af1158015612083573d6000803e3d6000fd5b505050506040513d601f19601f820116820180604052508101906120a79190612dfc565b5073a5b9d8a0b0fa04ba71bdd68069661ed5c084888473ffffffffffffffffffffffffffffffffffffffff1663f327b0757f5945535f4f525f4e4f5f51554552590000000000000000000000000000000000858560008060016040518763ffffffff1660e01b815260040161212196959493929190613f42565b600060405180830381600087803b15801561213b57600080fd5b505af115801561214f573d6000803e3d6000fd5b5050505073a5b9d8a0b0fa04ba71bdd68069661ed5c084888473ffffffffffffffffffffffffffffffffffffffff1663473c45fe7f5945535f4f525f4e4f5f5155455259000000000000000000000000000000000085856002546040518563ffffffff1660e01b81526004016121c89493929190613faa565b600060405180830381600087803b1580156121e257600080fd5b505af11580156121f6573d6000803e3d6000fd5b5050505073a5b9d8a0b0fa04ba71bdd68069661ed5c084888473ffffffffffffffffffffffffffffffffffffffff1663ad5a755a7f5945535f4f525f4e4f5f5155455259000000000000000000000000000000000085856001546040518563ffffffff1660e01b815260040161226f9493929190613faa565b6020604051808303816000875af115801561228e573d6000803e3d6000fd5b505050506040513d601f19601f820116820180604052508101906122b29190612dfc565b905092915050565b6122c2612420565b73ffffffffffffffffffffffffffffffffffffffff166122e0611511565b73ffffffffffffffffffffffffffffffffffffffff1614612336576040517f08c379a000000000000000000000000000000000000000000000000000000000815260040161232d90614042565b60405180910390fd5b565b60008060029054906101000a900473ffffffffffffffffffffffffffffffffffffffff16905081600060026101000a81548173ffffffffffffffffffffffffffffffffffffffff021916908373ffffffffffffffffffffffffffffffffffffffff1602179055508173ffffffffffffffffffffffffffffffffffffffff168173ffffffffffffffffffffffffffffffffffffffff167f8be0079c531659141344cd1fd0a4f28419497f9722a3daafe3b4186f6b6457e060405160405180910390a35050565b6000808273ffffffffffffffffffffffffffffffffffffffff163b119050919050565b600033905090565b6000604051905090565b600080fd5b600080fd5b6000819050919050565b61244f8161243c565b811461245a57600080fd5b50565b60008135905061246c81612446565b92915050565b6000819050919050565b61248581612472565b811461249057600080fd5b50565b6000813590506124a28161247c565b92915050565b600080fd5b600080fd5b6000601f19601f8301169050919050565b7f4e487b7100000000000000000000000000000000000000000000000000000000600052604160045260246000fd5b6124fb826124b2565b810181811067ffffffffffffffff8211171561251a576125196124c3565b5b80604052505050565b600061252d612428565b905061253982826124f2565b919050565b600067ffffffffffffffff821115612559576125586124c3565b5b612562826124b2565b9050602081019050919050565b82818337600083830152505050565b600061259161258c8461253e565b612523565b9050828152602081018484840111156125ad576125ac6124ad565b5b6125b884828561256f565b509392505050565b600082601f8301126125d5576125d46124a8565b5b81356125e584826020860161257e565b91505092915050565b6000819050919050565b612601816125ee565b811461260c57600080fd5b50565b60008135905061261e816125f8565b92915050565b6000806000806080858703121561263e5761263d612432565b5b600061264c8782880161245d565b945050602061265d87828801612493565b935050604085013567ffffffffffffffff81111561267e5761267d612437565b5b61268a878288016125c0565b925050606061269b8782880161260f565b91505092959194509250565b600080fd5b600080fd5b60008083601f8401126126c7576126c66124a8565b5b8235905067ffffffffffffffff8111156126e4576126e36126a7565b5b602083019150836020820283011115612700576126ff6126ac565b5b9250929050565b6000806000604084860312156127205761271f612432565b5b600061272e86828701612493565b935050602084013567ffffffffffffffff81111561274f5761274e612437565b5b61275b868287016126b1565b92509250509250925092565b6000806020838503121561277e5761277d612432565b5b600083013567ffffffffffffffff81111561279c5761279b612437565b5b6127a8858286016126b1565b92509250509250929050565b600081519050919050565b600082825260208201905092915050565b60005b838110156127ee5780820151818401526020810190506127d3565b60008484015250505050565b6000612805826127b4565b61280f81856127bf565b935061281f8185602086016127d0565b612828816124b2565b840191505092915050565b6000602082019050818103600083015261284d81846127fa565b905092915050565b600081519050919050565b600082825260208201905092915050565b600061287c82612855565b6128868185612860565b93506128968185602086016127d0565b61289f816124b2565b840191505092915050565b600060208201905081810360008301526128c48184612871565b905092915050565b6128d581612472565b82525050565b60006020820190506128f060008301846128cc565b92915050565b600073ffffffffffffffffffffffffffffffffffffffff82169050919050565b6000612921826128f6565b9050919050565b61293181612916565b811461293c57600080fd5b50565b60008135905061294e81612928565b92915050565b60006020828403121561296a57612969612432565b5b60006129788482850161293f565b91505092915050565b60008115159050919050565b61299681612981565b82525050565b60006020820190506129b1600083018461298d565b92915050565b6000602082840312156129cd576129cc612432565b5b60006129db84828501612493565b91505092915050565b6129ed81612916565b82525050565b6129fc8161243c565b82525050565b612a0b816125ee565b82525050565b7f4e487b7100000000000000000000000000000000000000000000000000000000600052602160045260246000fd5b60048110612a5157612a50612a11565b5b50565b6000819050612a6282612a40565b919050565b6000612a7282612a54565b9050919050565b612a8281612a67565b82525050565b600060a082019050612a9d60008301886129e4565b612aaa60208301876129f3565b612ab76040830186612a02565b612ac460608301856128cc565b612ad16080830184612a79565b9695505050505050565b6000602082019050612af060008301846129e4565b92915050565b60008060408385031215612b0d57612b0c612432565b5b6000612b1b85828601612493565b9250506020612b2c85828601612493565b9150509250929050565b600067ffffffffffffffff821115612b5157612b506124c3565b5b612b5a826124b2565b9050602081019050919050565b6000612b7a612b7584612b36565b612523565b905082815260208101848484011115612b9657612b956124ad565b5b612ba184828561256f565b509392505050565b600082601f830112612bbe57612bbd6124a8565b5b8135612bce848260208601612b67565b91505092915050565b600080600080600080600060e0888a031215612bf657612bf5612432565b5b600088013567ffffffffffffffff811115612c1457612c13612437565b5b612c208a828b016125c0565b975050602088013567ffffffffffffffff811115612c4157612c40612437565b5b612c4d8a828b01612ba9565b9650506040612c5e8a828b01612493565b9550506060612c6f8a828b01612493565b9450506080612c808a828b01612493565b93505060a0612c918a828b01612493565b92505060c0612ca28a828b0161293f565b91505092959891949750929550565b60008060408385031215612cc857612cc7612432565b5b6000612cd68582860161293f565b9250506020612ce785828601612493565b9150509250929050565b600081905092915050565b6000612d0782612855565b612d118185612cf1565b9350612d218185602086016127d0565b80840191505092915050565b6000819050919050565b612d48612d4382612472565b612d2d565b82525050565b6000612d5a8285612cfc565b9150612d668284612d37565b6020820191508190509392505050565b7f4e487b7100000000000000000000000000000000000000000000000000000000600052601160045260246000fd5b6000612db082612472565b9150612dbb83612472565b9250828202612dc981612472565b91508282048414831517612de057612ddf612d76565b5b5092915050565b600081519050612df68161247c565b92915050565b600060208284031215612e1257612e11612432565b5b6000612e2084828501612de7565b91505092915050565b6000604082019050612e3e60008301856129e4565b612e4b60208301846128cc565b9392505050565b612e5b81612981565b8114612e6657600080fd5b50565b600081519050612e7881612e52565b92915050565b600060208284031215612e9457612e93612432565b5b6000612ea284828501612e69565b91505092915050565b7f726571756573744964206973206e6f7420617070726f76656400000000000000600082015250565b6000612ee16019836127bf565b9150612eec82612eab565b602082019050919050565b60006020820190508181036000830152612f1081612ed4565b9050919050565b600081905092915050565b6000819050919050565b612f3581612916565b82525050565b6000612f478383612f2c565b60208301905092915050565b6000612f62602084018461293f565b905092915050565b6000602082019050919050565b6000612f838385612f17565b9350612f8e82612f22565b8060005b85811015612fc757612fa48284612f53565b612fae8882612f3b565b9750612fb983612f6a565b925050600181019050612f92565b5085925050509392505050565b6000612fe1828486612f77565b91508190509392505050565b7f6164647265737365732070726f766964656420646f206e6f74206d617463682060008201527f7468652070726f7669646564207265717565737449642773206164647265737360208201527f6573486173680000000000000000000000000000000000000000000000000000604082015250565b600061306f6046836127bf565b915061307a82612fed565b606082019050919050565b6000602082019050818103600083015261309e81613062565b9050919050565b60006130b082612472565b91506130bb83612472565b92508282039050818111156130d3576130d2612d76565b5b92915050565b7f4e487b7100000000000000000000000000000000000000000000000000000000600052603260045260246000fd5b600061311382612472565b91507fffffffffffffffffffffffffffffffffffffffffffffffffffffffffffffffff820361314557613144612d76565b5b600182019050919050565b7f6174206c656173742031206164647265737320697320616c7265616479206f6e60008201527f206c697374000000000000000000000000000000000000000000000000000000602082015250565b60006131ac6025836127bf565b91506131b782613150565b604082019050919050565b600060208201905081810360008301526131db8161319f565b9050919050565b60006131ed82612472565b91506131f883612472565b92508282019050808211156132105761320f612d76565b5b92915050565b7f61646472657373657320636f6e7461696e206475706c69636174650000000000600082015250565b600061324c601b836127bf565b915061325782613216565b602082019050919050565b6000602082019050818103600083015261327b8161323f565b9050919050565b7f4e487b7100000000000000000000000000000000000000000000000000000000600052602260045260246000fd5b600060028204905060018216806132c957607f821691505b6020821081036132dc576132db613282565b5b50919050565b60008190508160005260206000209050919050565b60008154613304816132b1565b61330e8186612cf1565b94506001821660008114613329576001811461333e57613371565b60ff1983168652811515820286019350613371565b613347856132e2565b60005b838110156133695781548189015260018201915060208101905061334a565b838801955050505b50505092915050565b7f2052657175657374204944203d20000000000000000000000000000000000000815250565b60006133ac82856132f7565b91506133b78261337a565b600e820191506133c78284612cfc565b91508190509392505050565b60006060820190506133e860008301866129e4565b6133f560208301856129e4565b61340260408301846128cc565b949350505050565b7f7472616e73666572206f6620626f6e6420616d6f756e7420746f204c6973742060008201527f636f6e7472616374206661696c65640000000000000000000000000000000000602082015250565b6000613466602f836127bf565b91506134718261340a565b604082019050919050565b6000602082019050818103600083015261349581613459565b9050919050565b7f617070726f76616c206f6620626f6e6420616d6f756e742066726f6d204c697360008201527f7420636f6e747261637420746f204f7261636c65206661696c65640000000000602082015250565b60006134f8603b836127bf565b91506135038261349c565b604082019050919050565b60006020820190508181036000830152613527816134eb565b9050919050565b600060c08201905061354360008301896129e4565b61355060208301886129e4565b61355d60408301876129f3565b61356a60608301866128cc565b818103608083015261357c8185612871565b905061358b60a0830184612a02565b979650505050505050565b600082825260208201905092915050565b6135b081612916565b82525050565b60006135c283836135a7565b60208301905092915050565b60006135da8385613596565b93506135e582612f22565b8060005b8581101561361e576135fb8284612f53565b61360588826135b6565b975061361083612f6a565b9250506001810190506135e9565b5085925050509392505050565b600060208201905081810360008301526136468184866135ce565b90509392505050565b7f6174206c6561737420312061646472657373206973206e6f74206f6e206c697360008201527f7400000000000000000000000000000000000000000000000000000000000000602082015250565b60006136ab6021836127bf565b91506136b68261364f565b604082019050919050565b600060208201905081810360008301526136da8161369e565b9050919050565b6000819050919050565b6000819050919050565b600061371061370b613706846136e1565b6136eb565b6125ee565b9050919050565b613720816136f5565b82525050565b600060c08201905061373b60008301896129e4565b61374860208301886129e4565b61375560408301876129f3565b61376260608301866128cc565b81810360808301526137748185612871565b905061378360a0830184613717565b979650505050505050565b7f496e697469616c697a61626c653a20636f6e747261637420697320616c72656160008201527f647920696e697469616c697a6564000000000000000000000000000000000000602082015250565b60006137ea602e836127bf565b91506137f58261378e565b604082019050919050565b60006020820190508181036000830152613819816137dd565b9050919050565b7f2e2041646472657373657320746f2071756572792063616e20626520666f756e60008201527f6420696e207468652070656e64696e6741646472657373657320706172616d6560208201527f746572206f66207468652050726f706f7365644164646974696f6e206576656e60408201527f7420656d6974746564206279207468652072657175657374657227732061646460608201527f7265737320696e207468652073616d65207472616e73616374696f6e2061732060808201527f7468652070726f706f7365642070726963652e0000000000000000000000000060a082015250565b600061391460b383612cf1565b915061391f82613820565b60b382019050919050565b60006139368284612cfc565b915061394182613907565b915081905092915050565b60006020601f8301049050919050565b600082821b905092915050565b6000600883026139997fffffffffffffffffffffffffffffffffffffffffffffffffffffffffffffffff8261395c565b6139a3868361395c565b95508019841693508086168417925050509392505050565b60006139d66139d16139cc84612472565b6136eb565b612472565b9050919050565b6000819050919050565b6139f0836139bb565b613a046139fc826139dd565b848454613969565b825550505050565b600090565b613a19613a0c565b613a248184846139e7565b505050565b5b81811015613a4857613a3d600082613a11565b600181019050613a2a565b5050565b601f821115613a8d57613a5e816132e2565b613a678461394c565b81016020851015613a76578190505b613a8a613a828561394c565b830182613a29565b50505b505050565b600082821c905092915050565b6000613ab060001984600802613a92565b1980831691505092915050565b6000613ac98383613a9f565b9150826002028217905092915050565b613ae282612855565b67ffffffffffffffff811115613afb57613afa6124c3565b5b613b0582546132b1565b613b10828285613a4c565b600060209050601f831160018114613b435760008415613b31578287015190505b613b3b8582613abd565b865550613ba3565b601f198416613b51866132e2565b60005b82811015613b7957848901518255600182019150602085019450602081019050613b54565b86831015613b965784890151613b92601f891682613a9f565b8355505b6001600288020188555050505b505050505050565b60008190508160005260206000209050919050565b601f821115613c0157613bd281613bab565b613bdb8461394c565b81016020851015613bea578190505b613bfe613bf68561394c565b830182613a29565b50505b505050565b613c0f826127b4565b67ffffffffffffffff811115613c2857613c276124c3565b5b613c3282546132b1565b613c3d828285613bc0565b600060209050601f831160018114613c705760008415613c5e578287015190505b613c688582613abd565b865550613cd0565b601f198416613c7e86613bab565b60005b82811015613ca657848901518255600182019150602085019450602081019050613c81565b86831015613cc35784890151613cbf601f891682613a9f565b8355505b6001600288020188555050505b505050505050565b6000819050919050565b600060ff82169050919050565b6000613d0a613d05613d0084613cd8565b6136eb565b613ce2565b9050919050565b613d1a81613cef565b82525050565b6000602082019050613d356000830184613d11565b92915050565b7f4f776e61626c653a206e6577206f776e657220697320746865207a65726f206160008201527f6464726573730000000000000000000000000000000000000000000000000000602082015250565b6000613d976026836127bf565b9150613da282613d3b565b604082019050919050565b60006020820190508181036000830152613dc681613d8a565b9050919050565b7f4e487b7100000000000000000000000000000000000000000000000000000000600052601260045260246000fd5b6000613e0782612472565b9150613e1283612472565b925082613e2257613e21613dcd565b5b828204905092915050565b6000613e3882613ce2565b9150613e4383613ce2565b9250828201905060ff811115613e5c57613e5b612d76565b5b92915050565b6000613e7d613e78613e73846128f6565b6136eb565b6128f6565b9050919050565b6000613e8f82613e62565b9050919050565b6000613ea182613e84565b9050919050565b613eb181613e96565b82525050565b6000613ed2613ecd613ec8846136e1565b6136eb565b612472565b9050919050565b613ee281613eb7565b82525050565b600060a082019050613efd60008301886129f3565b613f0a60208301876128cc565b8181036040830152613f1c8186612871565b9050613f2b6060830185613ea8565b613f386080830184613ed9565b9695505050505050565b600060c082019050613f5760008301896129f3565b613f6460208301886128cc565b8181036040830152613f768187612871565b9050613f85606083018661298d565b613f92608083018561298d565b613f9f60a083018461298d565b979650505050505050565b6000608082019050613fbf60008301876129f3565b613fcc60208301866128cc565b8181036040830152613fde8185612871565b9050613fed60608301846128cc565b95945050505050565b7f4f776e61626c653a2063616c6c6572206973206e6f7420746865206f776e6572600082015250565b600061402c6020836127bf565b915061403782613ff6565b602082019050919050565b6000602082019050818103600083015261405b8161401f565b905091905056fea2646970667358221220598833cbac342eb11eb5cf07ab94c45b6f36e80c399e8d239737fb09ddbfb6b664736f6c63430008110033",
  "linkReferences": {},
  "deployedLinkReferences": {}
}