{
  "_format": "hh-sol-artifact-1",
  "contractName": "Decentralist",
  "sourceName": "contracts/decentralist.sol",
  "abi": [
    {
      "anonymous": false,
      "inputs": [
        {
          "indexed": true,
          "internalType": "uint256",
          "name": "revisionId",
          "type": "uint256"
        }
      ],
      "name": "ApproveRevision",
      "type": "event"
    },
    {
      "anonymous": false,
      "inputs": [
        {
          "indexed": true,
          "internalType": "uint256",
          "name": "revisionId",
          "type": "uint256"
        }
      ],
      "name": "ExecuteRevision",
      "type": "event"
    },
    {
      "anonymous": false,
      "inputs": [
        {
          "indexed": false,
          "internalType": "uint8",
          "name": "version",
          "type": "uint8"
        }
      ],
      "name": "Initialized",
      "type": "event"
    },
    {
      "anonymous": false,
      "inputs": [
        {
          "indexed": true,
          "internalType": "address",
          "name": "previousOwner",
          "type": "address"
        },
        {
          "indexed": true,
          "internalType": "address",
          "name": "newOwner",
          "type": "address"
        }
      ],
      "name": "OwnershipTransferred",
      "type": "event"
    },
    {
      "anonymous": false,
      "inputs": [
        {
          "indexed": true,
          "internalType": "uint256",
          "name": "revisionId",
          "type": "uint256"
        },
        {
          "indexed": false,
          "internalType": "int256",
          "name": "proposedPrice",
          "type": "int256"
        },
        {
          "indexed": false,
          "internalType": "address[]",
          "name": "pendingAddresses",
          "type": "address[]"
        }
      ],
      "name": "ProposeRevision",
      "type": "event"
    },
    {
      "anonymous": false,
      "inputs": [
        {
          "indexed": true,
          "internalType": "uint256",
          "name": "revisionId",
          "type": "uint256"
        }
      ],
      "name": "RejectRevision",
      "type": "event"
    },
    {
      "inputs": [],
      "name": "addReward",
      "outputs": [
        {
          "internalType": "uint256",
          "name": "",
          "type": "uint256"
        }
      ],
      "stateMutability": "view",
      "type": "function"
    },
    {
      "inputs": [
        {
          "internalType": "uint256",
          "name": "_addReward",
          "type": "uint256"
        },
        {
          "internalType": "uint256",
          "name": "_removeReward",
          "type": "uint256"
        }
      ],
      "name": "adjustRewards",
      "outputs": [],
      "stateMutability": "nonpayable",
      "type": "function"
    },
    {
      "inputs": [],
      "name": "bondAmount",
      "outputs": [
        {
          "internalType": "uint256",
          "name": "",
          "type": "uint256"
        }
      ],
      "stateMutability": "view",
      "type": "function"
    },
    {
      "inputs": [
        {
          "internalType": "uint256",
          "name": "_revisionId",
          "type": "uint256"
        },
        {
          "internalType": "address[]",
          "name": "_addresses",
          "type": "address[]"
        }
      ],
      "name": "executeApprovedRevisions",
      "outputs": [],
      "stateMutability": "nonpayable",
      "type": "function"
    },
    {
      "inputs": [],
      "name": "fixedAncillaryData",
      "outputs": [
        {
          "internalType": "bytes",
          "name": "",
          "type": "bytes"
        }
      ],
      "stateMutability": "view",
      "type": "function"
    },
    {
      "inputs": [
        {
          "internalType": "bytes",
          "name": "_listCriteria",
          "type": "bytes"
        },
        {
          "internalType": "string",
          "name": "_title",
          "type": "string"
        },
        {
          "internalType": "uint256",
          "name": "_liveness",
          "type": "uint256"
        },
        {
          "internalType": "uint256",
          "name": "_bondAmount",
          "type": "uint256"
        },
        {
          "internalType": "uint256",
          "name": "_addReward",
          "type": "uint256"
        },
        {
          "internalType": "uint256",
          "name": "_removeReward",
          "type": "uint256"
        },
        {
          "internalType": "address",
          "name": "_owner",
          "type": "address"
        }
      ],
      "name": "initialize",
      "outputs": [],
      "stateMutability": "nonpayable",
      "type": "function"
    },
    {
      "inputs": [],
      "name": "liveness",
      "outputs": [
        {
          "internalType": "uint256",
          "name": "",
          "type": "uint256"
        }
      ],
      "stateMutability": "view",
      "type": "function"
    },
    {
      "inputs": [
        {
          "internalType": "address",
          "name": "",
          "type": "address"
        }
      ],
      "name": "onList",
      "outputs": [
        {
          "internalType": "bool",
          "name": "",
          "type": "bool"
        }
      ],
      "stateMutability": "view",
      "type": "function"
    },
    {
      "inputs": [],
      "name": "owner",
      "outputs": [
        {
          "internalType": "address",
          "name": "",
          "type": "address"
        }
      ],
      "stateMutability": "view",
      "type": "function"
    },
    {
      "inputs": [
        {
          "internalType": "bytes32",
          "name": "",
          "type": "bytes32"
        },
        {
          "internalType": "uint256",
          "name": "timestamp",
          "type": "uint256"
        },
        {
          "internalType": "bytes",
          "name": "ancillaryData",
          "type": "bytes"
        },
        {
          "internalType": "int256",
          "name": "price",
          "type": "int256"
        }
      ],
      "name": "priceSettled",
      "outputs": [],
      "stateMutability": "nonpayable",
      "type": "function"
    },
    {
      "inputs": [
        {
          "internalType": "int256",
          "name": "_price",
          "type": "int256"
        },
        {
          "internalType": "address[]",
          "name": "_addresses",
          "type": "address[]"
        }
      ],
      "name": "proposeRevision",
      "outputs": [],
      "stateMutability": "nonpayable",
      "type": "function"
    },
    {
      "inputs": [],
      "name": "removeReward",
      "outputs": [
        {
          "internalType": "uint256",
          "name": "",
          "type": "uint256"
        }
      ],
      "stateMutability": "view",
      "type": "function"
    },
    {
      "inputs": [],
      "name": "renounceOwnership",
      "outputs": [],
      "stateMutability": "nonpayable",
      "type": "function"
    },
    {
      "inputs": [
        {
          "internalType": "uint256",
          "name": "",
          "type": "uint256"
        }
      ],
      "name": "revisions",
      "outputs": [
        {
          "internalType": "address",
          "name": "proposer",
          "type": "address"
        },
        {
          "internalType": "bytes32",
          "name": "addressesHash",
          "type": "bytes32"
        },
        {
          "internalType": "int256",
          "name": "proposedPrice",
          "type": "int256"
        },
        {
          "internalType": "uint256",
          "name": "addressesCount",
          "type": "uint256"
        },
        {
          "internalType": "enum Decentralist.Status",
          "name": "status",
          "type": "uint8"
        }
      ],
      "stateMutability": "view",
      "type": "function"
    },
    {
      "inputs": [],
      "name": "title",
      "outputs": [
        {
          "internalType": "string",
          "name": "",
          "type": "string"
        }
      ],
      "stateMutability": "view",
      "type": "function"
    },
    {
      "inputs": [
        {
          "internalType": "address",
          "name": "newOwner",
          "type": "address"
        }
      ],
      "name": "transferOwnership",
      "outputs": [],
      "stateMutability": "nonpayable",
      "type": "function"
    },
    {
      "inputs": [
        {
          "internalType": "address",
          "name": "recipient",
          "type": "address"
        },
        {
          "internalType": "uint256",
          "name": "amount",
          "type": "uint256"
        }
      ],
      "name": "withdraw",
      "outputs": [],
      "stateMutability": "nonpayable",
      "type": "function"
    }
  ],
  "bytecode": "0x60806040523480156200001157600080fd5b5062000032620000266200003860201b60201c565b6200004060201b60201c565b62000105565b600033905090565b60008060029054906101000a900473ffffffffffffffffffffffffffffffffffffffff16905081600060026101000a81548173ffffffffffffffffffffffffffffffffffffffff021916908373ffffffffffffffffffffffffffffffffffffffff1602179055508173ffffffffffffffffffffffffffffffffffffffff168173ffffffffffffffffffffffffffffffffffffffff167f8be0079c531659141344cd1fd0a4f28419497f9722a3daafe3b4186f6b6457e060405160405180910390a35050565b61340280620001156000396000f3fe608060405234801561001057600080fd5b506004361061010b5760003560e01c806380f323a7116100a2578063e59a58ee11610071578063e59a58ee14610286578063ec40ad51146102a4578063ee7a07fa146102c0578063f2fde38b146102dc578063f3fef3a3146102f85761010b565b806380f323a7146102125780638da5cb5b14610230578063a837edd81461024e578063c8108ed91461026a5761010b565b80636ad0690a116100de5780636ad0690a1461019c5780636f626eb3146101ba578063715018a6146101ea5780637eecf18d146101f45761010b565b806304cc1fd5146101105780630ef486d11461012c5780634a79d50c146101605780635cae7fb51461017e575b600080fd5b61012a60048036038101906101259190611b6d565b610314565b005b61014660048036038101906101419190611bf0565b61045c565b604051610157959493929190611d02565b60405180910390f35b6101686104bf565b6040516101759190611dd4565b60405180910390f35b61018661054d565b6040516101939190611e4b565b60405180910390f35b6101a46105db565b6040516101b19190611e6d565b60405180910390f35b6101d460048036038101906101cf9190611eb4565b6105e1565b6040516101e19190611efc565b60405180910390f35b6101f2610601565b005b6101fc610615565b6040516102099190611e6d565b60405180910390f35b61021a61061b565b6040516102279190611e6d565b60405180910390f35b610238610621565b6040516102459190611f17565b60405180910390f35b61026860048036038101906102639190611f32565b61064a565b005b610284600480360381019061027f9190612013565b610664565b005b61028e61080d565b60405161029b9190611e6d565b60405180910390f35b6102be60048036038101906102b9919061214d565b610813565b005b6102da60048036038101906102d591906121ad565b610f92565b005b6102f660048036038101906102f19190611eb4565b611559565b005b610312600480360381019061030d919061220d565b6115dc565b005b600082846040516020016103299291906122aa565b604051602081830303815290604052805190602001209050600060086000838152602001908152602001600020549050826009600083815260200190815260200160002060020154036103e75760016009600083815260200190815260200160002060040160006101000a81548160ff021916908360038111156103b0576103af611c8b565b5b0217905550807ff77dc0563604726c14d1c09cda52ac6a81fa454b5cffd4b776806c3ef41dd8e260405160405180910390a2610454565b60026009600083815260200190815260200160002060040160006101000a81548160ff0219169083600381111561042157610420611c8b565b5b0217905550807ffe29754d7ff225be758da6b81093c3004bec5d17ee1de42417b1a55f68deb73560405160405180910390a25b505050505050565b60096020528060005260406000206000915090508060000160009054906101000a900473ffffffffffffffffffffffffffffffffffffffff16908060010154908060020154908060030154908060040160009054906101000a900460ff16905085565b600580546104cc90612301565b80601f01602080910402602001604051908101604052809291908181526020018280546104f890612301565b80156105455780601f1061051a57610100808354040283529160200191610545565b820191906000526020600020905b81548152906001019060200180831161052857829003601f168201915b505050505081565b6006805461055a90612301565b80601f016020809104026020016040519081016040528092919081815260200182805461058690612301565b80156105d35780601f106105a8576101008083540402835291602001916105d3565b820191906000526020600020905b8154815290600101906020018083116105b657829003601f168201915b505050505081565b60025481565b600a6020528060005260406000206000915054906101000a900460ff1681565b61060961167b565b61061360006116f9565b565b60045481565b60015481565b60008060029054906101000a900473ffffffffffffffffffffffffffffffffffffffff16905090565b61065261167b565b81600381905550806004819055505050565b60008060019054906101000a900460ff161590508080156106955750600160008054906101000a900460ff1660ff16105b806106c257506106a4306117be565b1580156106c15750600160008054906101000a900460ff1660ff16145b5b610701576040517f08c379a00000000000000000000000000000000000000000000000000000000081526004016106f8906123a4565b60405180910390fd5b60016000806101000a81548160ff021916908360ff160217905550801561073e576001600060016101000a81548160ff0219169083151502179055505b8760405160200161074f91906124f4565b6040516020818303038152906040526006908161076c91906126c2565b50866005908161077c91906127ef565b508560028190555084600181905550836003819055508260048190555060016007819055506107aa826116f9565b80156108035760008060016101000a81548160ff0219169083151502179055507f7f26b83ff96e1f2b6a682f133852f6798a09c465da95921460cefb384740249860016040516107fa9190612909565b60405180910390a15b5050505050505050565b60035481565b60008314806108295750670de0b6b3a764000083145b610868576040517f08c379a000000000000000000000000000000000000000000000000000000000815260040161085f90612970565b60405180910390fd5b600060066108776007546117e1565b604051602001610888929190612a13565b60405160208183030381529060405290506000429050600082826040516020016108b39291906122aa565b604051602081830303815290604052805190602001209050600085856040516020016108e0929190612af4565b60405160208183030381529060405280519060200120905060075460086000848152602001908152602001600020819055503360096000600754815260200190815260200160002060000160006101000a81548173ffffffffffffffffffffffffffffffffffffffff021916908373ffffffffffffffffffffffffffffffffffffffff16021790555080600960006007548152602001908152602001600020600101819055508660096000600754815260200190815260200160002060020181905550858590506009600060075481526020019081526020016000206003018190555073a5b9d8a0b0fa04ba71bdd68069661ed5c084888473ffffffffffffffffffffffffffffffffffffffff166311df92f17f5945535f4f525f4e4f5f51554552590000000000000000000000000000000000858773b4fbf271143f4fbf7b91a5ded31805e42b2208d660006040518663ffffffff1660e01b8152600401610a4d959493929190612b9d565b6020604051808303816000875af1158015610a6c573d6000803e3d6000fd5b505050506040513d601f19601f82011682018060405250810190610a909190612c0c565b5073a5b9d8a0b0fa04ba71bdd68069661ed5c084888473ffffffffffffffffffffffffffffffffffffffff1663f327b0757f5945535f4f525f4e4f5f51554552590000000000000000000000000000000000858760008060016040518763ffffffff1660e01b8152600401610b0a96959493929190612c39565b600060405180830381600087803b158015610b2457600080fd5b505af1158015610b38573d6000803e3d6000fd5b5050505073a5b9d8a0b0fa04ba71bdd68069661ed5c084888473ffffffffffffffffffffffffffffffffffffffff1663473c45fe7f5945535f4f525f4e4f5f5155455259000000000000000000000000000000000085876002546040518563ffffffff1660e01b8152600401610bb19493929190612ca1565b600060405180830381600087803b158015610bcb57600080fd5b505af1158015610bdf573d6000803e3d6000fd5b50505050600073a5b9d8a0b0fa04ba71bdd68069661ed5c084888473ffffffffffffffffffffffffffffffffffffffff1663ad5a755a7f5945535f4f525f4e4f5f5155455259000000000000000000000000000000000086886001546040518563ffffffff1660e01b8152600401610c5a9493929190612ca1565b6020604051808303816000875af1158015610c79573d6000803e3d6000fd5b505050506040513d601f19601f82011682018060405250810190610c9d9190612c0c565b90506000811115610d8257600073b4fbf271143f4fbf7b91a5ded31805e42b2208d673ffffffffffffffffffffffffffffffffffffffff166323b872dd3330856040518463ffffffff1660e01b8152600401610cfb93929190612ced565b6020604051808303816000875af1158015610d1a573d6000803e3d6000fd5b505050506040513d601f19601f82011682018060405250810190610d3e9190612d50565b905080610d80576040517f08c379a0000000000000000000000000000000000000000000000000000000008152600401610d7790612def565b60405180910390fd5b505b6000811115610e7757600073b4fbf271143f4fbf7b91a5ded31805e42b2208d673ffffffffffffffffffffffffffffffffffffffff1663095ea7b373a5b9d8a0b0fa04ba71bdd68069661ed5c0848884846040518363ffffffff1660e01b8152600401610df0929190612e0f565b6020604051808303816000875af1158015610e0f573d6000803e3d6000fd5b505050506040513d601f19601f82011682018060405250810190610e339190612d50565b905080610e75576040517f08c379a0000000000000000000000000000000000000000000000000000000008152600401610e6c90612eaa565b60405180910390fd5b505b73a5b9d8a0b0fa04ba71bdd68069661ed5c084888473ffffffffffffffffffffffffffffffffffffffff16637c82288f33307f5945535f4f525f4e4f5f51554552590000000000000000000000000000000000888a8e6040518763ffffffff1660e01b8152600401610eee96959493929190612eca565b6020604051808303816000875af1158015610f0d573d6000803e3d6000fd5b505050506040513d601f19601f82011682018060405250810190610f319190612c0c565b506007547f0d80ca8b936db6ba922f04ce6734e9c2f4982aa442abb033f322ebad64c3fd12898989604051610f6893929190612fc7565b60405180910390a260076000815480929190610f8390613028565b91905055505050505050505050565b60016003811115610fa657610fa5611c8b565b5b6009600085815260200190815260200160002060040160009054906101000a900460ff166003811115610fdc57610fdb611c8b565b5b1461101c576040517f08c379a0000000000000000000000000000000000000000000000000000000008152600401611013906130bc565b60405180910390fd5b818160405160200161102f929190612af4565b6040516020818303038152906040528051906020012060096000858152602001908152602001600020600101541461109c576040517f08c379a000000000000000000000000000000000000000000000000000000000815260040161109390613174565b60405180910390fd5b60036009600085815260200190815260200160002060040160006101000a81548160ff021916908360038111156110d6576110d5611c8b565b5b02179055506000806004549050670de0b6b3a7640000600960008781526020019081526020016000206002015403611112576001915060035490505b600080600090505b60018686905061112a9190613194565b811161124e57831515600a600088888581811061114a576111496131c8565b5b905060200201602081019061115f9190611eb4565b73ffffffffffffffffffffffffffffffffffffffff1673ffffffffffffffffffffffffffffffffffffffff16815260200190815260200160002060009054906101000a900460ff1615151461123b5783600a60008888858181106111c6576111c56131c8565b5b90506020020160208101906111db9190611eb4565b73ffffffffffffffffffffffffffffffffffffffff1673ffffffffffffffffffffffffffffffffffffffff16815260200190815260200160002060006101000a81548160ff021916908315150217905550818061123790613028565b9250505b808061124690613028565b91505061111a565b506000818361125d91906131f7565b90506000811115611523578073b4fbf271143f4fbf7b91a5ded31805e42b2208d673ffffffffffffffffffffffffffffffffffffffff166370a08231306040518263ffffffff1660e01b81526004016112b69190611f17565b602060405180830381865afa1580156112d3573d6000803e3d6000fd5b505050506040513d601f19601f820116820180604052508101906112f79190612c0c565b10156114585773b4fbf271143f4fbf7b91a5ded31805e42b2208d673ffffffffffffffffffffffffffffffffffffffff1663a9059cbb600960008a815260200190815260200160002060000160009054906101000a900473ffffffffffffffffffffffffffffffffffffffff1673b4fbf271143f4fbf7b91a5ded31805e42b2208d673ffffffffffffffffffffffffffffffffffffffff166370a08231306040518263ffffffff1660e01b81526004016113b19190611f17565b602060405180830381865afa1580156113ce573d6000803e3d6000fd5b505050506040513d601f19601f820116820180604052508101906113f29190612c0c565b6040518363ffffffff1660e01b815260040161140f929190612e0f565b6020604051808303816000875af115801561142e573d6000803e3d6000fd5b505050506040513d601f19601f820116820180604052508101906114529190612d50565b50611522565b73b4fbf271143f4fbf7b91a5ded31805e42b2208d673ffffffffffffffffffffffffffffffffffffffff1663a9059cbb600960008a815260200190815260200160002060000160009054906101000a900473ffffffffffffffffffffffffffffffffffffffff16836040518363ffffffff1660e01b81526004016114dd929190612e0f565b6020604051808303816000875af11580156114fc573d6000803e3d6000fd5b505050506040513d601f19601f820116820180604052508101906115209190612d50565b505b5b867f1e8e9380b24d0a42bc43facd0b6287353ce3babf099e6ba830737e97e2798c1260405160405180910390a250505050505050565b61156161167b565b600073ffffffffffffffffffffffffffffffffffffffff168173ffffffffffffffffffffffffffffffffffffffff16036115d0576040517f08c379a00000000000000000000000000000000000000000000000000000000081526004016115c7906132ab565b60405180910390fd5b6115d9816116f9565b50565b6115e461167b565b73b4fbf271143f4fbf7b91a5ded31805e42b2208d673ffffffffffffffffffffffffffffffffffffffff1663a9059cbb83836040518363ffffffff1660e01b8152600401611633929190612e0f565b6020604051808303816000875af1158015611652573d6000803e3d6000fd5b505050506040513d601f19601f820116820180604052508101906116769190612d50565b505050565b611683611969565b73ffffffffffffffffffffffffffffffffffffffff166116a1610621565b73ffffffffffffffffffffffffffffffffffffffff16146116f7576040517f08c379a00000000000000000000000000000000000000000000000000000000081526004016116ee90613317565b60405180910390fd5b565b60008060029054906101000a900473ffffffffffffffffffffffffffffffffffffffff16905081600060026101000a81548173ffffffffffffffffffffffffffffffffffffffff021916908373ffffffffffffffffffffffffffffffffffffffff1602179055508173ffffffffffffffffffffffffffffffffffffffff168173ffffffffffffffffffffffffffffffffffffffff167f8be0079c531659141344cd1fd0a4f28419497f9722a3daafe3b4186f6b6457e060405160405180910390a35050565b6000808273ffffffffffffffffffffffffffffffffffffffff163b119050919050565b606060008203611828576040518060400160405280600181526020017f30000000000000000000000000000000000000000000000000000000000000008152509050611964565b600082905060005b6000821461185a57808061184390613028565b915050600a826118539190613366565b9150611830565b60008167ffffffffffffffff81111561187657611875611a0c565b5b6040519080825280601f01601f1916602001820160405280156118a85781602001600182028036833780820191505090505b50905060008290505b6000861461195c576001816118c69190613194565b90506000600a80886118d89190613366565b6118e291906131f7565b876118ed9190613194565b60306118f99190613397565b905060008160f81b905080848481518110611917576119166131c8565b5b60200101907effffffffffffffffffffffffffffffffffffffffffffffffffffffffffffff1916908160001a905350600a886119539190613366565b975050506118b1565b819450505050505b919050565b600033905090565b6000604051905090565b600080fd5b600080fd5b6000819050919050565b61199881611985565b81146119a357600080fd5b50565b6000813590506119b58161198f565b92915050565b6000819050919050565b6119ce816119bb565b81146119d957600080fd5b50565b6000813590506119eb816119c5565b92915050565b600080fd5b600080fd5b6000601f19601f8301169050919050565b7f4e487b7100000000000000000000000000000000000000000000000000000000600052604160045260246000fd5b611a44826119fb565b810181811067ffffffffffffffff82111715611a6357611a62611a0c565b5b80604052505050565b6000611a76611971565b9050611a828282611a3b565b919050565b600067ffffffffffffffff821115611aa257611aa1611a0c565b5b611aab826119fb565b9050602081019050919050565b82818337600083830152505050565b6000611ada611ad584611a87565b611a6c565b905082815260208101848484011115611af657611af56119f6565b5b611b01848285611ab8565b509392505050565b600082601f830112611b1e57611b1d6119f1565b5b8135611b2e848260208601611ac7565b91505092915050565b6000819050919050565b611b4a81611b37565b8114611b5557600080fd5b50565b600081359050611b6781611b41565b92915050565b60008060008060808587031215611b8757611b8661197b565b5b6000611b95878288016119a6565b9450506020611ba6878288016119dc565b935050604085013567ffffffffffffffff811115611bc757611bc6611980565b5b611bd387828801611b09565b9250506060611be487828801611b58565b91505092959194509250565b600060208284031215611c0657611c0561197b565b5b6000611c14848285016119dc565b91505092915050565b600073ffffffffffffffffffffffffffffffffffffffff82169050919050565b6000611c4882611c1d565b9050919050565b611c5881611c3d565b82525050565b611c6781611985565b82525050565b611c7681611b37565b82525050565b611c85816119bb565b82525050565b7f4e487b7100000000000000000000000000000000000000000000000000000000600052602160045260246000fd5b60048110611ccb57611cca611c8b565b5b50565b6000819050611cdc82611cba565b919050565b6000611cec82611cce565b9050919050565b611cfc81611ce1565b82525050565b600060a082019050611d176000830188611c4f565b611d246020830187611c5e565b611d316040830186611c6d565b611d3e6060830185611c7c565b611d4b6080830184611cf3565b9695505050505050565b600081519050919050565b600082825260208201905092915050565b60005b83811015611d8f578082015181840152602081019050611d74565b60008484015250505050565b6000611da682611d55565b611db08185611d60565b9350611dc0818560208601611d71565b611dc9816119fb565b840191505092915050565b60006020820190508181036000830152611dee8184611d9b565b905092915050565b600081519050919050565b600082825260208201905092915050565b6000611e1d82611df6565b611e278185611e01565b9350611e37818560208601611d71565b611e40816119fb565b840191505092915050565b60006020820190508181036000830152611e658184611e12565b905092915050565b6000602082019050611e826000830184611c7c565b92915050565b611e9181611c3d565b8114611e9c57600080fd5b50565b600081359050611eae81611e88565b92915050565b600060208284031215611eca57611ec961197b565b5b6000611ed884828501611e9f565b91505092915050565b60008115159050919050565b611ef681611ee1565b82525050565b6000602082019050611f116000830184611eed565b92915050565b6000602082019050611f2c6000830184611c4f565b92915050565b60008060408385031215611f4957611f4861197b565b5b6000611f57858286016119dc565b9250506020611f68858286016119dc565b9150509250929050565b600067ffffffffffffffff821115611f8d57611f8c611a0c565b5b611f96826119fb565b9050602081019050919050565b6000611fb6611fb184611f72565b611a6c565b905082815260208101848484011115611fd257611fd16119f6565b5b611fdd848285611ab8565b509392505050565b600082601f830112611ffa57611ff96119f1565b5b813561200a848260208601611fa3565b91505092915050565b600080600080600080600060e0888a0312156120325761203161197b565b5b600088013567ffffffffffffffff8111156120505761204f611980565b5b61205c8a828b01611b09565b975050602088013567ffffffffffffffff81111561207d5761207c611980565b5b6120898a828b01611fe5565b965050604061209a8a828b016119dc565b95505060606120ab8a828b016119dc565b94505060806120bc8a828b016119dc565b93505060a06120cd8a828b016119dc565b92505060c06120de8a828b01611e9f565b91505092959891949750929550565b600080fd5b600080fd5b60008083601f84011261210d5761210c6119f1565b5b8235905067ffffffffffffffff81111561212a576121296120ed565b5b602083019150836020820283011115612146576121456120f2565b5b9250929050565b6000806000604084860312156121665761216561197b565b5b600061217486828701611b58565b935050602084013567ffffffffffffffff81111561219557612194611980565b5b6121a1868287016120f7565b92509250509250925092565b6000806000604084860312156121c6576121c561197b565b5b60006121d4868287016119dc565b935050602084013567ffffffffffffffff8111156121f5576121f4611980565b5b612201868287016120f7565b92509250509250925092565b600080604083850312156122245761222361197b565b5b600061223285828601611e9f565b9250506020612243858286016119dc565b9150509250929050565b600081905092915050565b600061226382611df6565b61226d818561224d565b935061227d818560208601611d71565b80840191505092915050565b6000819050919050565b6122a461229f826119bb565b612289565b82525050565b60006122b68285612258565b91506122c28284612293565b6020820191508190509392505050565b7f4e487b7100000000000000000000000000000000000000000000000000000000600052602260045260246000fd5b6000600282049050600182168061231957607f821691505b60208210810361232c5761232b6122d2565b5b50919050565b7f496e697469616c697a61626c653a20636f6e747261637420697320616c72656160008201527f647920696e697469616c697a6564000000000000000000000000000000000000602082015250565b600061238e602e83611d60565b915061239982612332565b604082019050919050565b600060208201905081810360008301526123bd81612381565b9050919050565b7f2e2041646472657373657320746f2071756572792063616e20626520666f756e60008201527f6420696e207468652070656e64696e6741646472657373657320706172616d6560208201527f746572206f66207468652050726f706f73655265766973696f6e206576656e7460408201527f20656d697474656420627920746865207265717565737465722773206164647260608201527f65737320696e207468652073616d65207472616e73616374696f6e206173207460808201527f68652070726f706f7365642070726963652077697468205265766973696f6e2060a08201527f4944203d2000000000000000000000000000000000000000000000000000000060c082015250565b60006124de60c58361224d565b91506124e9826123c4565b60c582019050919050565b60006125008284612258565b915061250b826124d1565b915081905092915050565b60008190508160005260206000209050919050565b60006020601f8301049050919050565b600082821b905092915050565b6000600883026125787fffffffffffffffffffffffffffffffffffffffffffffffffffffffffffffffff8261253b565b612582868361253b565b95508019841693508086168417925050509392505050565b6000819050919050565b60006125bf6125ba6125b5846119bb565b61259a565b6119bb565b9050919050565b6000819050919050565b6125d9836125a4565b6125ed6125e5826125c6565b848454612548565b825550505050565b600090565b6126026125f5565b61260d8184846125d0565b505050565b5b81811015612631576126266000826125fa565b600181019050612613565b5050565b601f8211156126765761264781612516565b6126508461252b565b8101602085101561265f578190505b61267361266b8561252b565b830182612612565b50505b505050565b600082821c905092915050565b60006126996000198460080261267b565b1980831691505092915050565b60006126b28383612688565b9150826002028217905092915050565b6126cb82611df6565b67ffffffffffffffff8111156126e4576126e3611a0c565b5b6126ee8254612301565b6126f9828285612635565b600060209050601f83116001811461272c576000841561271a578287015190505b61272485826126a6565b86555061278c565b601f19841661273a86612516565b60005b828110156127625784890151825560018201915060208501945060208101905061273d565b8683101561277f578489015161277b601f891682612688565b8355505b6001600288020188555050505b505050505050565b60008190508160005260206000209050919050565b601f8211156127ea576127bb81612794565b6127c48461252b565b810160208510156127d3578190505b6127e76127df8561252b565b830182612612565b50505b505050565b6127f882611d55565b67ffffffffffffffff81111561281157612810611a0c565b5b61281b8254612301565b6128268282856127a9565b600060209050601f8311600181146128595760008415612847578287015190505b61285185826126a6565b8655506128b9565b601f19841661286786612794565b60005b8281101561288f5784890151825560018201915060208501945060208101905061286a565b868310156128ac57848901516128a8601f891682612688565b8355505b6001600288020188555050505b505050505050565b6000819050919050565b600060ff82169050919050565b60006128f36128ee6128e9846128c1565b61259a565b6128cb565b9050919050565b612903816128d8565b82525050565b600060208201905061291e60008301846128fa565b92915050565b7f696e76616c696420707269636500000000000000000000000000000000000000600082015250565b600061295a600d83611d60565b915061296582612924565b602082019050919050565b600060208201905081810360008301526129898161294d565b9050919050565b6000815461299d81612301565b6129a7818661224d565b945060018216600081146129c257600181146129d757612a0a565b60ff1983168652811515820286019350612a0a565b6129e085612516565b60005b83811015612a02578154818901526001820191506020810190506129e3565b838801955050505b50505092915050565b6000612a1f8285612990565b9150612a2b8284612258565b91508190509392505050565b600081905092915050565b6000819050919050565b612a5581611c3d565b82525050565b6000612a678383612a4c565b60208301905092915050565b6000612a826020840184611e9f565b905092915050565b6000602082019050919050565b6000612aa38385612a37565b9350612aae82612a42565b8060005b85811015612ae757612ac48284612a73565b612ace8882612a5b565b9750612ad983612a8a565b925050600181019050612ab2565b5085925050509392505050565b6000612b01828486612a97565b91508190509392505050565b6000612b28612b23612b1e84611c1d565b61259a565b611c1d565b9050919050565b6000612b3a82612b0d565b9050919050565b6000612b4c82612b2f565b9050919050565b612b5c81612b41565b82525050565b6000819050919050565b6000612b87612b82612b7d84612b62565b61259a565b6119bb565b9050919050565b612b9781612b6c565b82525050565b600060a082019050612bb26000830188611c5e565b612bbf6020830187611c7c565b8181036040830152612bd18186611e12565b9050612be06060830185612b53565b612bed6080830184612b8e565b9695505050505050565b600081519050612c06816119c5565b92915050565b600060208284031215612c2257612c2161197b565b5b6000612c3084828501612bf7565b91505092915050565b600060c082019050612c4e6000830189611c5e565b612c5b6020830188611c7c565b8181036040830152612c6d8187611e12565b9050612c7c6060830186611eed565b612c896080830185611eed565b612c9660a0830184611eed565b979650505050505050565b6000608082019050612cb66000830187611c5e565b612cc36020830186611c7c565b8181036040830152612cd58185611e12565b9050612ce46060830184611c7c565b95945050505050565b6000606082019050612d026000830186611c4f565b612d0f6020830185611c4f565b612d1c6040830184611c7c565b949350505050565b612d2d81611ee1565b8114612d3857600080fd5b50565b600081519050612d4a81612d24565b92915050565b600060208284031215612d6657612d6561197b565b5b6000612d7484828501612d3b565b91505092915050565b7f7472616e73666572206f6620626f6e6420616d6f756e7420746f204c6973742060008201527f636f6e7472616374206661696c65640000000000000000000000000000000000602082015250565b6000612dd9602f83611d60565b9150612de482612d7d565b604082019050919050565b60006020820190508181036000830152612e0881612dcc565b9050919050565b6000604082019050612e246000830185611c4f565b612e316020830184611c7c565b9392505050565b7f617070726f76616c206f6620626f6e6420616d6f756e742066726f6d204c697360008201527f7420636f6e747261637420746f204f7261636c65206661696c65640000000000602082015250565b6000612e94603b83611d60565b9150612e9f82612e38565b604082019050919050565b60006020820190508181036000830152612ec381612e87565b9050919050565b600060c082019050612edf6000830189611c4f565b612eec6020830188611c4f565b612ef96040830187611c5e565b612f066060830186611c7c565b8181036080830152612f188185611e12565b9050612f2760a0830184611c6d565b979650505050505050565b600082825260208201905092915050565b612f4c81611c3d565b82525050565b6000612f5e8383612f43565b60208301905092915050565b6000612f768385612f32565b9350612f8182612a42565b8060005b85811015612fba57612f978284612a73565b612fa18882612f52565b9750612fac83612a8a565b925050600181019050612f85565b5085925050509392505050565b6000604082019050612fdc6000830186611c6d565b8181036020830152612fef818486612f6a565b9050949350505050565b7f4e487b7100000000000000000000000000000000000000000000000000000000600052601160045260246000fd5b6000613033826119bb565b91507fffffffffffffffffffffffffffffffffffffffffffffffffffffffffffffffff820361306557613064612ff9565b5b600182019050919050565b7f5f7265766973696f6e4964206973206e6f7420617070726f7665640000000000600082015250565b60006130a6601b83611d60565b91506130b182613070565b602082019050919050565b600060208201905081810360008301526130d581613099565b9050919050565b7f6164647265737365732070726f766964656420646f206e6f74206d617463682060008201527f7468652070726f7669646564205f7265766973696f6e4964277320616464726560208201527f7373657348617368000000000000000000000000000000000000000000000000604082015250565b600061315e604883611d60565b9150613169826130dc565b606082019050919050565b6000602082019050818103600083015261318d81613151565b9050919050565b600061319f826119bb565b91506131aa836119bb565b92508282039050818111156131c2576131c1612ff9565b5b92915050565b7f4e487b7100000000000000000000000000000000000000000000000000000000600052603260045260246000fd5b6000613202826119bb565b915061320d836119bb565b925082820261321b816119bb565b9150828204841483151761323257613231612ff9565b5b5092915050565b7f4f776e61626c653a206e6577206f776e657220697320746865207a65726f206160008201527f6464726573730000000000000000000000000000000000000000000000000000602082015250565b6000613295602683611d60565b91506132a082613239565b604082019050919050565b600060208201905081810360008301526132c481613288565b9050919050565b7f4f776e61626c653a2063616c6c6572206973206e6f7420746865206f776e6572600082015250565b6000613301602083611d60565b915061330c826132cb565b602082019050919050565b60006020820190508181036000830152613330816132f4565b9050919050565b7f4e487b7100000000000000000000000000000000000000000000000000000000600052601260045260246000fd5b6000613371826119bb565b915061337c836119bb565b92508261338c5761338b613337565b5b828204905092915050565b60006133a2826128cb565b91506133ad836128cb565b9250828201905060ff8111156133c6576133c5612ff9565b5b9291505056fea2646970667358221220239cca6ef9ae681020dcb02487d7c867fb2af30124496946841f843527f3aa2664736f6c63430008110033",
  "linkReferences": {},
  "deployedLinkReferences": {}
}