{
  "_format": "hh-sol-artifact-1",
  "contractName": "Decentralist",
  "sourceName": "contracts/Decentralist.sol",
  "abi": [
    {
      "anonymous": false,
      "inputs": [
        {
          "indexed": false,
          "internalType": "uint256",
          "name": "bondAmount",
          "type": "uint256"
        }
      ],
      "name": "BondSet",
      "type": "event"
    },
    {
      "anonymous": false,
      "inputs": [
        {
          "indexed": false,
          "internalType": "uint8",
          "name": "version",
          "type": "uint8"
        }
      ],
      "name": "Initialized",
      "type": "event"
    },
    {
      "anonymous": false,
      "inputs": [
        {
          "indexed": false,
          "internalType": "uint64",
          "name": "liveness",
          "type": "uint64"
        }
      ],
      "name": "LivenessSet",
      "type": "event"
    },
    {
      "anonymous": false,
      "inputs": [
        {
          "indexed": true,
          "internalType": "address",
          "name": "previousOwner",
          "type": "address"
        },
        {
          "indexed": true,
          "internalType": "address",
          "name": "newOwner",
          "type": "address"
        }
      ],
      "name": "OwnershipTransferred",
      "type": "event"
    },
    {
      "anonymous": false,
      "inputs": [
        {
          "indexed": true,
          "internalType": "uint256",
          "name": "revisionId",
          "type": "uint256"
        },
        {
          "indexed": false,
          "internalType": "enum Decentralist.RevisionType",
          "name": "revisionType",
          "type": "uint8"
        }
      ],
      "name": "RevisionApproved",
      "type": "event"
    },
    {
      "anonymous": false,
      "inputs": [
        {
          "indexed": true,
          "internalType": "uint256",
          "name": "revisionId",
          "type": "uint256"
        },
        {
          "indexed": false,
          "internalType": "enum Decentralist.RevisionType",
          "name": "revisionType",
          "type": "uint8"
        },
        {
          "indexed": false,
          "internalType": "address[]",
          "name": "revisedAddresses",
          "type": "address[]"
        }
      ],
      "name": "RevisionExecuted",
      "type": "event"
    },
    {
      "anonymous": false,
      "inputs": [
        {
          "indexed": true,
          "internalType": "uint256",
          "name": "revisionId",
          "type": "uint256"
        },
        {
          "indexed": false,
          "internalType": "enum Decentralist.RevisionType",
          "name": "revisionType",
          "type": "uint8"
        },
        {
          "indexed": false,
          "internalType": "address[]",
          "name": "proposedAddresses",
          "type": "address[]"
        }
      ],
      "name": "RevisionProposed",
      "type": "event"
    },
    {
      "anonymous": false,
      "inputs": [
        {
          "indexed": true,
          "internalType": "uint256",
          "name": "revisionId",
          "type": "uint256"
        },
        {
          "indexed": false,
          "internalType": "enum Decentralist.RevisionType",
          "name": "revisionType",
          "type": "uint8"
        }
      ],
      "name": "RevisionRejected",
      "type": "event"
    },
    {
      "anonymous": false,
      "inputs": [
        {
          "indexed": false,
          "internalType": "uint256",
          "name": "additionReward",
          "type": "uint256"
        },
        {
          "indexed": false,
          "internalType": "uint256",
          "name": "removalReward",
          "type": "uint256"
        }
      ],
      "name": "RewardsSet",
      "type": "event"
    },
    {
      "inputs": [],
      "name": "additionReward",
      "outputs": [
        {
          "internalType": "uint256",
          "name": "",
          "type": "uint256"
        }
      ],
      "stateMutability": "view",
      "type": "function"
    },
    {
      "inputs": [],
      "name": "bondAmount",
      "outputs": [
        {
          "internalType": "uint256",
          "name": "",
          "type": "uint256"
        }
      ],
      "stateMutability": "view",
      "type": "function"
    },
    {
      "inputs": [
        {
          "internalType": "uint256",
          "name": "_revisionId",
          "type": "uint256"
        },
        {
          "internalType": "address[]",
          "name": "_addresses",
          "type": "address[]"
        }
      ],
      "name": "executeRevision",
      "outputs": [],
      "stateMutability": "nonpayable",
      "type": "function"
    },
    {
      "inputs": [],
      "name": "finder",
      "outputs": [
        {
          "internalType": "contract FinderInterface",
          "name": "",
          "type": "address"
        }
      ],
      "stateMutability": "view",
      "type": "function"
    },
    {
      "inputs": [],
      "name": "fixedAncillaryData",
      "outputs": [
        {
          "internalType": "bytes",
          "name": "",
          "type": "bytes"
        }
      ],
      "stateMutability": "view",
      "type": "function"
    },
    {
      "inputs": [
        {
          "internalType": "address",
          "name": "_finder",
          "type": "address"
        },
        {
          "internalType": "bytes",
          "name": "_listCriteria",
          "type": "bytes"
        },
        {
          "internalType": "string",
          "name": "_title",
          "type": "string"
        },
        {
          "internalType": "address",
          "name": "_token",
          "type": "address"
        },
        {
          "internalType": "uint256",
          "name": "_bondAmount",
          "type": "uint256"
        },
        {
          "internalType": "uint256",
          "name": "_additionReward",
          "type": "uint256"
        },
        {
          "internalType": "uint256",
          "name": "_removalReward",
          "type": "uint256"
        },
        {
          "internalType": "uint64",
          "name": "_liveness",
          "type": "uint64"
        },
        {
          "internalType": "uint64",
          "name": "_minimumLiveness",
          "type": "uint64"
        },
        {
          "internalType": "address",
          "name": "_owner",
          "type": "address"
        }
      ],
      "name": "initialize",
      "outputs": [],
      "stateMutability": "nonpayable",
      "type": "function"
    },
    {
      "inputs": [],
      "name": "liveness",
      "outputs": [
        {
          "internalType": "uint64",
          "name": "",
          "type": "uint64"
        }
      ],
      "stateMutability": "view",
      "type": "function"
    },
    {
      "inputs": [],
      "name": "minimumLiveness",
      "outputs": [
        {
          "internalType": "uint64",
          "name": "",
          "type": "uint64"
        }
      ],
      "stateMutability": "view",
      "type": "function"
    },
    {
      "inputs": [
        {
          "internalType": "address",
          "name": "",
          "type": "address"
        }
      ],
      "name": "onList",
      "outputs": [
        {
          "internalType": "bool",
          "name": "",
          "type": "bool"
        }
      ],
      "stateMutability": "view",
      "type": "function"
    },
    {
      "inputs": [],
      "name": "oracle",
      "outputs": [
        {
          "internalType": "contract OptimisticOracleV2Interface",
          "name": "",
          "type": "address"
        }
      ],
      "stateMutability": "view",
      "type": "function"
    },
    {
      "inputs": [],
      "name": "owner",
      "outputs": [
        {
          "internalType": "address",
          "name": "",
          "type": "address"
        }
      ],
      "stateMutability": "view",
      "type": "function"
    },
    {
      "inputs": [
        {
          "internalType": "bytes32",
          "name": "",
          "type": "bytes32"
        },
        {
          "internalType": "uint256",
          "name": "timestamp",
          "type": "uint256"
        },
        {
          "internalType": "bytes",
          "name": "ancillaryData",
          "type": "bytes"
        },
        {
          "internalType": "int256",
          "name": "value",
          "type": "int256"
        }
      ],
      "name": "priceSettled",
      "outputs": [],
      "stateMutability": "nonpayable",
      "type": "function"
    },
    {
      "inputs": [
        {
          "internalType": "enum Decentralist.RevisionType",
          "name": "_revisionType",
          "type": "uint8"
        },
        {
          "internalType": "address[]",
          "name": "_addresses",
          "type": "address[]"
        }
      ],
      "name": "proposeRevision",
      "outputs": [],
      "stateMutability": "nonpayable",
      "type": "function"
    },
    {
      "inputs": [],
      "name": "removalReward",
      "outputs": [
        {
          "internalType": "uint256",
          "name": "",
          "type": "uint256"
        }
      ],
      "stateMutability": "view",
      "type": "function"
    },
    {
      "inputs": [],
      "name": "renounceOwnership",
      "outputs": [],
      "stateMutability": "nonpayable",
      "type": "function"
    },
    {
      "inputs": [
        {
          "internalType": "address",
          "name": "recipient",
          "type": "address"
        },
        {
          "internalType": "uint256",
          "name": "amount",
          "type": "uint256"
        },
        {
          "internalType": "address",
          "name": "_token",
          "type": "address"
        }
      ],
      "name": "rescue",
      "outputs": [],
      "stateMutability": "nonpayable",
      "type": "function"
    },
    {
      "inputs": [
        {
          "internalType": "uint256",
          "name": "",
          "type": "uint256"
        }
      ],
      "name": "revisions",
      "outputs": [
        {
          "internalType": "address",
          "name": "proposer",
          "type": "address"
        },
        {
          "internalType": "bytes32",
          "name": "addressesHash",
          "type": "bytes32"
        },
        {
          "internalType": "enum Decentralist.RevisionType",
          "name": "revisionType",
          "type": "uint8"
        },
        {
          "internalType": "enum Decentralist.Status",
          "name": "status",
          "type": "uint8"
        }
      ],
      "stateMutability": "view",
      "type": "function"
    },
    {
      "inputs": [
        {
          "internalType": "uint256",
          "name": "_bondAmount",
          "type": "uint256"
        }
      ],
      "name": "setBond",
      "outputs": [],
      "stateMutability": "nonpayable",
      "type": "function"
    },
    {
      "inputs": [
        {
          "internalType": "uint64",
          "name": "_liveness",
          "type": "uint64"
        }
      ],
      "name": "setLiveness",
      "outputs": [],
      "stateMutability": "nonpayable",
      "type": "function"
    },
    {
      "inputs": [
        {
          "internalType": "uint256",
          "name": "_additionReward",
          "type": "uint256"
        },
        {
          "internalType": "uint256",
          "name": "_removalReward",
          "type": "uint256"
        }
      ],
      "name": "setRewards",
      "outputs": [],
      "stateMutability": "nonpayable",
      "type": "function"
    },
    {
      "inputs": [],
      "name": "store",
      "outputs": [
        {
          "internalType": "contract StoreInterface",
          "name": "",
          "type": "address"
        }
      ],
      "stateMutability": "view",
      "type": "function"
    },
    {
      "inputs": [],
      "name": "syncContracts",
      "outputs": [],
      "stateMutability": "nonpayable",
      "type": "function"
    },
    {
      "inputs": [],
      "name": "title",
      "outputs": [
        {
          "internalType": "string",
          "name": "",
          "type": "string"
        }
      ],
      "stateMutability": "view",
      "type": "function"
    },
    {
      "inputs": [],
      "name": "token",
      "outputs": [
        {
          "internalType": "contract IERC20",
          "name": "",
          "type": "address"
        }
      ],
      "stateMutability": "view",
      "type": "function"
    },
    {
      "inputs": [
        {
          "internalType": "address",
          "name": "newOwner",
          "type": "address"
        }
      ],
      "name": "transferOwnership",
      "outputs": [],
      "stateMutability": "nonpayable",
      "type": "function"
    },
    {
      "inputs": [
        {
          "internalType": "address",
          "name": "recipient",
          "type": "address"
        },
        {
          "internalType": "uint256",
          "name": "amount",
          "type": "uint256"
        }
      ],
      "name": "withdraw",
      "outputs": [],
      "stateMutability": "nonpayable",
      "type": "function"
    }
  ],
  "bytecode": "0x608060405234801561001057600080fd5b5061001a3361001f565b61007a565b600080546001600160a01b038381166201000081810262010000600160b01b0319851617855560405193049190911692909183917f8be0079c531659141344cd1fd0a4f28419497f9722a3daafe3b4186f6b6457e091a35050565b612c89806200008a6000396000f3fe608060405234801561001057600080fd5b50600436106101ae5760003560e01c80638671d23b116100ee578063af359fa211610097578063f2fde38b11610071578063f2fde38b146103d6578063f3fef3a3146103e9578063fc0c546a146103fc578063fee53ab61461040f57600080fd5b8063af359fa2146103a7578063b9a3c84c146103ba578063c207ec6e146103cd57600080fd5b80638dee967e116100c85780638dee967e1461036b57806391152f1014610374578063975057e71461039457600080fd5b80638671d23b146103395780638a301adc1461034c5780638da5cb5b1461035457600080fd5b8063654e51e71161015b578063715018a611610135578063715018a6146102dc57806374881462146102e45780637dc0d1d0146102f757806380f323a71461032257600080fd5b8063654e51e7146102695780636ad0690a1461027c5780636f626eb3146102a957600080fd5b80633c4432f11161018c5780633c4432f1146102395780634a79d50c1461024c5780635cae7fb51461026157600080fd5b806304cc1fd5146101b35780630ef486d1146101c8578063259bd92014610226575b600080fd5b6101c66101c136600461214c565b610422565b005b61020d6101d63660046121a4565b600e602052600090815260409020805460018201546002909201546001600160a01b03909116919060ff8082169161010090041684565b60405161021d94939291906121e7565b60405180910390f35b6101c66102343660046121a4565b6105bc565b6101c6610247366004612247565b6106c0565b6102546107ec565b60405161021d91906122b2565b61025461087a565b6101c66102773660046122c5565b610887565b600a546102909067ffffffffffffffff1681565b60405167ffffffffffffffff909116815260200161021d565b6102cc6102b7366004612307565b600f6020526000908152604090205460ff1681565b604051901515815260200161021d565b6101c66108d6565b6101c66102f2366004612324565b6108ea565b60015461030a906001600160a01b031681565b6040516001600160a01b03909116815260200161021d565b61032b60065481565b60405190815260200161021d565b6101c66103473660046123fa565b610d01565b6101c6610d22565b6000546201000090046001600160a01b031661030a565b61032b60085481565b600a546102909068010000000000000000900467ffffffffffffffff1681565b60025461030a906001600160a01b031681565b6101c66103b5366004612488565b610e6f565b60035461030a906001600160a01b031681565b61032b60095481565b6101c66103e4366004612307565b611440565b6101c66103f73660046124e1565b6114d0565b60075461030a906001600160a01b031681565b6101c661041d36600461250d565b6114f3565b6001546001600160a01b031633146104a75760405162461bcd60e51b815260206004820152602260248201527f6f6e6c79206f7261636c652063616e2063616c6c20746869732066756e63746960448201527f6f6e00000000000000000000000000000000000000000000000000000000000060648201526084015b60405180910390fd5b600082846040516020016104bc929190612540565b60408051601f1981840301815291815281516020928301206000818152600d909352912054909150670de0b6b3a763ffff198301610556576000818152600e602052604090819020600201805461020061ff0019821617909155905182917fe7dfc76d7cf4f1781646dbd1e7e5057b56a0145663bf2bc18d35b27cb3a65b3f916105499160ff1690612562565b60405180910390a26105b4565b6000818152600e602052604090819020600201805461030061ff0019821617909155905182917f02050decabc268ccd3e064662a50780070b8d1ab87047ec88bc8e2c29fe29cda916105ab9160ff1690612562565b60405180910390a25b505050505050565b6105c46119aa565b600254600754604051635b97aadd60e01b81526001600160a01b039182166004820152911690635b97aadd90602401602060405180830381865afa158015610610573d6000803e3d6000fd5b505050506040513d601f19601f820116820180604052508101906106349190612576565b518110156106845760405162461bcd60e51b815260206004820152601960248201527f626f6e64206d757374206265203e3d2066696e616c2066656500000000000000604482015260640161049e565b60068190556040518181527f1b44689fb73c0c9cdf591d534287488fc7959fd3647346821063a3e567ec9a99906020015b60405180910390a150565b6106c86119aa565b600a5467ffffffffffffffff68010000000000000000909104811690821610156107405760405162461bcd60e51b815260206004820152602360248201527f6c6976656e657373206d757374206265203e3d206d696e696d756d4c6976656e60448201526265737360e81b606482015260840161049e565b62093a808167ffffffffffffffff161061079c5760405162461bcd60e51b815260206004820152601e60248201527f6c6976656e657373206d757374206265203c207468616e2031207765656b0000604482015260640161049e565b600a805467ffffffffffffffff191667ffffffffffffffff83169081179091556040519081527fe5e4fe1ed302905b2067dd5af3ef8c34bc829afc97a52f95dd96d97d1ee4351b906020016106b5565b600580546107f9906125b8565b80601f0160208091040260200160405190810160405280929190818152602001828054610825906125b8565b80156108725780601f1061084757610100808354040283529160200191610872565b820191906000526020600020905b81548152906001019060200180831161085557829003601f168201915b505050505081565b600480546107f9906125b8565b61088f6119aa565b6008829055600981905560408051838152602081018390527f067def216f0ef603ed8175482f6240978b15c9dc7efd8e1ac4bd3a743787a5b6910160405180910390a15050565b6108de6119aa565b6108e86000611a0b565b565b600054610100900460ff161580801561090a5750600054600160ff909116105b806109245750303b158015610924575060005460ff166001145b6109965760405162461bcd60e51b815260206004820152602e60248201527f496e697469616c697a61626c653a20636f6e747261637420697320616c72656160448201527f647920696e697469616c697a6564000000000000000000000000000000000000606482015260840161049e565b6000805460ff1916600117905580156109b9576000805461ff0019166101001790555b600380546001600160a01b0319166001600160a01b038d161790556109dc610d22565b600780546001600160a01b0319166001600160a01b038a8116918217909255600254604051635b97aadd60e01b8152600481019290925290911690635b97aadd90602401602060405180830381865afa158015610a3d573d6000803e3d6000fd5b505050506040513d601f19601f82011682018060405250810190610a619190612576565b51600c55600254600754604051635b97aadd60e01b81526001600160a01b039182166004820152911690635b97aadd90602401602060405180830381865afa158015610ab1573d6000803e3d6000fd5b505050506040513d601f19601f82011682018060405250810190610ad59190612576565b51871015610b255760405162461bcd60e51b815260206004820152601960248201527f626f6e64206d757374206265203e3d2066696e616c2066656500000000000000604482015260640161049e565b8267ffffffffffffffff168467ffffffffffffffff161015610b955760405162461bcd60e51b815260206004820152602360248201527f6c6976656e657373206d757374206265203e3d206d696e696d756d4c6976656e60448201526265737360e81b606482015260840161049e565b63bb7448008467ffffffffffffffff1610610bf25760405162461bcd60e51b815260206004820152601d60248201527f6c6976656e657373206d757374206265203c2035323030207765656b73000000604482015260640161049e565b89604051602001610c0391906125f2565b60405160208183030381529060405260049081610c209190612762565b506005610c2d8a82612762565b50600780546001600160a01b038a166001600160a01b0319909116179055600687905560088690556009859055600a805467ffffffffffffffff85811668010000000000000000027fffffffffffffffffffffffffffffffff0000000000000000000000000000000090921690871617179055610ca982611a0b565b6001600b558015610cf4576000805461ff0019169055604051600181527f7f26b83ff96e1f2b6a682f133852f6798a09c465da95921460cefb38474024989060200160405180910390a15b5050505050505050505050565b610d096119aa565b610d1d6001600160a01b0382168484611a7c565b505050565b6003546040516302abf57960e61b81527f4f7074696d69737469634f7261636c655632000000000000000000000000000060048201526001600160a01b039091169063aafd5e4090602401602060405180830381865afa158015610d8a573d6000803e3d6000fd5b505050506040513d601f19601f82011682018060405250810190610dae9190612822565b600180546001600160a01b0319166001600160a01b039283161790556003546040516302abf57960e61b81527f53746f7265000000000000000000000000000000000000000000000000000000600482015291169063aafd5e4090602401602060405180830381865afa158015610e29573d6000803e3d6000fd5b505050506040513d601f19601f82011682018060405250810190610e4d9190612822565b600280546001600160a01b0319166001600160a01b0392909216919091179055565b60648110610ee45760405162461bcd60e51b8152602060048201526024808201527f616464726573736573206172726179206c656e677468206d757374206265203c60448201527f2031303000000000000000000000000000000000000000000000000000000000606482015260840161049e565b60408051808201909152601a81527f446f20616c6c2050726f706f736564204164647265737365732000000000000060208201526000846001811115610f2c57610f2c6121bd565b03610f545780604051602001610f42919061283f565b60405160208183030381529060405290505b806004610f62600b54611b25565b604051602001610f7493929190612880565b60408051601f198184030181529082905291504290600090610f9c9084908490602001612540565b60405160208183030381529060405280519060200120905060008585604051602001610fc9929190612920565b60408051601f198184030181529181528151602092830120600b80546000878152600d8652848120829055908152600e90945282842080546001600160a01b03191633179055805484528284206001908101839055905484529190922060020180549293508992909160ff1990911690838181111561104a5761104a6121bd565b0217905550600b546000908152600e6020526040808220600201805461ff00191661010017905560015460075491517f11df92f10000000000000000000000000000000000000000000000000000000081526001600160a01b03918216936311df92f1936110d8936e5945535f4f525f4e4f5f515545525960881b938a938c93929092169190600401612962565b6020604051808303816000875af11580156110f7573d6000803e3d6000fd5b505050506040513d601f19601f8201168201806040525081019061111b919061299e565b50600180546040517ff327b0750000000000000000000000000000000000000000000000000000000081526001600160a01b039091169163f327b07591611181916e5945535f4f525f4e4f5f515545525960881b9188918a9160009182916004016129b7565b600060405180830381600087803b15801561119b57600080fd5b505af11580156111af573d6000803e3d6000fd5b5050600154600a546040517f473c45fe0000000000000000000000000000000000000000000000000000000081526001600160a01b03909216935063473c45fe9250611220916e5945535f4f525f4e4f5f515545525960881b9188918a9167ffffffffffffffff16906004016129f6565b600060405180830381600087803b15801561123a57600080fd5b505af115801561124e573d6000803e3d6000fd5b50506001546006546040517fad5a755a000000000000000000000000000000000000000000000000000000008152600094506001600160a01b03909216925063ad5a755a916112b7916e5945535f4f525f4e4f5f515545525960881b9189918b91600401612a30565b6020604051808303816000875af11580156112d6573d6000803e3d6000fd5b505050506040513d601f19601f820116820180604052508101906112fa919061299e565b600754909150611315906001600160a01b0316333084611c85565b600154600754611332916001600160a01b03918216911683611cdc565b6001546040517f7c82288f0000000000000000000000000000000000000000000000000000000081526001600160a01b0390911690637c82288f9061139f90339030906e5945535f4f525f4e4f5f515545525960881b908a908c90670de0b6b3a764000090600401612a60565b6020604051808303816000875af11580156113be573d6000803e3d6000fd5b505050506040513d601f19601f820116820180604052508101906113e2919061299e565b50600b547f8479c2bee15eda418c90b95fa659dac53de3029ccab55c13c32641a566b4fd9289898960405161141993929190612aab565b60405180910390a2600b805490600061143183612b23565b91905055505050505050505050565b6114486119aa565b6001600160a01b0381166114c45760405162461bcd60e51b815260206004820152602660248201527f4f776e61626c653a206e6577206f776e657220697320746865207a65726f206160448201527f6464726573730000000000000000000000000000000000000000000000000000606482015260840161049e565b6114cd81611a0b565b50565b6114d86119aa565b6007546114ef906001600160a01b03168383611a7c565b5050565b60026000848152600e6020526040902060020154610100900460ff166004811115611520576115206121bd565b1461156d5760405162461bcd60e51b815260206004820152601a60248201527f7265766973696f6e4964206973206e6f7420617070726f766564000000000000604482015260640161049e565b8181604051602001611580929190612920565b60408051601f1981840301815291815281516020928301206000868152600e9093529120600101541461161b5760405162461bcd60e51b815260206004820152602f60248201527f68617368206f662061646472657373657320213d207265766973696f6e49642760448201527f7320616464726573736573486173680000000000000000000000000000000000606482015260840161049e565b6000838152600e60205260408120600201805461040061ff00198216179091558190819060ff166001811115611653576116536121bd565b0361166557505060095460009061169b565b60016000868152600e602052604090206002015460ff16600181111561168d5761168d6121bd565b0361169b5750506008546001905b6000808467ffffffffffffffff8111156116b7576116b76120a9565b6040519080825280602002602001820160405280156116e0578160200160208202803683370190505b50905060005b8581101561180557841515600f600089898581811061170757611707612b3c565b905060200201602081019061171c9190612307565b6001600160a01b0316815260208101919091526040016000205460ff161515146117f35784600f600089898581811061175757611757612b3c565b905060200201602081019061176c9190612307565b6001600160a01b031681526020810191909152604001600020805460ff19169115159190911790558686828181106117a6576117a6612b3c565b90506020020160208101906117bb9190612307565b8282815181106117cd576117cd612b3c565b6001600160a01b0390921660209283029190910190910152826117ef81612b23565b9350505b806117fd81612b23565b9150506116e6565b5060006118128385612b52565b9050801561194f576007546040516370a0823160e01b815230600482015282916001600160a01b0316906370a0823190602401602060405180830381865afa158015611862573d6000803e3d6000fd5b505050506040513d601f19601f82011682018060405250810190611886919061299e565b1015611926576000888152600e6020526040908190205460075491516370a0823160e01b8152306004820152611921926001600160a01b039283169216906370a0823190602401602060405180830381865afa1580156118ea573d6000803e3d6000fd5b505050506040513d601f19601f8201168201806040525081019061190e919061299e565b6007546001600160a01b03169190611a7c565b61194f565b6000888152600e602052604090205460075461194f916001600160a01b03918216911683611a7c565b6000888152600e60205260409081902060020154905189917f80f45b4d1139e5fb60a132f4ca38836c7c42309e0a67a42d1a58450daf29253e916119989160ff16908690612b69565b60405180910390a25050505050505050565b6000546001600160a01b03620100009091041633146108e85760405162461bcd60e51b815260206004820181905260248201527f4f776e61626c653a2063616c6c6572206973206e6f7420746865206f776e6572604482015260640161049e565b600080546001600160a01b03838116620100008181027fffffffffffffffffffff0000000000000000000000000000000000000000ffff851617855560405193049190911692909183917f8be0079c531659141344cd1fd0a4f28419497f9722a3daafe3b4186f6b6457e091a35050565b6040516001600160a01b038316602482015260448101829052610d1d9084907fa9059cbb00000000000000000000000000000000000000000000000000000000906064015b60408051601f198184030181529190526020810180517bffffffffffffffffffffffffffffffffffffffffffffffffffffffff167fffffffff0000000000000000000000000000000000000000000000000000000090931692909217909152611e2a565b606081600003611b6857505060408051808201909152600181527f3000000000000000000000000000000000000000000000000000000000000000602082015290565b8160005b8115611b925780611b7c81612b23565b9150611b8b9050600a83612bc7565b9150611b6c565b60008167ffffffffffffffff811115611bad57611bad6120a9565b6040519080825280601f01601f191660200182016040528015611bd7576020820181803683370190505b509050815b8515611c7c57611bed600182612be9565b90506000611bfc600a88612bc7565b611c0790600a612b52565b611c119088612be9565b611c1c906030612bfc565b905060008160f81b905080848481518110611c3957611c39612b3c565b60200101907effffffffffffffffffffffffffffffffffffffffffffffffffffffffffffff1916908160001a905350611c73600a89612bc7565b97505050611bdc565b50949350505050565b6040516001600160a01b0380851660248301528316604482015260648101829052611cd69085907f23b872dd0000000000000000000000000000000000000000000000000000000090608401611ac1565b50505050565b801580611d6f57506040517fdd62ed3e0000000000000000000000000000000000000000000000000000000081523060048201526001600160a01b03838116602483015284169063dd62ed3e90604401602060405180830381865afa158015611d49573d6000803e3d6000fd5b505050506040513d601f19601f82011682018060405250810190611d6d919061299e565b155b611de15760405162461bcd60e51b815260206004820152603660248201527f5361666545524332303a20617070726f76652066726f6d206e6f6e2d7a65726f60448201527f20746f206e6f6e2d7a65726f20616c6c6f77616e636500000000000000000000606482015260840161049e565b6040516001600160a01b038316602482015260448101829052610d1d9084907f095ea7b30000000000000000000000000000000000000000000000000000000090606401611ac1565b6000611e7f826040518060400160405280602081526020017f5361666545524332303a206c6f772d6c6576656c2063616c6c206661696c6564815250856001600160a01b0316611f0f9092919063ffffffff16565b805190915015610d1d5780806020019051810190611e9d9190612c15565b610d1d5760405162461bcd60e51b815260206004820152602a60248201527f5361666545524332303a204552433230206f7065726174696f6e20646964206e60448201527f6f74207375636365656400000000000000000000000000000000000000000000606482015260840161049e565b6060611f1e8484600085611f28565b90505b9392505050565b606082471015611fa05760405162461bcd60e51b815260206004820152602660248201527f416464726573733a20696e73756666696369656e742062616c616e636520666f60448201527f722063616c6c0000000000000000000000000000000000000000000000000000606482015260840161049e565b6001600160a01b0385163b611ff75760405162461bcd60e51b815260206004820152601d60248201527f416464726573733a2063616c6c20746f206e6f6e2d636f6e7472616374000000604482015260640161049e565b600080866001600160a01b031685876040516120139190612c37565b60006040518083038185875af1925050503d8060008114612050576040519150601f19603f3d011682016040523d82523d6000602084013e612055565b606091505b5091509150612065828286612070565b979650505050505050565b6060831561207f575081611f21565b82511561208f5782518084602001fd5b8160405162461bcd60e51b815260040161049e91906122b2565b634e487b7160e01b600052604160045260246000fd5b600082601f8301126120d057600080fd5b813567ffffffffffffffff808211156120eb576120eb6120a9565b604051601f8301601f19908116603f01168101908282118183101715612113576121136120a9565b8160405283815286602085880101111561212c57600080fd5b836020870160208301376000602085830101528094505050505092915050565b6000806000806080858703121561216257600080fd5b8435935060208501359250604085013567ffffffffffffffff81111561218757600080fd5b612193878288016120bf565b949793965093946060013593505050565b6000602082840312156121b657600080fd5b5035919050565b634e487b7160e01b600052602160045260246000fd5b600281106121e3576121e36121bd565b9052565b6001600160a01b0385168152602081018490526080810161220b60408301856121d3565b6005831061221b5761221b6121bd565b82606083015295945050505050565b803567ffffffffffffffff8116811461224257600080fd5b919050565b60006020828403121561225957600080fd5b611f218261222a565b60005b8381101561227d578181015183820152602001612265565b50506000910152565b6000815180845261229e816020860160208601612262565b601f01601f19169290920160200192915050565b602081526000611f216020830184612286565b600080604083850312156122d857600080fd5b50508035926020909101359150565b6001600160a01b03811681146114cd57600080fd5b8035612242816122e7565b60006020828403121561231957600080fd5b8135611f21816122e7565b6000806000806000806000806000806101408b8d03121561234457600080fd5b61234d8b6122fc565b995060208b013567ffffffffffffffff8082111561236a57600080fd5b6123768e838f016120bf565b9a5060408d013591508082111561238c57600080fd5b506123998d828e016120bf565b9850506123a860608c016122fc565b965060808b0135955060a08b0135945060c08b013593506123cb60e08c0161222a565b92506123da6101008c0161222a565b91506123e96101208c016122fc565b90509295989b9194979a5092959850565b60008060006060848603121561240f57600080fd5b833561241a816122e7565b9250602084013591506040840135612431816122e7565b809150509250925092565b60008083601f84011261244e57600080fd5b50813567ffffffffffffffff81111561246657600080fd5b6020830191508360208260051b850101111561248157600080fd5b9250929050565b60008060006040848603121561249d57600080fd5b8335600281106124ac57600080fd5b9250602084013567ffffffffffffffff8111156124c857600080fd5b6124d48682870161243c565b9497909650939450505050565b600080604083850312156124f457600080fd5b82356124ff816122e7565b946020939093013593505050565b60008060006040848603121561252257600080fd5b83359250602084013567ffffffffffffffff8111156124c857600080fd5b60008351612552818460208801612262565b9190910191825250602001919050565b6020810161257082846121d3565b92915050565b60006020828403121561258857600080fd5b6040516020810181811067ffffffffffffffff821117156125ab576125ab6120a9565b6040529151825250919050565b600181811c908216806125cc57607f821691505b6020821081036125ec57634e487b7160e01b600052602260045260246000fd5b50919050565b7f6d65657420746865204c6973742043726974657269613f204c6973742043726981527f74657269613a2000000000000000000000000000000000000000000000000000602082015260008251612650816027850160208701612262565b7f2e2050726f706f736564204164647265737365732063616e20626520666f756e60279390910192830152507f6420696e207468652070726f706f73656441646472657373657320706172616d60478201527f65746572206f6620746865205265766973696f6e50726f706f7365642065766560678201527f6e7420656d69747465642062792074686520726571756573746572277320616460878201527f64726573732077697468205265766973696f6e204944203d200000000000000060a782015260c001919050565b601f821115610d1d57600081815260208120601f850160051c810160208610156127435750805b601f850160051c820191505b818110156105b45782815560010161274f565b815167ffffffffffffffff81111561277c5761277c6120a9565b6127908161278a84546125b8565b8461271c565b602080601f8311600181146127c557600084156127ad5750858301515b600019600386901b1c1916600185901b1785556105b4565b600085815260208120601f198616915b828110156127f4578886015182559484019460019091019084016127d5565b50858210156128125787850151600019600388901b60f8161c191681555b5050505050600190811b01905550565b60006020828403121561283457600080fd5b8151611f21816122e7565b60008251612851818460208701612262565b7f6661696c20746f20000000000000000000000000000000000000000000000000920191825250600801919050565b6000845160206128938285838a01612262565b8184019150600086546128a5816125b8565b600182811680156128bd57600181146128d2576128fe565b60ff19841687528215158302870194506128fe565b8a6000528560002060005b848110156128f6578154898201529083019087016128dd565b505082870194505b50505050855192506129138382848901612262565b9091019695505050505050565b60008184825b85811015612957578135612939816122e7565b6001600160a01b031683526020928301929190910190600101612926565b509095945050505050565b85815284602082015260a06040820152600061298160a0830186612286565b6001600160a01b0394909416606083015250608001529392505050565b6000602082840312156129b057600080fd5b5051919050565b86815285602082015260c0604082015260006129d660c0830187612286565b9415156060830152509115156080830152151560a0909101529392505050565b848152836020820152608060408201526000612a156080830185612286565b905067ffffffffffffffff8316606083015295945050505050565b848152836020820152608060408201526000612a4f6080830185612286565b905082606083015295945050505050565b60006001600160a01b03808916835280881660208401525085604083015284606083015260c06080830152612a9860c0830185612286565b90508260a0830152979650505050505050565b600060408201612abb83876121d3565b60206040818501528185835260608501905086925060005b86811015612b01578335612ae6816122e7565b6001600160a01b031682529282019290820190600101612ad3565b50979650505050505050565b634e487b7160e01b600052601160045260246000fd5b600060018201612b3557612b35612b0d565b5060010190565b634e487b7160e01b600052603260045260246000fd5b808202811582820484141761257057612570612b0d565b600060408201612b7983866121d3565b6020604081850152818551808452606086019150828701935060005b81811015612bba5784516001600160a01b031683529383019391830191600101612b95565b5090979650505050505050565b600082612be457634e487b7160e01b600052601260045260246000fd5b500490565b8181038181111561257057612570612b0d565b60ff818116838216019081111561257057612570612b0d565b600060208284031215612c2757600080fd5b81518015158114611f2157600080fd5b60008251612c49818460208701612262565b919091019291505056fea2646970667358221220eb4c7c89f164312faaa9d7497d6b649e504f46db6f9ae421fbd1db85be78432364736f6c63430008110033",
  "linkReferences": {},
  "deployedLinkReferences": {}
}