{
  "_format": "hh-sol-artifact-1",
  "contractName": "Decentralist",
  "sourceName": "contracts/Decentralist.sol",
  "abi": [
    {
      "anonymous": false,
      "inputs": [
        {
          "indexed": false,
          "internalType": "uint256",
          "name": "bondAmount",
          "type": "uint256"
        }
      ],
      "name": "BondSet",
      "type": "event"
    },
    {
      "anonymous": false,
      "inputs": [
        {
          "indexed": false,
          "internalType": "uint8",
          "name": "version",
          "type": "uint8"
        }
      ],
      "name": "Initialized",
      "type": "event"
    },
    {
      "anonymous": false,
      "inputs": [
        {
          "indexed": false,
          "internalType": "uint64",
          "name": "liveness",
          "type": "uint64"
        }
      ],
      "name": "LivenessSet",
      "type": "event"
    },
    {
      "anonymous": false,
      "inputs": [
        {
          "indexed": true,
          "internalType": "address",
          "name": "previousOwner",
          "type": "address"
        },
        {
          "indexed": true,
          "internalType": "address",
          "name": "newOwner",
          "type": "address"
        }
      ],
      "name": "OwnershipTransferred",
      "type": "event"
    },
    {
      "anonymous": false,
      "inputs": [
        {
          "indexed": true,
          "internalType": "uint256",
          "name": "revisionId",
          "type": "uint256"
        },
        {
          "indexed": false,
          "internalType": "int256",
          "name": "proposedValue",
          "type": "int256"
        }
      ],
      "name": "RevisionApproved",
      "type": "event"
    },
    {
      "anonymous": false,
      "inputs": [
        {
          "indexed": true,
          "internalType": "uint256",
          "name": "revisionId",
          "type": "uint256"
        },
        {
          "indexed": false,
          "internalType": "int256",
          "name": "proposedValue",
          "type": "int256"
        },
        {
          "indexed": false,
          "internalType": "address[]",
          "name": "revisedAddresses",
          "type": "address[]"
        }
      ],
      "name": "RevisionExecuted",
      "type": "event"
    },
    {
      "anonymous": false,
      "inputs": [
        {
          "indexed": true,
          "internalType": "uint256",
          "name": "revisionId",
          "type": "uint256"
        },
        {
          "indexed": false,
          "internalType": "int256",
          "name": "proposedValue",
          "type": "int256"
        },
        {
          "indexed": false,
          "internalType": "address[]",
          "name": "pendingAddresses",
          "type": "address[]"
        }
      ],
      "name": "RevisionProposed",
      "type": "event"
    },
    {
      "anonymous": false,
      "inputs": [
        {
          "indexed": true,
          "internalType": "uint256",
          "name": "revisionId",
          "type": "uint256"
        },
        {
          "indexed": false,
          "internalType": "int256",
          "name": "proposedValue",
          "type": "int256"
        }
      ],
      "name": "RevisionRejected",
      "type": "event"
    },
    {
      "anonymous": false,
      "inputs": [
        {
          "indexed": false,
          "internalType": "uint256",
          "name": "additionReward",
          "type": "uint256"
        },
        {
          "indexed": false,
          "internalType": "uint256",
          "name": "removalReward",
          "type": "uint256"
        }
      ],
      "name": "RewardsSet",
      "type": "event"
    },
    {
      "inputs": [],
      "name": "additionReward",
      "outputs": [
        {
          "internalType": "uint256",
          "name": "",
          "type": "uint256"
        }
      ],
      "stateMutability": "view",
      "type": "function"
    },
    {
      "inputs": [],
      "name": "bondAmount",
      "outputs": [
        {
          "internalType": "uint256",
          "name": "",
          "type": "uint256"
        }
      ],
      "stateMutability": "view",
      "type": "function"
    },
    {
      "inputs": [
        {
          "internalType": "uint256",
          "name": "_revisionId",
          "type": "uint256"
        },
        {
          "internalType": "address[]",
          "name": "_addresses",
          "type": "address[]"
        }
      ],
      "name": "executeRevision",
      "outputs": [],
      "stateMutability": "nonpayable",
      "type": "function"
    },
    {
      "inputs": [],
      "name": "finder",
      "outputs": [
        {
          "internalType": "contract FinderInterface",
          "name": "",
          "type": "address"
        }
      ],
      "stateMutability": "view",
      "type": "function"
    },
    {
      "inputs": [],
      "name": "fixedAncillaryData",
      "outputs": [
        {
          "internalType": "bytes",
          "name": "",
          "type": "bytes"
        }
      ],
      "stateMutability": "view",
      "type": "function"
    },
    {
      "inputs": [
        {
          "internalType": "address",
          "name": "_finder",
          "type": "address"
        },
        {
          "internalType": "bytes",
          "name": "_listCriteria",
          "type": "bytes"
        },
        {
          "internalType": "string",
          "name": "_title",
          "type": "string"
        },
        {
          "internalType": "address",
          "name": "_token",
          "type": "address"
        },
        {
          "internalType": "uint256",
          "name": "_bondAmount",
          "type": "uint256"
        },
        {
          "internalType": "uint256",
          "name": "_additionReward",
          "type": "uint256"
        },
        {
          "internalType": "uint256",
          "name": "_removalReward",
          "type": "uint256"
        },
        {
          "internalType": "uint64",
          "name": "_liveness",
          "type": "uint64"
        },
        {
          "internalType": "uint64",
          "name": "_minimumLiveness",
          "type": "uint64"
        },
        {
          "internalType": "address",
          "name": "_owner",
          "type": "address"
        }
      ],
      "name": "initialize",
      "outputs": [],
      "stateMutability": "nonpayable",
      "type": "function"
    },
    {
      "inputs": [],
      "name": "liveness",
      "outputs": [
        {
          "internalType": "uint64",
          "name": "",
          "type": "uint64"
        }
      ],
      "stateMutability": "view",
      "type": "function"
    },
    {
      "inputs": [],
      "name": "minimumLiveness",
      "outputs": [
        {
          "internalType": "uint64",
          "name": "",
          "type": "uint64"
        }
      ],
      "stateMutability": "view",
      "type": "function"
    },
    {
      "inputs": [
        {
          "internalType": "address",
          "name": "",
          "type": "address"
        }
      ],
      "name": "onList",
      "outputs": [
        {
          "internalType": "bool",
          "name": "",
          "type": "bool"
        }
      ],
      "stateMutability": "view",
      "type": "function"
    },
    {
      "inputs": [],
      "name": "oracle",
      "outputs": [
        {
          "internalType": "contract OptimisticOracleV2Interface",
          "name": "",
          "type": "address"
        }
      ],
      "stateMutability": "view",
      "type": "function"
    },
    {
      "inputs": [],
      "name": "owner",
      "outputs": [
        {
          "internalType": "address",
          "name": "",
          "type": "address"
        }
      ],
      "stateMutability": "view",
      "type": "function"
    },
    {
      "inputs": [
        {
          "internalType": "bytes32",
          "name": "",
          "type": "bytes32"
        },
        {
          "internalType": "uint256",
          "name": "timestamp",
          "type": "uint256"
        },
        {
          "internalType": "bytes",
          "name": "ancillaryData",
          "type": "bytes"
        },
        {
          "internalType": "int256",
          "name": "value",
          "type": "int256"
        }
      ],
      "name": "priceSettled",
      "outputs": [],
      "stateMutability": "nonpayable",
      "type": "function"
    },
    {
      "inputs": [
        {
          "internalType": "int256",
          "name": "_value",
          "type": "int256"
        },
        {
          "internalType": "address[]",
          "name": "_addresses",
          "type": "address[]"
        }
      ],
      "name": "proposeRevision",
      "outputs": [],
      "stateMutability": "nonpayable",
      "type": "function"
    },
    {
      "inputs": [],
      "name": "removalReward",
      "outputs": [
        {
          "internalType": "uint256",
          "name": "",
          "type": "uint256"
        }
      ],
      "stateMutability": "view",
      "type": "function"
    },
    {
      "inputs": [],
      "name": "renounceOwnership",
      "outputs": [],
      "stateMutability": "nonpayable",
      "type": "function"
    },
    {
      "inputs": [
        {
          "internalType": "address",
          "name": "recipient",
          "type": "address"
        },
        {
          "internalType": "uint256",
          "name": "amount",
          "type": "uint256"
        },
        {
          "internalType": "address",
          "name": "_token",
          "type": "address"
        }
      ],
      "name": "rescue",
      "outputs": [],
      "stateMutability": "nonpayable",
      "type": "function"
    },
    {
      "inputs": [
        {
          "internalType": "uint256",
          "name": "",
          "type": "uint256"
        }
      ],
      "name": "revisions",
      "outputs": [
        {
          "internalType": "address",
          "name": "proposer",
          "type": "address"
        },
        {
          "internalType": "bytes32",
          "name": "addressesHash",
          "type": "bytes32"
        },
        {
          "internalType": "int256",
          "name": "proposedValue",
          "type": "int256"
        },
        {
          "internalType": "enum Decentralist.Status",
          "name": "status",
          "type": "uint8"
        }
      ],
      "stateMutability": "view",
      "type": "function"
    },
    {
      "inputs": [
        {
          "internalType": "uint256",
          "name": "_bondAmount",
          "type": "uint256"
        }
      ],
      "name": "setBond",
      "outputs": [],
      "stateMutability": "nonpayable",
      "type": "function"
    },
    {
      "inputs": [
        {
          "internalType": "uint64",
          "name": "_liveness",
          "type": "uint64"
        }
      ],
      "name": "setLiveness",
      "outputs": [],
      "stateMutability": "nonpayable",
      "type": "function"
    },
    {
      "inputs": [
        {
          "internalType": "uint256",
          "name": "_additionReward",
          "type": "uint256"
        },
        {
          "internalType": "uint256",
          "name": "_removalReward",
          "type": "uint256"
        }
      ],
      "name": "setRewards",
      "outputs": [],
      "stateMutability": "nonpayable",
      "type": "function"
    },
    {
      "inputs": [],
      "name": "store",
      "outputs": [
        {
          "internalType": "contract StoreInterface",
          "name": "",
          "type": "address"
        }
      ],
      "stateMutability": "view",
      "type": "function"
    },
    {
      "inputs": [],
      "name": "syncContracts",
      "outputs": [],
      "stateMutability": "nonpayable",
      "type": "function"
    },
    {
      "inputs": [],
      "name": "title",
      "outputs": [
        {
          "internalType": "string",
          "name": "",
          "type": "string"
        }
      ],
      "stateMutability": "view",
      "type": "function"
    },
    {
      "inputs": [],
      "name": "token",
      "outputs": [
        {
          "internalType": "contract IERC20",
          "name": "",
          "type": "address"
        }
      ],
      "stateMutability": "view",
      "type": "function"
    },
    {
      "inputs": [
        {
          "internalType": "address",
          "name": "newOwner",
          "type": "address"
        }
      ],
      "name": "transferOwnership",
      "outputs": [],
      "stateMutability": "nonpayable",
      "type": "function"
    },
    {
      "inputs": [
        {
          "internalType": "address",
          "name": "recipient",
          "type": "address"
        },
        {
          "internalType": "uint256",
          "name": "amount",
          "type": "uint256"
        }
      ],
      "name": "withdraw",
      "outputs": [],
      "stateMutability": "nonpayable",
      "type": "function"
    }
  ],
  "bytecode": "0x608060405234801561001057600080fd5b5061001a3361001f565b61007a565b600080546001600160a01b038381166201000081810262010000600160b01b0319851617855560405193049190911692909183917f8be0079c531659141344cd1fd0a4f28419497f9722a3daafe3b4186f6b6457e091a35050565b612a9f806100896000396000f3fe608060405234801561001057600080fd5b50600436106101ae5760003560e01c80638671d23b116100ee578063b9a3c84c11610097578063f2fde38b11610071578063f2fde38b146103d3578063f3fef3a3146103e6578063fc0c546a146103f9578063fee53ab61461040c57600080fd5b8063b9a3c84c146103a4578063c207ec6e146103b7578063ec40ad51146103c057600080fd5b80638dee967e116100c85780638dee967e1461036857806391152f1014610371578063975057e71461039157600080fd5b80638671d23b146103365780638a301adc146103495780638da5cb5b1461035157600080fd5b8063654e51e71161015b578063715018a611610135578063715018a6146102d957806374881462146102e15780637dc0d1d0146102f457806380f323a71461031f57600080fd5b8063654e51e7146102665780636ad0690a146102795780636f626eb3146102a657600080fd5b80633c4432f11161018c5780633c4432f1146102365780634a79d50c146102495780635cae7fb51461025e57600080fd5b806304cc1fd5146101b35780630ef486d1146101c8578063259bd92014610223575b600080fd5b6101c66101c136600461202c565b61041f565b005b61020a6101d6366004612084565b600e6020526000908152604090208054600182015460028301546003909301546001600160a01b0390921692909160ff1684565b60405161021a94939291906120b3565b60405180910390f35b6101c6610231366004612084565b610531565b6101c661024436600461211b565b61063a565b610251610766565b60405161021a9190612186565b6102516107f4565b6101c6610274366004612199565b610801565b600a5461028d9067ffffffffffffffff1681565b60405167ffffffffffffffff909116815260200161021a565b6102c96102b43660046121db565b600f6020526000908152604090205460ff1681565b604051901515815260200161021a565b6101c6610850565b6101c66102ef3660046121f8565b610864565b600154610307906001600160a01b031681565b6040516001600160a01b03909116815260200161021a565b61032860065481565b60405190815260200161021a565b6101c66103443660046122ce565b610c7b565b6101c6610c9c565b6000546201000090046001600160a01b0316610307565b61032860085481565b600a5461028d9068010000000000000000900467ffffffffffffffff1681565b600254610307906001600160a01b031681565b600354610307906001600160a01b031681565b61032860095481565b6101c66103ce36600461235c565b610de9565b6101c66103e13660046121db565b611368565b6101c66103f43660046123a8565b6113f8565b600754610307906001600160a01b031681565b6101c661041a36600461235c565b61141b565b600082846040516020016104349291906123d4565b60408051601f1981840301815291815281516020928301206000818152600d845282812054808252600e90945291909120600201549092508390036104d0576000818152600e602090815260409182902060038101805460ff191660029081179091550154915191825282917f5f1087556d42c4c3af637fe0024e1c4ab4274c137e1e40d1e005992dd9fc8d51910160405180910390a2610529565b6000818152600e60209081526040918290206003808201805460ff1916909117905560020154915191825282917fe796aea3ecdb85837e12c602f67420034db2f1f547e02e2af5d5210af31b088d910160405180910390a25b505050505050565b61053961188a565b600254600754604051635b97aadd60e01b81526001600160a01b039182166004820152911690635b97aadd90602401602060405180830381865afa158015610585573d6000803e3d6000fd5b505050506040513d601f19601f820116820180604052508101906105a991906123f6565b518110156105fe5760405162461bcd60e51b815260206004820152601960248201527f626f6e64206d757374206265203e3d2066696e616c206665650000000000000060448201526064015b60405180910390fd5b60068190556040518181527f1b44689fb73c0c9cdf591d534287488fc7959fd3647346821063a3e567ec9a99906020015b60405180910390a150565b61064261188a565b600a5467ffffffffffffffff68010000000000000000909104811690821610156106ba5760405162461bcd60e51b815260206004820152602360248201527f6c6976656e657373206d757374206265203e3d206d696e696d756d4c6976656e60448201526265737360e81b60648201526084016105f5565b62093a808167ffffffffffffffff16106107165760405162461bcd60e51b815260206004820152601e60248201527f6c6976656e657373206d757374206265203c207468616e2031207765656b000060448201526064016105f5565b600a805467ffffffffffffffff191667ffffffffffffffff83169081179091556040519081527fe5e4fe1ed302905b2067dd5af3ef8c34bc829afc97a52f95dd96d97d1ee4351b9060200161062f565b6005805461077390612438565b80601f016020809104026020016040519081016040528092919081815260200182805461079f90612438565b80156107ec5780601f106107c1576101008083540402835291602001916107ec565b820191906000526020600020905b8154815290600101906020018083116107cf57829003601f168201915b505050505081565b6004805461077390612438565b61080961188a565b6008829055600981905560408051838152602081018390527f067def216f0ef603ed8175482f6240978b15c9dc7efd8e1ac4bd3a743787a5b6910160405180910390a15050565b61085861188a565b61086260006118eb565b565b600054610100900460ff16158080156108845750600054600160ff909116105b8061089e5750303b15801561089e575060005460ff166001145b6109105760405162461bcd60e51b815260206004820152602e60248201527f496e697469616c697a61626c653a20636f6e747261637420697320616c72656160448201527f647920696e697469616c697a656400000000000000000000000000000000000060648201526084016105f5565b6000805460ff191660011790558015610933576000805461ff0019166101001790555b600380546001600160a01b0319166001600160a01b038d16179055610956610c9c565b600780546001600160a01b0319166001600160a01b038a8116918217909255600254604051635b97aadd60e01b8152600481019290925290911690635b97aadd90602401602060405180830381865afa1580156109b7573d6000803e3d6000fd5b505050506040513d601f19601f820116820180604052508101906109db91906123f6565b51600c55600254600754604051635b97aadd60e01b81526001600160a01b039182166004820152911690635b97aadd90602401602060405180830381865afa158015610a2b573d6000803e3d6000fd5b505050506040513d601f19601f82011682018060405250810190610a4f91906123f6565b51871015610a9f5760405162461bcd60e51b815260206004820152601960248201527f626f6e64206d757374206265203e3d2066696e616c206665650000000000000060448201526064016105f5565b8267ffffffffffffffff168467ffffffffffffffff161015610b0f5760405162461bcd60e51b815260206004820152602360248201527f6c6976656e657373206d757374206265203e3d206d696e696d756d4c6976656e60448201526265737360e81b60648201526084016105f5565b63bb7448008467ffffffffffffffff1610610b6c5760405162461bcd60e51b815260206004820152601d60248201527f6c6976656e657373206d757374206265203c2035323030207765656b7300000060448201526064016105f5565b89604051602001610b7d9190612472565b60405160208183030381529060405260049081610b9a91906125dd565b506005610ba78a826125dd565b50600780546001600160a01b038a166001600160a01b0319909116179055600687905560088690556009859055600a805467ffffffffffffffff85811668010000000000000000027fffffffffffffffffffffffffffffffff0000000000000000000000000000000090921690871617179055610c23826118eb565b6001600b558015610c6e576000805461ff0019169055604051600181527f7f26b83ff96e1f2b6a682f133852f6798a09c465da95921460cefb38474024989060200160405180910390a15b5050505050505050505050565b610c8361188a565b610c976001600160a01b038216848461195c565b505050565b6003546040516302abf57960e61b81527f4f7074696d69737469634f7261636c655632000000000000000000000000000060048201526001600160a01b039091169063aafd5e4090602401602060405180830381865afa158015610d04573d6000803e3d6000fd5b505050506040513d601f19601f82011682018060405250810190610d28919061269d565b600180546001600160a01b0319166001600160a01b039283161790556003546040516302abf57960e61b81527f53746f7265000000000000000000000000000000000000000000000000000000600482015291169063aafd5e4090602401602060405180830381865afa158015610da3573d6000803e3d6000fd5b505050506040513d601f19601f82011682018060405250810190610dc7919061269d565b600280546001600160a01b0319166001600160a01b0392909216919091179055565b821580610dfd5750670de0b6b3a764000083145b610e495760405162461bcd60e51b815260206004820152600d60248201527f696e76616c69642076616c75650000000000000000000000000000000000000060448201526064016105f5565b60648110610ebe5760405162461bcd60e51b8152602060048201526024808201527f616464726573736573206172726179206c656e677468206d757374206265203c60448201527f203130300000000000000000000000000000000000000000000000000000000060648201526084016105f5565b60006004610ecd600b54611a05565b604051602001610ede9291906126ba565b60408051601f198184030181529082905291504290600090610f0690849084906020016123d4565b60405160208183030381529060405280519060200120905060008585604051602001610f33929190612741565b60408051601f198184030181528282528051602091820120600b80546000888152600d8552858120829055908152600e90935283832080546001600160a01b03191633179055805483528383206001908101839055815484528484206002018d905590548352928220600301805460ff19168417905591546007547f11df92f10000000000000000000000000000000000000000000000000000000085529294506001600160a01b03908116936311df92f193611010936e5945535f4f525f4e4f5f515545525960881b938a938c93919091169190600401612783565b6020604051808303816000875af115801561102f573d6000803e3d6000fd5b505050506040513d601f19601f8201168201806040525081019061105391906127bf565b50600180546040517ff327b0750000000000000000000000000000000000000000000000000000000081526001600160a01b039091169163f327b075916110b9916e5945535f4f525f4e4f5f515545525960881b9188918a9160009182916004016127d8565b600060405180830381600087803b1580156110d357600080fd5b505af11580156110e7573d6000803e3d6000fd5b5050600154600a546040517f473c45fe0000000000000000000000000000000000000000000000000000000081526001600160a01b03909216935063473c45fe9250611158916e5945535f4f525f4e4f5f515545525960881b9188918a9167ffffffffffffffff1690600401612817565b600060405180830381600087803b15801561117257600080fd5b505af1158015611186573d6000803e3d6000fd5b50506001546006546040517fad5a755a000000000000000000000000000000000000000000000000000000008152600094506001600160a01b03909216925063ad5a755a916111ef916e5945535f4f525f4e4f5f515545525960881b9189918b91600401612851565b6020604051808303816000875af115801561120e573d6000803e3d6000fd5b505050506040513d601f19601f8201168201806040525081019061123291906127bf565b60075490915061124d906001600160a01b0316333084611b65565b60015460075461126a916001600160a01b03918216911683611bbc565b600160009054906101000a90046001600160a01b03166001600160a01b0316637c82288f33306e5945535f4f525f4e4f5f515545525960881b888a8e6040518763ffffffff1660e01b81526004016112c796959493929190612881565b6020604051808303816000875af11580156112e6573d6000803e3d6000fd5b505050506040513d601f19601f8201168201806040525081019061130a91906127bf565b50600b547f8f95c4957ee34edd4a485a670aa52f5a209c00623e1a6ede185a009a87e605b0898989604051611341939291906128cc565b60405180910390a2600b80549060006113598361293a565b91905055505050505050505050565b61137061188a565b6001600160a01b0381166113ec5760405162461bcd60e51b815260206004820152602660248201527f4f776e61626c653a206e6577206f776e657220697320746865207a65726f206160448201527f646472657373000000000000000000000000000000000000000000000000000060648201526084016105f5565b6113f5816118eb565b50565b61140061188a565b600754611417906001600160a01b0316838361195c565b5050565b60026000848152600e602052604090206003015460ff1660048111156114435761144361209d565b146114905760405162461bcd60e51b815260206004820152601a60248201527f7265766973696f6e4964206973206e6f7420617070726f76656400000000000060448201526064016105f5565b81816040516020016114a3929190612741565b60408051601f1981840301815291815281516020928301206000868152600e9093529120600101541461153e5760405162461bcd60e51b815260206004820152602c60248201527f686173682061646472657373657320213d207265766973696f6e49642773206160448201527f646472657373657348617368000000000000000000000000000000000000000060648201526084016105f5565b6000838152600e6020526040812060038101805460ff19166004179055600954600290910154670de0b6b3a763ffff190161157c5750506008546001905b6000808467ffffffffffffffff81111561159857611598611f89565b6040519080825280602002602001820160405280156115c1578160200160208202803683370190505b50905060005b858110156116e657841515600f60008989858181106115e8576115e8612953565b90506020020160208101906115fd91906121db565b6001600160a01b0316815260208101919091526040016000205460ff161515146116d45784600f600089898581811061163857611638612953565b905060200201602081019061164d91906121db565b6001600160a01b031681526020810191909152604001600020805460ff191691151591909117905586868281811061168757611687612953565b905060200201602081019061169c91906121db565b8282815181106116ae576116ae612953565b6001600160a01b0390921660209283029190910190910152826116d08161293a565b9350505b806116de8161293a565b9150506115c7565b5060006116f38385612969565b90508015611830576007546040516370a0823160e01b815230600482015282916001600160a01b0316906370a0823190602401602060405180830381865afa158015611743573d6000803e3d6000fd5b505050506040513d601f19601f8201168201806040525081019061176791906127bf565b1015611807576000888152600e6020526040908190205460075491516370a0823160e01b8152306004820152611802926001600160a01b039283169216906370a0823190602401602060405180830381865afa1580156117cb573d6000803e3d6000fd5b505050506040513d601f19601f820116820180604052508101906117ef91906127bf565b6007546001600160a01b0316919061195c565b611830565b6000888152600e6020526040902054600754611830916001600160a01b0391821691168361195c565b877f6446f5d68da210914a3be3112d8175160cfcaab4b3c6a955bbcea6c0c0e94aa5600e60008b81526020019081526020016000206002015484604051611878929190612986565b60405180910390a25050505050505050565b6000546001600160a01b03620100009091041633146108625760405162461bcd60e51b815260206004820181905260248201527f4f776e61626c653a2063616c6c6572206973206e6f7420746865206f776e657260448201526064016105f5565b600080546001600160a01b03838116620100008181027fffffffffffffffffffff0000000000000000000000000000000000000000ffff851617855560405193049190911692909183917f8be0079c531659141344cd1fd0a4f28419497f9722a3daafe3b4186f6b6457e091a35050565b6040516001600160a01b038316602482015260448101829052610c979084907fa9059cbb00000000000000000000000000000000000000000000000000000000906064015b60408051601f198184030181529190526020810180517bffffffffffffffffffffffffffffffffffffffffffffffffffffffff167fffffffff0000000000000000000000000000000000000000000000000000000090931692909217909152611d0a565b606081600003611a4857505060408051808201909152600181527f3000000000000000000000000000000000000000000000000000000000000000602082015290565b8160005b8115611a725780611a5c8161293a565b9150611a6b9050600a836129dd565b9150611a4c565b60008167ffffffffffffffff811115611a8d57611a8d611f89565b6040519080825280601f01601f191660200182016040528015611ab7576020820181803683370190505b509050815b8515611b5c57611acd6001826129ff565b90506000611adc600a886129dd565b611ae790600a612969565b611af190886129ff565b611afc906030612a12565b905060008160f81b905080848481518110611b1957611b19612953565b60200101907effffffffffffffffffffffffffffffffffffffffffffffffffffffffffffff1916908160001a905350611b53600a896129dd565b97505050611abc565b50949350505050565b6040516001600160a01b0380851660248301528316604482015260648101829052611bb69085907f23b872dd00000000000000000000000000000000000000000000000000000000906084016119a1565b50505050565b801580611c4f57506040517fdd62ed3e0000000000000000000000000000000000000000000000000000000081523060048201526001600160a01b03838116602483015284169063dd62ed3e90604401602060405180830381865afa158015611c29573d6000803e3d6000fd5b505050506040513d601f19601f82011682018060405250810190611c4d91906127bf565b155b611cc15760405162461bcd60e51b815260206004820152603660248201527f5361666545524332303a20617070726f76652066726f6d206e6f6e2d7a65726f60448201527f20746f206e6f6e2d7a65726f20616c6c6f77616e63650000000000000000000060648201526084016105f5565b6040516001600160a01b038316602482015260448101829052610c979084907f095ea7b300000000000000000000000000000000000000000000000000000000906064016119a1565b6000611d5f826040518060400160405280602081526020017f5361666545524332303a206c6f772d6c6576656c2063616c6c206661696c6564815250856001600160a01b0316611def9092919063ffffffff16565b805190915015610c975780806020019051810190611d7d9190612a2b565b610c975760405162461bcd60e51b815260206004820152602a60248201527f5361666545524332303a204552433230206f7065726174696f6e20646964206e60448201527f6f7420737563636565640000000000000000000000000000000000000000000060648201526084016105f5565b6060611dfe8484600085611e08565b90505b9392505050565b606082471015611e805760405162461bcd60e51b815260206004820152602660248201527f416464726573733a20696e73756666696369656e742062616c616e636520666f60448201527f722063616c6c000000000000000000000000000000000000000000000000000060648201526084016105f5565b6001600160a01b0385163b611ed75760405162461bcd60e51b815260206004820152601d60248201527f416464726573733a2063616c6c20746f206e6f6e2d636f6e747261637400000060448201526064016105f5565b600080866001600160a01b03168587604051611ef39190612a4d565b60006040518083038185875af1925050503d8060008114611f30576040519150601f19603f3d011682016040523d82523d6000602084013e611f35565b606091505b5091509150611f45828286611f50565b979650505050505050565b60608315611f5f575081611e01565b825115611f6f5782518084602001fd5b8160405162461bcd60e51b81526004016105f59190612186565b634e487b7160e01b600052604160045260246000fd5b600082601f830112611fb057600080fd5b813567ffffffffffffffff80821115611fcb57611fcb611f89565b604051601f8301601f19908116603f01168101908282118183101715611ff357611ff3611f89565b8160405283815286602085880101111561200c57600080fd5b836020870160208301376000602085830101528094505050505092915050565b6000806000806080858703121561204257600080fd5b8435935060208501359250604085013567ffffffffffffffff81111561206757600080fd5b61207387828801611f9f565b949793965093946060013593505050565b60006020828403121561209657600080fd5b5035919050565b634e487b7160e01b600052602160045260246000fd5b6001600160a01b0385168152602081018490526040810183905260808101600583106120ef57634e487b7160e01b600052602160045260246000fd5b82606083015295945050505050565b803567ffffffffffffffff8116811461211657600080fd5b919050565b60006020828403121561212d57600080fd5b611e01826120fe565b60005b83811015612151578181015183820152602001612139565b50506000910152565b60008151808452612172816020860160208601612136565b601f01601f19169290920160200192915050565b602081526000611e01602083018461215a565b600080604083850312156121ac57600080fd5b50508035926020909101359150565b6001600160a01b03811681146113f557600080fd5b8035612116816121bb565b6000602082840312156121ed57600080fd5b8135611e01816121bb565b6000806000806000806000806000806101408b8d03121561221857600080fd5b6122218b6121d0565b995060208b013567ffffffffffffffff8082111561223e57600080fd5b61224a8e838f01611f9f565b9a5060408d013591508082111561226057600080fd5b5061226d8d828e01611f9f565b98505061227c60608c016121d0565b965060808b0135955060a08b0135945060c08b0135935061229f60e08c016120fe565b92506122ae6101008c016120fe565b91506122bd6101208c016121d0565b90509295989b9194979a5092959850565b6000806000606084860312156122e357600080fd5b83356122ee816121bb565b9250602084013591506040840135612305816121bb565b809150509250925092565b60008083601f84011261232257600080fd5b50813567ffffffffffffffff81111561233a57600080fd5b6020830191508360208260051b850101111561235557600080fd5b9250929050565b60008060006040848603121561237157600080fd5b83359250602084013567ffffffffffffffff81111561238f57600080fd5b61239b86828701612310565b9497909650939450505050565b600080604083850312156123bb57600080fd5b82356123c6816121bb565b946020939093013593505050565b600083516123e6818460208801612136565b9190910191825250602001919050565b60006020828403121561240857600080fd5b6040516020810181811067ffffffffffffffff8211171561242b5761242b611f89565b6040529151825250919050565b600181811c9082168061244c57607f821691505b60208210810361246c57634e487b7160e01b600052602260045260246000fd5b50919050565b60008251612484818460208701612136565b7f2e2041646472657373657320746f2071756572792063616e20626520666f756e9201918252507f6420696e207468652070656e64696e6741646472657373657320706172616d6560208201527f746572206f6620746865205265766973696f6e50726f706f736564206576656e60408201527f7420656d6974746564206279207468652072657175657374657227732061646460608201527f7265737320696e207468652073616d65207472616e73616374696f6e2061732060808201527f7468652070726f706f7365642076616c75652077697468205265766973696f6e60a08201527f204944203d20000000000000000000000000000000000000000000000000000060c082015260c601919050565b601f821115610c9757600081815260208120601f850160051c810160208610156125be5750805b601f850160051c820191505b81811015610529578281556001016125ca565b815167ffffffffffffffff8111156125f7576125f7611f89565b61260b816126058454612438565b84612597565b602080601f83116001811461264057600084156126285750858301515b600019600386901b1c1916600185901b178555610529565b600085815260208120601f198616915b8281101561266f57888601518255948401946001909101908401612650565b508582101561268d5787850151600019600388901b60f8161c191681555b5050505050600190811b01905550565b6000602082840312156126af57600080fd5b8151611e01816121bb565b60008084546126c881612438565b600182811680156126e057600181146126f557612724565b60ff1984168752821515830287019450612724565b8860005260208060002060005b8581101561271b5781548a820152908401908201612702565b50505082870194505b505050508351612738818360208801612136565b01949350505050565b60008184825b8581101561277857813561275a816121bb565b6001600160a01b031683526020928301929190910190600101612747565b509095945050505050565b85815284602082015260a0604082015260006127a260a083018661215a565b6001600160a01b0394909416606083015250608001529392505050565b6000602082840312156127d157600080fd5b5051919050565b86815285602082015260c0604082015260006127f760c083018761215a565b9415156060830152509115156080830152151560a0909101529392505050565b848152836020820152608060408201526000612836608083018561215a565b905067ffffffffffffffff8316606083015295945050505050565b848152836020820152608060408201526000612870608083018561215a565b905082606083015295945050505050565b60006001600160a01b03808916835280881660208401525085604083015284606083015260c060808301526128b960c083018561215a565b90508260a0830152979650505050505050565b83815260406020808301829052908201839052600090849060608401835b868110156129185783356128fd816121bb565b6001600160a01b0316825292820192908201906001016128ea565b50979650505050505050565b634e487b7160e01b600052601160045260246000fd5b60006001820161294c5761294c612924565b5060010190565b634e487b7160e01b600052603260045260246000fd5b808202811582820484141761298057612980612924565b92915050565b6000604082018483526020604081850152818551808452606086019150828701935060005b818110156129d05784516001600160a01b0316835293830193918301916001016129ab565b5090979650505050505050565b6000826129fa57634e487b7160e01b600052601260045260246000fd5b500490565b8181038181111561298057612980612924565b60ff818116838216019081111561298057612980612924565b600060208284031215612a3d57600080fd5b81518015158114611e0157600080fd5b60008251612a5f818460208701612136565b919091019291505056fea26469706673582212208a1ed100d025fd78a92a20789aa459ffc1c52c299474e28b83286ea4c7c46e4664736f6c63430008110033",
  "linkReferences": {},
  "deployedLinkReferences": {}
}