{
  "_format": "hh-sol-artifact-1",
  "contractName": "Decentralist",
  "sourceName": "contracts/Decentralist.sol",
  "abi": [
    {
      "anonymous": false,
      "inputs": [
        {
          "indexed": false,
          "internalType": "uint256",
          "name": "bondAmount",
          "type": "uint256"
        }
      ],
      "name": "BondSet",
      "type": "event"
    },
    {
      "anonymous": false,
      "inputs": [
        {
          "indexed": false,
          "internalType": "uint8",
          "name": "version",
          "type": "uint8"
        }
      ],
      "name": "Initialized",
      "type": "event"
    },
    {
      "anonymous": false,
      "inputs": [
        {
          "indexed": false,
          "internalType": "uint64",
          "name": "liveness",
          "type": "uint64"
        }
      ],
      "name": "LivenessSet",
      "type": "event"
    },
    {
      "anonymous": false,
      "inputs": [
        {
          "indexed": true,
          "internalType": "address",
          "name": "previousOwner",
          "type": "address"
        },
        {
          "indexed": true,
          "internalType": "address",
          "name": "newOwner",
          "type": "address"
        }
      ],
      "name": "OwnershipTransferred",
      "type": "event"
    },
    {
      "anonymous": false,
      "inputs": [
        {
          "indexed": true,
          "internalType": "uint256",
          "name": "revisionId",
          "type": "uint256"
        },
        {
          "indexed": false,
          "internalType": "int256",
          "name": "proposedValue",
          "type": "int256"
        }
      ],
      "name": "RevisionApproved",
      "type": "event"
    },
    {
      "anonymous": false,
      "inputs": [
        {
          "indexed": true,
          "internalType": "uint256",
          "name": "revisionId",
          "type": "uint256"
        },
        {
          "indexed": false,
          "internalType": "int256",
          "name": "proposedValue",
          "type": "int256"
        },
        {
          "indexed": false,
          "internalType": "address[]",
          "name": "revisedAddresses",
          "type": "address[]"
        }
      ],
      "name": "RevisionExecuted",
      "type": "event"
    },
    {
      "anonymous": false,
      "inputs": [
        {
          "indexed": true,
          "internalType": "uint256",
          "name": "revisionId",
          "type": "uint256"
        },
        {
          "indexed": false,
          "internalType": "int256",
          "name": "proposedValue",
          "type": "int256"
        },
        {
          "indexed": false,
          "internalType": "address[]",
          "name": "pendingAddresses",
          "type": "address[]"
        }
      ],
      "name": "RevisionProposed",
      "type": "event"
    },
    {
      "anonymous": false,
      "inputs": [
        {
          "indexed": true,
          "internalType": "uint256",
          "name": "revisionId",
          "type": "uint256"
        },
        {
          "indexed": false,
          "internalType": "int256",
          "name": "proposedValue",
          "type": "int256"
        }
      ],
      "name": "RevisionRejected",
      "type": "event"
    },
    {
      "anonymous": false,
      "inputs": [
        {
          "indexed": false,
          "internalType": "uint256",
          "name": "additionReward",
          "type": "uint256"
        },
        {
          "indexed": false,
          "internalType": "uint256",
          "name": "removalReward",
          "type": "uint256"
        }
      ],
      "name": "RewardsSet",
      "type": "event"
    },
    {
      "inputs": [],
      "name": "additionReward",
      "outputs": [
        {
          "internalType": "uint256",
          "name": "",
          "type": "uint256"
        }
      ],
      "stateMutability": "view",
      "type": "function"
    },
    {
      "inputs": [],
      "name": "bondAmount",
      "outputs": [
        {
          "internalType": "uint256",
          "name": "",
          "type": "uint256"
        }
      ],
      "stateMutability": "view",
      "type": "function"
    },
    {
      "inputs": [
        {
          "internalType": "uint256",
          "name": "_revisionId",
          "type": "uint256"
        },
        {
          "internalType": "address[]",
          "name": "_addresses",
          "type": "address[]"
        }
      ],
      "name": "executeRevision",
      "outputs": [],
      "stateMutability": "nonpayable",
      "type": "function"
    },
    {
      "inputs": [],
      "name": "finder",
      "outputs": [
        {
          "internalType": "contract FinderInterface",
          "name": "",
          "type": "address"
        }
      ],
      "stateMutability": "view",
      "type": "function"
    },
    {
      "inputs": [],
      "name": "fixedAncillaryData",
      "outputs": [
        {
          "internalType": "bytes",
          "name": "",
          "type": "bytes"
        }
      ],
      "stateMutability": "view",
      "type": "function"
    },
    {
      "inputs": [
        {
          "internalType": "address",
          "name": "_finder",
          "type": "address"
        },
        {
          "internalType": "bytes",
          "name": "_listCriteria",
          "type": "bytes"
        },
        {
          "internalType": "string",
          "name": "_title",
          "type": "string"
        },
        {
          "internalType": "address",
          "name": "_token",
          "type": "address"
        },
        {
          "internalType": "uint256",
          "name": "_bondAmount",
          "type": "uint256"
        },
        {
          "internalType": "uint256",
          "name": "_additionReward",
          "type": "uint256"
        },
        {
          "internalType": "uint256",
          "name": "_removalReward",
          "type": "uint256"
        },
        {
          "internalType": "uint64",
          "name": "_liveness",
          "type": "uint64"
        },
        {
          "internalType": "address",
          "name": "_owner",
          "type": "address"
        }
      ],
      "name": "initialize",
      "outputs": [],
      "stateMutability": "nonpayable",
      "type": "function"
    },
    {
      "inputs": [],
      "name": "liveness",
      "outputs": [
        {
          "internalType": "uint64",
          "name": "",
          "type": "uint64"
        }
      ],
      "stateMutability": "view",
      "type": "function"
    },
    {
      "inputs": [
        {
          "internalType": "address",
          "name": "",
          "type": "address"
        }
      ],
      "name": "onList",
      "outputs": [
        {
          "internalType": "bool",
          "name": "",
          "type": "bool"
        }
      ],
      "stateMutability": "view",
      "type": "function"
    },
    {
      "inputs": [],
      "name": "oracle",
      "outputs": [
        {
          "internalType": "contract OptimisticOracleV2Interface",
          "name": "",
          "type": "address"
        }
      ],
      "stateMutability": "view",
      "type": "function"
    },
    {
      "inputs": [],
      "name": "owner",
      "outputs": [
        {
          "internalType": "address",
          "name": "",
          "type": "address"
        }
      ],
      "stateMutability": "view",
      "type": "function"
    },
    {
      "inputs": [
        {
          "internalType": "bytes32",
          "name": "",
          "type": "bytes32"
        },
        {
          "internalType": "uint256",
          "name": "timestamp",
          "type": "uint256"
        },
        {
          "internalType": "bytes",
          "name": "ancillaryData",
          "type": "bytes"
        },
        {
          "internalType": "int256",
          "name": "value",
          "type": "int256"
        }
      ],
      "name": "priceSettled",
      "outputs": [],
      "stateMutability": "nonpayable",
      "type": "function"
    },
    {
      "inputs": [
        {
          "internalType": "int256",
          "name": "_value",
          "type": "int256"
        },
        {
          "internalType": "address[]",
          "name": "_addresses",
          "type": "address[]"
        }
      ],
      "name": "proposeRevision",
      "outputs": [],
      "stateMutability": "nonpayable",
      "type": "function"
    },
    {
      "inputs": [],
      "name": "removalReward",
      "outputs": [
        {
          "internalType": "uint256",
          "name": "",
          "type": "uint256"
        }
      ],
      "stateMutability": "view",
      "type": "function"
    },
    {
      "inputs": [],
      "name": "renounceOwnership",
      "outputs": [],
      "stateMutability": "nonpayable",
      "type": "function"
    },
    {
      "inputs": [
        {
          "internalType": "address",
          "name": "recipient",
          "type": "address"
        },
        {
          "internalType": "uint256",
          "name": "amount",
          "type": "uint256"
        },
        {
          "internalType": "address",
          "name": "_token",
          "type": "address"
        }
      ],
      "name": "rescue",
      "outputs": [],
      "stateMutability": "nonpayable",
      "type": "function"
    },
    {
      "inputs": [
        {
          "internalType": "uint256",
          "name": "",
          "type": "uint256"
        }
      ],
      "name": "revisions",
      "outputs": [
        {
          "internalType": "address",
          "name": "proposer",
          "type": "address"
        },
        {
          "internalType": "bytes32",
          "name": "addressesHash",
          "type": "bytes32"
        },
        {
          "internalType": "int256",
          "name": "proposedValue",
          "type": "int256"
        },
        {
          "internalType": "enum Decentralist.Status",
          "name": "status",
          "type": "uint8"
        }
      ],
      "stateMutability": "view",
      "type": "function"
    },
    {
      "inputs": [
        {
          "internalType": "uint256",
          "name": "_bondAmount",
          "type": "uint256"
        }
      ],
      "name": "setBond",
      "outputs": [],
      "stateMutability": "nonpayable",
      "type": "function"
    },
    {
      "inputs": [
        {
          "internalType": "uint64",
          "name": "_liveness",
          "type": "uint64"
        }
      ],
      "name": "setLiveness",
      "outputs": [],
      "stateMutability": "nonpayable",
      "type": "function"
    },
    {
      "inputs": [
        {
          "internalType": "uint256",
          "name": "_additionReward",
          "type": "uint256"
        },
        {
          "internalType": "uint256",
          "name": "_removalReward",
          "type": "uint256"
        }
      ],
      "name": "setRewards",
      "outputs": [],
      "stateMutability": "nonpayable",
      "type": "function"
    },
    {
      "inputs": [],
      "name": "store",
      "outputs": [
        {
          "internalType": "contract StoreInterface",
          "name": "",
          "type": "address"
        }
      ],
      "stateMutability": "view",
      "type": "function"
    },
    {
      "inputs": [],
      "name": "syncContracts",
      "outputs": [],
      "stateMutability": "nonpayable",
      "type": "function"
    },
    {
      "inputs": [],
      "name": "title",
      "outputs": [
        {
          "internalType": "string",
          "name": "",
          "type": "string"
        }
      ],
      "stateMutability": "view",
      "type": "function"
    },
    {
      "inputs": [],
      "name": "token",
      "outputs": [
        {
          "internalType": "contract IERC20",
          "name": "",
          "type": "address"
        }
      ],
      "stateMutability": "view",
      "type": "function"
    },
    {
      "inputs": [
        {
          "internalType": "address",
          "name": "newOwner",
          "type": "address"
        }
      ],
      "name": "transferOwnership",
      "outputs": [],
      "stateMutability": "nonpayable",
      "type": "function"
    },
    {
      "inputs": [
        {
          "internalType": "address",
          "name": "recipient",
          "type": "address"
        },
        {
          "internalType": "uint256",
          "name": "amount",
          "type": "uint256"
        }
      ],
      "name": "withdraw",
      "outputs": [],
      "stateMutability": "nonpayable",
      "type": "function"
    }
  ],
  "bytecode": "0x60806040523480156200001157600080fd5b5062000032620000266200003860201b60201c565b6200004060201b60201c565b62000105565b600033905090565b60008060029054906101000a900473ffffffffffffffffffffffffffffffffffffffff16905081600060026101000a81548173ffffffffffffffffffffffffffffffffffffffff021916908373ffffffffffffffffffffffffffffffffffffffff1602179055508173ffffffffffffffffffffffffffffffffffffffff168173ffffffffffffffffffffffffffffffffffffffff167f8be0079c531659141344cd1fd0a4f28419497f9722a3daafe3b4186f6b6457e060405160405180910390a35050565b61491180620001156000396000f3fe608060405234801561001057600080fd5b50600436106101735760003560e01c806380f323a7116100de578063b9a3c84c11610097578063f2fde38b11610071578063f2fde38b146103df578063f3fef3a3146103fb578063fc0c546a14610417578063fee53ab61461043557610173565b8063b9a3c84c14610387578063c207ec6e146103a5578063ec40ad51146103c357610173565b806380f323a7146102e95780638671d23b146103075780638a301adc146103235780638da5cb5b1461032d5780638dee967e1461034b578063975057e71461036957610173565b80635cae7fb5116101305780635cae7fb514610239578063654e51e7146102575780636ad0690a146102735780636f626eb314610291578063715018a6146102c15780637dc0d1d0146102cb57610173565b806304cc1fd5146101785780630ef486d114610194578063259bd920146101c7578063338909a7146101e35780633c4432f1146101ff5780634a79d50c1461021b575b600080fd5b610192600480360381019061018d9190612992565b610451565b005b6101ae60048036038101906101a99190612a15565b6105db565b6040516101be9493929190612b18565b60405180910390f35b6101e160048036038101906101dc9190612a15565b610638565b005b6101fd60048036038101906101f89190612c6a565b610785565b005b61021960048036038101906102149190612d6c565b610bff565b005b610223610d09565b6040516102309190612e18565b60405180910390f35b610241610d97565b60405161024e9190612e8f565b60405180910390f35b610271600480360381019061026c9190612eb1565b610e25565b005b61027b610e78565b6040516102889190612f00565b60405180910390f35b6102ab60048036038101906102a69190612f1b565b610e92565b6040516102b89190612f63565b60405180910390f35b6102c9610eb2565b005b6102d3610ec6565b6040516102e09190612fdd565b60405180910390f35b6102f1610eec565b6040516102fe9190613007565b60405180910390f35b610321600480360381019061031c9190613022565b610ef2565b005b61032b610f2a565b005b610335611124565b6040516103429190613075565b60405180910390f35b61035361114d565b6040516103609190613007565b60405180910390f35b610371611153565b60405161037e91906130b1565b60405180910390f35b61038f611179565b60405161039c91906130ed565b60405180910390f35b6103ad61119f565b6040516103ba9190613007565b60405180910390f35b6103dd60048036038101906103d89190613168565b6111a5565b005b6103f960048036038101906103f49190612f1b565b61193f565b005b610415600480360381019061041091906131c8565b6119c2565b005b61041f611a1b565b60405161042c9190613229565b60405180910390f35b61044f600480360381019061044a9190613244565b611a41565b005b60008284604051602001610466929190613301565b6040516020818303038152906040528051906020012090506000600c600083815260200190815260200160002054905082600d60008381526020019081526020016000206002015403610545576002600d600083815260200190815260200160002060030160006101000a81548160ff021916908360048111156104ed576104ec612aa1565b5b0217905550807f5f1087556d42c4c3af637fe0024e1c4ab4274c137e1e40d1e005992dd9fc8d51600d6000848152602001908152602001600020600201546040516105389190613329565b60405180910390a26105d3565b6003600d600083815260200190815260200160002060030160006101000a81548160ff0219169083600481111561057f5761057e612aa1565b5b0217905550807fe796aea3ecdb85837e12c602f67420034db2f1f547e02e2af5d5210af31b088d600d6000848152602001908152602001600020600201546040516105ca9190613329565b60405180910390a25b505050505050565b600d6020528060005260406000206000915090508060000160009054906101000a900473ffffffffffffffffffffffffffffffffffffffff16908060010154908060020154908060030160009054906101000a900460ff16905084565b610640612072565b600260009054906101000a900473ffffffffffffffffffffffffffffffffffffffff1673ffffffffffffffffffffffffffffffffffffffff16635b97aadd600760009054906101000a900473ffffffffffffffffffffffffffffffffffffffff166040518263ffffffff1660e01b81526004016106bd9190613075565b602060405180830381865afa1580156106da573d6000803e3d6000fd5b505050506040513d601f19601f820116820180604052508101906106fe919061339a565b60000151811015610744576040517f08c379a000000000000000000000000000000000000000000000000000000000815260040161073b90613439565b60405180910390fd5b806006819055507f1b44689fb73c0c9cdf591d534287488fc7959fd3647346821063a3e567ec9a998160405161077a9190613007565b60405180910390a150565b60008060019054906101000a900460ff161590508080156107b65750600160008054906101000a900460ff1660ff16105b806107e357506107c5306120f0565b1580156107e25750600160008054906101000a900460ff1660ff16145b5b610822576040517f08c379a0000000000000000000000000000000000000000000000000000000008152600401610819906134cb565b60405180910390fd5b60016000806101000a81548160ff021916908360ff160217905550801561085f576001600060016101000a81548160ff0219169083151502179055505b89600360006101000a81548173ffffffffffffffffffffffffffffffffffffffff021916908373ffffffffffffffffffffffffffffffffffffffff1602179055506108a8610f2a565b86600760006101000a81548173ffffffffffffffffffffffffffffffffffffffff021916908373ffffffffffffffffffffffffffffffffffffffff1602179055506109286040518060400160405280600c81526020017f6d73672e73656e6465723a20000000000000000000000000000000000000000081525033612113565b600260009054906101000a900473ffffffffffffffffffffffffffffffffffffffff1673ffffffffffffffffffffffffffffffffffffffff16635b97aadd600760009054906101000a900473ffffffffffffffffffffffffffffffffffffffff166040518263ffffffff1660e01b81526004016109a59190613075565b602060405180830381865afa1580156109c2573d6000803e3d6000fd5b505050506040513d601f19601f820116820180604052508101906109e6919061339a565b60000151861015610a2c576040517f08c379a0000000000000000000000000000000000000000000000000000000008152600401610a2390613439565b60405180910390fd5b6170808367ffffffffffffffff161015610a7b576040517f08c379a0000000000000000000000000000000000000000000000000000000008152600401610a7290613537565b60405180910390fd5b63bb7448008367ffffffffffffffff1610610acb576040517f08c379a0000000000000000000000000000000000000000000000000000000008152600401610ac2906135c9565b60405180910390fd5b88604051602001610adc9190613719565b60405160208183030381529060405260049081610af9919061393d565b508760059081610b099190613a6a565b5086600760006101000a81548173ffffffffffffffffffffffffffffffffffffffff021916908373ffffffffffffffffffffffffffffffffffffffff16021790555085600681905550846008819055508360098190555082600a60006101000a81548167ffffffffffffffff021916908367ffffffffffffffff160217905550610b92826121af565b6001600b819055508015610bf35760008060016101000a81548160ff0219169083151502179055507f7f26b83ff96e1f2b6a682f133852f6798a09c465da95921460cefb38474024986001604051610bea9190613b84565b60405180910390a15b50505050505050505050565b610c07612072565b6170808167ffffffffffffffff161015610c56576040517f08c379a0000000000000000000000000000000000000000000000000000000008152600401610c4d90613537565b60405180910390fd5b63bb7448008167ffffffffffffffff1610610ca6576040517f08c379a0000000000000000000000000000000000000000000000000000000008152600401610c9d906135c9565b60405180910390fd5b80600a60006101000a81548167ffffffffffffffff021916908367ffffffffffffffff1602179055507fe5e4fe1ed302905b2067dd5af3ef8c34bc829afc97a52f95dd96d97d1ee4351b81604051610cfe9190612f00565b60405180910390a150565b60058054610d169061376a565b80601f0160208091040260200160405190810160405280929190818152602001828054610d429061376a565b8015610d8f5780601f10610d6457610100808354040283529160200191610d8f565b820191906000526020600020905b815481529060010190602001808311610d7257829003601f168201915b505050505081565b60048054610da49061376a565b80601f0160208091040260200160405190810160405280929190818152602001828054610dd09061376a565b8015610e1d5780601f10610df257610100808354040283529160200191610e1d565b820191906000526020600020905b815481529060010190602001808311610e0057829003601f168201915b505050505081565b610e2d612072565b81600881905550806009819055507f067def216f0ef603ed8175482f6240978b15c9dc7efd8e1ac4bd3a743787a5b68282604051610e6c929190613b9f565b60405180910390a15050565b600a60009054906101000a900467ffffffffffffffff1681565b600e6020528060005260406000206000915054906101000a900460ff1681565b610eba612072565b610ec460006121af565b565b600160009054906101000a900473ffffffffffffffffffffffffffffffffffffffff1681565b60065481565b610efa612072565b610f2583838373ffffffffffffffffffffffffffffffffffffffff166122749092919063ffffffff16565b505050565b600360009054906101000a900473ffffffffffffffffffffffffffffffffffffffff1673ffffffffffffffffffffffffffffffffffffffff1663aafd5e407f4f7074696d69737469634f7261636c65563200000000000000000000000000006040518263ffffffff1660e01b8152600401610fa59190613bc8565b602060405180830381865afa158015610fc2573d6000803e3d6000fd5b505050506040513d601f19601f82011682018060405250810190610fe69190613bf8565b600160006101000a81548173ffffffffffffffffffffffffffffffffffffffff021916908373ffffffffffffffffffffffffffffffffffffffff160217905550600360009054906101000a900473ffffffffffffffffffffffffffffffffffffffff1673ffffffffffffffffffffffffffffffffffffffff1663aafd5e407f53746f72650000000000000000000000000000000000000000000000000000006040518263ffffffff1660e01b81526004016110a19190613bc8565b602060405180830381865afa1580156110be573d6000803e3d6000fd5b505050506040513d601f19601f820116820180604052508101906110e29190613bf8565b600260006101000a81548173ffffffffffffffffffffffffffffffffffffffff021916908373ffffffffffffffffffffffffffffffffffffffff160217905550565b60008060029054906101000a900473ffffffffffffffffffffffffffffffffffffffff16905090565b60085481565b600260009054906101000a900473ffffffffffffffffffffffffffffffffffffffff1681565b600360009054906101000a900473ffffffffffffffffffffffffffffffffffffffff1681565b60095481565b60008314806111bb5750670de0b6b3a764000083145b6111fa576040517f08c379a00000000000000000000000000000000000000000000000000000000081526004016111f190613c71565b60405180910390fd5b60006004611209600b546122fa565b60405160200161121a929190613d14565b6040516020818303038152906040529050600042905060008282604051602001611245929190613301565b60405160208183030381529060405280519060200120905060008585604051602001611272929190613df5565b604051602081830303815290604052805190602001209050600b54600c60008481526020019081526020016000208190555033600d6000600b54815260200190815260200160002060000160006101000a81548173ffffffffffffffffffffffffffffffffffffffff021916908373ffffffffffffffffffffffffffffffffffffffff16021790555080600d6000600b5481526020019081526020016000206001018190555086600d6000600b548152602001908152602001600020600201819055506001600d6000600b54815260200190815260200160002060030160006101000a81548160ff0219169083600481111561137157611370612aa1565b5b0217905550600160009054906101000a900473ffffffffffffffffffffffffffffffffffffffff1673ffffffffffffffffffffffffffffffffffffffff166311df92f17f5945535f4f525f4e4f5f515545525900000000000000000000000000000000008587600760009054906101000a900473ffffffffffffffffffffffffffffffffffffffff1660006040518663ffffffff1660e01b815260040161141c959493929190613e49565b6020604051808303816000875af115801561143b573d6000803e3d6000fd5b505050506040513d601f19601f8201168201806040525081019061145f9190613ea3565b50600160009054906101000a900473ffffffffffffffffffffffffffffffffffffffff1673ffffffffffffffffffffffffffffffffffffffff1663f327b0757f5945535f4f525f4e4f5f51554552590000000000000000000000000000000000858760008060016040518763ffffffff1660e01b81526004016114e796959493929190613ed0565b600060405180830381600087803b15801561150157600080fd5b505af1158015611515573d6000803e3d6000fd5b50505050600160009054906101000a900473ffffffffffffffffffffffffffffffffffffffff1673ffffffffffffffffffffffffffffffffffffffff1663473c45fe7f5945535f4f525f4e4f5f515545525900000000000000000000000000000000008587600a60009054906101000a900467ffffffffffffffff166040518563ffffffff1660e01b81526004016115b09493929190613f69565b600060405180830381600087803b1580156115ca57600080fd5b505af11580156115de573d6000803e3d6000fd5b505050506000600160009054906101000a900473ffffffffffffffffffffffffffffffffffffffff1673ffffffffffffffffffffffffffffffffffffffff1663ad5a755a7f5945535f4f525f4e4f5f5155455259000000000000000000000000000000000086886006546040518563ffffffff1660e01b81526004016116679493929190613fb5565b6020604051808303816000875af1158015611686573d6000803e3d6000fd5b505050506040513d601f19601f820116820180604052508101906116aa9190613ea3565b9050600081111561170557611704333083600760009054906101000a900473ffffffffffffffffffffffffffffffffffffffff1673ffffffffffffffffffffffffffffffffffffffff16612482909392919063ffffffff16565b5b6000811115611816576000600760009054906101000a900473ffffffffffffffffffffffffffffffffffffffff1673ffffffffffffffffffffffffffffffffffffffff1663095ea7b3600160009054906101000a900473ffffffffffffffffffffffffffffffffffffffff16846040518363ffffffff1660e01b815260040161178f929190614001565b6020604051808303816000875af11580156117ae573d6000803e3d6000fd5b505050506040513d601f19601f820116820180604052508101906117d29190614056565b905080611814576040517f08c379a000000000000000000000000000000000000000000000000000000000815260040161180b906140f5565b60405180910390fd5b505b600160009054906101000a900473ffffffffffffffffffffffffffffffffffffffff1673ffffffffffffffffffffffffffffffffffffffff16637c82288f33307f5945535f4f525f4e4f5f51554552590000000000000000000000000000000000888a8e6040518763ffffffff1660e01b815260040161189b96959493929190614115565b6020604051808303816000875af11580156118ba573d6000803e3d6000fd5b505050506040513d601f19601f820116820180604052508101906118de9190613ea3565b50600b547f8f95c4957ee34edd4a485a670aa52f5a209c00623e1a6ede185a009a87e605b089898960405161191593929190614212565b60405180910390a2600b600081548092919061193090614273565b91905055505050505050505050565b611947612072565b600073ffffffffffffffffffffffffffffffffffffffff168173ffffffffffffffffffffffffffffffffffffffff16036119b6576040517f08c379a00000000000000000000000000000000000000000000000000000000081526004016119ad9061432d565b60405180910390fd5b6119bf816121af565b50565b6119ca612072565b611a178282600760009054906101000a900473ffffffffffffffffffffffffffffffffffffffff1673ffffffffffffffffffffffffffffffffffffffff166122749092919063ffffffff16565b5050565b600760009054906101000a900473ffffffffffffffffffffffffffffffffffffffff1681565b60026004811115611a5557611a54612aa1565b5b600d600085815260200190815260200160002060030160009054906101000a900460ff166004811115611a8b57611a8a612aa1565b5b14611acb576040517f08c379a0000000000000000000000000000000000000000000000000000000008152600401611ac290614399565b60405180910390fd5b8181604051602001611ade929190613df5565b60405160208183030381529060405280519060200120600d60008581526020019081526020016000206001015414611b4b576040517f08c379a0000000000000000000000000000000000000000000000000000000008152600401611b4290614451565b60405180910390fd5b6004600d600085815260200190815260200160002060030160006101000a81548160ff02191690836004811115611b8557611b84612aa1565b5b02179055506000806009549050670de0b6b3a7640000600d60008781526020019081526020016000206002015403611bc1576001915060085490505b6000808585905067ffffffffffffffff811115611be157611be0612831565b5b604051908082528060200260200182016040528015611c0f5781602001602082028036833780820191505090505b50905060005b86869050811015611db357841515600e6000898985818110611c3a57611c39614471565b5b9050602002016020810190611c4f9190612f1b565b73ffffffffffffffffffffffffffffffffffffffff1673ffffffffffffffffffffffffffffffffffffffff16815260200190815260200160002060009054906101000a900460ff16151514611da05784600e6000898985818110611cb657611cb5614471565b5b9050602002016020810190611ccb9190612f1b565b73ffffffffffffffffffffffffffffffffffffffff1673ffffffffffffffffffffffffffffffffffffffff16815260200190815260200160002060006101000a81548160ff021916908315150217905550868682818110611d2f57611d2e614471565b5b9050602002016020810190611d449190612f1b565b828281518110611d5757611d56614471565b5b602002602001019073ffffffffffffffffffffffffffffffffffffffff16908173ffffffffffffffffffffffffffffffffffffffff16815250508280611d9c90614273565b9350505b8080611dab90614273565b915050611c15565b5060008284611dc291906144a0565b905060008111156120185780600760009054906101000a900473ffffffffffffffffffffffffffffffffffffffff1673ffffffffffffffffffffffffffffffffffffffff166370a08231306040518263ffffffff1660e01b8152600401611e299190613075565b602060405180830381865afa158015611e46573d6000803e3d6000fd5b505050506040513d601f19601f82011682018060405250810190611e6a9190613ea3565b1015611f9357611f8e600d60008a815260200190815260200160002060000160009054906101000a900473ffffffffffffffffffffffffffffffffffffffff16600760009054906101000a900473ffffffffffffffffffffffffffffffffffffffff1673ffffffffffffffffffffffffffffffffffffffff166370a08231306040518263ffffffff1660e01b8152600401611f059190613075565b602060405180830381865afa158015611f22573d6000803e3d6000fd5b505050506040513d601f19601f82011682018060405250810190611f469190613ea3565b600760009054906101000a900473ffffffffffffffffffffffffffffffffffffffff1673ffffffffffffffffffffffffffffffffffffffff166122749092919063ffffffff16565b612017565b612016600d60008a815260200190815260200160002060000160009054906101000a900473ffffffffffffffffffffffffffffffffffffffff1682600760009054906101000a900473ffffffffffffffffffffffffffffffffffffffff1673ffffffffffffffffffffffffffffffffffffffff166122749092919063ffffffff16565b5b5b877f6446f5d68da210914a3be3112d8175160cfcaab4b3c6a955bbcea6c0c0e94aa5600d60008b81526020019081526020016000206002015484604051612060929190614568565b60405180910390a25050505050505050565b61207a61250b565b73ffffffffffffffffffffffffffffffffffffffff16612098611124565b73ffffffffffffffffffffffffffffffffffffffff16146120ee576040517f08c379a00000000000000000000000000000000000000000000000000000000081526004016120e5906145e4565b60405180910390fd5b565b6000808273ffffffffffffffffffffffffffffffffffffffff163b119050919050565b6121ab8282604051602401612129929190614604565b6040516020818303038152906040527f319af333000000000000000000000000000000000000000000000000000000007bffffffffffffffffffffffffffffffffffffffffffffffffffffffff19166020820180517bffffffffffffffffffffffffffffffffffffffffffffffffffffffff8381831617835250505050612513565b5050565b60008060029054906101000a900473ffffffffffffffffffffffffffffffffffffffff16905081600060026101000a81548173ffffffffffffffffffffffffffffffffffffffff021916908373ffffffffffffffffffffffffffffffffffffffff1602179055508173ffffffffffffffffffffffffffffffffffffffff168173ffffffffffffffffffffffffffffffffffffffff167f8be0079c531659141344cd1fd0a4f28419497f9722a3daafe3b4186f6b6457e060405160405180910390a35050565b6122f58363a9059cbb60e01b8484604051602401612293929190614001565b604051602081830303815290604052907bffffffffffffffffffffffffffffffffffffffffffffffffffffffff19166020820180517bffffffffffffffffffffffffffffffffffffffffffffffffffffffff838183161783525050505061253c565b505050565b606060008203612341576040518060400160405280600181526020017f3000000000000000000000000000000000000000000000000000000000000000815250905061247d565b600082905060005b6000821461237357808061235c90614273565b915050600a8261236c9190614663565b9150612349565b60008167ffffffffffffffff81111561238f5761238e612831565b5b6040519080825280601f01601f1916602001820160405280156123c15781602001600182028036833780820191505090505b50905060008290505b60008614612475576001816123df9190614694565b90506000600a80886123f19190614663565b6123fb91906144a0565b876124069190614694565b603061241291906146c8565b905060008160f81b9050808484815181106124305761242f614471565b5b60200101907effffffffffffffffffffffffffffffffffffffffffffffffffffffffffffff1916908160001a905350600a8861246c9190614663565b975050506123ca565b819450505050505b919050565b612505846323b872dd60e01b8585856040516024016124a3939291906146fd565b604051602081830303815290604052907bffffffffffffffffffffffffffffffffffffffffffffffffffffffff19166020820180517bffffffffffffffffffffffffffffffffffffffffffffffffffffffff838183161783525050505061253c565b50505050565b600033905090565b60008151905060006a636f6e736f6c652e6c6f679050602083016000808483855afa5050505050565b600061259e826040518060400160405280602081526020017f5361666545524332303a206c6f772d6c6576656c2063616c6c206661696c65648152508573ffffffffffffffffffffffffffffffffffffffff166126039092919063ffffffff16565b90506000815111156125fe57808060200190518101906125be9190614056565b6125fd576040517f08c379a00000000000000000000000000000000000000000000000000000000081526004016125f4906147a6565b60405180910390fd5b5b505050565b6060612612848460008561261b565b90509392505050565b606082471015612660576040517f08c379a000000000000000000000000000000000000000000000000000000000815260040161265790614838565b60405180910390fd5b612669856120f0565b6126a8576040517f08c379a000000000000000000000000000000000000000000000000000000000815260040161269f906148a4565b60405180910390fd5b6000808673ffffffffffffffffffffffffffffffffffffffff1685876040516126d191906148c4565b60006040518083038185875af1925050503d806000811461270e576040519150601f19603f3d011682016040523d82523d6000602084013e612713565b606091505b509150915061272382828661272f565b92505050949350505050565b6060831561273f5782905061278f565b6000835111156127525782518084602001fd5b816040517f08c379a00000000000000000000000000000000000000000000000000000000081526004016127869190612e18565b60405180910390fd5b9392505050565b6000604051905090565b600080fd5b600080fd5b6000819050919050565b6127bd816127aa565b81146127c857600080fd5b50565b6000813590506127da816127b4565b92915050565b6000819050919050565b6127f3816127e0565b81146127fe57600080fd5b50565b600081359050612810816127ea565b92915050565b600080fd5b600080fd5b6000601f19601f8301169050919050565b7f4e487b7100000000000000000000000000000000000000000000000000000000600052604160045260246000fd5b61286982612820565b810181811067ffffffffffffffff8211171561288857612887612831565b5b80604052505050565b600061289b612796565b90506128a78282612860565b919050565b600067ffffffffffffffff8211156128c7576128c6612831565b5b6128d082612820565b9050602081019050919050565b82818337600083830152505050565b60006128ff6128fa846128ac565b612891565b90508281526020810184848401111561291b5761291a61281b565b5b6129268482856128dd565b509392505050565b600082601f83011261294357612942612816565b5b81356129538482602086016128ec565b91505092915050565b6000819050919050565b61296f8161295c565b811461297a57600080fd5b50565b60008135905061298c81612966565b92915050565b600080600080608085870312156129ac576129ab6127a0565b5b60006129ba878288016127cb565b94505060206129cb87828801612801565b935050604085013567ffffffffffffffff8111156129ec576129eb6127a5565b5b6129f88782880161292e565b9250506060612a098782880161297d565b91505092959194509250565b600060208284031215612a2b57612a2a6127a0565b5b6000612a3984828501612801565b91505092915050565b600073ffffffffffffffffffffffffffffffffffffffff82169050919050565b6000612a6d82612a42565b9050919050565b612a7d81612a62565b82525050565b612a8c816127aa565b82525050565b612a9b8161295c565b82525050565b7f4e487b7100000000000000000000000000000000000000000000000000000000600052602160045260246000fd5b60058110612ae157612ae0612aa1565b5b50565b6000819050612af282612ad0565b919050565b6000612b0282612ae4565b9050919050565b612b1281612af7565b82525050565b6000608082019050612b2d6000830187612a74565b612b3a6020830186612a83565b612b476040830185612a92565b612b546060830184612b09565b95945050505050565b612b6681612a62565b8114612b7157600080fd5b50565b600081359050612b8381612b5d565b92915050565b600067ffffffffffffffff821115612ba457612ba3612831565b5b612bad82612820565b9050602081019050919050565b6000612bcd612bc884612b89565b612891565b905082815260208101848484011115612be957612be861281b565b5b612bf48482856128dd565b509392505050565b600082601f830112612c1157612c10612816565b5b8135612c21848260208601612bba565b91505092915050565b600067ffffffffffffffff82169050919050565b612c4781612c2a565b8114612c5257600080fd5b50565b600081359050612c6481612c3e565b92915050565b60008060008060008060008060006101208a8c031215612c8d57612c8c6127a0565b5b6000612c9b8c828d01612b74565b99505060208a013567ffffffffffffffff811115612cbc57612cbb6127a5565b5b612cc88c828d0161292e565b98505060408a013567ffffffffffffffff811115612ce957612ce86127a5565b5b612cf58c828d01612bfc565b9750506060612d068c828d01612b74565b9650506080612d178c828d01612801565b95505060a0612d288c828d01612801565b94505060c0612d398c828d01612801565b93505060e0612d4a8c828d01612c55565b925050610100612d5c8c828d01612b74565b9150509295985092959850929598565b600060208284031215612d8257612d816127a0565b5b6000612d9084828501612c55565b91505092915050565b600081519050919050565b600082825260208201905092915050565b60005b83811015612dd3578082015181840152602081019050612db8565b60008484015250505050565b6000612dea82612d99565b612df48185612da4565b9350612e04818560208601612db5565b612e0d81612820565b840191505092915050565b60006020820190508181036000830152612e328184612ddf565b905092915050565b600081519050919050565b600082825260208201905092915050565b6000612e6182612e3a565b612e6b8185612e45565b9350612e7b818560208601612db5565b612e8481612820565b840191505092915050565b60006020820190508181036000830152612ea98184612e56565b905092915050565b60008060408385031215612ec857612ec76127a0565b5b6000612ed685828601612801565b9250506020612ee785828601612801565b9150509250929050565b612efa81612c2a565b82525050565b6000602082019050612f156000830184612ef1565b92915050565b600060208284031215612f3157612f306127a0565b5b6000612f3f84828501612b74565b91505092915050565b60008115159050919050565b612f5d81612f48565b82525050565b6000602082019050612f786000830184612f54565b92915050565b6000819050919050565b6000612fa3612f9e612f9984612a42565b612f7e565b612a42565b9050919050565b6000612fb582612f88565b9050919050565b6000612fc782612faa565b9050919050565b612fd781612fbc565b82525050565b6000602082019050612ff26000830184612fce565b92915050565b613001816127e0565b82525050565b600060208201905061301c6000830184612ff8565b92915050565b60008060006060848603121561303b5761303a6127a0565b5b600061304986828701612b74565b935050602061305a86828701612801565b925050604061306b86828701612b74565b9150509250925092565b600060208201905061308a6000830184612a74565b92915050565b600061309b82612faa565b9050919050565b6130ab81613090565b82525050565b60006020820190506130c660008301846130a2565b92915050565b60006130d782612faa565b9050919050565b6130e7816130cc565b82525050565b600060208201905061310260008301846130de565b92915050565b600080fd5b600080fd5b60008083601f84011261312857613127612816565b5b8235905067ffffffffffffffff81111561314557613144613108565b5b6020830191508360208202830111156131615761316061310d565b5b9250929050565b600080600060408486031215613181576131806127a0565b5b600061318f8682870161297d565b935050602084013567ffffffffffffffff8111156131b0576131af6127a5565b5b6131bc86828701613112565b92509250509250925092565b600080604083850312156131df576131de6127a0565b5b60006131ed85828601612b74565b92505060206131fe85828601612801565b9150509250929050565b600061321382612faa565b9050919050565b61322381613208565b82525050565b600060208201905061323e600083018461321a565b92915050565b60008060006040848603121561325d5761325c6127a0565b5b600061326b86828701612801565b935050602084013567ffffffffffffffff81111561328c5761328b6127a5565b5b61329886828701613112565b92509250509250925092565b600081905092915050565b60006132ba82612e3a565b6132c481856132a4565b93506132d4818560208601612db5565b80840191505092915050565b6000819050919050565b6132fb6132f6826127e0565b6132e0565b82525050565b600061330d82856132af565b915061331982846132ea565b6020820191508190509392505050565b600060208201905061333e6000830184612a92565b92915050565b600080fd5b600081519050613358816127ea565b92915050565b60006020828403121561337457613373613344565b5b61337e6020612891565b9050600061338e84828501613349565b60008301525092915050565b6000602082840312156133b0576133af6127a0565b5b60006133be8482850161335e565b91505092915050565b7f426f6e64206d7573742062652067726561746572206f7220657175616c20746f60008201527f2066696e616c2066656500000000000000000000000000000000000000000000602082015250565b6000613423602a83612da4565b915061342e826133c7565b604082019050919050565b6000602082019050818103600083015261345281613416565b9050919050565b7f496e697469616c697a61626c653a20636f6e747261637420697320616c72656160008201527f647920696e697469616c697a6564000000000000000000000000000000000000602082015250565b60006134b5602e83612da4565b91506134c082613459565b604082019050919050565b600060208201905081810360008301526134e4816134a8565b9050919050565b7f6c6976656e657373206d757374206265203e3d203820686f7572730000000000600082015250565b6000613521601b83612da4565b915061352c826134eb565b602082019050919050565b6000602082019050818103600083015261355081613514565b9050919050565b7f6c6976656e657373206d757374206265206c657373207468616e20353230302060008201527f7765656b73000000000000000000000000000000000000000000000000000000602082015250565b60006135b3602583612da4565b91506135be82613557565b604082019050919050565b600060208201905081810360008301526135e2816135a6565b9050919050565b7f2e2041646472657373657320746f2071756572792063616e20626520666f756e60008201527f6420696e207468652070656e64696e6741646472657373657320706172616d6560208201527f746572206f6620746865205265766973696f6e50726f706f736564206576656e60408201527f7420656d6974746564206279207468652072657175657374657227732061646460608201527f7265737320696e207468652073616d65207472616e73616374696f6e2061732060808201527f7468652070726f706f7365642076616c75652077697468205265766973696f6e60a08201527f204944203d20000000000000000000000000000000000000000000000000000060c082015250565b600061370360c6836132a4565b915061370e826135e9565b60c682019050919050565b600061372582846132af565b9150613730826136f6565b915081905092915050565b7f4e487b7100000000000000000000000000000000000000000000000000000000600052602260045260246000fd5b6000600282049050600182168061378257607f821691505b6020821081036137955761379461373b565b5b50919050565b60008190508160005260206000209050919050565b60006020601f8301049050919050565b600082821b905092915050565b6000600883026137fd7fffffffffffffffffffffffffffffffffffffffffffffffffffffffffffffffff826137c0565b61380786836137c0565b95508019841693508086168417925050509392505050565b600061383a613835613830846127e0565b612f7e565b6127e0565b9050919050565b6000819050919050565b6138548361381f565b61386861386082613841565b8484546137cd565b825550505050565b600090565b61387d613870565b61388881848461384b565b505050565b5b818110156138ac576138a1600082613875565b60018101905061388e565b5050565b601f8211156138f1576138c28161379b565b6138cb846137b0565b810160208510156138da578190505b6138ee6138e6856137b0565b83018261388d565b50505b505050565b600082821c905092915050565b6000613914600019846008026138f6565b1980831691505092915050565b600061392d8383613903565b9150826002028217905092915050565b61394682612e3a565b67ffffffffffffffff81111561395f5761395e612831565b5b613969825461376a565b6139748282856138b0565b600060209050601f8311600181146139a75760008415613995578287015190505b61399f8582613921565b865550613a07565b601f1984166139b58661379b565b60005b828110156139dd578489015182556001820191506020850194506020810190506139b8565b868310156139fa57848901516139f6601f891682613903565b8355505b6001600288020188555050505b505050505050565b60008190508160005260206000209050919050565b601f821115613a6557613a3681613a0f565b613a3f846137b0565b81016020851015613a4e578190505b613a62613a5a856137b0565b83018261388d565b50505b505050565b613a7382612d99565b67ffffffffffffffff811115613a8c57613a8b612831565b5b613a96825461376a565b613aa1828285613a24565b600060209050601f831160018114613ad45760008415613ac2578287015190505b613acc8582613921565b865550613b34565b601f198416613ae286613a0f565b60005b82811015613b0a57848901518255600182019150602085019450602081019050613ae5565b86831015613b275784890151613b23601f891682613903565b8355505b6001600288020188555050505b505050505050565b6000819050919050565b600060ff82169050919050565b6000613b6e613b69613b6484613b3c565b612f7e565b613b46565b9050919050565b613b7e81613b53565b82525050565b6000602082019050613b996000830184613b75565b92915050565b6000604082019050613bb46000830185612ff8565b613bc16020830184612ff8565b9392505050565b6000602082019050613bdd6000830184612a83565b92915050565b600081519050613bf281612b5d565b92915050565b600060208284031215613c0e57613c0d6127a0565b5b6000613c1c84828501613be3565b91505092915050565b7f696e76616c69642076616c756500000000000000000000000000000000000000600082015250565b6000613c5b600d83612da4565b9150613c6682613c25565b602082019050919050565b60006020820190508181036000830152613c8a81613c4e565b9050919050565b60008154613c9e8161376a565b613ca881866132a4565b94506001821660008114613cc35760018114613cd857613d0b565b60ff1983168652811515820286019350613d0b565b613ce18561379b565b60005b83811015613d0357815481890152600182019150602081019050613ce4565b838801955050505b50505092915050565b6000613d208285613c91565b9150613d2c82846132af565b91508190509392505050565b600081905092915050565b6000819050919050565b613d5681612a62565b82525050565b6000613d688383613d4d565b60208301905092915050565b6000613d836020840184612b74565b905092915050565b6000602082019050919050565b6000613da48385613d38565b9350613daf82613d43565b8060005b85811015613de857613dc58284613d74565b613dcf8882613d5c565b9750613dda83613d8b565b925050600181019050613db3565b5085925050509392505050565b6000613e02828486613d98565b91508190509392505050565b6000819050919050565b6000613e33613e2e613e2984613e0e565b612f7e565b6127e0565b9050919050565b613e4381613e18565b82525050565b600060a082019050613e5e6000830188612a83565b613e6b6020830187612ff8565b8181036040830152613e7d8186612e56565b9050613e8c606083018561321a565b613e996080830184613e3a565b9695505050505050565b600060208284031215613eb957613eb86127a0565b5b6000613ec784828501613349565b91505092915050565b600060c082019050613ee56000830189612a83565b613ef26020830188612ff8565b8181036040830152613f048187612e56565b9050613f136060830186612f54565b613f206080830185612f54565b613f2d60a0830184612f54565b979650505050505050565b6000613f53613f4e613f4984612c2a565b612f7e565b6127e0565b9050919050565b613f6381613f38565b82525050565b6000608082019050613f7e6000830187612a83565b613f8b6020830186612ff8565b8181036040830152613f9d8185612e56565b9050613fac6060830184613f5a565b95945050505050565b6000608082019050613fca6000830187612a83565b613fd76020830186612ff8565b8181036040830152613fe98185612e56565b9050613ff86060830184612ff8565b95945050505050565b60006040820190506140166000830185612a74565b6140236020830184612ff8565b9392505050565b61403381612f48565b811461403e57600080fd5b50565b6000815190506140508161402a565b92915050565b60006020828403121561406c5761406b6127a0565b5b600061407a84828501614041565b91505092915050565b7f617070726f76616c206f6620626f6e6420616d6f756e742066726f6d204c697360008201527f7420636f6e747261637420746f204f7261636c65206661696c65640000000000602082015250565b60006140df603b83612da4565b91506140ea82614083565b604082019050919050565b6000602082019050818103600083015261410e816140d2565b9050919050565b600060c08201905061412a6000830189612a74565b6141376020830188612a74565b6141446040830187612a83565b6141516060830186612ff8565b81810360808301526141638185612e56565b905061417260a0830184612a92565b979650505050505050565b600082825260208201905092915050565b61419781612a62565b82525050565b60006141a9838361418e565b60208301905092915050565b60006141c1838561417d565b93506141cc82613d43565b8060005b85811015614205576141e28284613d74565b6141ec888261419d565b97506141f783613d8b565b9250506001810190506141d0565b5085925050509392505050565b60006040820190506142276000830186612a92565b818103602083015261423a8184866141b5565b9050949350505050565b7f4e487b7100000000000000000000000000000000000000000000000000000000600052601160045260246000fd5b600061427e826127e0565b91507fffffffffffffffffffffffffffffffffffffffffffffffffffffffffffffffff82036142b0576142af614244565b5b600182019050919050565b7f4f776e61626c653a206e6577206f776e657220697320746865207a65726f206160008201527f6464726573730000000000000000000000000000000000000000000000000000602082015250565b6000614317602683612da4565b9150614322826142bb565b604082019050919050565b600060208201905081810360008301526143468161430a565b9050919050565b7f5f7265766973696f6e4964206973206e6f7420617070726f7665640000000000600082015250565b6000614383601b83612da4565b915061438e8261434d565b602082019050919050565b600060208201905081810360008301526143b281614376565b9050919050565b7f6164647265737365732070726f766964656420646f206e6f74206d617463682060008201527f7468652070726f7669646564205f7265766973696f6e4964277320616464726560208201527f7373657348617368000000000000000000000000000000000000000000000000604082015250565b600061443b604883612da4565b9150614446826143b9565b606082019050919050565b6000602082019050818103600083015261446a8161442e565b9050919050565b7f4e487b7100000000000000000000000000000000000000000000000000000000600052603260045260246000fd5b60006144ab826127e0565b91506144b6836127e0565b92508282026144c4816127e0565b915082820484148315176144db576144da614244565b5b5092915050565b600081519050919050565b6000819050602082019050919050565b6000602082019050919050565b6000614515826144e2565b61451f818561417d565b935061452a836144ed565b8060005b8381101561455b578151614542888261419d565b975061454d836144fd565b92505060018101905061452e565b5085935050505092915050565b600060408201905061457d6000830185612a92565b818103602083015261458f818461450a565b90509392505050565b7f4f776e61626c653a2063616c6c6572206973206e6f7420746865206f776e6572600082015250565b60006145ce602083612da4565b91506145d982614598565b602082019050919050565b600060208201905081810360008301526145fd816145c1565b9050919050565b6000604082019050818103600083015261461e8185612ddf565b905061462d6020830184612a74565b9392505050565b7f4e487b7100000000000000000000000000000000000000000000000000000000600052601260045260246000fd5b600061466e826127e0565b9150614679836127e0565b92508261468957614688614634565b5b828204905092915050565b600061469f826127e0565b91506146aa836127e0565b92508282039050818111156146c2576146c1614244565b5b92915050565b60006146d382613b46565b91506146de83613b46565b9250828201905060ff8111156146f7576146f6614244565b5b92915050565b60006060820190506147126000830186612a74565b61471f6020830185612a74565b61472c6040830184612ff8565b949350505050565b7f5361666545524332303a204552433230206f7065726174696f6e20646964206e60008201527f6f74207375636365656400000000000000000000000000000000000000000000602082015250565b6000614790602a83612da4565b915061479b82614734565b604082019050919050565b600060208201905081810360008301526147bf81614783565b9050919050565b7f416464726573733a20696e73756666696369656e742062616c616e636520666f60008201527f722063616c6c0000000000000000000000000000000000000000000000000000602082015250565b6000614822602683612da4565b915061482d826147c6565b604082019050919050565b6000602082019050818103600083015261485181614815565b9050919050565b7f416464726573733a2063616c6c20746f206e6f6e2d636f6e7472616374000000600082015250565b600061488e601d83612da4565b915061489982614858565b602082019050919050565b600060208201905081810360008301526148bd81614881565b9050919050565b60006148d082846132af565b91508190509291505056fea26469706673582212202aca1d85235293661b04272ae36f47c3008579832d23ddb198be787e6fb699d564736f6c63430008110033",
  "linkReferences": {},
  "deployedLinkReferences": {}
}