{
  "_format": "hh-sol-artifact-1",
  "contractName": "Decentralist",
  "sourceName": "contracts/Decentralist.sol",
  "abi": [
    {
      "anonymous": false,
      "inputs": [
        {
          "indexed": false,
          "internalType": "uint8",
          "name": "version",
          "type": "uint8"
        }
      ],
      "name": "Initialized",
      "type": "event"
    },
    {
      "anonymous": false,
      "inputs": [
        {
          "indexed": false,
          "internalType": "uint256",
          "name": "pendingAddressesKey",
          "type": "uint256"
        },
        {
          "indexed": false,
          "internalType": "int256",
          "name": "price",
          "type": "int256"
        }
      ],
      "name": "MultiplePriceProposed",
      "type": "event"
    },
    {
      "anonymous": false,
      "inputs": [
        {
          "indexed": false,
          "internalType": "uint256",
          "name": "pendingAddressesKey",
          "type": "uint256"
        },
        {
          "indexed": false,
          "internalType": "int256",
          "name": "price",
          "type": "int256"
        }
      ],
      "name": "MultiplePriceSettled",
      "type": "event"
    },
    {
      "anonymous": false,
      "inputs": [
        {
          "indexed": false,
          "internalType": "address",
          "name": "_address",
          "type": "address"
        },
        {
          "indexed": false,
          "internalType": "int256",
          "name": "price",
          "type": "int256"
        }
      ],
      "name": "SinglePriceProposed",
      "type": "event"
    },
    {
      "anonymous": false,
      "inputs": [
        {
          "indexed": false,
          "internalType": "address",
          "name": "_address",
          "type": "address"
        },
        {
          "indexed": false,
          "internalType": "int256",
          "name": "price",
          "type": "int256"
        }
      ],
      "name": "SinglePriceSettled",
      "type": "event"
    },
    {
      "inputs": [
        {
          "internalType": "address[]",
          "name": "_addresses",
          "type": "address[]"
        }
      ],
      "name": "addMultipleAddresses",
      "outputs": [],
      "stateMutability": "nonpayable",
      "type": "function"
    },
    {
      "inputs": [],
      "name": "addReward",
      "outputs": [
        {
          "internalType": "uint256",
          "name": "",
          "type": "uint256"
        }
      ],
      "stateMutability": "view",
      "type": "function"
    },
    {
      "inputs": [
        {
          "internalType": "address",
          "name": "_address",
          "type": "address"
        }
      ],
      "name": "addSingleAddress",
      "outputs": [],
      "stateMutability": "nonpayable",
      "type": "function"
    },
    {
      "inputs": [],
      "name": "bondAmount",
      "outputs": [
        {
          "internalType": "uint256",
          "name": "",
          "type": "uint256"
        }
      ],
      "stateMutability": "view",
      "type": "function"
    },
    {
      "inputs": [],
      "name": "fixedAncillaryData",
      "outputs": [
        {
          "internalType": "bytes",
          "name": "",
          "type": "bytes"
        }
      ],
      "stateMutability": "view",
      "type": "function"
    },
    {
      "inputs": [],
      "name": "getListArray",
      "outputs": [
        {
          "internalType": "address[]",
          "name": "",
          "type": "address[]"
        }
      ],
      "stateMutability": "view",
      "type": "function"
    },
    {
      "inputs": [],
      "name": "getListLength",
      "outputs": [
        {
          "internalType": "uint256",
          "name": "",
          "type": "uint256"
        }
      ],
      "stateMutability": "view",
      "type": "function"
    },
    {
      "inputs": [
        {
          "internalType": "uint256",
          "name": "pendingAddressesKey",
          "type": "uint256"
        }
      ],
      "name": "getPendingAddressesArray",
      "outputs": [
        {
          "internalType": "address[]",
          "name": "",
          "type": "address[]"
        }
      ],
      "stateMutability": "view",
      "type": "function"
    },
    {
      "inputs": [
        {
          "internalType": "bytes",
          "name": "_fixedAncillaryData",
          "type": "bytes"
        },
        {
          "internalType": "string",
          "name": "_title",
          "type": "string"
        },
        {
          "internalType": "uint256",
          "name": "_livenessPeriod",
          "type": "uint256"
        },
        {
          "internalType": "uint256",
          "name": "_bondAmount",
          "type": "uint256"
        },
        {
          "internalType": "uint256",
          "name": "_addReward",
          "type": "uint256"
        },
        {
          "internalType": "uint256",
          "name": "_removeReward",
          "type": "uint256"
        }
      ],
      "name": "initialize",
      "outputs": [],
      "stateMutability": "nonpayable",
      "type": "function"
    },
    {
      "inputs": [
        {
          "internalType": "address",
          "name": "",
          "type": "address"
        }
      ],
      "name": "listMapping",
      "outputs": [
        {
          "internalType": "bool",
          "name": "",
          "type": "bool"
        }
      ],
      "stateMutability": "view",
      "type": "function"
    },
    {
      "inputs": [],
      "name": "livenessPeriod",
      "outputs": [
        {
          "internalType": "uint256",
          "name": "",
          "type": "uint256"
        }
      ],
      "stateMutability": "view",
      "type": "function"
    },
    {
      "inputs": [
        {
          "internalType": "bytes32",
          "name": "identifier",
          "type": "bytes32"
        },
        {
          "internalType": "uint256",
          "name": "timestamp",
          "type": "uint256"
        },
        {
          "internalType": "bytes",
          "name": "ancillaryData",
          "type": "bytes"
        },
        {
          "internalType": "int256",
          "name": "price",
          "type": "int256"
        }
      ],
      "name": "priceSettled",
      "outputs": [],
      "stateMutability": "nonpayable",
      "type": "function"
    },
    {
      "inputs": [
        {
          "internalType": "address[]",
          "name": "_addresses",
          "type": "address[]"
        }
      ],
      "name": "removeMultipleAddresses",
      "outputs": [],
      "stateMutability": "nonpayable",
      "type": "function"
    },
    {
      "inputs": [],
      "name": "removeReward",
      "outputs": [
        {
          "internalType": "uint256",
          "name": "",
          "type": "uint256"
        }
      ],
      "stateMutability": "view",
      "type": "function"
    },
    {
      "inputs": [
        {
          "internalType": "address",
          "name": "_address",
          "type": "address"
        }
      ],
      "name": "removeSingleAddress",
      "outputs": [],
      "stateMutability": "nonpayable",
      "type": "function"
    },
    {
      "inputs": [],
      "name": "title",
      "outputs": [
        {
          "internalType": "string",
          "name": "",
          "type": "string"
        }
      ],
      "stateMutability": "view",
      "type": "function"
    }
  ],
  "bytecode": "0x608060405234801561001057600080fd5b50614c0e806100206000396000f3fe608060405234801561001057600080fd5b50600436106101005760003560e01c80639fc46a0011610097578063d3176dcf11610066578063d3176dcf14610277578063dfb7011314610293578063e59a58ee146102c3578063faf439d6146102e157610100565b80639fc46a0014610205578063a62b397614610221578063b65c531b1461023d578063b9c3af331461025b57610100565b806352c824f5116100d357806352c824f51461018d5780635cae7fb5146101ab5780637eecf18d146101c957806380f323a7146101e757610100565b806304cc1fd5146101055780633b2555c71461012157806343f502c71461013f5780634a79d50c1461016f575b600080fd5b61011f600480360381019061011a9190613184565b6102fd565b005b610129610de5565b60405161013691906132f7565b60405180910390f35b61015960048036038101906101549190613345565b610e73565b604051610166919061338d565b60405180910390f35b610177610e93565b6040516101849190613427565b60405180910390f35b610195610f21565b6040516101a29190613458565b60405180910390f35b6101b3610f27565b6040516101c091906134c8565b60405180910390f35b6101d1610fb5565b6040516101de9190613458565b60405180910390f35b6101ef610fbb565b6040516101fc9190613458565b60405180910390f35b61021f600480360381019061021a919061358b565b610fc1565b005b61023b60048036038101906102369190613345565b611141565b005b61024561164e565b6040516102529190613458565b60405180910390f35b610275600480360381019061027091906136b0565b61165b565b005b610291600480360381019061028c91906136b0565b611ba1565b005b6102ad60048036038101906102a891906136fd565b6120d1565b6040516102ba91906132f7565b60405180910390f35b6102cb612172565b6040516102d89190613458565b60405180910390f35b6102fb60048036038101906102f69190613345565b612178565b005b73a5b9d8a0b0fa04ba71bdd68069661ed5c084888473ffffffffffffffffffffffffffffffffffffffff163373ffffffffffffffffffffffffffffffffffffffff161461037f576040517f08c379a00000000000000000000000000000000000000000000000000000000081526004016103769061379c565b60405180910390fd5b6000828460405160200161039391906137dd565b6040516020818303038152906040526040516020016103b3929190613834565b604051602081830303815290604052905060006009826040516103d69190613858565b90815260200160405180910390206040518060600160405290816000820160009054906101000a900473ffffffffffffffffffffffffffffffffffffffff1673ffffffffffffffffffffffffffffffffffffffff1673ffffffffffffffffffffffffffffffffffffffff168152602001600182015481526020016002820160009054906101000a900473ffffffffffffffffffffffffffffffffffffffff1673ffffffffffffffffffffffffffffffffffffffff1673ffffffffffffffffffffffffffffffffffffffff16815250509050600073ffffffffffffffffffffffffffffffffffffffff16816000015173ffffffffffffffffffffffffffffffffffffffff161461080e578281602001511461052e577fb331d5724587186565a5b8da8ed1d05287a6ea5cc0da6ab4cc00682593de43f181600001518460405161051f92919061388d565b60405180910390a15050610ddf565b6000830361065157600060086000836000015173ffffffffffffffffffffffffffffffffffffffff1673ffffffffffffffffffffffffffffffffffffffff16815260200190815260200160002060006101000a81548160ff0219169083151502179055506105a76105a2826000015161266f565b612716565b6000600654111561064c5773b4fbf271143f4fbf7b91a5ded31805e42b2208d673ffffffffffffffffffffffffffffffffffffffff1663a9059cbb82604001516006546040518363ffffffff1660e01b81526004016106079291906138b6565b6020604051808303816000875af1158015610626573d6000803e3d6000fd5b505050506040513d601f19601f8201168201806040525081019061064a919061390b565b505b6107ca565b670de0b6b3a764000083036107c957600160086000836000015173ffffffffffffffffffffffffffffffffffffffff1673ffffffffffffffffffffffffffffffffffffffff16815260200190815260200160002060006101000a81548160ff021916908315150217905550600781600001519080600181540180825580915050600190039060005260206000200160009091909190916101000a81548173ffffffffffffffffffffffffffffffffffffffff021916908373ffffffffffffffffffffffffffffffffffffffff160217905550600060055411156107c85773b4fbf271143f4fbf7b91a5ded31805e42b2208d673ffffffffffffffffffffffffffffffffffffffff1663a9059cbb82604001516005546040518363ffffffff1660e01b81526004016107839291906138b6565b6020604051808303816000875af11580156107a2573d6000803e3d6000fd5b505050506040513d601f19601f820116820180604052508101906107c6919061390b565b505b5b5b7fb331d5724587186565a5b8da8ed1d05287a6ea5cc0da6ab4cc00682593de43f18160000151846040516107ff92919061388d565b60405180910390a15050610ddf565b6000600a836040516108209190613858565b908152602001604051809103902060405180606001604052908160008201548152602001600182015481526020016002820160009054906101000a900473ffffffffffffffffffffffffffffffffffffffff1673ffffffffffffffffffffffffffffffffffffffff1673ffffffffffffffffffffffffffffffffffffffff168152505090506000816000015114610d9e5783816020015114610901577f1e2c3aa833dd958ff387dda9b5192fd2a43705a6998c9b88c92a22ef3083f7538160000151856040516108f1929190613938565b60405180910390a1505050610ddf565b60008403610b1f5760005b6001600b600084600001518152602001908152602001600020805490506109339190613990565b8111610a0e576000600b6000846000015181526020019081526020016000208281548110610964576109636139c4565b5b9060005260206000200160009054906101000a900473ffffffffffffffffffffffffffffffffffffffff1690506000600860008373ffffffffffffffffffffffffffffffffffffffff1673ffffffffffffffffffffffffffffffffffffffff16815260200190815260200160002060006101000a81548160ff0219169083151502179055506109fa6109f58261266f565b612716565b508080610a06906139f3565b91505061090c565b5060006006541115610ad95773b4fbf271143f4fbf7b91a5ded31805e42b2208d673ffffffffffffffffffffffffffffffffffffffff1663a9059cbb8260400151600b60008560000151815260200190815260200160002080549050600654610a779190613a3b565b6040518363ffffffff1660e01b8152600401610a949291906138b6565b6020604051808303816000875af1158015610ab3573d6000803e3d6000fd5b505050506040513d601f19601f82011682018060405250810190610ad7919061390b565b505b7f1e2c3aa833dd958ff387dda9b5192fd2a43705a6998c9b88c92a22ef3083f75381600001516000604051610b0f929190613ac2565b60405180910390a1505050610ddf565b670de0b6b3a76400008403610d9d5760005b6001600b60008460000151815260200190815260200160002080549050610b589190613990565b8111610c85576000600b6000846000015181526020019081526020016000208281548110610b8957610b886139c4565b5b9060005260206000200160009054906101000a900473ffffffffffffffffffffffffffffffffffffffff1690506001600860008373ffffffffffffffffffffffffffffffffffffffff1673ffffffffffffffffffffffffffffffffffffffff16815260200190815260200160002060006101000a81548160ff0219169083151502179055506007819080600181540180825580915050600190039060005260206000200160009091909190916101000a81548173ffffffffffffffffffffffffffffffffffffffff021916908373ffffffffffffffffffffffffffffffffffffffff160217905550508080610c7d906139f3565b915050610b31565b5060006005541115610d505773b4fbf271143f4fbf7b91a5ded31805e42b2208d673ffffffffffffffffffffffffffffffffffffffff1663a9059cbb8260400151600b60008560000151815260200190815260200160002080549050600554610cee9190613a3b565b6040518363ffffffff1660e01b8152600401610d0b9291906138b6565b6020604051808303816000875af1158015610d2a573d6000803e3d6000fd5b505050506040513d601f19601f82011682018060405250810190610d4e919061390b565b505b7f1e2c3aa833dd958ff387dda9b5192fd2a43705a6998c9b88c92a22ef3083f7538160000151670de0b6b3a7640000604051610d8d929190613b26565b60405180910390a1505050610ddf565b5b7f1e2c3aa833dd958ff387dda9b5192fd2a43705a6998c9b88c92a22ef3083f753816000015185604051610dd3929190613938565b60405180910390a15050505b50505050565b60606007805480602002602001604051908101604052809291908181526020018280548015610e6957602002820191906000526020600020905b8160009054906101000a900473ffffffffffffffffffffffffffffffffffffffff1673ffffffffffffffffffffffffffffffffffffffff1681526020019060010190808311610e1f575b5050505050905090565b60086020528060005260406000206000915054906101000a900460ff1681565b60028054610ea090613b7e565b80601f0160208091040260200160405190810160405280929190818152602001828054610ecc90613b7e565b8015610f195780601f10610eee57610100808354040283529160200191610f19565b820191906000526020600020905b815481529060010190602001808311610efc57829003601f168201915b505050505081565b60035481565b60018054610f3490613b7e565b80601f0160208091040260200160405190810160405280929190818152602001828054610f6090613b7e565b8015610fad5780601f10610f8257610100808354040283529160200191610fad565b820191906000526020600020905b815481529060010190602001808311610f9057829003601f168201915b505050505081565b60065481565b60045481565b60008060019054906101000a900460ff16159050808015610ff25750600160008054906101000a900460ff1660ff16105b8061101f57506110013061283a565b15801561101e5750600160008054906101000a900460ff1660ff16145b5b61105e576040517f08c379a000000000000000000000000000000000000000000000000000000000815260040161105590613c21565b60405180910390fd5b60016000806101000a81548160ff021916908360ff160217905550801561109b576001600060016101000a81548160ff0219169083151502179055505b86600190816110aa9190613de3565b5085600290816110ba9190613f10565b50846003819055508360048190555082600581905550816006819055506001600c8190555080156111385760008060016101000a81548160ff0219169083151502179055507f7f26b83ff96e1f2b6a682f133852f6798a09c465da95921460cefb3847402498600160405161112f919061402a565b60405180910390a15b50505050505050565b600860008273ffffffffffffffffffffffffffffffffffffffff1673ffffffffffffffffffffffffffffffffffffffff16815260200190815260200160002060009054906101000a900460ff16156111ce576040517f08c379a00000000000000000000000000000000000000000000000000000000081526004016111c590614091565b60405180910390fd5b600060045411156112b557600073b4fbf271143f4fbf7b91a5ded31805e42b2208d673ffffffffffffffffffffffffffffffffffffffff166323b872dd33306004546040518463ffffffff1660e01b815260040161122e939291906140b1565b6020604051808303816000875af115801561124d573d6000803e3d6000fd5b505050506040513d601f19601f82011682018060405250810190611271919061390b565b9050806112b3576040517f08c379a00000000000000000000000000000000000000000000000000000000081526004016112aa9061415a565b60405180910390fd5b505b60006112c08261285d565b905060006001826040516020016112d791906141b6565b6040516020818303038152906040526040516020016112f7929190614276565b604051602081830303815290604052905060004290506113178183612a20565b6000828260405160200161132b91906137dd565b60405160208183030381529060405260405160200161134b929190613834565b60405160208183030381529060405290508460098260405161136d9190613858565b908152602001604051809103902060000160006101000a81548173ffffffffffffffffffffffffffffffffffffffff021916908373ffffffffffffffffffffffffffffffffffffffff160217905550670de0b6b3a76400006009826040516113d59190613858565b908152602001604051809103902060010181905550336009826040516113fb9190613858565b908152602001604051809103902060020160006101000a81548173ffffffffffffffffffffffffffffffffffffffff021916908373ffffffffffffffffffffffffffffffffffffffff1602179055506000600454111561154357600073b4fbf271143f4fbf7b91a5ded31805e42b2208d673ffffffffffffffffffffffffffffffffffffffff1663095ea7b373a5b9d8a0b0fa04ba71bdd68069661ed5c08488846004546040518363ffffffff1660e01b81526004016114bc9291906138b6565b6020604051808303816000875af11580156114db573d6000803e3d6000fd5b505050506040513d601f19601f820116820180604052508101906114ff919061390b565b905080611541576040517f08c379a00000000000000000000000000000000000000000000000000000000081526004016115389061431b565b60405180910390fd5b505b73a5b9d8a0b0fa04ba71bdd68069661ed5c084888473ffffffffffffffffffffffffffffffffffffffff16637c82288f33307f5945535f4f525f4e4f5f515545525900000000000000000000000000000000008688670de0b6b3a76400006040518763ffffffff1660e01b81526004016115c29695949392919061434a565b6020604051808303816000875af11580156115e1573d6000803e3d6000fd5b505050506040513d601f19601f8201168201806040525081019061160591906143c7565b507f270df33af8cefd034ea1f8b19dc98991c8d4bf0ad94c62ddfe2a566604ae148685670de0b6b3a764000060405161163f9291906143f4565b60405180910390a15050505050565b6000600780549050905090565b60005b60018383905061166e9190613990565b811161173b576008600084848481811061168b5761168a6139c4565b5b90506020020160208101906116a09190613345565b73ffffffffffffffffffffffffffffffffffffffff1673ffffffffffffffffffffffffffffffffffffffff16815260200190815260200160002060009054906101000a900460ff1615611728576040517f08c379a000000000000000000000000000000000000000000000000000000000815260040161171f9061448f565b60405180910390fd5b8080611733906139f3565b91505061165e565b506000600454111561182357600073b4fbf271143f4fbf7b91a5ded31805e42b2208d673ffffffffffffffffffffffffffffffffffffffff166323b872dd33306004546040518463ffffffff1660e01b815260040161179c939291906140b1565b6020604051808303816000875af11580156117bb573d6000803e3d6000fd5b505050506040513d601f19601f820116820180604052508101906117df919061390b565b905080611821576040517f08c379a00000000000000000000000000000000000000000000000000000000081526004016118189061415a565b60405180910390fd5b505b60006001611832600c54612cfd565b60405160200161184392919061456d565b604051602081830303815290604052905060004290506118638183612a20565b6000828260405160200161187791906137dd565b604051602081830303815290604052604051602001611897929190613834565b6040516020818303038152906040529050600c54600a826040516118bb9190613858565b908152602001604051809103902060000181905550670de0b6b3a7640000600a826040516118e99190613858565b90815260200160405180910390206001018190555033600a8260405161190f9190613858565b908152602001604051809103902060020160006101000a81548173ffffffffffffffffffffffffffffffffffffffff021916908373ffffffffffffffffffffffffffffffffffffffff1602179055508484600b6000600c5481526020019081526020016000209190611982929190612ecb565b5060006004541115611a7c57600073b4fbf271143f4fbf7b91a5ded31805e42b2208d673ffffffffffffffffffffffffffffffffffffffff1663095ea7b373a5b9d8a0b0fa04ba71bdd68069661ed5c08488846004546040518363ffffffff1660e01b81526004016119f59291906138b6565b6020604051808303816000875af1158015611a14573d6000803e3d6000fd5b505050506040513d601f19601f82011682018060405250810190611a38919061390b565b905080611a7a576040517f08c379a0000000000000000000000000000000000000000000000000000000008152600401611a719061431b565b60405180910390fd5b505b73a5b9d8a0b0fa04ba71bdd68069661ed5c084888473ffffffffffffffffffffffffffffffffffffffff16637c82288f33307f5945535f4f525f4e4f5f515545525900000000000000000000000000000000008688670de0b6b3a76400006040518763ffffffff1660e01b8152600401611afb9695949392919061434a565b6020604051808303816000875af1158015611b1a573d6000803e3d6000fd5b505050506040513d601f19601f82011682018060405250810190611b3e91906143c7565b507fbad8662f37ff4e65fdd591fb07a48d5cdba203213cd961b117aa78a8eb2ccbb8600c54670de0b6b3a7640000604051611b7a929190613b26565b60405180910390a1600c6000815480929190611b95906139f3565b91905055505050505050565b60005b600183839050611bb49190613990565b8111611c805760086000848484818110611bd157611bd06139c4565b5b9050602002016020810190611be69190613345565b73ffffffffffffffffffffffffffffffffffffffff1673ffffffffffffffffffffffffffffffffffffffff16815260200190815260200160002060009054906101000a900460ff16611c6d576040517f08c379a0000000000000000000000000000000000000000000000000000000008152600401611c649061460e565b60405180910390fd5b8080611c78906139f3565b915050611ba4565b5060006004541115611d6857600073b4fbf271143f4fbf7b91a5ded31805e42b2208d673ffffffffffffffffffffffffffffffffffffffff166323b872dd33306004546040518463ffffffff1660e01b8152600401611ce1939291906140b1565b6020604051808303816000875af1158015611d00573d6000803e3d6000fd5b505050506040513d601f19601f82011682018060405250810190611d24919061390b565b905080611d66576040517f08c379a0000000000000000000000000000000000000000000000000000000008152600401611d5d9061415a565b60405180910390fd5b505b60006001611d77600c54612cfd565b604051602001611d8892919061456d565b60405160208183030381529060405290506000429050611da88183612a20565b60008282604051602001611dbc91906137dd565b604051602081830303815290604052604051602001611ddc929190613834565b6040516020818303038152906040529050600c54600a82604051611e009190613858565b9081526020016040518091039020600001819055506000600a82604051611e279190613858565b90815260200160405180910390206001018190555033600a82604051611e4d9190613858565b908152602001604051809103902060020160006101000a81548173ffffffffffffffffffffffffffffffffffffffff021916908373ffffffffffffffffffffffffffffffffffffffff1602179055508484600b6000600c5481526020019081526020016000209190611ec0929190612ecb565b5060006004541115611fba57600073b4fbf271143f4fbf7b91a5ded31805e42b2208d673ffffffffffffffffffffffffffffffffffffffff1663095ea7b373a5b9d8a0b0fa04ba71bdd68069661ed5c08488846004546040518363ffffffff1660e01b8152600401611f339291906138b6565b6020604051808303816000875af1158015611f52573d6000803e3d6000fd5b505050506040513d601f19601f82011682018060405250810190611f76919061390b565b905080611fb8576040517f08c379a0000000000000000000000000000000000000000000000000000000008152600401611faf9061431b565b60405180910390fd5b505b73a5b9d8a0b0fa04ba71bdd68069661ed5c084888473ffffffffffffffffffffffffffffffffffffffff16637c82288f33307f5945535f4f525f4e4f5f51554552590000000000000000000000000000000000868860006040518763ffffffff1660e01b81526004016120329695949392919061462e565b6020604051808303816000875af1158015612051573d6000803e3d6000fd5b505050506040513d601f19601f8201168201806040525081019061207591906143c7565b507fbad8662f37ff4e65fdd591fb07a48d5cdba203213cd961b117aa78a8eb2ccbb8600c5460006040516120aa929190613ac2565b60405180910390a1600c60008154809291906120c5906139f3565b91905055505050505050565b6060600b600083815260200190815260200160002080548060200260200160405190810160405280929190818152602001828054801561216657602002820191906000526020600020905b8160009054906101000a900473ffffffffffffffffffffffffffffffffffffffff1673ffffffffffffffffffffffffffffffffffffffff168152602001906001019080831161211c575b50505050509050919050565b60055481565b600860008273ffffffffffffffffffffffffffffffffffffffff1673ffffffffffffffffffffffffffffffffffffffff16815260200190815260200160002060009054906101000a900460ff16612204576040517f08c379a00000000000000000000000000000000000000000000000000000000081526004016121fb906146e2565b60405180910390fd5b600060045411156122eb57600073b4fbf271143f4fbf7b91a5ded31805e42b2208d673ffffffffffffffffffffffffffffffffffffffff166323b872dd33306004546040518463ffffffff1660e01b8152600401612264939291906140b1565b6020604051808303816000875af1158015612283573d6000803e3d6000fd5b505050506040513d601f19601f820116820180604052508101906122a7919061390b565b9050806122e9576040517f08c379a00000000000000000000000000000000000000000000000000000000081526004016122e09061415a565b60405180910390fd5b505b60006122f68261285d565b9050600060018260405160200161230d91906141b6565b60405160208183030381529060405260405160200161232d929190614276565b6040516020818303038152906040529050600042905061234d8183612a20565b6000828260405160200161236191906137dd565b604051602081830303815290604052604051602001612381929190613834565b6040516020818303038152906040529050846009826040516123a39190613858565b908152602001604051809103902060000160006101000a81548173ffffffffffffffffffffffffffffffffffffffff021916908373ffffffffffffffffffffffffffffffffffffffff16021790555060006009826040516124049190613858565b9081526020016040518091039020600101819055503360098260405161242a9190613858565b908152602001604051809103902060020160006101000a81548173ffffffffffffffffffffffffffffffffffffffff021916908373ffffffffffffffffffffffffffffffffffffffff1602179055506000600454111561257257600073b4fbf271143f4fbf7b91a5ded31805e42b2208d673ffffffffffffffffffffffffffffffffffffffff1663095ea7b373a5b9d8a0b0fa04ba71bdd68069661ed5c08488846004546040518363ffffffff1660e01b81526004016124eb9291906138b6565b6020604051808303816000875af115801561250a573d6000803e3d6000fd5b505050506040513d601f19601f8201168201806040525081019061252e919061390b565b905080612570576040517f08c379a00000000000000000000000000000000000000000000000000000000081526004016125679061431b565b60405180910390fd5b505b73a5b9d8a0b0fa04ba71bdd68069661ed5c084888473ffffffffffffffffffffffffffffffffffffffff16637c82288f33307f5945535f4f525f4e4f5f51554552590000000000000000000000000000000000868860006040518763ffffffff1660e01b81526004016125ea9695949392919061462e565b6020604051808303816000875af1158015612609573d6000803e3d6000fd5b505050506040513d601f19601f8201168201806040525081019061262d91906143c7565b507f270df33af8cefd034ea1f8b19dc98991c8d4bf0ad94c62ddfe2a566604ae1486856000604051612660929190614702565b60405180910390a15050505050565b60005b60016007805490506126849190613990565b811015612710578173ffffffffffffffffffffffffffffffffffffffff16600782815481106126b6576126b56139c4565b5b9060005260206000200160009054906101000a900473ffffffffffffffffffffffffffffffffffffffff1673ffffffffffffffffffffffffffffffffffffffff160315612711578080612708906139f3565b915050612672565b5b919050565b60008190505b600160078054905061272e9190613990565b8110156127ef576007600182612744919061472b565b81548110612755576127546139c4565b5b9060005260206000200160009054906101000a900473ffffffffffffffffffffffffffffffffffffffff1660078281548110612794576127936139c4565b5b9060005260206000200160006101000a81548173ffffffffffffffffffffffffffffffffffffffff021916908373ffffffffffffffffffffffffffffffffffffffff16021790555080806127e7906139f3565b91505061271c565b5060078054806128025761280161475f565b5b6001900381819060005260206000200160006101000a81549073ffffffffffffffffffffffffffffffffffffffff0219169055905550565b6000808273ffffffffffffffffffffffffffffffffffffffff163b119050919050565b60606000602867ffffffffffffffff81111561287c5761287b613023565b5b6040519080825280601f01601f1916602001820160405280156128ae5781602001600182028036833780820191505090505b50905060005b6014811015612a165760008160136128cc9190613990565b60086128d89190613a3b565b60026128e491906148c1565b8573ffffffffffffffffffffffffffffffffffffffff16612905919061493b565b60f81b9050600060108260f81c61291c919061496c565b60f81b905060008160f81c6010612933919061499d565b8360f81c61294191906149da565b60f81b905061294f82612e85565b8585600261295d9190613a3b565b8151811061296e5761296d6139c4565b5b60200101907effffffffffffffffffffffffffffffffffffffffffffffffffffffffffffff1916908160001a9053506129a681612e85565b8560018660026129b69190613a3b565b6129c0919061472b565b815181106129d1576129d06139c4565b5b60200101907effffffffffffffffffffffffffffffffffffffffffffffffffffffffffffff1916908160001a9053505050508080612a0e906139f3565b9150506128b4565b5080915050919050565b73a5b9d8a0b0fa04ba71bdd68069661ed5c084888473ffffffffffffffffffffffffffffffffffffffff166311df92f17f5945535f4f525f4e4f5f51554552590000000000000000000000000000000000848473b4fbf271143f4fbf7b91a5ded31805e42b2208d660006040518663ffffffff1660e01b8152600401612aaa959493929190614a95565b6020604051808303816000875af1158015612ac9573d6000803e3d6000fd5b505050506040513d601f19601f82011682018060405250810190612aed91906143c7565b5073a5b9d8a0b0fa04ba71bdd68069661ed5c084888473ffffffffffffffffffffffffffffffffffffffff1663f327b0757f5945535f4f525f4e4f5f51554552590000000000000000000000000000000000848460008060016040518763ffffffff1660e01b8152600401612b6796959493929190614aef565b600060405180830381600087803b158015612b8157600080fd5b505af1158015612b95573d6000803e3d6000fd5b5050505073a5b9d8a0b0fa04ba71bdd68069661ed5c084888473ffffffffffffffffffffffffffffffffffffffff1663473c45fe7f5945535f4f525f4e4f5f5155455259000000000000000000000000000000000084846003546040518563ffffffff1660e01b8152600401612c0e9493929190614b57565b600060405180830381600087803b158015612c2857600080fd5b505af1158015612c3c573d6000803e3d6000fd5b5050505073a5b9d8a0b0fa04ba71bdd68069661ed5c084888473ffffffffffffffffffffffffffffffffffffffff1663ad5a755a7f5945535f4f525f4e4f5f5155455259000000000000000000000000000000000084846004546040518563ffffffff1660e01b8152600401612cb59493929190614b57565b6020604051808303816000875af1158015612cd4573d6000803e3d6000fd5b505050506040513d601f19601f82011682018060405250810190612cf891906143c7565b505050565b606060008203612d44576040518060400160405280600181526020017f30000000000000000000000000000000000000000000000000000000000000008152509050612e80565b600082905060005b60008214612d76578080612d5f906139f3565b915050600a82612d6f919061493b565b9150612d4c565b60008167ffffffffffffffff811115612d9257612d91613023565b5b6040519080825280601f01601f191660200182016040528015612dc45781602001600182028036833780820191505090505b50905060008290505b60008614612e7857600181612de29190613990565b90506000600a8088612df4919061493b565b612dfe9190613a3b565b87612e099190613990565b6030612e159190614ba3565b905060008160f81b905080848481518110612e3357612e326139c4565b5b60200101907effffffffffffffffffffffffffffffffffffffffffffffffffffffffffffff1916908160001a905350600a88612e6f919061493b565b97505050612dcd565b819450505050505b919050565b6000600a8260f81c60ff161015612eb05760308260f81c612ea69190614ba3565b60f81b9050612ec6565b60578260f81c612ec09190614ba3565b60f81b90505b919050565b828054828255906000526020600020908101928215612f5a579160200282015b82811115612f5957823573ffffffffffffffffffffffffffffffffffffffff168260006101000a81548173ffffffffffffffffffffffffffffffffffffffff021916908373ffffffffffffffffffffffffffffffffffffffff16021790555091602001919060010190612eeb565b5b509050612f679190612f6b565b5090565b5b80821115612f84576000816000905550600101612f6c565b5090565b6000604051905090565b600080fd5b600080fd5b6000819050919050565b612faf81612f9c565b8114612fba57600080fd5b50565b600081359050612fcc81612fa6565b92915050565b6000819050919050565b612fe581612fd2565b8114612ff057600080fd5b50565b60008135905061300281612fdc565b92915050565b600080fd5b600080fd5b6000601f19601f8301169050919050565b7f4e487b7100000000000000000000000000000000000000000000000000000000600052604160045260246000fd5b61305b82613012565b810181811067ffffffffffffffff8211171561307a57613079613023565b5b80604052505050565b600061308d612f88565b90506130998282613052565b919050565b600067ffffffffffffffff8211156130b9576130b8613023565b5b6130c282613012565b9050602081019050919050565b82818337600083830152505050565b60006130f16130ec8461309e565b613083565b90508281526020810184848401111561310d5761310c61300d565b5b6131188482856130cf565b509392505050565b600082601f83011261313557613134613008565b5b81356131458482602086016130de565b91505092915050565b6000819050919050565b6131618161314e565b811461316c57600080fd5b50565b60008135905061317e81613158565b92915050565b6000806000806080858703121561319e5761319d612f92565b5b60006131ac87828801612fbd565b94505060206131bd87828801612ff3565b935050604085013567ffffffffffffffff8111156131de576131dd612f97565b5b6131ea87828801613120565b92505060606131fb8782880161316f565b91505092959194509250565b600081519050919050565b600082825260208201905092915050565b6000819050602082019050919050565b600073ffffffffffffffffffffffffffffffffffffffff82169050919050565b600061325e82613233565b9050919050565b61326e81613253565b82525050565b60006132808383613265565b60208301905092915050565b6000602082019050919050565b60006132a482613207565b6132ae8185613212565b93506132b983613223565b8060005b838110156132ea5781516132d18882613274565b97506132dc8361328c565b9250506001810190506132bd565b5085935050505092915050565b600060208201905081810360008301526133118184613299565b905092915050565b61332281613253565b811461332d57600080fd5b50565b60008135905061333f81613319565b92915050565b60006020828403121561335b5761335a612f92565b5b600061336984828501613330565b91505092915050565b60008115159050919050565b61338781613372565b82525050565b60006020820190506133a2600083018461337e565b92915050565b600081519050919050565b600082825260208201905092915050565b60005b838110156133e25780820151818401526020810190506133c7565b60008484015250505050565b60006133f9826133a8565b61340381856133b3565b93506134138185602086016133c4565b61341c81613012565b840191505092915050565b6000602082019050818103600083015261344181846133ee565b905092915050565b61345281612fd2565b82525050565b600060208201905061346d6000830184613449565b92915050565b600081519050919050565b600082825260208201905092915050565b600061349a82613473565b6134a4818561347e565b93506134b48185602086016133c4565b6134bd81613012565b840191505092915050565b600060208201905081810360008301526134e2818461348f565b905092915050565b600067ffffffffffffffff82111561350557613504613023565b5b61350e82613012565b9050602081019050919050565b600061352e613529846134ea565b613083565b90508281526020810184848401111561354a5761354961300d565b5b6135558482856130cf565b509392505050565b600082601f83011261357257613571613008565b5b813561358284826020860161351b565b91505092915050565b60008060008060008060c087890312156135a8576135a7612f92565b5b600087013567ffffffffffffffff8111156135c6576135c5612f97565b5b6135d289828a01613120565b965050602087013567ffffffffffffffff8111156135f3576135f2612f97565b5b6135ff89828a0161355d565b955050604061361089828a01612ff3565b945050606061362189828a01612ff3565b935050608061363289828a01612ff3565b92505060a061364389828a01612ff3565b9150509295509295509295565b600080fd5b600080fd5b60008083601f8401126136705761366f613008565b5b8235905067ffffffffffffffff81111561368d5761368c613650565b5b6020830191508360208202830111156136a9576136a8613655565b5b9250929050565b600080602083850312156136c7576136c6612f92565b5b600083013567ffffffffffffffff8111156136e5576136e4612f97565b5b6136f18582860161365a565b92509250509250929050565b60006020828403121561371357613712612f92565b5b600061372184828501612ff3565b91505092915050565b7f6f6e6c79206f7261636c652063616e2063616c6c20746869732066756e63746960008201527f6f6e000000000000000000000000000000000000000000000000000000000000602082015250565b60006137866022836133b3565b91506137918261372a565b604082019050919050565b600060208201905081810360008301526137b581613779565b9050919050565b6000819050919050565b6137d76137d282612fd2565b6137bc565b82525050565b60006137e982846137c6565b60208201915081905092915050565b600081905092915050565b600061380e82613473565b61381881856137f8565b93506138288185602086016133c4565b80840191505092915050565b60006138408285613803565b915061384c8284613803565b91508190509392505050565b60006138648284613803565b915081905092915050565b61387881613253565b82525050565b6138878161314e565b82525050565b60006040820190506138a2600083018561386f565b6138af602083018461387e565b9392505050565b60006040820190506138cb600083018561386f565b6138d86020830184613449565b9392505050565b6138e881613372565b81146138f357600080fd5b50565b600081519050613905816138df565b92915050565b60006020828403121561392157613920612f92565b5b600061392f848285016138f6565b91505092915050565b600060408201905061394d6000830185613449565b61395a602083018461387e565b9392505050565b7f4e487b7100000000000000000000000000000000000000000000000000000000600052601160045260246000fd5b600061399b82612fd2565b91506139a683612fd2565b92508282039050818111156139be576139bd613961565b5b92915050565b7f4e487b7100000000000000000000000000000000000000000000000000000000600052603260045260246000fd5b60006139fe82612fd2565b91507fffffffffffffffffffffffffffffffffffffffffffffffffffffffffffffffff8203613a3057613a2f613961565b5b600182019050919050565b6000613a4682612fd2565b9150613a5183612fd2565b9250828202613a5f81612fd2565b91508282048414831517613a7657613a75613961565b5b5092915050565b6000819050919050565b6000819050919050565b6000613aac613aa7613aa284613a7d565b613a87565b61314e565b9050919050565b613abc81613a91565b82525050565b6000604082019050613ad76000830185613449565b613ae46020830184613ab3565b9392505050565b6000819050919050565b6000613b10613b0b613b0684613aeb565b613a87565b61314e565b9050919050565b613b2081613af5565b82525050565b6000604082019050613b3b6000830185613449565b613b486020830184613b17565b9392505050565b7f4e487b7100000000000000000000000000000000000000000000000000000000600052602260045260246000fd5b60006002820490506001821680613b9657607f821691505b602082108103613ba957613ba8613b4f565b5b50919050565b7f496e697469616c697a61626c653a20636f6e747261637420697320616c72656160008201527f647920696e697469616c697a6564000000000000000000000000000000000000602082015250565b6000613c0b602e836133b3565b9150613c1682613baf565b604082019050919050565b60006020820190508181036000830152613c3a81613bfe565b9050919050565b60008190508160005260206000209050919050565b60006020601f8301049050919050565b600082821b905092915050565b600060088302613ca37fffffffffffffffffffffffffffffffffffffffffffffffffffffffffffffffff82613c66565b613cad8683613c66565b95508019841693508086168417925050509392505050565b6000613ce0613cdb613cd684612fd2565b613a87565b612fd2565b9050919050565b6000819050919050565b613cfa83613cc5565b613d0e613d0682613ce7565b848454613c73565b825550505050565b600090565b613d23613d16565b613d2e818484613cf1565b505050565b5b81811015613d5257613d47600082613d1b565b600181019050613d34565b5050565b601f821115613d9757613d6881613c41565b613d7184613c56565b81016020851015613d80578190505b613d94613d8c85613c56565b830182613d33565b50505b505050565b600082821c905092915050565b6000613dba60001984600802613d9c565b1980831691505092915050565b6000613dd38383613da9565b9150826002028217905092915050565b613dec82613473565b67ffffffffffffffff811115613e0557613e04613023565b5b613e0f8254613b7e565b613e1a828285613d56565b600060209050601f831160018114613e4d5760008415613e3b578287015190505b613e458582613dc7565b865550613ead565b601f198416613e5b86613c41565b60005b82811015613e8357848901518255600182019150602085019450602081019050613e5e565b86831015613ea05784890151613e9c601f891682613da9565b8355505b6001600288020188555050505b505050505050565b60008190508160005260206000209050919050565b601f821115613f0b57613edc81613eb5565b613ee584613c56565b81016020851015613ef4578190505b613f08613f0085613c56565b830182613d33565b50505b505050565b613f19826133a8565b67ffffffffffffffff811115613f3257613f31613023565b5b613f3c8254613b7e565b613f47828285613eca565b600060209050601f831160018114613f7a5760008415613f68578287015190505b613f728582613dc7565b865550613fda565b601f198416613f8886613eb5565b60005b82811015613fb057848901518255600182019150602085019450602081019050613f8b565b86831015613fcd5784890151613fc9601f891682613da9565b8355505b6001600288020188555050505b505050505050565b6000819050919050565b600060ff82169050919050565b600061401461400f61400a84613fe2565b613a87565b613fec565b9050919050565b61402481613ff9565b82525050565b600060208201905061403f600083018461401b565b92915050565b7f6164647265737320697320616c7265616479206f6e206c697374000000000000600082015250565b600061407b601a836133b3565b915061408682614045565b602082019050919050565b600060208201905081810360008301526140aa8161406e565b9050919050565b60006060820190506140c6600083018661386f565b6140d3602083018561386f565b6140e06040830184613449565b949350505050565b7f7472616e73666572206f6620626f6e6420616d6f756e7420746f204c6973742060008201527f636f6e7472616374206661696c65640000000000000000000000000000000000602082015250565b6000614144602f836133b3565b915061414f826140e8565b604082019050919050565b6000602082019050818103600083015261417381614137565b9050919050565b600081905092915050565b6000614190826133a8565b61419a818561417a565b93506141aa8185602086016133c4565b80840191505092915050565b60006141c28284614185565b915081905092915050565b600081546141da81613b7e565b6141e481866137f8565b945060018216600081146141ff576001811461421457614247565b60ff1983168652811515820286019350614247565b61421d85613c41565b60005b8381101561423f57815481890152600182019150602081019050614220565b838801955050505b50505092915050565b7f2e204164647265737320746f2051756572793a20307800000000000000000000815250565b600061428282856141cd565b915061428d82614250565b60168201915061429d8284613803565b91508190509392505050565b7f617070726f76616c206f6620626f6e6420616d6f756e742066726f6d204c697360008201527f7420636f6e747261637420746f204f7261636c65206661696c65640000000000602082015250565b6000614305603b836133b3565b9150614310826142a9565b604082019050919050565b60006020820190508181036000830152614334816142f8565b9050919050565b61434481612f9c565b82525050565b600060c08201905061435f600083018961386f565b61436c602083018861386f565b614379604083018761433b565b6143866060830186613449565b8181036080830152614398818561348f565b90506143a760a0830184613b17565b979650505050505050565b6000815190506143c181612fdc565b92915050565b6000602082840312156143dd576143dc612f92565b5b60006143eb848285016143b2565b91505092915050565b6000604082019050614409600083018561386f565b6144166020830184613b17565b9392505050565b7f6174206c656173742031206164647265737320697320616c7265616479206f6e60008201527f206c697374000000000000000000000000000000000000000000000000000000602082015250565b60006144796025836133b3565b91506144848261441d565b604082019050919050565b600060208201905081810360008301526144a88161446c565b9050919050565b7f2e2041646472657373657320746f2071756572792063616e20626520666f756e60008201527f64206f6e2072657175657374657220616464726573732062792063616c6c696e60208201527f672067657450656e64696e67416464726573736573417272617920776974682060408201527f75696e7420617267756d656e74206f6620000000000000000000000000000000606082015250565b60006145576071836137f8565b9150614562826144af565b607182019050919050565b600061457982856141cd565b91506145848261454a565b91506145908284613803565b91508190509392505050565b7f6174206c6561737420312061646472657373206973206e6f74206f6e206c697360008201527f7400000000000000000000000000000000000000000000000000000000000000602082015250565b60006145f86021836133b3565b91506146038261459c565b604082019050919050565b60006020820190508181036000830152614627816145eb565b9050919050565b600060c082019050614643600083018961386f565b614650602083018861386f565b61465d604083018761433b565b61466a6060830186613449565b818103608083015261467c818561348f565b905061468b60a0830184613ab3565b979650505050505050565b7f61646472657373206973206e6f74206f6e206c69737400000000000000000000600082015250565b60006146cc6016836133b3565b91506146d782614696565b602082019050919050565b600060208201905081810360008301526146fb816146bf565b9050919050565b6000604082019050614717600083018561386f565b6147246020830184613ab3565b9392505050565b600061473682612fd2565b915061474183612fd2565b925082820190508082111561475957614758613961565b5b92915050565b7f4e487b7100000000000000000000000000000000000000000000000000000000600052603160045260246000fd5b60008160011c9050919050565b6000808291508390505b60018511156147e5578086048111156147c1576147c0613961565b5b60018516156147d05780820291505b80810290506147de8561478e565b94506147a5565b94509492505050565b6000826147fe57600190506148ba565b8161480c57600090506148ba565b8160018114614822576002811461482c5761485b565b60019150506148ba565b60ff84111561483e5761483d613961565b5b8360020a91508482111561485557614854613961565b5b506148ba565b5060208310610133831016604e8410600b84101617156148905782820a90508381111561488b5761488a613961565b5b6148ba565b61489d848484600161479b565b925090508184048111156148b4576148b3613961565b5b81810290505b9392505050565b60006148cc82612fd2565b91506148d783612fd2565b92506149047fffffffffffffffffffffffffffffffffffffffffffffffffffffffffffffffff84846147ee565b905092915050565b7f4e487b7100000000000000000000000000000000000000000000000000000000600052601260045260246000fd5b600061494682612fd2565b915061495183612fd2565b9250826149615761496061490c565b5b828204905092915050565b600061497782613fec565b915061498283613fec565b9250826149925761499161490c565b5b828204905092915050565b60006149a882613fec565b91506149b383613fec565b92508282026149c181613fec565b91508082146149d3576149d2613961565b5b5092915050565b60006149e582613fec565b91506149f083613fec565b9250828203905060ff811115614a0957614a08613961565b5b92915050565b6000614a2a614a25614a2084613233565b613a87565b613233565b9050919050565b6000614a3c82614a0f565b9050919050565b6000614a4e82614a31565b9050919050565b614a5e81614a43565b82525050565b6000614a7f614a7a614a7584613a7d565b613a87565b612fd2565b9050919050565b614a8f81614a64565b82525050565b600060a082019050614aaa600083018861433b565b614ab76020830187613449565b8181036040830152614ac9818661348f565b9050614ad86060830185614a55565b614ae56080830184614a86565b9695505050505050565b600060c082019050614b04600083018961433b565b614b116020830188613449565b8181036040830152614b23818761348f565b9050614b32606083018661337e565b614b3f608083018561337e565b614b4c60a083018461337e565b979650505050505050565b6000608082019050614b6c600083018761433b565b614b796020830186613449565b8181036040830152614b8b818561348f565b9050614b9a6060830184613449565b95945050505050565b6000614bae82613fec565b9150614bb983613fec565b9250828201905060ff811115614bd257614bd1613961565b5b9291505056fea2646970667358221220c39f11b5773574163a94b91642a9bc77c124183f7d8c88f4e0a262396ec3239b64736f6c63430008110033",
  "linkReferences": {},
  "deployedLinkReferences": {}
}