{
  "_format": "hh-sol-artifact-1",
  "contractName": "DecentraList",
  "sourceName": "contracts/DecentraList.sol",
  "abi": [
    {
      "anonymous": false,
      "inputs": [
        {
          "indexed": false,
          "internalType": "uint256",
          "name": "bondAmount",
          "type": "uint256"
        }
      ],
      "name": "BondSet",
      "type": "event"
    },
    {
      "anonymous": false,
      "inputs": [
        {
          "indexed": false,
          "internalType": "uint8",
          "name": "version",
          "type": "uint8"
        }
      ],
      "name": "Initialized",
      "type": "event"
    },
    {
      "anonymous": false,
      "inputs": [
        {
          "indexed": false,
          "internalType": "uint64",
          "name": "liveness",
          "type": "uint64"
        }
      ],
      "name": "LivenessSet",
      "type": "event"
    },
    {
      "anonymous": false,
      "inputs": [
        {
          "indexed": true,
          "internalType": "address",
          "name": "previousOwner",
          "type": "address"
        },
        {
          "indexed": true,
          "internalType": "address",
          "name": "newOwner",
          "type": "address"
        }
      ],
      "name": "OwnershipTransferred",
      "type": "event"
    },
    {
      "anonymous": false,
      "inputs": [
        {
          "indexed": true,
          "internalType": "uint256",
          "name": "revisionId",
          "type": "uint256"
        }
      ],
      "name": "RevisionApproved",
      "type": "event"
    },
    {
      "anonymous": false,
      "inputs": [
        {
          "indexed": true,
          "internalType": "uint256",
          "name": "revisionId",
          "type": "uint256"
        }
      ],
      "name": "RevisionExecuted",
      "type": "event"
    },
    {
      "anonymous": false,
      "inputs": [
        {
          "indexed": true,
          "internalType": "uint256",
          "name": "revisionId",
          "type": "uint256"
        },
        {
          "indexed": false,
          "internalType": "int256",
          "name": "proposedPrice",
          "type": "int256"
        },
        {
          "indexed": false,
          "internalType": "address[]",
          "name": "pendingAddresses",
          "type": "address[]"
        }
      ],
      "name": "RevisionProposed",
      "type": "event"
    },
    {
      "anonymous": false,
      "inputs": [
        {
          "indexed": true,
          "internalType": "uint256",
          "name": "revisionId",
          "type": "uint256"
        }
      ],
      "name": "RevisionRejected",
      "type": "event"
    },
    {
      "anonymous": false,
      "inputs": [
        {
          "indexed": false,
          "internalType": "uint256",
          "name": "addReward",
          "type": "uint256"
        },
        {
          "indexed": false,
          "internalType": "uint256",
          "name": "removeReward",
          "type": "uint256"
        }
      ],
      "name": "RewardsSet",
      "type": "event"
    },
    {
      "inputs": [],
      "name": "addReward",
      "outputs": [
        {
          "internalType": "uint256",
          "name": "",
          "type": "uint256"
        }
      ],
      "stateMutability": "view",
      "type": "function"
    },
    {
      "inputs": [],
      "name": "bondAmount",
      "outputs": [
        {
          "internalType": "uint256",
          "name": "",
          "type": "uint256"
        }
      ],
      "stateMutability": "view",
      "type": "function"
    },
    {
      "inputs": [
        {
          "internalType": "uint256",
          "name": "_revisionId",
          "type": "uint256"
        },
        {
          "internalType": "address[]",
          "name": "_addresses",
          "type": "address[]"
        }
      ],
      "name": "executeRevision",
      "outputs": [],
      "stateMutability": "nonpayable",
      "type": "function"
    },
    {
      "inputs": [],
      "name": "finder",
      "outputs": [
        {
          "internalType": "contract FinderInterface",
          "name": "",
          "type": "address"
        }
      ],
      "stateMutability": "view",
      "type": "function"
    },
    {
      "inputs": [],
      "name": "fixedAncillaryData",
      "outputs": [
        {
          "internalType": "bytes",
          "name": "",
          "type": "bytes"
        }
      ],
      "stateMutability": "view",
      "type": "function"
    },
    {
      "inputs": [
        {
          "internalType": "address",
          "name": "_finder",
          "type": "address"
        },
        {
          "internalType": "bytes",
          "name": "_listCriteria",
          "type": "bytes"
        },
        {
          "internalType": "string",
          "name": "_title",
          "type": "string"
        },
        {
          "internalType": "address",
          "name": "_token",
          "type": "address"
        },
        {
          "internalType": "uint256",
          "name": "_bondAmount",
          "type": "uint256"
        },
        {
          "internalType": "uint256",
          "name": "_addReward",
          "type": "uint256"
        },
        {
          "internalType": "uint256",
          "name": "_removeReward",
          "type": "uint256"
        },
        {
          "internalType": "uint64",
          "name": "_liveness",
          "type": "uint64"
        },
        {
          "internalType": "address",
          "name": "_owner",
          "type": "address"
        }
      ],
      "name": "initialize",
      "outputs": [],
      "stateMutability": "nonpayable",
      "type": "function"
    },
    {
      "inputs": [],
      "name": "liveness",
      "outputs": [
        {
          "internalType": "uint64",
          "name": "",
          "type": "uint64"
        }
      ],
      "stateMutability": "view",
      "type": "function"
    },
    {
      "inputs": [
        {
          "internalType": "address",
          "name": "",
          "type": "address"
        }
      ],
      "name": "onList",
      "outputs": [
        {
          "internalType": "bool",
          "name": "",
          "type": "bool"
        }
      ],
      "stateMutability": "view",
      "type": "function"
    },
    {
      "inputs": [],
      "name": "oracle",
      "outputs": [
        {
          "internalType": "contract OptimisticOracleV2Interface",
          "name": "",
          "type": "address"
        }
      ],
      "stateMutability": "view",
      "type": "function"
    },
    {
      "inputs": [],
      "name": "owner",
      "outputs": [
        {
          "internalType": "address",
          "name": "",
          "type": "address"
        }
      ],
      "stateMutability": "view",
      "type": "function"
    },
    {
      "inputs": [
        {
          "internalType": "bytes32",
          "name": "",
          "type": "bytes32"
        },
        {
          "internalType": "uint256",
          "name": "timestamp",
          "type": "uint256"
        },
        {
          "internalType": "bytes",
          "name": "ancillaryData",
          "type": "bytes"
        },
        {
          "internalType": "int256",
          "name": "price",
          "type": "int256"
        }
      ],
      "name": "priceSettled",
      "outputs": [],
      "stateMutability": "nonpayable",
      "type": "function"
    },
    {
      "inputs": [
        {
          "internalType": "int256",
          "name": "_price",
          "type": "int256"
        },
        {
          "internalType": "address[]",
          "name": "_addresses",
          "type": "address[]"
        }
      ],
      "name": "proposeRevision",
      "outputs": [],
      "stateMutability": "nonpayable",
      "type": "function"
    },
    {
      "inputs": [],
      "name": "removeReward",
      "outputs": [
        {
          "internalType": "uint256",
          "name": "",
          "type": "uint256"
        }
      ],
      "stateMutability": "view",
      "type": "function"
    },
    {
      "inputs": [],
      "name": "renounceOwnership",
      "outputs": [],
      "stateMutability": "nonpayable",
      "type": "function"
    },
    {
      "inputs": [
        {
          "internalType": "uint256",
          "name": "",
          "type": "uint256"
        }
      ],
      "name": "revisions",
      "outputs": [
        {
          "internalType": "address",
          "name": "proposer",
          "type": "address"
        },
        {
          "internalType": "bytes32",
          "name": "addressesHash",
          "type": "bytes32"
        },
        {
          "internalType": "int256",
          "name": "proposedPrice",
          "type": "int256"
        },
        {
          "internalType": "enum DecentraList.Status",
          "name": "status",
          "type": "uint8"
        }
      ],
      "stateMutability": "view",
      "type": "function"
    },
    {
      "inputs": [
        {
          "internalType": "uint256",
          "name": "_bondAmount",
          "type": "uint256"
        }
      ],
      "name": "setBond",
      "outputs": [],
      "stateMutability": "nonpayable",
      "type": "function"
    },
    {
      "inputs": [
        {
          "internalType": "uint64",
          "name": "_liveness",
          "type": "uint64"
        }
      ],
      "name": "setLiveness",
      "outputs": [],
      "stateMutability": "nonpayable",
      "type": "function"
    },
    {
      "inputs": [
        {
          "internalType": "uint256",
          "name": "_addReward",
          "type": "uint256"
        },
        {
          "internalType": "uint256",
          "name": "_removeReward",
          "type": "uint256"
        }
      ],
      "name": "setRewards",
      "outputs": [],
      "stateMutability": "nonpayable",
      "type": "function"
    },
    {
      "inputs": [],
      "name": "syncOracle",
      "outputs": [],
      "stateMutability": "nonpayable",
      "type": "function"
    },
    {
      "inputs": [],
      "name": "title",
      "outputs": [
        {
          "internalType": "string",
          "name": "",
          "type": "string"
        }
      ],
      "stateMutability": "view",
      "type": "function"
    },
    {
      "inputs": [],
      "name": "token",
      "outputs": [
        {
          "internalType": "contract IERC20",
          "name": "",
          "type": "address"
        }
      ],
      "stateMutability": "view",
      "type": "function"
    },
    {
      "inputs": [
        {
          "internalType": "address",
          "name": "newOwner",
          "type": "address"
        }
      ],
      "name": "transferOwnership",
      "outputs": [],
      "stateMutability": "nonpayable",
      "type": "function"
    },
    {
      "inputs": [
        {
          "internalType": "address",
          "name": "recipient",
          "type": "address"
        },
        {
          "internalType": "uint256",
          "name": "amount",
          "type": "uint256"
        }
      ],
      "name": "withdraw",
      "outputs": [],
      "stateMutability": "nonpayable",
      "type": "function"
    }
  ],
  "bytecode": "0x60806040523480156200001157600080fd5b5062000032620000266200003860201b60201c565b6200004060201b60201c565b62000105565b600033905090565b60008060029054906101000a900473ffffffffffffffffffffffffffffffffffffffff16905081600060026101000a81548173ffffffffffffffffffffffffffffffffffffffff021916908373ffffffffffffffffffffffffffffffffffffffff1602179055508173ffffffffffffffffffffffffffffffffffffffff168173ffffffffffffffffffffffffffffffffffffffff167f8be0079c531659141344cd1fd0a4f28419497f9722a3daafe3b4186f6b6457e060405160405180910390a35050565b613af780620001156000396000f3fe608060405234801561001057600080fd5b506004361061014d5760003560e01c8063715018a6116100c3578063e59a58ee1161007c578063e59a58ee14610345578063ec40ad5114610363578063f2fde38b1461037f578063f3fef3a31461039b578063fc0c546a146103b7578063fee53ab6146103d55761014d565b8063715018a6146102a55780637dc0d1d0146102af5780637eecf18d146102cd57806380f323a7146102eb5780638da5cb5b14610309578063b9a3c84c146103275761014d565b80633c4432f1116101155780633c4432f1146101e35780634a79d50c146101ff5780635cae7fb51461021d578063654e51e71461023b5780636ad0690a146102575780636f626eb3146102755761014d565b806304cc1fd5146101525780630ef486d11461016e57806324844285146101a1578063259bd920146101ab578063338909a7146101c7575b600080fd5b61016c6004803603810190610167919061201b565b6103f1565b005b6101886004803603810190610183919061209e565b610539565b60405161019894939291906121a1565b60405180910390f35b6101a9610596565b005b6101c560048036038101906101c0919061209e565b610694565b005b6101e160048036038101906101dc91906122f3565b6106dd565b005b6101fd60048036038101906101f891906123f5565b610934565b005b61020761099f565b60405161021491906124a1565b60405180910390f35b610225610a2d565b6040516102329190612518565b60405180910390f35b6102556004803603810190610250919061253a565b610abb565b005b61025f610b0e565b60405161026c9190612589565b60405180910390f35b61028f600480360381019061028a91906125a4565b610b28565b60405161029c91906125ec565b60405180910390f35b6102ad610b48565b005b6102b7610b5c565b6040516102c49190612666565b60405180910390f35b6102d5610b82565b6040516102e29190612690565b60405180910390f35b6102f3610b88565b6040516103009190612690565b60405180910390f35b610311610b8e565b60405161031e91906126ab565b60405180910390f35b61032f610bb7565b60405161033c91906126e7565b60405180910390f35b61034d610bdd565b60405161035a9190612690565b60405180910390f35b61037d60048036038101906103789190612762565b610be3565b005b610399600480360381019061039491906125a4565b6113d4565b005b6103b560048036038101906103b091906127c2565b611457565b005b6103bf611504565b6040516103cc9190612823565b60405180910390f35b6103ef60048036038101906103ea919061283e565b61152a565b005b600082846040516020016104069291906128fb565b6040516020818303038152906040528051906020012090506000600b600083815260200190815260200160002054905082600c600083815260200190815260200160002060020154036104c4576002600c600083815260200190815260200160002060030160006101000a81548160ff0219169083600481111561048d5761048c61212a565b5b0217905550807fb3a5b8df91b708fcf61870cb9cc6e5fd1cf9bb4001630dd0a7c32813011f54dc60405160405180910390a2610531565b6003600c600083815260200190815260200160002060030160006101000a81548160ff021916908360048111156104fe576104fd61212a565b5b0217905550807f5113af4f9ef1a78e76a69ce573914e4640cede3085f573d3f0505ee297e34e1960405160405180910390a25b505050505050565b600c6020528060005260406000206000915090508060000160009054906101000a900473ffffffffffffffffffffffffffffffffffffffff16908060010154908060020154908060030160009054906101000a900460ff16905084565b600260009054906101000a900473ffffffffffffffffffffffffffffffffffffffff1673ffffffffffffffffffffffffffffffffffffffff1663aafd5e407f4f7074696d69737469634f7261636c65563200000000000000000000000000006040518263ffffffff1660e01b81526004016106119190612923565b602060405180830381865afa15801561062e573d6000803e3d6000fd5b505050506040513d601f19601f820116820180604052508101906106529190612953565b600160006101000a81548173ffffffffffffffffffffffffffffffffffffffff021916908373ffffffffffffffffffffffffffffffffffffffff160217905550565b61069c611b29565b806005819055507f1b44689fb73c0c9cdf591d534287488fc7959fd3647346821063a3e567ec9a99816040516106d29190612690565b60405180910390a150565b60008060019054906101000a900460ff1615905080801561070e5750600160008054906101000a900460ff1660ff16105b8061073b575061071d30611ba7565b15801561073a5750600160008054906101000a900460ff1660ff16145b5b61077a576040517f08c379a0000000000000000000000000000000000000000000000000000000008152600401610771906129f2565b60405180910390fd5b60016000806101000a81548160ff021916908360ff16021790555080156107b7576001600060016101000a81548160ff0219169083151502179055505b89600260006101000a81548173ffffffffffffffffffffffffffffffffffffffff021916908373ffffffffffffffffffffffffffffffffffffffff160217905550886040516020016108099190612b42565b604051602081830303815290604052600390816108269190612d66565b5087600490816108369190612e93565b5086600660006101000a81548173ffffffffffffffffffffffffffffffffffffffff021916908373ffffffffffffffffffffffffffffffffffffffff16021790555085600581905550846007819055508360088190555082600960006101000a81548167ffffffffffffffff021916908367ffffffffffffffff1602179055506108bf82611bca565b6108c7610596565b6001600a8190555080156109285760008060016101000a81548160ff0219169083151502179055507f7f26b83ff96e1f2b6a682f133852f6798a09c465da95921460cefb3847402498600160405161091f9190612fad565b60405180910390a15b50505050505050505050565b61093c611b29565b80600960006101000a81548167ffffffffffffffff021916908367ffffffffffffffff1602179055507fe5e4fe1ed302905b2067dd5af3ef8c34bc829afc97a52f95dd96d97d1ee4351b816040516109949190612589565b60405180910390a150565b600480546109ac90612b93565b80601f01602080910402602001604051908101604052809291908181526020018280546109d890612b93565b8015610a255780601f106109fa57610100808354040283529160200191610a25565b820191906000526020600020905b815481529060010190602001808311610a0857829003601f168201915b505050505081565b60038054610a3a90612b93565b80601f0160208091040260200160405190810160405280929190818152602001828054610a6690612b93565b8015610ab35780601f10610a8857610100808354040283529160200191610ab3565b820191906000526020600020905b815481529060010190602001808311610a9657829003601f168201915b505050505081565b610ac3611b29565b81600781905550806008819055507f067def216f0ef603ed8175482f6240978b15c9dc7efd8e1ac4bd3a743787a5b68282604051610b02929190612fc8565b60405180910390a15050565b600960009054906101000a900467ffffffffffffffff1681565b600d6020528060005260406000206000915054906101000a900460ff1681565b610b50611b29565b610b5a6000611bca565b565b600160009054906101000a900473ffffffffffffffffffffffffffffffffffffffff1681565b60085481565b60055481565b60008060029054906101000a900473ffffffffffffffffffffffffffffffffffffffff16905090565b600260009054906101000a900473ffffffffffffffffffffffffffffffffffffffff1681565b60075481565b6000831480610bf95750670de0b6b3a764000083145b610c38576040517f08c379a0000000000000000000000000000000000000000000000000000000008152600401610c2f9061303d565b60405180910390fd5b60006003610c47600a54611c8f565b604051602001610c589291906130e0565b6040516020818303038152906040529050600042905060008282604051602001610c839291906128fb565b60405160208183030381529060405280519060200120905060008585604051602001610cb09291906131c1565b604051602081830303815290604052805190602001209050600a54600b60008481526020019081526020016000208190555033600c6000600a54815260200190815260200160002060000160006101000a81548173ffffffffffffffffffffffffffffffffffffffff021916908373ffffffffffffffffffffffffffffffffffffffff16021790555080600c6000600a5481526020019081526020016000206001018190555086600c6000600a54815260200190815260200160002060020181905550600160009054906101000a900473ffffffffffffffffffffffffffffffffffffffff1673ffffffffffffffffffffffffffffffffffffffff166311df92f17f5945535f4f525f4e4f5f515545525900000000000000000000000000000000008587600660009054906101000a900473ffffffffffffffffffffffffffffffffffffffff1660006040518663ffffffff1660e01b8152600401610e19959493929190613215565b6020604051808303816000875af1158015610e38573d6000803e3d6000fd5b505050506040513d601f19601f82011682018060405250810190610e5c9190613284565b50600160009054906101000a900473ffffffffffffffffffffffffffffffffffffffff1673ffffffffffffffffffffffffffffffffffffffff1663f327b0757f5945535f4f525f4e4f5f51554552590000000000000000000000000000000000858760008060016040518763ffffffff1660e01b8152600401610ee4969594939291906132b1565b600060405180830381600087803b158015610efe57600080fd5b505af1158015610f12573d6000803e3d6000fd5b50505050600160009054906101000a900473ffffffffffffffffffffffffffffffffffffffff1673ffffffffffffffffffffffffffffffffffffffff1663473c45fe7f5945535f4f525f4e4f5f515545525900000000000000000000000000000000008587600960009054906101000a900467ffffffffffffffff166040518563ffffffff1660e01b8152600401610fad949392919061334a565b600060405180830381600087803b158015610fc757600080fd5b505af1158015610fdb573d6000803e3d6000fd5b505050506000600160009054906101000a900473ffffffffffffffffffffffffffffffffffffffff1673ffffffffffffffffffffffffffffffffffffffff1663ad5a755a7f5945535f4f525f4e4f5f5155455259000000000000000000000000000000000086886005546040518563ffffffff1660e01b81526004016110649493929190613396565b6020604051808303816000875af1158015611083573d6000803e3d6000fd5b505050506040513d601f19601f820116820180604052508101906110a79190613284565b9050600081111561119a576000600660009054906101000a900473ffffffffffffffffffffffffffffffffffffffff1673ffffffffffffffffffffffffffffffffffffffff166323b872dd3330856040518463ffffffff1660e01b8152600401611113939291906133e2565b6020604051808303816000875af1158015611132573d6000803e3d6000fd5b505050506040513d601f19601f820116820180604052508101906111569190613445565b905080611198576040517f08c379a000000000000000000000000000000000000000000000000000000000815260040161118f906134e4565b60405180910390fd5b505b60008111156112ab576000600660009054906101000a900473ffffffffffffffffffffffffffffffffffffffff1673ffffffffffffffffffffffffffffffffffffffff1663095ea7b3600160009054906101000a900473ffffffffffffffffffffffffffffffffffffffff16846040518363ffffffff1660e01b8152600401611224929190613504565b6020604051808303816000875af1158015611243573d6000803e3d6000fd5b505050506040513d601f19601f820116820180604052508101906112679190613445565b9050806112a9576040517f08c379a00000000000000000000000000000000000000000000000000000000081526004016112a09061359f565b60405180910390fd5b505b600160009054906101000a900473ffffffffffffffffffffffffffffffffffffffff1673ffffffffffffffffffffffffffffffffffffffff16637c82288f33307f5945535f4f525f4e4f5f51554552590000000000000000000000000000000000888a8e6040518763ffffffff1660e01b8152600401611330969594939291906135bf565b6020604051808303816000875af115801561134f573d6000803e3d6000fd5b505050506040513d601f19601f820116820180604052508101906113739190613284565b50600a547f8f95c4957ee34edd4a485a670aa52f5a209c00623e1a6ede185a009a87e605b08989896040516113aa939291906136bc565b60405180910390a2600a60008154809291906113c59061371d565b91905055505050505050505050565b6113dc611b29565b600073ffffffffffffffffffffffffffffffffffffffff168173ffffffffffffffffffffffffffffffffffffffff160361144b576040517f08c379a0000000000000000000000000000000000000000000000000000000008152600401611442906137d7565b60405180910390fd5b61145481611bca565b50565b61145f611b29565b600660009054906101000a900473ffffffffffffffffffffffffffffffffffffffff1673ffffffffffffffffffffffffffffffffffffffff1663a9059cbb83836040518363ffffffff1660e01b81526004016114bc929190613504565b6020604051808303816000875af11580156114db573d6000803e3d6000fd5b505050506040513d601f19601f820116820180604052508101906114ff9190613445565b505050565b600660009054906101000a900473ffffffffffffffffffffffffffffffffffffffff1681565b6002600481111561153e5761153d61212a565b5b600c600085815260200190815260200160002060030160009054906101000a900460ff1660048111156115745761157361212a565b5b146115b4576040517f08c379a00000000000000000000000000000000000000000000000000000000081526004016115ab90613843565b60405180910390fd5b81816040516020016115c79291906131c1565b60405160208183030381529060405280519060200120600c60008581526020019081526020016000206001015414611634576040517f08c379a000000000000000000000000000000000000000000000000000000000815260040161162b906138fb565b60405180910390fd5b6004600c600085815260200190815260200160002060030160006101000a81548160ff0219169083600481111561166e5761166d61212a565b5b02179055506000806008549050670de0b6b3a7640000600c600087815260200190815260200160002060020154036116aa576001915060075490505b600080600090505b6001868690506116c2919061391b565b81116117e657831515600d60008888858181106116e2576116e161394f565b5b90506020020160208101906116f791906125a4565b73ffffffffffffffffffffffffffffffffffffffff1673ffffffffffffffffffffffffffffffffffffffff16815260200190815260200160002060009054906101000a900460ff161515146117d35783600d600088888581811061175e5761175d61394f565b5b905060200201602081019061177391906125a4565b73ffffffffffffffffffffffffffffffffffffffff1673ffffffffffffffffffffffffffffffffffffffff16815260200190815260200160002060006101000a81548160ff02191690831515021790555081806117cf9061371d565b9250505b80806117de9061371d565b9150506116b2565b50600081836117f5919061397e565b90506000811115611af35780600660009054906101000a900473ffffffffffffffffffffffffffffffffffffffff1673ffffffffffffffffffffffffffffffffffffffff166370a08231306040518263ffffffff1660e01b815260040161185c91906126ab565b602060405180830381865afa158015611879573d6000803e3d6000fd5b505050506040513d601f19601f8201168201806040525081019061189d9190613284565b1015611a1a57600660009054906101000a900473ffffffffffffffffffffffffffffffffffffffff1673ffffffffffffffffffffffffffffffffffffffff1663a9059cbb600c60008a815260200190815260200160002060000160009054906101000a900473ffffffffffffffffffffffffffffffffffffffff16600660009054906101000a900473ffffffffffffffffffffffffffffffffffffffff1673ffffffffffffffffffffffffffffffffffffffff166370a08231306040518263ffffffff1660e01b815260040161197391906126ab565b602060405180830381865afa158015611990573d6000803e3d6000fd5b505050506040513d601f19601f820116820180604052508101906119b49190613284565b6040518363ffffffff1660e01b81526004016119d1929190613504565b6020604051808303816000875af11580156119f0573d6000803e3d6000fd5b505050506040513d601f19601f82011682018060405250810190611a149190613445565b50611af2565b600660009054906101000a900473ffffffffffffffffffffffffffffffffffffffff1673ffffffffffffffffffffffffffffffffffffffff1663a9059cbb600c60008a815260200190815260200160002060000160009054906101000a900473ffffffffffffffffffffffffffffffffffffffff16836040518363ffffffff1660e01b8152600401611aad929190613504565b6020604051808303816000875af1158015611acc573d6000803e3d6000fd5b505050506040513d601f19601f82011682018060405250810190611af09190613445565b505b5b867f46005e4d82565f1eb14117244c72394416d24ef1fa87591388c9087399de68c260405160405180910390a250505050505050565b611b31611e17565b73ffffffffffffffffffffffffffffffffffffffff16611b4f610b8e565b73ffffffffffffffffffffffffffffffffffffffff1614611ba5576040517f08c379a0000000000000000000000000000000000000000000000000000000008152600401611b9c90613a0c565b60405180910390fd5b565b6000808273ffffffffffffffffffffffffffffffffffffffff163b119050919050565b60008060029054906101000a900473ffffffffffffffffffffffffffffffffffffffff16905081600060026101000a81548173ffffffffffffffffffffffffffffffffffffffff021916908373ffffffffffffffffffffffffffffffffffffffff1602179055508173ffffffffffffffffffffffffffffffffffffffff168173ffffffffffffffffffffffffffffffffffffffff167f8be0079c531659141344cd1fd0a4f28419497f9722a3daafe3b4186f6b6457e060405160405180910390a35050565b606060008203611cd6576040518060400160405280600181526020017f30000000000000000000000000000000000000000000000000000000000000008152509050611e12565b600082905060005b60008214611d08578080611cf19061371d565b915050600a82611d019190613a5b565b9150611cde565b60008167ffffffffffffffff811115611d2457611d23611eba565b5b6040519080825280601f01601f191660200182016040528015611d565781602001600182028036833780820191505090505b50905060008290505b60008614611e0a57600181611d74919061391b565b90506000600a8088611d869190613a5b565b611d90919061397e565b87611d9b919061391b565b6030611da79190613a8c565b905060008160f81b905080848481518110611dc557611dc461394f565b5b60200101907effffffffffffffffffffffffffffffffffffffffffffffffffffffffffffff1916908160001a905350600a88611e019190613a5b565b97505050611d5f565b819450505050505b919050565b600033905090565b6000604051905090565b600080fd5b600080fd5b6000819050919050565b611e4681611e33565b8114611e5157600080fd5b50565b600081359050611e6381611e3d565b92915050565b6000819050919050565b611e7c81611e69565b8114611e8757600080fd5b50565b600081359050611e9981611e73565b92915050565b600080fd5b600080fd5b6000601f19601f8301169050919050565b7f4e487b7100000000000000000000000000000000000000000000000000000000600052604160045260246000fd5b611ef282611ea9565b810181811067ffffffffffffffff82111715611f1157611f10611eba565b5b80604052505050565b6000611f24611e1f565b9050611f308282611ee9565b919050565b600067ffffffffffffffff821115611f5057611f4f611eba565b5b611f5982611ea9565b9050602081019050919050565b82818337600083830152505050565b6000611f88611f8384611f35565b611f1a565b905082815260208101848484011115611fa457611fa3611ea4565b5b611faf848285611f66565b509392505050565b600082601f830112611fcc57611fcb611e9f565b5b8135611fdc848260208601611f75565b91505092915050565b6000819050919050565b611ff881611fe5565b811461200357600080fd5b50565b60008135905061201581611fef565b92915050565b6000806000806080858703121561203557612034611e29565b5b600061204387828801611e54565b945050602061205487828801611e8a565b935050604085013567ffffffffffffffff81111561207557612074611e2e565b5b61208187828801611fb7565b925050606061209287828801612006565b91505092959194509250565b6000602082840312156120b4576120b3611e29565b5b60006120c284828501611e8a565b91505092915050565b600073ffffffffffffffffffffffffffffffffffffffff82169050919050565b60006120f6826120cb565b9050919050565b612106816120eb565b82525050565b61211581611e33565b82525050565b61212481611fe5565b82525050565b7f4e487b7100000000000000000000000000000000000000000000000000000000600052602160045260246000fd5b6005811061216a5761216961212a565b5b50565b600081905061217b82612159565b919050565b600061218b8261216d565b9050919050565b61219b81612180565b82525050565b60006080820190506121b660008301876120fd565b6121c3602083018661210c565b6121d0604083018561211b565b6121dd6060830184612192565b95945050505050565b6121ef816120eb565b81146121fa57600080fd5b50565b60008135905061220c816121e6565b92915050565b600067ffffffffffffffff82111561222d5761222c611eba565b5b61223682611ea9565b9050602081019050919050565b600061225661225184612212565b611f1a565b90508281526020810184848401111561227257612271611ea4565b5b61227d848285611f66565b509392505050565b600082601f83011261229a57612299611e9f565b5b81356122aa848260208601612243565b91505092915050565b600067ffffffffffffffff82169050919050565b6122d0816122b3565b81146122db57600080fd5b50565b6000813590506122ed816122c7565b92915050565b60008060008060008060008060006101208a8c03121561231657612315611e29565b5b60006123248c828d016121fd565b99505060208a013567ffffffffffffffff81111561234557612344611e2e565b5b6123518c828d01611fb7565b98505060408a013567ffffffffffffffff81111561237257612371611e2e565b5b61237e8c828d01612285565b975050606061238f8c828d016121fd565b96505060806123a08c828d01611e8a565b95505060a06123b18c828d01611e8a565b94505060c06123c28c828d01611e8a565b93505060e06123d38c828d016122de565b9250506101006123e58c828d016121fd565b9150509295985092959850929598565b60006020828403121561240b5761240a611e29565b5b6000612419848285016122de565b91505092915050565b600081519050919050565b600082825260208201905092915050565b60005b8381101561245c578082015181840152602081019050612441565b60008484015250505050565b600061247382612422565b61247d818561242d565b935061248d81856020860161243e565b61249681611ea9565b840191505092915050565b600060208201905081810360008301526124bb8184612468565b905092915050565b600081519050919050565b600082825260208201905092915050565b60006124ea826124c3565b6124f481856124ce565b935061250481856020860161243e565b61250d81611ea9565b840191505092915050565b6000602082019050818103600083015261253281846124df565b905092915050565b6000806040838503121561255157612550611e29565b5b600061255f85828601611e8a565b925050602061257085828601611e8a565b9150509250929050565b612583816122b3565b82525050565b600060208201905061259e600083018461257a565b92915050565b6000602082840312156125ba576125b9611e29565b5b60006125c8848285016121fd565b91505092915050565b60008115159050919050565b6125e6816125d1565b82525050565b600060208201905061260160008301846125dd565b92915050565b6000819050919050565b600061262c612627612622846120cb565b612607565b6120cb565b9050919050565b600061263e82612611565b9050919050565b600061265082612633565b9050919050565b61266081612645565b82525050565b600060208201905061267b6000830184612657565b92915050565b61268a81611e69565b82525050565b60006020820190506126a56000830184612681565b92915050565b60006020820190506126c060008301846120fd565b92915050565b60006126d182612633565b9050919050565b6126e1816126c6565b82525050565b60006020820190506126fc60008301846126d8565b92915050565b600080fd5b600080fd5b60008083601f84011261272257612721611e9f565b5b8235905067ffffffffffffffff81111561273f5761273e612702565b5b60208301915083602082028301111561275b5761275a612707565b5b9250929050565b60008060006040848603121561277b5761277a611e29565b5b600061278986828701612006565b935050602084013567ffffffffffffffff8111156127aa576127a9611e2e565b5b6127b68682870161270c565b92509250509250925092565b600080604083850312156127d9576127d8611e29565b5b60006127e7858286016121fd565b92505060206127f885828601611e8a565b9150509250929050565b600061280d82612633565b9050919050565b61281d81612802565b82525050565b60006020820190506128386000830184612814565b92915050565b60008060006040848603121561285757612856611e29565b5b600061286586828701611e8a565b935050602084013567ffffffffffffffff81111561288657612885611e2e565b5b6128928682870161270c565b92509250509250925092565b600081905092915050565b60006128b4826124c3565b6128be818561289e565b93506128ce81856020860161243e565b80840191505092915050565b6000819050919050565b6128f56128f082611e69565b6128da565b82525050565b600061290782856128a9565b915061291382846128e4565b6020820191508190509392505050565b6000602082019050612938600083018461210c565b92915050565b60008151905061294d816121e6565b92915050565b60006020828403121561296957612968611e29565b5b60006129778482850161293e565b91505092915050565b7f496e697469616c697a61626c653a20636f6e747261637420697320616c72656160008201527f647920696e697469616c697a6564000000000000000000000000000000000000602082015250565b60006129dc602e8361242d565b91506129e782612980565b604082019050919050565b60006020820190508181036000830152612a0b816129cf565b9050919050565b7f2e2041646472657373657320746f2071756572792063616e20626520666f756e60008201527f6420696e207468652070656e64696e6741646472657373657320706172616d6560208201527f746572206f6620746865205265766973696f6e50726f706f736564206576656e60408201527f7420656d6974746564206279207468652072657175657374657227732061646460608201527f7265737320696e207468652073616d65207472616e73616374696f6e2061732060808201527f7468652070726f706f7365642070726963652077697468205265766973696f6e60a08201527f204944203d20000000000000000000000000000000000000000000000000000060c082015250565b6000612b2c60c68361289e565b9150612b3782612a12565b60c682019050919050565b6000612b4e82846128a9565b9150612b5982612b1f565b915081905092915050565b7f4e487b7100000000000000000000000000000000000000000000000000000000600052602260045260246000fd5b60006002820490506001821680612bab57607f821691505b602082108103612bbe57612bbd612b64565b5b50919050565b60008190508160005260206000209050919050565b60006020601f8301049050919050565b600082821b905092915050565b600060088302612c267fffffffffffffffffffffffffffffffffffffffffffffffffffffffffffffffff82612be9565b612c308683612be9565b95508019841693508086168417925050509392505050565b6000612c63612c5e612c5984611e69565b612607565b611e69565b9050919050565b6000819050919050565b612c7d83612c48565b612c91612c8982612c6a565b848454612bf6565b825550505050565b600090565b612ca6612c99565b612cb1818484612c74565b505050565b5b81811015612cd557612cca600082612c9e565b600181019050612cb7565b5050565b601f821115612d1a57612ceb81612bc4565b612cf484612bd9565b81016020851015612d03578190505b612d17612d0f85612bd9565b830182612cb6565b50505b505050565b600082821c905092915050565b6000612d3d60001984600802612d1f565b1980831691505092915050565b6000612d568383612d2c565b9150826002028217905092915050565b612d6f826124c3565b67ffffffffffffffff811115612d8857612d87611eba565b5b612d928254612b93565b612d9d828285612cd9565b600060209050601f831160018114612dd05760008415612dbe578287015190505b612dc88582612d4a565b865550612e30565b601f198416612dde86612bc4565b60005b82811015612e0657848901518255600182019150602085019450602081019050612de1565b86831015612e235784890151612e1f601f891682612d2c565b8355505b6001600288020188555050505b505050505050565b60008190508160005260206000209050919050565b601f821115612e8e57612e5f81612e38565b612e6884612bd9565b81016020851015612e77578190505b612e8b612e8385612bd9565b830182612cb6565b50505b505050565b612e9c82612422565b67ffffffffffffffff811115612eb557612eb4611eba565b5b612ebf8254612b93565b612eca828285612e4d565b600060209050601f831160018114612efd5760008415612eeb578287015190505b612ef58582612d4a565b865550612f5d565b601f198416612f0b86612e38565b60005b82811015612f3357848901518255600182019150602085019450602081019050612f0e565b86831015612f505784890151612f4c601f891682612d2c565b8355505b6001600288020188555050505b505050505050565b6000819050919050565b600060ff82169050919050565b6000612f97612f92612f8d84612f65565b612607565b612f6f565b9050919050565b612fa781612f7c565b82525050565b6000602082019050612fc26000830184612f9e565b92915050565b6000604082019050612fdd6000830185612681565b612fea6020830184612681565b9392505050565b7f696e76616c696420707269636500000000000000000000000000000000000000600082015250565b6000613027600d8361242d565b915061303282612ff1565b602082019050919050565b600060208201905081810360008301526130568161301a565b9050919050565b6000815461306a81612b93565b613074818661289e565b9450600182166000811461308f57600181146130a4576130d7565b60ff19831686528115158202860193506130d7565b6130ad85612bc4565b60005b838110156130cf578154818901526001820191506020810190506130b0565b838801955050505b50505092915050565b60006130ec828561305d565b91506130f882846128a9565b91508190509392505050565b600081905092915050565b6000819050919050565b613122816120eb565b82525050565b60006131348383613119565b60208301905092915050565b600061314f60208401846121fd565b905092915050565b6000602082019050919050565b60006131708385613104565b935061317b8261310f565b8060005b858110156131b4576131918284613140565b61319b8882613128565b97506131a683613157565b92505060018101905061317f565b5085925050509392505050565b60006131ce828486613164565b91508190509392505050565b6000819050919050565b60006131ff6131fa6131f5846131da565b612607565b611e69565b9050919050565b61320f816131e4565b82525050565b600060a08201905061322a600083018861210c565b6132376020830187612681565b818103604083015261324981866124df565b90506132586060830185612814565b6132656080830184613206565b9695505050505050565b60008151905061327e81611e73565b92915050565b60006020828403121561329a57613299611e29565b5b60006132a88482850161326f565b91505092915050565b600060c0820190506132c6600083018961210c565b6132d36020830188612681565b81810360408301526132e581876124df565b90506132f460608301866125dd565b61330160808301856125dd565b61330e60a08301846125dd565b979650505050505050565b600061333461332f61332a846122b3565b612607565b611e69565b9050919050565b61334481613319565b82525050565b600060808201905061335f600083018761210c565b61336c6020830186612681565b818103604083015261337e81856124df565b905061338d606083018461333b565b95945050505050565b60006080820190506133ab600083018761210c565b6133b86020830186612681565b81810360408301526133ca81856124df565b90506133d96060830184612681565b95945050505050565b60006060820190506133f760008301866120fd565b61340460208301856120fd565b6134116040830184612681565b949350505050565b613422816125d1565b811461342d57600080fd5b50565b60008151905061343f81613419565b92915050565b60006020828403121561345b5761345a611e29565b5b600061346984828501613430565b91505092915050565b7f7472616e73666572206f6620626f6e6420616d6f756e7420746f204c6973742060008201527f636f6e7472616374206661696c65640000000000000000000000000000000000602082015250565b60006134ce602f8361242d565b91506134d982613472565b604082019050919050565b600060208201905081810360008301526134fd816134c1565b9050919050565b600060408201905061351960008301856120fd565b6135266020830184612681565b9392505050565b7f617070726f76616c206f6620626f6e6420616d6f756e742066726f6d204c697360008201527f7420636f6e747261637420746f204f7261636c65206661696c65640000000000602082015250565b6000613589603b8361242d565b91506135948261352d565b604082019050919050565b600060208201905081810360008301526135b88161357c565b9050919050565b600060c0820190506135d460008301896120fd565b6135e160208301886120fd565b6135ee604083018761210c565b6135fb6060830186612681565b818103608083015261360d81856124df565b905061361c60a083018461211b565b979650505050505050565b600082825260208201905092915050565b613641816120eb565b82525050565b60006136538383613638565b60208301905092915050565b600061366b8385613627565b93506136768261310f565b8060005b858110156136af5761368c8284613140565b6136968882613647565b97506136a183613157565b92505060018101905061367a565b5085925050509392505050565b60006040820190506136d1600083018661211b565b81810360208301526136e481848661365f565b9050949350505050565b7f4e487b7100000000000000000000000000000000000000000000000000000000600052601160045260246000fd5b600061372882611e69565b91507fffffffffffffffffffffffffffffffffffffffffffffffffffffffffffffffff820361375a576137596136ee565b5b600182019050919050565b7f4f776e61626c653a206e6577206f776e657220697320746865207a65726f206160008201527f6464726573730000000000000000000000000000000000000000000000000000602082015250565b60006137c160268361242d565b91506137cc82613765565b604082019050919050565b600060208201905081810360008301526137f0816137b4565b9050919050565b7f5f7265766973696f6e4964206973206e6f7420617070726f7665640000000000600082015250565b600061382d601b8361242d565b9150613838826137f7565b602082019050919050565b6000602082019050818103600083015261385c81613820565b9050919050565b7f6164647265737365732070726f766964656420646f206e6f74206d617463682060008201527f7468652070726f7669646564205f7265766973696f6e4964277320616464726560208201527f7373657348617368000000000000000000000000000000000000000000000000604082015250565b60006138e560488361242d565b91506138f082613863565b606082019050919050565b60006020820190508181036000830152613914816138d8565b9050919050565b600061392682611e69565b915061393183611e69565b9250828203905081811115613949576139486136ee565b5b92915050565b7f4e487b7100000000000000000000000000000000000000000000000000000000600052603260045260246000fd5b600061398982611e69565b915061399483611e69565b92508282026139a281611e69565b915082820484148315176139b9576139b86136ee565b5b5092915050565b7f4f776e61626c653a2063616c6c6572206973206e6f7420746865206f776e6572600082015250565b60006139f660208361242d565b9150613a01826139c0565b602082019050919050565b60006020820190508181036000830152613a25816139e9565b9050919050565b7f4e487b7100000000000000000000000000000000000000000000000000000000600052601260045260246000fd5b6000613a6682611e69565b9150613a7183611e69565b925082613a8157613a80613a2c565b5b828204905092915050565b6000613a9782612f6f565b9150613aa283612f6f565b9250828201905060ff811115613abb57613aba6136ee565b5b9291505056fea264697066735822122053b33bcec0ae2b2e86021c5ee9305534f030200edf576795a8d5845b5c04840264736f6c63430008110033",
  "linkReferences": {},
  "deployedLinkReferences": {}
}